:020000040800F2
:10000000E80900204501000887210008451B000879
:1000100085210008B50700085F24000800000000E3
:1000200000000000000000000000000005230008A0
:10003000B707000800000000092200080723000895
:100040005F0100085F0100085F0100085F01000810
:100050005F0100085F0100085F0100085F01000800
:100060005F0100085F0100085F0100085F010008F0
:100070005F0100085F0100085F0100085F010008E0
:100080005F0100085F0100085F0100085F010008D0
:100090005F0100085F0100085F0100085F010008C0
:1000A0005F0100085F0100085F0100085F010008B0
:1000B00075230008812300085F0100085F01000824
:1000C0005F0100085F0100085F0100085F01000890
:1000D0005F0100085F0100085F0100085F01000880
:1000E0005F0100085F0100085F0100085F01000870
:1000F0005F0100085F0100085F0100085F01000860
:100100005F0100085F0100088D2300085F010008FF
:100110005F0100085F0100085F0100085F0100083F
:100120005F0100085F0100085F0100085F0100082F
:10013000DFF80CD000F01CFB004800478D240008BD
:10014000E80900200648804706480047FEE7FEE72A
:10015000FEE7FEE7FEE7FEE7FEE7FEE7FEE7FEE777
:100160007123000831010008D2B201E000F8012B30
:10017000491EFBD270470022F6E710B513460A4627
:1001800004461946FFF7F0FF204610BD2DE9FE4F4B
:10019000804681EA0300C00F0C46009021F0004128
:1001A00023F00045B8EB0200A94105D240462146A4
:1001B00090461C460B46024623F00040104347D0B1
:1001C000270DC7F30A00C3F30A510290401A0190A9
:1001D00040286BDAC3F3130040F4801B009892466A
:1001E00020B10023D2EB030A63EB0B0B01985946B5
:1001F000C0F14002504600F0F4F806460D46504665
:100200005946019A00F0FCF810EB08006141002407
:1002100087EA115284EAE7731A4340D0009A62B326
:10022000019A012A4FEA075215DC001B61EB02011B
:100230004FF0004202EA0752CDE90042001C41F5AE
:10024000801132462B4600F033F903B0BDE8F08F41
:1002500040462146F9E7001B61EB0201001C41F515
:10026000801300185B412018A2F5001747EB03012B
:1002700040EAD570B6196D4111E06D084FEA3606B7
:1002800045EAC0754FEA0752001B61EB0201001CF2
:1002900041F5801149084FEA3000001951413246BA
:1002A0002B4603B0BDE8F04F00F0F3B800980122F0
:1002B00040000023D0EB020263EBE073009821467C
:1002C0004FEAE074B8EB000061EB0401E9E783F06A
:1002D00000435BE781F0004158E7002801DBC0F1F3
:1002E0000040002901DBC1F10041814201D201201F
:1002F00070470020704700F0004230F000400AD004
:10030000C10D01F56071C0F3160042EA0151C20847
:1003100040071143704700200146704701F0004339
:1003200030B421F0004150EA010206D00A0DA2F5D6
:100330006072C1F31301002A02DC30BC0020704758
:10034000440F44EAC104C100E01830BC00EBC250C5
:1003500000F068B830B50B46014600202022012489
:1003600009E021FA02F59D4205D303FA02F5491B83
:1003700004FA02F52844151EA2F10102F1DC30BD99
:100380002DE9F05F0546002092469B4688460646CA
:10039000814640241BE0284641464746224600F05D
:1003A000F9F953465A46C01A914110D311461846DE
:1003B000224600F016F82D1A67EB01084F46224638
:1003C0000120002100F00DF817EB00094E41201E1E
:1003D000A4F10104DFDC484631462A464346BDE825
:1003E000F09F202A04DB203A00FA02F10020704737
:1003F0009140C2F1200320FA03F319439040704763
:10040000202A06DBCB17203A41FA02F043EAE073D8
:1004100006E041FA02F3D040C2F1200291400843C5
:10042000194670470029A8BF7047401C490008BF03
:1004300020F00100704710B4B0FA80FC00FA0CF014
:1004400050EA010404BF10BC704749B1CCF120044C
:1004500021FA04F411FA0CF118BF012121430843D9
:10046000A3EB0C01CB1D4FEA00614FEA102042BF05
:10047000002010BC704700EBC35010440029A4BFFB
:1004800010BC7047401C490008BF20F0010010BCA0
:10049000704710B5141E73F1000408DA401C41F1D6
:1004A000000192185B411A4301D120F0010010BDF8
:1004B0002DE9F04D92469B4611B1B1FA81F202E06E
:1004C000B0FA80F220329046FFF78BFF04460F46C9
:1004D00040EA0A0041EA0B0153465A46084313D04A
:1004E000114653EA010019D0C8F14002504600F00D
:1004F00051F905460E46504659464246FFF771FFF0
:10050000084305D0012004E020463946BDE8F08DBF
:100510000020054346EAE0762C4337430A986305FA
:10052000E40AA0EB08000022FD0A44EA47540A301E
:1005300002D500200146E9E7010510196941DDE90E
:10054000084500196941BDE8F04DA2E72DE9FE4FCD
:1005500081EA030404F0004421F0004100944FF0CC
:10056000000B23F0004350EA01045ED052EA03047A
:100570005BD0C3F30A54C1F30A552C44A4F2F334FC
:100580000194A0FB0254C1F3130141F48011C3F3A1
:10059000130343F4801301FB024400FB034E840A5F
:1005A000970A44EA815447EA8357A4FB07680295F7
:1005B0008D0A05FB07854FEA932C04FB0C54270595
:1005C000029D4FEA065847EA1637B5EB08056EEB71
:1005D000070C870E920E47EA811742EA8312A7FBA7
:1005E0000201B6EB0B0164EB00042B0D43EA0C3364
:1005F0005E1844EB1C50DA465146E7FB0201C5F396
:1006000013044FEA0B3343EA14534FEA0432019CBC
:1006100043EA0603A4F10C040294009CCDE900B463
:10062000FFF746FF03B0BDE8F08F00200146F9E771
:100630002DE9F04D81EA030404F0004B21F0004560
:1006400014464FF0000A23F0004150EA050220D082
:1006500054EA01021DD0C5F30A570246C5F313033D
:10066000C1F31300C1F30A5640F4801543F480131C
:10067000A7EB0608101BD64608F2FD3873EB050001
:1006800002D308F1010801E092185B41B8F1000FB4
:1006900003DA00200146BDE8F08D00204FF4801100
:1006A000064684460EE0171B73EB050705D3121BA5
:1006B00063EB050306434CEA010C49084FEA30009E
:1006C00092185B4150EA0107EDD152EA030012D0C3
:1006D00082EA040083EA0501084305D0101BAB4100
:1006E00006D20122002306E000224FF0004302E080
:1006F0006FF0010253101AEB06004CEB085110EB9F
:100700000A0041EB0B01BDE8F04DFFF7C2BEC1F39B
:100710000A52C1F3130140F2FF3341F480119A42AF
:1007200002DA00200146704740F233439A42A2F2B7
:10073000334202DC524200F02DB8FFF752BE0000F7
:1007400030B5041E71F1000404DB4FF00044404258
:1007500064EB0101141E73F1000405DB1C464FF02D
:100760000043524263EB0403994208BF904230BDFC
:10077000064C074D06E0E06840F0010394E80700EE
:1007800098471034AC42F6D3FFF7D6FC1C2F000874
:100790003C2F0008202A04DB203A21FA02F0002135
:1007A000704721FA02F3D040C2F120029140084381
:1007B00019467047FEE77047EFF3108072B6FEE708
:1007C000B0B5044600F0F4F805467B48611C00789B
:1007D00018BF044400F0ECF8401BA042FAD3B0BDAF
:1007E0002DE9FC4F81465F4806234FF0000C4FF087
:1007F00001084FF00F0E4FF0000A81455A4808BF1C
:10080000052348444FEAB022052A4FF0000238BFC2
:100810004FEAB02300930C6834FA02F508BFBDE834
:10082000FC8F08FA02F73C4200F098804D68032DD7
:1008300016D9112D26D0122D28D04F48854213D01D
:100840004E48854210D04E4885420DD04D488542D5
:100850000AD04D48854207D04C48854204D022E05A
:10086000DFE805F002181B1F8C6844B1012C4FF023
:10087000080A14BFC9F81470C9F8107013E04FF0DB
:10088000040A10E0CC6804F1040A0CE0CC6804F11E
:100890000C0A08E0D1F80CA005E0CC6804F1080AC5
:1008A00001E04FF0000A082A6446484628BF203C71
:1008B00028BF043006680EFA04F50AFA04F426EAA2
:1008C00005052C430460C879C00647D52948274E42
:1008D00022F0030503460068B346354440F00100AA
:1008E000186018682A4B00F0010001900CF00C0011
:1008F000019E0EFA00F49E46EE58009B03FA00F0AB
:1009000026EA04041A4B204345F80E004FF00F0E60
:100910004D68DBF8080015F4801F0CBF20EA0704BF
:1009200040EA0704A802CBF80840186854BF20EA40
:10093000070440EA0704A8031C60DBF8040054BF66
:1009400020EA070440EA0704E803CBF80440DBF898
:10095000000054BFB8433843CBF800000CF1040C3E
:10096000013258E7001C014000F8FEBF00040140BE
:100970000C04014018100240000011100000121079
:100980000000211000002210000031100000321081
:1009900008FCFFFFC26802EA0103914341EA0341F8
:1009A00001617047002A08BF090401617047000017
:1009B000E3488068704700BF00000020B0B50446DF
:1009C00058B394F83D0028B9002084F83C00204634
:1009D00000F04CF9242084F83D002068016821F0E3
:1009E00001010160016841F400410160016821F4E6
:1009F0000041016000F0A0FA4C494D4B00224D4DE2
:100A000088424FF0000138BF0121984238BF0122CF
:100A10006368AB4238BF0A460AB10120B0BD4649FF
:100A2000B0FBF1F221684D6825F03F0515434D609C
:100A30000D6A25F03F0C414DAB4213D8013201380D
:100A400042EA0C020A625A004CF6FF73B0FBF2F065
:100A500001306FF31F30042898BF0420CA6922EACE
:100A6000030C3AE04FF49675A0F1010E6A434FF47F
:100A70007A75B2FBF5F24CF6FF75013242EA0C02D0
:100A80000A62CA6922EA050CA26842B1192004254B
:100A90005843BEFBF0F0013065F31F3006E003EB76
:100AA0004300BEFBF0F001306FF31F30000509D0AA
:100AB00052B1192004225843BEFBF0F0013062F31A
:100AC0001F3008E0012008E003EB4300BEFBF0F01C
:100AD00001306FF31F3040F4004040EA0C00C86161
:100AE0000868D4E9072320F0C000104348F2FF3221
:100AF0001843086088689043D4E9032318431043DF
:100B00008860C868D4E9052320F0FF00104318432B
:100B1000C860086840F001000860002020212064BF
:100B200084F83D10206384F83E00B0BD80841E0030
:100B300000093D00A186010040420F00A08601008F
:100B40002DE9FE43994616460F460446FFF730FF4F
:100B5000054694F83D0020280BD142492046012249
:100B60001923009501F093F818B994F83C00012876
:100B700004D10220C0B203B0BDE8F0830DF1280813
:100B8000012298E8030184F83C202268136813F0DE
:100B9000010F02BF136843F001031360136823F4CD
:100BA0000063136021224B4684F83D20402284F8E4
:100BB0003E2000222264618560622B493246608DAE
:100BC000E162394620852046CDE9008500F0D4FF5A
:100BD00008B10120CEE7208D4FF6FF7622E02046B7
:100BE00041462A4601F0F6F820BB616A22680846B1
:100BF00010F8013B13616062238D581E208530423E
:100C0000678DA7F101076785576918BF17F00407BB
:100C100008D0487802311061981E20856162618D8C
:100C2000013961850004DAD1204641462A4601F0A7
:100C300001F840B1206C0428CBD12068016841F450
:100C400000710160C5E72068016841F4007101602E
:100C5000202084F83D00002084F83C0084F83E0009
:100C600088E700BF020010000000FFFF10B586B04B
:100C70000021CDE90411CDE9021114490068884230
:100C800022D13E4C02A9206840F008002060206874
:100C900000F0080001900198122003904FF440707A
:100CA0000290032005900A48FFF79AFD3448094A4C
:100CB000016811430160606840F400106060606882
:100CC00000F400100190019806B010BD00540040DF
:100CD000000C0140020000071948017882681144A5
:100CE0008160704780B50748016841F010010160DC
:100CF000032000F077F80F2000F006F800F022F84B
:100D0000002080BD0020024070B50D4E04464FF417
:100D10007A713078B1FBF0F08C490968B1FBF0F0E2
:100D200000F050FC01250F2C08D838B94FF0FF30E7
:100D300021460022002500F033F87460284670BD7B
:100D40000000002082B00D480222016841F001013C
:100D50000160016801F0010101910199416841F0D0
:100D600080514160406800F0805000900098044835
:100D7000016862F31A61016002B070471810024006
:100D800004000140002808DB00F01F010122400997
:100D900002FA01F1014A42F82010704700E100E038
:100DA00010B5164B1B68C3F3022E0EF1040CAEF106
:100DB00003048EF00703BCF1070F4FF0010C38BF9E
:100DC0000024042B28BF04230CFA03F3013B194031
:100DD0000CFA04F3013BA1401A401143BDE8104056
:100DE00001F042BB05494FF6FF030A681A4060F361
:100DF0000A22034810430860704700BF0CED00E072
:100E00000000FA052DE9F04188460446002800F06C
:100E10008880464F4FF48050395801F00701414512
:100E20000AD2395821F0070141EA080139503858EF
:100E300000F00700404574D1206810F0020F11D077
:100E4000410742BF796841F4E0617960010742BF20
:100E5000796841F4605179607968A26821F0F00105
:100E600011437960C00727D06068012804D1396830
:100E700011F4003F08D154E03968022802D18901F9
:100E800002D44EE089074CD5796821F0030108436C
:100E90007860FFF78DFD064641F288357868616815
:100EA00000F00C00B0EB810F06D0FFF781FD801B36
:100EB000A842F3D9032035E04FF48050395801F0AF
:100EC000070141450AD9395821F0070141EA0801D3
:100ED0003950385800F00700404522D1206810F002
:100EE000040F05D07968E26821F4E061114379606C
:100EF000000706D57868216920F4605040EAC100F7
:100F0000786000F027F87968094AC1F30311515C51
:100F1000C8400E49086007480068FFF7F5FE00204A
:100F200000E00120C0B2BDE8F08100BF0010024027
:100F3000F02E000804000020F748F549044A006834
:100F40000968C1F30221515CC84070472C000020A1
:100F5000002F000810B50D4C0D48226802F00C035C
:100F6000082B18BF10BDC2F383430AA112F4803FBF
:100F7000CB5C02D10C48584310BD216809A25843EC
:100F8000C1F34041515CB0FBF1F010BD04100240D0
:100F900000127A0002030405060708090A0B0C0D6B
:100FA0000E0F10100102000000093D002DE9FE4364
:100FB0000446002800F05C812078D44ED44FC0074E
:100FC000B14650D0386800F00C00042818D03868BA
:100FD00000F00C00082803D1386810F4803F0FD1CE
:100FE0006068A0B1B0F5803F06D03168B0F5A02FA1
:100FF00025D141F480203060306840F4803024E016
:10100000306810F4003F2ED0606860BB30E130687B
:1010100020F480303060306820F480203060FFF7AA
:10102000C7FC0546D9F800004E4610F4003F1AD020
:10103000FFF7BEFC411B03206429F3D919E121F419
:1010400080303060306820F480203060FFF7B0FCE2
:101050000546306810F4003F05D1FFF7A9FC401B9E
:101060006428F6D9E6E0207880072FD5386810F09C
:101070000C0F08D0386800F00C0008280BD1386835
:1010800010F4803F07D1306810F0020F17D02069AC
:10109000012814D0ECE021699E48002900F08A80E4
:1010A00001210160FFF784FC0546306810F0020F53
:1010B00005D1FFF77DFC401B0228F6D9BAE0306865
:1010C000616920F0F80040EAC10030602078000734
:1010D00030D5A06980B18F480121C0F88014FFF796
:1010E00067FC0546386A10F0020F16D1FFF760FC66
:1010F000401B0228F6D99DE086480021C0F88014E4
:10110000FFF756FC0546386A10F0020F12D0FFF7C1
:101110004FFC401B0228F6D98CE07F484FF4FA516F
:101120000068B0FBF1F0029000BF0298411E002859
:101130000291F9D12078400740F18580B86910F01C
:10114000805F0BD1B8694FF0010840F08050B86162
:10115000B86900F080500190019801E04FF000085C
:101160006E4E484659F8060010F4807F14D159F8A5
:10117000060040F4807049F80600FFF719FC0546A8
:10118000484659F8060010F4807F05D1FFF710FC9F
:10119000401B6428F4D94DE0E068F0B1012805D087
:1011A000F969052831D141F00400F861F86940F08F
:1011B000010030E000210160FFF7FAFB05464846D8
:1011C000D9F8000010F0020F3FF480AFFFF7F0FBFA
:1011D000411B03200229F2D94BE0F86920F00100FD
:1011E000F861F86920F00400F861FFF7E1FB0546BB
:1011F00041F28836F86910F0020F1DD0FFF7D8FBD6
:10120000411B0320B142F5D933E021F00100F86120
:10121000F86920F00400F861FFF7CAFB054641F2C7
:101220008836F86910F0020F06D1FFF7C1FB401BAA
:10123000B042F6D903201CE0B8F1000F1EBFB86918
:1012400020F08050B861E669002E5DD0386800F06B
:101250000C00082811D1012E0AD03868216A00F448
:1012600080328A4204D1616A00F4701088424BD007
:101270000120C0B203B0BDE8F083264900208846B3
:101280000866FFF795FB0546022E0DD146464846F7
:10129000D9F8000010F0007F13D0FFF789FB411B45
:1012A00003200229F3D9E4E74846D9F8000010F0FA
:1012B000007F29D0FFF77CFB411B03200229F3D9D3
:1012C000D7E7206AB0F5803F05D13968A26821F4DC
:1012D0000031114339603968626A104321F4741196
:1012E0000843386001203066FFF762FB0446484639
:1012F000D9F8000010F0007F06D1FFF759FB011B61
:1013000003200229F3D9B4E70020B2E7001002401D
:1013100004100240000042422C0000200060FEFF4A
:1013200070B5044630B1606A30B10020206104F12C
:10133000140007E001264CE06068B0F5827F03D01E
:1013400004F11C000021016000264FF0000CA66291
:1013500094F8510038B9204684F8506000F03CF809
:10136000A06A00F4005C022184F8511021680A6828
:1013700022F040020A60D4E90123D4E9030502F413
:10138000827203F4044300F400601A43104305F032
:1013900002021043626902F001021043A26902F4E2
:1013A00000731843E36903F038031843236A03F01A
:1013B0008003184340EA0C000860042000EA124051
:1013C0004860C86920F40060C8610120666584F83F
:1013D0005100304670BD000070B586B00026194C33
:1013E000CDE90466CDE90266006804F52051884223
:1013F00025D1154802AD016841F4805101600168B2
:1014000001F4805101910199016841F004010160EA
:101410002946006800F00400019001980220039022
:10142000A0200290032005902046FFF7D9F9402024
:1014300003962946029020460496FFF7D1F906B09C
:1014400070BD00BF00080140181002402DE9FC41AA
:101450001D4616460F460446FFF7AAFA804694F842
:101460005100012806D101202FB126B194F8500077
:10147000012804D10220C0B202B0BDE8F0810320EF
:10148000012184F8510000206065E68684F8501040
:101490002763A686A063A087C4E91000E087A1683F
:1014A0002068B1F5004F07D1016821F040010160CB
:1014B000016841F4804101600168731EB3FA83F34F
:1014C00011F0400F4FEA531302BF016841F0400191
:1014D00001606168E268B1FA81F1B2F5006F4FEA2C
:1014E000511141EA030122D131B137F8021BC16029
:1014F0002763E08E0138E0866E1C14E02068816866
:1015000011F0020F07D1FFF753FA66B1A0EB080004
:10151000A84208D34EE0216B31F8022BC260216350
:10152000E08E0138E086E08E0028E7D123E039B173
:1015300039780173206B01302063E08E0138E0863A
:101540006E1C15E02068816811F0020F07D1FFF7CB
:101550002FFA6EB1A0EB0800A84209D32AE0216B54
:1015600009780173206B01302063E08E0138E0863A
:10157000E08E0028E6D120462946424600F045FE8E
:1015800008B120206065A06838B90020019020686B
:10159000C1680191806801900198012084F8510090
:1015A000002084F85000606D002818BF012002B0B0
:1015B000BDE8F081002084F85000012084F851003B
:1015C000032058E7411E0020B0EB116F1CBF012023
:1015D0007047044AF023516003490B700721906063
:1015E0001160704710E000E023ED00E070477047A5
:1015F00090F83C300222012B2ED080B580F83D209F
:10160000012280F83C2002685368D2F808C0B2F189
:10161000804F23F0700E0B6843EA0E035360BDE861
:1016200080400ED05C4B9A420BD05C4B9A4208D063
:101630005B4B9A4205D05B4B9A4202D05A4B9A427E
:1016400004D149682CF080031943916000220121E4
:1016500080F83C2080F83D10D0B2704710B50446A9
:1016600030B394F83D0028B9002084F83C002046AF
:1016700000F020F80220211D84F83D00206800F0D1
:1016800089FE012084F8460084F83E0084F83F007B
:1016900084F8400084F8410084F8420084F8430054
:1016A00084F8440084F8450084F83D00002010BD13
:1016B000012010BDF8B500683949884217D0364975
:1016C000884225D0B0F1804F18BF8FBD1B48002243
:1016D000016841F0010101600121006800F0010092
:1016E000039003981C20FFF75BFB1C2020E01348AD
:1016F0000022016841F0080101600021006800F04B
:101700000800019001983220FFF74AFB32200FE0D9
:101710000A480022016841F00201016000210068CE
:1017200000F00200029002981D20FFF739FB1D20F7
:1017300004B0BDE88040FFF725BB00BF1C1002408D
:1017400090F83D1001291CBF01207047022180F84C
:101750003D100068C168B0F1804F41F00101C160E7
:101760000ED00D4988420BD00C49884208D00C4954
:10177000884205D00B49884202D00B49884204D1E7
:10178000816801F00701062903D0016841F00101D9
:1017900001600020704700BF0004004000080040C6
:1017A000000C004000340140002C014010B590F8BE
:1017B0003C2004460220012A70D084F83D0001201C
:1017C0004FF6777384F83C00206882689A43826001
:1017D0000A6812B3102A20D0202A1ED0302A1CD02A
:1017E000402A21D0502A2BD0602A35D0B2F5005F94
:1017F0003ED0B2F5805F4AD0702A51D1D1E90123A1
:10180000C9681A4342EA0121826822F47F421143E7
:101810008160816841F0770138E0816821F07701CB
:10182000114341F0070131E04B68CA68194600F0E6
:10183000F3FD2068816821F0770141F0470125E040
:101840004B68CA68194600F0E7FD2068816821F0FE
:10185000770141F0570119E04B68CA68194600F05A
:10186000ECFD2068816821F0770141F067010DE00F
:10187000D1E90123C9681A4342EA0121826822F4AE
:101880007F4211438160816841F480418160002082
:10189000002184F83C10012184F83D10C0B210BD35
:1018A0000120F5E77047B0B504460068C1680269D9
:1018B00002EA010515F0020F14D06FF00201016178
:1018C00001212177806910F0030F03D02046FFF734
:1018D000E9FF05E0204600F074F8204600F072F8B9
:1018E00000202077680715D520686FF0040101619A
:1018F00002212177806910F4407F03D02046FFF752
:10190000D1FF05E0204600F05CF8204600F05AF8D0
:1019100000202077280715D520686FF008010161A5
:1019200004212177C06910F0030F03D02046FFF790
:10193000B9FF05E0204600F044F8204600F042F8E8
:1019400000202077E80615D520686FF010010161AE
:1019500008212177C06910F4407F03D02046FFF7AB
:10196000A1FF05E0204600F02CF8204600F02AF800
:1019700000202077E80706D020686FF001010161A0
:10198000204600F021F8280606D520686FF0800177
:1019900001612046FFF72AFE680606D520686FF031
:1019A00040010161204600F077F8A80658BFB0BD9D
:1019B00020686FF0200101612046BDE8B040FFF7CC
:1019C00016BE7047704700002949884207D070B59D
:1019D0002849884208D02849884229D070BD3A4811
:1019E0004FF40051FEF7D6BF2548264E016801315D
:1019F00001603068FEF77FFC234C244D22462B46C5
:101A0000FEF7C4FBFEF78AFC3060214E3068FEF71B
:101A100072FC22462B46FEF7B9FBFEF77FFC1D4900
:101A20000446FEF75AFC002818BF2046306070BDFF
:101A3000124800220168013101600021082A08BF14
:101A400070BD50F822300A2B06DB40F8221000EB64
:101A500082035E6801365E60C3690A2B06DB0023E1
:101A600002E040F823100133082BFAD10132E5E7F8
:101A700000010020480100209001002034000020D7
:101A8000D8010020E00100209A9999999999B93FCD
:101A9000DC01002000007A447047000010B50A4CB9
:101AA0004FF4806100222046FEF77CFF0120FEF704
:101AB00087FE20464FF480610122FEF773FF01206C
:101AC000BDE81040FEF77CBE00100140F8B5144D93
:101AD0000446002705F50066F8B2072888BFF8BD60
:101AE00060B24FF40041B0F1FF3F2846CCBF002266
:101AF0000122FEF757FF30464FF400610022FEF747
:101B000051FF0120FEF75CFE30464FF400610122D8
:101B1000FEF748FF0120FEF753FE01376400DBE7C4
:101B20000008014070B50C460546002603E0285C1D
:101B3000FFF7CCFF0136F0B2A042F8D3BDE8704009
:101B4000FFF7ACBFFEE7000002680021536913F401
:101B5000806F0ED09E4B53612022016380F83D20A0
:101B600080F83E1080F83C10016C41F004010164E3
:101B700001210846704700BF2DE9FE430446006876
:101B80000F460A9D0B9E99469046002201682B46FF
:101B900041F48071016020464FF00111009600F081
:101BA00076F848B12068006810F4807F1CBF4FF4BD
:101BB0000070206403200BE0206807F0FE012A4635
:101BC000334601611A49204600F0AAF820B10120ED
:101BD000C0B203B0BDE8F083002032460290206816
:101BE000416902912946806902900298204600F0DE
:101BF000F1F840B1206C0428E9D12068016841F473
:101C000000710160E3E7B9F1010F0AD020684FEAE3
:101C10001821324601612046294600F0DBF80028F1
:101C2000E8D120685FFA88F101610020D0E700BFA9
:101C300002000100F8B515460E4604464F1C206808
:101C4000406910F0040F1FD12046FFF77DFFC8B98F
:101C5000002FF4D0FEF7ACFE16B1401BB042EED917
:101C60002068406910F0040FE9D100202021206392
:101C700084F83D1084F83E0084F83C00206C40F06D
:101C800020002064012000E0002001B0F0BD2DE91B
:101C9000F047DDF820909846164604468FB201F4CE
:101CA0007F0503F1010AB5F5803F4FF0180008BF2A
:101CB0001420216808583840C01BB0FA80F0400951
:101CC000B0421CBF0020BDE8F087BAF1000FEAD097
:101CD000FEF76EFEB8F1000F03D0A0EB09004045FF
:101CE000E1D9B5F5803F4FF0180008BF14202168F6
:101CF00008583840C01BB0FA80F04009B042D2D139
:101D000000202021206384F83D1084F83E0084F8F0
:101D10003C00206C40F0200020640120BDE8F087EA
:101D20002DE9F8439846914604468FB201F47F05A9
:101D3000561C2068B5F5803F06D1014651F8142F96
:101D40003A40BA4206D12AE081693940B94226D0E8
:101D500000F11401096811F4806F22D1002EE8D03F
:101D6000FEF726FEB9F1000F03D0A0EB08004845AE
:101D7000DFD92068B5F5803F0CBF406980693840E5
:101D8000B842D6D000202021206384F83D1084F88A
:101D90003E0084F83C00206C40F0200013E000205E
:101DA00013E0016841F400710160094941610020BC
:101DB0002021206384F83D1084F83E0084F83C0024
:101DC000206C40F004002064012001B0BDE8F083E5
:101DD000FFFBFFFFF8B515460E4604464F1C206872
:101DE000406910F0800F1FD12046FFF7ADFEC8B943
:101DF000002FF4D0FEF7DCFD16B1401BB042EED947
:101E00002068406910F0800FE9D100202021206374
:101E100084F83D1084F83E0084F83C00206C40F0CB
:101E200020002064012000E0002001B0F0BD00008F
:101E3000F8B502468DF80F100A2001210DF10F03AD
:101E4000CDE900310290704878210123FEF778FE39
:101E50008FBD00BF2DE9FC41DFF830800C4F0D4EE7
:101E600000250DF10604082D08BFBDE8FC8118F817
:101E7000050002218DF8060057F82500305C8DF82A
:101E800007002046FFF74EFE0135ECE7082F00085B
:101E900034000020122F000810B51446064A02EB49
:101EA000C000405C00F026FB02E000F045FB01347E
:101EB00020780028F9D110BD0C000020B0B50C4CE2
:101EC0003220A0470B4D3020A8470220A047032016
:101ED000A8470220A0470C20A8470220A0470120C5
:101EE000A8470220A04706202946BDE8B040084781
:101EF000C1070008F52400082DE9F04F85B03148EE
:101F0000314C324F002242F6104A4FF0000801686F
:101F100004F5006641F010010160016801F0100154
:101F200001910199016841F020010160016801F00F
:101F3000200101910199016841F0040101600168EB
:101F400001F0040101910199016841F0080101606B
:101F500042F61041006800F00800019001983046F8
:101F6000B84720464FF400410022B84704F5806589
:101F700038210022A3462846B8474FF0010901AF97
:101F800002243046CDE901A9DFF844A03946CDF856
:101F90000C800494D0474FF40040CDF808903946A7
:101FA00001905846CDE90384D0473820CDF80890F9
:101FB000394601902846CDE90384D04705B0BDE8F5
:101FC000F08F00BF1810024000080140A50900086A
:101FD000E107000880B50C480C490D4A00234FF476
:101FE000804C0362C0E90021C0E90233C0E904C3A8
:101FF000C0E90633FEF7E2FC002814BFBDE88040CC
:1020000080BDFEF7D9BB00BF54000020A0860100B0
:1020100000540040B0B51148114A4FF482710023BA
:102020004FF0020C4FF0010E4FF400743825C0E958
:1020300000210A21C0E90233C0E904CEC0E9064507
:10204000C0E90833C0E90A31FFF76AF9002814BF74
:10205000BDE8B040B0BDFEF7AFBB00BFA800002098
:1020600000300140FEB5C54800214FF0804242F2E9
:1020700010734FF4E15CCDE90411CDE90211C0E920
:102080000023C0E9021C01618161CDE90011FFF765
:10209000E5FA08B1FEF790FB4FF4805002A90290D8
:1020A000B648FFF783FB08B1FEF786FB00206946C0
:1020B000CDE90000B148FFF79BFA08B1FEF77CFBC1
:1020C00006B080BDFEB5B048CE4A002142F2107382
:1020D0004FF4347CCDE90411CDE90211C0E90023AD
:1020E000C0E9021C01618161CDE90011FFF7B6FA78
:1020F00008B1FEF761FB4FF4805002A90290A2489C
:10210000FFF754FB08B1FEF757FB00206946CDE905
:102110000000F648FFF76CFA08B1FEF74DFB06B079
:1021200080BD00BFFEB5F248B84A002142F21073EC
:102130004FF4347CCDE90411CDE90211C0E900234C
:10214000C0E9021C01618161CDE90011FFF786FA47
:1021500008B1FEF731FB4FF4805002A90290E44829
:10216000FFF724FB08B1FEF727FB00206946CDE905
:102170000000DF48FFF73CFA08B1FEF71DFB06B090
:1021800080BD00BFFEE7FEE710B51E4CAE20A047A5
:102190002020A0471020A047B020A047C820A0477B
:1021A0000020A0471020A0474020A0478120A04742
:1021B000FF20A047A120A047A620A047A820A04715
:1021C0003F20A047A420A047D320A0470020A0473D
:1021D000D520A047F020A047D920A0472220A04723
:1021E000DA20A0471220A047DB20A0472020A047EC
:1021F0008D20A0471420A047AF202146BDE8104005
:10220000084700BF6124000870477CB50D4616469C
:1022100000920221012204462B4600F013F840B937
:102220002046802100222B460096002600F00AF866
:1022300020B1606D032640F020006065F0B202B06E
:1022400070BD00002DE9F843DDF820801F461546DB
:102250000E460446FEF7ACFBA8EB000000EB0709B6
:10226000FEF7A6FB8046264801370068C0F3CB3056
:1022700000FB09F000900DE067B1FEF799FBA0EBC1
:102280000800484514D200980099013900280091AF
:1022900008BF8146206880683040801BB0FA80F01B
:1022A0004009A842E8D10020C0B201B0BDE8F083E7
:1022B0002068416821F0E00141606168B1F5827FEA
:1022C0000AD1A168B1F5004F02D0B1F5806F03D1FA
:1022D000016821F040010160A16AB1F5005F07D1FA
:1022E000016821F400510160016841F4005101606E
:1022F000002084F85000012084F851000320D3E727
:102300002C0000207047FEF7E7BCB0B590B0002469
:1023100001A81421CDE90B44CDE90944FDF72BFFB9
:102320004FF48030012102250790069108940A910C
:10233000CDE90D504FF4E0100F9006A8FEF736FEE1
:1023400018B1EFF3108072B6FEE70F200221019062
:102350004FF480600394CDE9040401A80295FEF7D0
:1023600051FD18B1EFF3108072B6FEE710B0B0BDAA
:10237000704700005B48FFF796BA00BF00010020DD
:102380005A48FFF790BA00BF480100205848FFF7AD
:102390008ABA00BF0268B0F1804F0ED0194B984244
:1023A0000BD0194B984208D0184B984205D0184BC7
:1023B000984202D0174B984208D14B6822F45C7CBB
:1023C000CA6823F4407343EA0C031A434B6922F0B2
:1023D00080021A4302608A68C2620A6882620C4AFA
:1023E000904202D00B4A904201D109690163012158
:1023F0004161016911F0010F1EBF016921F0010166
:10240000016170470004004000080040000C0040DB
:1024100000340140002C0140D0F820C0036A23F0B2
:1024200001030362836923F0F00343EA021282612D
:102430002CF00A02114301627047D0F820C0036AF1
:1024400023F010030362836923F4704343EA0232EA
:1024500082612CF0A00242EA011101627047FEE79E
:1024600001460020FFF7E4BC10B5074C00F00F0355
:10247000044AB0F1FF3F2344C8BF83180801187015
:1024800010BD00BF00E400E014ED00E010B51448FA
:1024900001210160FEF726FCFFF737FFFFF72CFD57
:1024A000FFF7B8FDFFF7DEFDFFF794FDFFF73AFEFB
:1024B000FFF708FE0B480C4CA0470C48A0470C48FF
:1024C000A047FFF761FEFFF7F9FC2C484FF40051DD
:1024D0000122FEF767FAFFF7BDFC00F053F8FAE7B8
:1024E00030000020000100204117000848010020B2
:1024F000900100201CB5F821204C01228DF8051018
:1025000000F0F00100018DF806108DF8070020465C
:102510001021FEF747FA0120FEF752F918480DF195
:10252000050103224FF47A73FEF790FF2046102135
:102530000022FEF737FA1CBD1CB5FA210F4C012210
:102540008DF8051000F0F00100018DF806108DF8EF
:10255000070020461021FEF725FA0120FEF730F98A
:1025600007480DF1050103224FF47A73FEF76EFF61
:10257000204610210022FEF715FA1CBD0010014074
:10258000A80000201CB50D480068FDF7B4FECDE999
:1025900000010BA2202100F01FF80C4C0AA2012020
:1025A0000021A0470AA200200221A0470220042106
:1025B000224602B0BDE81040104700BFDC010020F9
:1025C000252E316600000000E78E8B00991E000862
:1025D00074696D65720000000FB41CB502460020DE
:1025E00007AC00290BD0491ECDE90021054B6A46F6
:1025F0002146069800F0DAF8009A002111701CBC00
:102600005DF814FBDB2E000802E008C8121F08C1A9
:10261000002AFAD170477047002001E001C1121F63
:10262000002AFBD1704700002DE9FF5F82B0002136
:10263000DDE90430020DDDF840B0034318D044F664
:102640001050A2F2FF3242431514119801281FD0F6
:10265000A5EB0B00401C5FEA000A4FF000064E4F4E
:10266000DFF83891B046504615D5CAF1000413E0A2
:10267000119801244AA3012801D16FEA0B010298A5
:10268000119AC0E90031C0E9024206B0BDE8F09FEE
:10269000CBF10000DFE704460021404A491842EB35
:1026A0000450CDE9001012E0E00707D032463B4667
:1026B00040464946FDF74AFF8046894632463B463A
:1026C00010461946FDF742FF06460F466410002CDF
:1026D000EAD1DDE90401DDE90023BAF1000F06DAF1
:1026E000FDF734FF42464B46FDF730FF05E0FDF7AE
:1026F0009FFF42464B46FDF79BFF04460E460022D5
:10270000284BFEF71DF803D84FF0FF30014607E0D5
:102710000022254B20463146FDF738FDFDF7F7FF37
:10272000102409E0002C0ADB0A220023FDF728FE12
:10273000039B30321A55641E50EA0102F2D1641C28
:10274000039AC4F111031444119A012A03D00122FF
:1027500008430DD10AE0084304D000204FF0110BCC
:10276000119072E7A3EB0B056D1E0DE05B4504DDD8
:102770004FF0000205F1010504E003DA4FF000021A
:10278000A5F10105002AECD002981199C0E90231A7
:10279000C0E9004579E70000000014400000F03F68
:1027A000300000000000F0430000E03F2DE9FF4F43
:1027B00095B09B468946064600250FE2252877D12D
:1027C00000242746F84A0121059400E0044316F846
:1027D000013F203B01FA03F01042F7D130782A285C
:1027E00011D06FF02F033078A0F13002092A16D8EB
:1027F000059A44F0020402EB820203EB4202104409
:10280000761C0590EFE759F8042B0592002A03DAAD
:10281000504244F40054059044F00204761C307891
:102820002E2816D116F8010F44F004042A280DD0E2
:102830006FF02F023078A0F13003092B09D807EB95
:10284000870302EB4303C718761CF3E759F8047BB0
:10285000761C30786C280FD006DC4C2817D06828FE
:102860000DD06A2814D104E0742810D07A280FD132
:102870000DE044F400140AE044F4801401E044F450
:1028800040147278824202D104F58014761C761CC2
:10289000307866280BD013DC582877D009DC002864
:1028A00075D04528F6D04628F4D047281AD19DE1A6
:1028B00018E0632835D0642879D0652812D195E1D5
:1028C000702873D008DC6728F1D069286FD06E2893
:1028D0000DD06F2806D1B5E073282CD0752875D09F
:1028E000782874D05A46179990476D1C75E1C4F347
:1028F0000250022809D003280DD0D9F8001004286E
:102900000DD00D6009F1040967E1D9F80010EA174C
:10291000C1E90052F6E7D9F800100D80F2E70D701A
:10292000F0E719F8041B8DF8001000208DF8010065
:10293000EA46012003E059F804AB4FF0FF3061078D
:102940004FF0000102D40DE008F101018846B942C0
:102950000FDA8045F8DB1AF808100029F4D108E0F6
:1029600008F1010188468142FADB1AF808100029B3
:10297000F6D105985B46A0EB080721463846179A22
:1029800000F094FA284400EB080507E04DE029E147
:102990000DE01AF8010B5A4617999047B8F1010853
:1029A000F7D25B4621463846179A13E142E00A22E5
:1029B0000092C4F302524FF0000A022A08D059F8DC
:1029C00004CB032A4FEAEC710AD00DE029E02AE09B
:1029D00009F1070121F00702F2E802C1914609E07E
:1029E0000FFA8CFC4FEAEC71042A03D14FFA8CFCED
:1029F0004FEAEC71002907DA0A460021DCF1000CED
:102A000061EB02012D2202E0220504D52B228DF874
:102A10000420012203E0E20701D02022F7E79046DC
:102A200059E00A2102E010220DE010214FF0000AC7
:102A300000910BE010224FF0000A44F00404082734
:102A4000009203E008224FF0000A0092C4F3025201
:102A5000022A05D059F804CB0021032A08D009E046
:102A600009F1070121F00702F2E802C1914605E0F1
:102A70001FFA8CFC042A01D10CF0FF0C4FF0000867
:102A8000220728D5702806D0009B83F0100353EA54
:102A90000A0305D00EE040228DF80420012208E050
:102AA0005CEA010206D030228DF804208DF8050082
:102AB00002229046009B83F0080353EA0A030AD1DE
:102AC0005CEA010201D1620705D530228DF80420AD
:102AD0004FF001087F1E582804D034A003900EA8A0
:102AE00002900DE036A0F9E753466046009AFDF7E4
:102AF00047FC84460398825C0298401E0290027054
:102B00005CEA0100F0D1029806A9081A00F1200A37
:102B1000600702D524F4803400E00127574502DD28
:102B2000A7EB0A0000E0002000EB0A0100900598E6
:102B30004144401A0590E00306D45B462146179AAB
:102B4000059800F0B3F90544002706E001A85A46AD
:102B5000C05D179990476D1C7F1C4745F6DBE0036D
:102B60000CD55B462146179A059800F09FF905445D
:102B700004E030205A46179990476D1C0099481E72
:102B800000900029F5DC08E0029802995A46007886
:102B9000491C0291179990476D1CBAF10001AAF1E6
:102BA000010AF1DC65E1000009280100303132330F
:102BB0003435363738396162636465660000000079
:102BC0003031323334353637383941424344454663
:102BD0000000000000F058F90544761C3078002809
:102BE0007FF4ECAD19B02846BDE8F08F620700D441
:102BF000062709F1070222F0070CFCE80223E14650
:102C000003F000485FEA080C02D00FF2702C0DE0D0
:102C10005FEA045C02D50FF2682C07E05FEAC47C2F
:102C200002D00FF2602C01E0AFF2700C4FF0FF38D1
:102C300023F00043CDF850C065280CD006DC4528B1
:102C400009D046281DD047283DD13DE0662818D040
:102C500067287ED138E00021112F01DB112000E030
:102C6000781CCDE9000106A90EA8FFF7DDFCDDE91F
:102C70000F010E9A03910021009207F1010A0491BD
:102C80004DE04FF000400097CDE9011006A90EA8D5
:102C9000FFF7CAFCDDE90F0203920E9B1199002297
:102CA000DDF80CA00093049211B9791C00EB010A25
:102CB000B7EB0A0004D4C0F1FF3007F1010A049019
:102CC000AAEB0700019044E0012F00DA0127002160
:102CD000112F01DD112000E03846CDE9000106A9E1
:102CE0000EA8FFF7A1FCDDE90F010E9A0391002168
:102CF00004910092BA4621070CD40399514500DA99
:102D00008A46BAF1010F05DD009AAAF10101515C72
:102D1000302908D0B84202DA10F1040F06DA012196
:102D2000CDE9011015E0AAF10101E9E7002805DC71
:102D3000049901440491AAEB000102E0411C5145B1
:102D400000DD8A460499401A401C01904FF0004073
:102D50000290200704D40198504501DBCDF804808F
:102D600000208DF84F0002980DF14F07B0F1004F91
:102D700025D02B200E9002984FF0020800280CDA84
:102D8000404202902D200E9007E00A210298FDF7A4
:102D9000E1FA3031029007F8011DB8F10001A8F105
:102DA0000108F2DC02980028EFD1791E0E98087015
:102DB000307800F0200040F0450007F8020D12A81E
:102DC000C01B00F107081498007800B1012000EB47
:102DD0000A01019801EBE07105984144401A401E38
:102DE0000590E00306D45B462146179A059800F04B
:102DF0005DF805441498007818B15A461799904721
:102E00006D1CE00324D55B462146179A059800F017
:102E10004DF805441CE00498002807DBDDE90301B8
:102E2000884203DD0098405C179901E01799302033
:102E30005A469047049805F10105401C04900198FA
:102E4000401E019004D12E205A46179990476D1CC0
:102E5000BAF10001AAF1010ADDDC05E017F8010B67
:102E60005A46179990476D1CB8F10001A8F1010866
:102E7000F4DC5B462146179A0598ABE62D0000006E
:102E80002B000000200000002DE9F0410446002541
:102E90001E461746880404D405E039462020B04772
:102EA0006D1C641EF9D52846BDE8F0812DE9F0417E
:102EB000044600251E469046C80301D5302700E091
:102EC0002027880404D505E041463846B0476D1CEC
:102ED000641EF9D52846BDE8F0814A68002A06D06C
:102EE0000A68531C0B6010704868401E48607047A9
:102EF00000000000000000000102030406070809AA
:102F000000000000010203040102040810204080B8
:102F100000003F065B4F666D7D077F6F402F000806
:102F2000000000203000000008260008702F000874
:102F300030000020B809000018260008000000003A
:102F4000010000001000000000000000808182836A
:102F500084858687909192939495969788898A8B99
:102F60008C8D8E8F98999A9B9C9D9E9F00127A00C3
:0400000508000131BD
:00000001FF
