:020000040800F2
:10000000E80C0020450100088B1E00089519000827
:10001000891E0008F30700081726000800000000EA
:10002000000000000000000000000000A5240008FF
:10003000F507000800000000AB230008A724000813
:100040005F0100085F0100085F0100085F01000810
:100050005F0100085F0100085F0100085F01000800
:100060005F0100085F0100085F0100085F010008F0
:100070005F0100085F0100085F0100085F010008E0
:100080005F0100085F0100085F0100085F010008D0
:100090005F0100085F0100085F0100085F010008C0
:1000A0005F0100085F0100085F0100085F010008B0
:1000B0000D250008152500085F0100085F010008F4
:1000C0005F0100085F0100085F0100085F01000890
:1000D0005F0100085F0100085F0100085F01000880
:1000E0005F0100085F0100085F0100085F01000870
:1000F0005F0100085F0100085F0100085F01000860
:100100005F0100085F0100081D2500085F0100086D
:100110005F0100085F0100085F0100085F0100083F
:100120005F0100085F0100085F0100085F0100082F
:10013000DFF80CD000F01AFB0048004765260008E5
:10014000E80C00200648804706480047FEE7FEE727
:10015000FEE7FEE7FEE7FEE7FEE7FEE7FEE7FEE777
:100160000925000831010008202A04DB203A21FA81
:1001700002F00021704721FA02F3D040C2F12002C0
:1001800091400843194670472DE9FE4F804681EAA9
:100190000300C00F0C46009021F0004123F0004501
:1001A000B8EB0200A94105D24046214690461C46C4
:1001B0000B46024623F00040104347D0270DC7F3FB
:1001C0000A00C3F30A510290401A019040286BDAEA
:1001D000C3F3130040F4801B0098924620B1002323
:1001E000D2EB030A63EB0B0B01985946C0F14002B6
:1001F000504600F0F4F806460D4650465946019A1E
:1002000000F0FCF810EB08006141002487EA11526D
:1002100084EAE7731A4340D0009A62B3019A012A34
:100220004FEA075215DC001B61EB02014FF0004260
:1002300002EA0752CDE90042001C41F58011324626
:100240002B4600F033F903B0BDE8F08F404621465D
:10025000F9E7001B61EB0201001C41F58013001857
:100260005B412018A2F5001747EB030140EAD57067
:10027000B6196D4111E06D084FEA360645EAC075C2
:100280004FEA0752001B61EB0201001C41F580118F
:1002900049084FEA30000019514132462B4603B05D
:1002A000BDE8F04F00F0F3B80098012240000023B1
:1002B000D0EB020263EBE073009821464FEAE07452
:1002C000B8EB000061EB0401E9E783F000435BE772
:1002D00081F0004158E7002801DBC0F1004000290F
:1002E00001DBC1F10041814201D2012070470020B1
:1002F000704700F0004230F000400AD0C10D01F517
:100300006071C0F3160042EA0151C2084007114370
:10031000704700200146704701F0004330B421F0DF
:10032000004150EA010206D00A0DA2F56072C1F345
:100330001301002A02DC30BC00207047440F44EA5D
:10034000C104C100E01830BC00EBC25000F068B836
:1003500030B50B46014600202022012409E021FA95
:1003600002F59D4205D303FA02F5491B04FA02F592
:100370002844151EA2F10102F1DC30BD2DE9F05F29
:100380000546002092469B46884606468146402404
:100390001BE02846414647462246FFF7E5FE534606
:1003A0005A46C01A914110D311461846224600F011
:1003B00016F82D1A67EB01084F462246012000214E
:1003C00000F00DF817EB00094E41201EA4F10104C6
:1003D000DFDC484631462A464346BDE8F09F202AE6
:1003E00004DB203A00FA02F1002070479140C2F18C
:1003F000200320FA03F3194390407047202A06DBBC
:10040000CB17203A41FA02F043EAE07306E041FAE2
:1004100002F3D040C2F120029140084319467047D0
:100420000029A8BF7047401C490008BF20F0010008
:10043000704710B4B0FA80FC00FA0CF050EA0104E6
:1004400004BF10BC704749B1CCF1200421FA04F478
:1004500011FA0CF118BF012121430843A3EB0C0151
:10046000CB1D4FEA00614FEA102042BF002010BCB4
:10047000704700EBC35010440029A4BF10BC704764
:10048000401C490008BF20F0010010BC704710B5A7
:10049000141E73F1000408DA401C41F100019218A7
:1004A0005B411A4301D120F0010010BD2DE9F04D50
:1004B00092469B4611B1B1FA81F202E0B0FA80F2A5
:1004C00020329046FFF78BFF04460F4640EA0A00B1
:1004D00041EA0B0153465A46084313D0114653EAEA
:1004E000010019D0C8F140025046FFF73DFE054615
:1004F0000E46504659464246FFF771FF084305D065
:10050000012004E020463946BDE8F08D0020054377
:1005100046EAE0762C4337430A986305E40AA0EBE9
:1005200008000022FD0A44EA47540A3002D50020A0
:100530000146E9E7010510196941DDE9084500199F
:100540006941BDE8F04DA2E72DE9FE4F81EA0304C1
:1005500004F0004421F0004100944FF0000B23F020
:10056000004350EA01045ED052EA03045BD0C3F3B7
:100570000A54C1F30A552C44A4F2F3340194A0FBAD
:100580000254C1F3130141F48011C3F3130343F484
:10059000801301FB024400FB034E840A970A44EADD
:1005A000815447EA8357A4FB076802958D0A05FB2F
:1005B00007854FEA932C04FB0C542705029D4FEA54
:1005C000065847EA1637B5EB08056EEB070C870EA1
:1005D000920E47EA811742EA8312A7FB0201B6EBAB
:1005E0000B0164EB00042B0D43EA0C335E1844EB63
:1005F0001C50DA465146E7FB0201C5F313044FEAEB
:100600000B3343EA14534FEA0432019C43EA0603D6
:10061000A4F10C040294009CCDE900B4FFF746FF5E
:1006200003B0BDE8F08F00200146F9E72DE9F04D59
:1006300081EA030404F0004B21F0004514464FF01A
:10064000000A23F0004150EA050220D054EA0102DA
:100650001DD0C5F30A570246C5F31303C1F31300B7
:10066000C1F30A5640F4801543F48013A7EB060843
:10067000101BD64608F2FD3873EB050002D308F1D3
:10068000010801E092185B41B8F1000F03DA002085
:100690000146BDE8F08D00204FF4801106468446E7
:1006A0000EE0171B73EB050705D3121B63EB050365
:1006B00006434CEA010C49084FEA300092185B41AE
:1006C00050EA0107EDD152EA030012D082EA040099
:1006D00083EA0501084305D0101BAB4106D2012275
:1006E000002306E000224FF0004302E06FF0010219
:1006F00053101AEB06004CEB085110EB0A0041EBCB
:100700000B01BDE8F04DFFF7C2BEC1F30A52C1F3C1
:10071000130140F2FF3341F480119A4202DA0020C3
:100720000146704740F233439A42A2F2334202DC60
:100730005242FFF719BDFFF752BE000030B5041E4C
:1007400071F1000404DB4FF00044404264EB01010E
:10075000141E73F1000405DB1C464FF000435242A7
:1007600063EB0403994208BF904230BD1CB50948B1
:100770000090094801900546009C06E0E06840F0C2
:10078000010394E8070098471034AC42F6D3FFF712
:10079000D3FC0000C0380008E038000870B58C18A1
:1007A00010F8015B15F0070301D110F8013B2A1185
:1007B00006D110F8012B03E010F8016B01F8016B72
:1007C0005B1EF9D12B0705D40023521E0DD401F86E
:1007D000013BFAE710F8013BCB1A921C03E013F837
:1007E000015B01F8015B521EF9D5A142D8D300206C
:1007F00070BDFEE77047EFF3108072B6FEE70000B1
:10080000B0B5044600F0F4F805460548611C0078D0
:1008100018BF044400F0ECF8401BA042FAD3B0BD6E
:10082000000000202DE9FC4F81465F4806234FF071
:10083000000C4FF001084FF00F0E4FF0000A8145F9
:100840005A4808BF052348444FEAB022052A38BF5A
:100850004FEAB023009300220C6834FA02F508BF77
:10086000BDE8FC8F08FA02F714EA070500F098804B
:100870004C68032C16D9112C26D0122C32D04E489D
:10088000844213D04D48844210D04D4884420DD04C
:100890004C4884420AD04C48844207D04B4884429A
:1008A00004D022E0DFE804F0021B14188C6844B185
:1008B000012C14BFC9F81470C9F810704FF0080A61
:1008C00013E04FF0040A10E0CC6804F1040A0CE0D5
:1008D000CC6804F1080A08E04FF0000A05E0D1F8FE
:1008E0000CA002E0CC6804F10C0A64464846B5F559
:1008F000807F28BF203C28BF043006680EFA04F72A
:100900000AFA04F4BE4334430460C879C00647D5EC
:10091000D74B274F22F003061868BB463E4440F0F1
:100920000100186018682A4B00F0010001900CF0DB
:100930000C00019F0EFA00F49E46F758009B03FA44
:1009400000F027EA04041B4B204346F80E004FF04A
:100950000F0E4F68F802DBF8080054BF20EA0504C8
:1009600040EA0504CBF80840B802186854BF20EAF2
:10097000050440EA05041C60B803DBF8040054BF1A
:1009800020EA050440EA0504CBF80440F803DBF84C
:10099000000054BF20EA050440EA0504CBF80040FB
:1009A0000CF1040C013257E7001C014000F8FEBFB7
:1009B000000401400C04014000001110000012105E
:1009C0000000211000002210000031100000321041
:1009D00008FCFFFFC26802EA0103914341EA0341B8
:1009E00001617047002A08BF0904016170470000D7
:1009F000A6480068704700BF10B3F8B5044690F8E9
:100A00003D0020B901F0CDFC204600F0FFF801F0D8
:100A10009EFC016841F400410160016821F400413D
:100A2000016000F073FA6368384A394993423CBF69
:100A300048F28041C0F21E01884203D20120F8BD75
:100A40000120704733494FF47A77B0FBF1F5216804
:100A50004E6826F03F062E434E604FF496766E4366
:100A6000934228BFB6FBF7F56A1C0D6A25F03F05D7
:100A70002A434CF6FF750A62CA69AA43264DAB4267
:100A80000AD85B000138B0FBF3F001306FF31F3080
:100A9000042898BF042013E0A56801383DB119254A
:100AA0006B4301F06FFC0AD000F5804004E003EBDB
:100AB000430301F067FC02D000F5004000E0012094
:100AC000104304F10C06C861E0690A6822F0C00214
:100AD0001043226A104348F2FF320860886890434E
:100AE0006CCE184310438860C86820F0FF0028438C
:100AF0003043C86001F011FC00202021206484F8FC
:100B00003D10206384F83E00F8BD00BFA1860100BF
:100B100000093D0040420F00A08601002DE9FE4380
:100B2000994601F0E0FB054601F087FB0AD1354903
:100B3000204601221923009500F0C0FF10B901F0F2
:100B400062FB02D10220BDE8FE8301220DF12808DC
:100B500001F006FC03D1136843F00103136013682E
:100B600023F40063136021224B4601F0B2FB2649B7
:100B70003246608DE162394620852046CDE9008508
:100B800000F022FF10B10120BDE8FE83218D080492
:100B900022D0204641462A4600F0EBFF10BB606A97
:100BA0002268014611F8013B1361638D013B6385A7
:100BB0006162238D591E218556697607E7D50904A0
:100BC0004FF00001E3D0417802301161991E60625C
:100BD000218501F090FBDAE7204641462A4600F0E5
:100BE0004DFF30B1206C0428CDD1206801F0F3FA1C
:100BF000C9E72068016841F40071016001F021FB40
:100C0000BDE8FE83020010000000FFFF10B586B0B3
:100C100000210068CDE90411CDE902111349884291
:100C200022D1404C206840F008002060206800F08D
:100C30000800019003200590122003904FF44070AB
:100C40000290019802A90B48FFF7ECFD36480A4ACA
:100C5000016811430160606840F4001060606068E2
:100C600000F400100190019806B010BD005400403F
:100C700018100240000C0140020000071A48034906
:100C800000780A6810440860704700BFE404002040
:100C900080B59B48016841F010010160032000F01D
:100CA00077F80F2000F004F800F020F8002080BD55
:100CB00070B50D4E04464FF47A713078B1FBF0F008
:100CC00097490968B1FBF0F000F0FCFB01250F2CFF
:100CD00008D838B94FF0FF3021460022002500F037
:100CE00031F87460284670BD0000002082B00D48C5
:100CF0000222016841F001010160016801F0010177
:100D000001910199416841F080514160406800F0D3
:100D10008050009000980448016862F31A610160F5
:100D200002B070471810024004000140002805D4AA
:100D3000734601F01EFA9E46014A8850704700BF74
:100D400000E100E0F0B5184B4FF0FF361C68C4F32B
:100D50000224E51E84F0070438BF002506FA05F7D3
:100D6000BA43042C28BF042406FA04F4A14300F07B
:100D70000F04A940043C1143044A234409010244DE
:100D8000002848BF03F10C021170F0BD00E400E040
:100D900005494FF6FF030A681A4060F30A22034828
:100DA00010430860704700BF0CED00E00000FA053A
:100DB000002873D02DE9F8430D46514904460868D0
:100DC00000F00700A84209D2086820F00700284375
:100DD0000860086800F00700A8426BD120688946C7
:100DE00081075E4988461AD5410706D5D8F8001014
:100DF000424641F4E061C8F80010010706D5D8F872
:100E00000010424641F46051C8F80010A168D8F8BB
:100E10000020434622F0F0021143C8F80010C0073A
:100E20003ED1D9F8000000F00700A8420CD9D9F84B
:100E3000000020F007002843C9F80000D9F800009E
:100E400000F00700A84235D12068410708D5E168C5
:100E5000D8F80020434622F4E0621143C8F800109D
:100E6000000709D52069D8F80010424621F46051E6
:100E700041EAC000C8F8000000F056F8D8F80010A9
:100E8000204AC1F30311515CC840254908601E483F
:100E90000068FFF70DFF0020BDE8F88301207047D0
:100EA000404658F8041C6068022806D0012823D167
:100EB000890304D40120BDE8F8838901FAD5D8F864
:100EC000001021F003010843C8F80000FFF790FD6F
:100ED000064641F2883741466068D8F8001001F0B4
:100EE0000C01B1EB800F9CD0FFF782FD801BB84254
:100EF000F1D90320BDE8F8838907DBD5DFE700BF20
:100F0000002002407830000804000020DE48134929
:100F1000044A00680968C1F30221515CC840704767
:100F2000280300208830000810B50C490C480A68D6
:100F300002F00C03082B07D1C2F3834309A4D203A8
:100F4000E35C02D40C48584310BD096809A2584319
:100F5000C1F34041515CB0FBF1F010BD0410024000
:100F600000127A0002030405060708090A0B0C0D9B
:100F70000E0F10100102000000093D00002843D0B0
:100F80002DE9FC4104460078BD4EC0070BD07068C7
:100F900000F00C00042839D13068800303D5606864
:100FA000002800F0B6802078800717D5706810F010
:100FB0000C0F05D001F0EBF842D17068C0033FD4AC
:100FC0003068800703D52069012840F0A28060695D
:100FD000316821F0F80141EAC00030602078000754
:100FE0005ED5A06900283ED0A6480121C0F8801433
:100FF000FFF7FEFC0546706A800744D4FFF7F8FC53
:10100000401B0228F7D902E10120704701F0BFF828
:1010100002D17068C003BFD462683068002A20F42F
:10102000803100F0F780B2F5A02F00F0DD80B2F53E
:10103000803F00F0DD803160306820F48020D9E00E
:1010400021699048002900F08F8001210160FFF79D
:10105000CFFC054630688007B9D4FFF7C9FC401BB8
:101060000228F7D9D3E087480021C0F88014FFF7A1
:10107000BFFC0546706A800712D5FFF7B9FC401B1C
:101080000228F7D9C3E080484FF4FA510068B0FB5A
:10109000F1F0019000BF0198411E00280191F9D1A3
:1010A0002078400714D4E7697FB101F070F83ED191
:1010B000012F2ED0216A706800F480328A4228D134
:1010C000616A00F47010884223D10020BDE8FC81E1
:1010D000F0695FEAC00808D4F06940F08050F06120
:1010E000F06900F0805000900098684F3868C005A3
:1010F00012D4386840F480703860FFF779FC0546F8
:101100003868C00508D4FFF773FC401B6428F7D982
:101110007DE00120BDE8FC81E168306A002948D00B
:10112000052931D0012933D001F01CF832E05549AE
:10113000002088460866FFF75BFC0546022F09D1B0
:101140003068800179D5FFF753FC411B0320022949
:10115000F6D9BBE730688001B7D5FFF749FC411BE2
:1011600003200229F6D9B1E700210160FFF740FC16
:101170000546306880077FF531AFFFF739FC411B2A
:1011800003200229F5D9A1E740F004003062306A5B
:1011900040F001003062FFF72BFC054641F2883732
:1011A000306A800717D4FFF723FC401BB842F7D9F9
:1011B0002DE000F0D7FF3062FFF71AFC054641F240
:1011C0008837306A800706D5FFF712FC411B0320E1
:1011D000B942F6D97AE7B8F1000F3FF564AFF0698C
:1011E00020F08050F0615EE740F48020306030688D
:1011F00040F480303060FFF7FBFB05463068800329
:101200003FF5D1AEFFF7F4FB401B6428F6D903206D
:10121000BDE8FC813160306820F480203060FFF749
:10122000E7FB0546306880037FF5BDAEFFF7E0FBC6
:10123000411B03206429F5D948E7206AB0F5803FB7
:1012400005D1A168726822F4003211437160616AAD
:10125000726822F474121143084370600120C8F8C8
:101260006000FFF7C5FB0446306880013FF52DAFF5
:10127000FFF7BEFB011B03200229F5D926E700BFBB
:10128000001002400000424228030020007000408D
:1012900070B530B10446406A28B1002020611420A6
:1012A00006E0012546E06068B0F5827F02D01C2090
:1012B000002121500025A56294F8510020B9204654
:1012C00084F8505000F038F8022084F8510094E877
:1012D0000F0001F4827102F404420668114403F421
:1012E0000062114426F040060660226902F0020204
:1012F0001144626902F001021144A26902F4007310
:101300001944E36903F038031944236A03F08003A6
:101310001943A36A03F4005319430160042101EA4D
:1013200012414160C16921F40061C161012065651C
:1013300084F85100284670BD70B586B0194C00681D
:101340000026CDE90466CDE9026604F52051884205
:1013500025D11548016841F480510160016801F40C
:10136000805101910199016841F004010160006818
:1013700000F0040001900320059002200390A020BB
:101380000290019802AD20462946FFF74BFA402013
:101390002946CDE9036602902046FFF743FA06B0DE
:1013A00070BD00BF00080140181002402DE9FC414B
:1013B0001D4616460F460446FFF71AFB804694F872
:1013C0005100012804D137B12EB100F048FF05D1FA
:1013D0000220BDE8FC810120BDE8FC810320012141
:1013E00084F8510000206065E68684F85010A686D7
:1013F0002763A087A063C4E91000E087A168206884
:10140000B1F5004F07D1016821F04001016001688A
:1014100041F4804101600168490601D400F004FFF5
:10142000E2686168B2F5006F1CD109B1012E01D1EB
:1014300000F0EDFE6E1CE08E70B300F0FAFE08D4F2
:10144000FFF7D6FA002EF6D0A0EB0800A842F2D3A0
:1014500035E0216B31F8022BC2602163E08E013848
:10146000E086E8E709B1012E02D1397800F091FF5A
:101470006E1CE08E80B100F0DCFE08D4FFF7B8FAF5
:10148000002EF6D0A0EB0800A842F2D317E0216BA3
:10149000097800F07EFFECE720462946424600F03E
:1014A00085FF08B120206065A06810B9002000F019
:1014B00073FE00F0E5FE18BF0120BDE8FC8100F0DE
:1014C00094BE0000411E0020B0EB116F1CBF012034
:1014D0007047044AF023516003490B700721906064
:1014E0001160704710E000E023ED00E070477047A6
:1014F00090F83C300222012B29D010B580F83D2015
:1015000002680B68546824F070041C439368B2F1BD
:10151000804F54600ED04D4CA2420BD04C4CA24296
:1015200008D04C4CA24205D04B4CA24202D04B4CAE
:10153000A24204D1496823F080031943916000223C
:10154000012180F83C2080F83D10BDE81040104695
:10155000704700BF58B110B500F0B6FE03D100F0DF
:1015600079FE00F007F800F006FF00F01DBE012034
:10157000704700001FB500683649884221D03349C2
:10158000884211D0B0F1804F18BF1FBD18481C24ED
:10159000016841F0010101600121006800F00100D3
:1015A000039003981C2019E011481D24016841F0A4
:1015B00002010160006800F00200029002981D2004
:1015C0000BE00B483224016841F00801016000681B
:1015D00000F0080001900198322000210022FFF75E
:1015E000B1FB204604B0BDE81040FFF79FBB00BF31
:1015F0001C10024090F83D1001291CBF01207047CB
:10160000022180F83D100068C168B0F1804F41F0C0
:101610000101C1600ED00D4988420BD00C498842AF
:1016200008D00C49884205D00B49884202D00B49AA
:10163000884204D1724600F0D3FD964603D072462C
:1016400000F0DCFD96460020704700BF000400401B
:1016500000080040000C004000340140002C014014
:1016600010B500F02BFE54D084F83D0001204FF659
:10167000777384F83C00206882689A4382600A6825
:10168000C2B1102A16D0202A14D0302A12D0402AF3
:1016900033D0502A28D0602A13D0B2F5005F1CD076
:1016A000B2F5805F32D0702A1CD100F0DCFD41F031
:1016B00077012AE0816821F07001114341F00701B0
:1016C00023E04B68CA68194600F093FF20688168E0
:1016D00041F0670121F0100117E000F0C4FD41F472
:1016E000804112E0012012E000F023FE20688168B2
:1016F00041F0570121F0200107E000F01AFE2068B8
:10170000816841F0470121F030018160002000F044
:1017100009FE10BD704770B504460068C5680669CB
:10172000B10710D5A9070ED56FF0020101610121A3
:1017300021778069800702D000F0DAFD01E000F037
:10174000A8FD00202077700712D5680710D5206803
:101750006FF00401016102212177806910F4407F5C
:1017600002D000F0C5FD01E000F093FD00202077DD
:10177000300711D528070FD520686FF008010161E7
:1017800004212177C069800702D000F0B1FD01E09B
:1017900000F07FFD00202077F00612D5E80610D576
:1017A00020686FF01001016108212177C06910F4F1
:1017B000407F02D000F09CFD01E000F06AFD0020B7
:1017C0002077F00708D0E80706D020686FF0010105
:1017D0000161204600F026F8300608D5280606D517
:1017E00020686FF0800101612046FFF77FFE7006E0
:1017F00008D5680606D520686FF0400101612046D3
:1018000000F07CF8B00601D5A80600D470BD2068B1
:101810006FF0200101612046BDE87040FFF767BE10
:1018200070477047F8B504462A48844206D02A48D3
:1018300084420AD02F4884423CD0F8BD4C484FF433
:101840000051BDE8F840FFF7C5B82448244E254FA5
:101850000168013101603068013030603868FEF79E
:1018600048FD214A214BFEF78FFCFEF755FD20492C
:101870000546FEF730FD002818BF284638600020D6
:1018800000210729D6D056F821200A2A06DB06EBCC
:10189000810246F82100536801335360F2690A2A35
:1018A00006DB0022082A03D046F822000132F9E7BD
:1018B0000131E6E7104C20680130206000F07AF931
:1018C0002068C11700EB517121F00701401A206018
:1018D000F8BD00BF040400204C040020DC040020FC
:1018E00034030020E00400209A9999999999B93F0E
:1018F00000007A4494040020300300207047000068
:1019000010B51B4C4FF4806100222046FFF76AF8A7
:101910000120FEF775FF20464FF480610122FFF79A
:1019200061F80120BDE81040FEF76ABF2DE9F843D9
:1019300004460F48F94D00278146A0F50068072F9F
:1019400088BFBDE8F883E0B24FF40041C2094046C9
:10195000A84748464FF4006100224E46A847484633
:101960004FF400610122A84701376400E7E700BF98
:101970000010014070B50C4605460026F0B2A042AA
:1019800004D2285CFFF7D2FF0136F7E7BDE87040CC
:10199000FFF7B6BFFEE70268516949054FF0000145
:1019A0000FD56FF4806353612022016380F83D20DE
:1019B00080F83E1080F83C10016C41F00401016495
:1019C00001210846704700002DE9FE4304460068E7
:1019D0000E460A9D0B9F99469046002201682B46B1
:1019E00041F48071016020464FF0011100F0C0FC0D
:1019F00048B120680068C00544BF4FF400702064FF
:101A00000320BDE8FE83206806F0FE012A463B461F
:101A100001611949204600F07CF810B10120BDE8B1
:101A2000FE8300203A4602902068416902912946CF
:101A3000806902900298204600F09BF830B1206C3B
:101A40000428EBD1206800F0C6FBE7E72068B9F175
:101A5000010F0AD04FEA18213A4601612046294673
:101A600000F087F80028EAD120685FFA88F1016168
:101A70000020BDE8FE8300BF02000100F8B5154656
:101A80000E4604464F1C20684069400744BF0020B2
:101A9000F8BD2046FFF77FFF70B9002FF3D0FEF7A7
:101AA000A7FF401BB04201D8002EECD1206840694E
:101AB0004007E8D400F023FC0120F8BD2DE9F047F1
:101AC000DDF8209004469846164601F47F0018275A
:101AD0008DB203F1010AB0F5803F08BF142700F072
:101AE0002DFC13D1BAF1000FF9D0FEF781FFA0EB66
:101AF0000900404502D8B8F1000FF0D100F01EFCFB
:101B0000EDD100F0FCFB0120BDE8F0870020BDE82E
:101B1000F0872DE9F0419846164604468FB2551CD1
:101B2000206841693940B94213D04169490513D44D
:101B3000002DF5D0FEF75CFFA0EB0800B04201D805
:101B4000002EEDD1206840693840B842E8D020200E
:101B500008E00020BDE8F08100F03DFB6FF48061FB
:101B60004161042000F09FFB084320640120BDE890
:101B7000F081F8B515460E4604464F1C20684069B2
:101B8000000644BF0020F8BD2046FFF704FF70B9EF
:101B9000002FF3D0FEF72CFF401BB04201D8002EDF
:101BA000ECD1206840690006E8D400F0A8FB0120D1
:101BB000F8BD0000E0B50948094A016800EB810062
:101BC000525C084940688DF80620085C02218DF8B7
:101BD00007000DF10600FFF7CDFE8CBD300300209D
:101BE00090300008B238000810B51446064A02EBDF
:101BF000C000405C00F06EFD207818B100F07AFD66
:101C00000134F9E710BD00BF08030020B0B50E4C49
:101C10003220A0470D4D3020A8470220A0470320C6
:101C2000A8470220A0470C20A8470120A047102069
:101C3000A8470220A0470120A8470220A04714205F
:101C40002946BDE8B040084701080008D52600082D
:101C50002DE9F04F85B04FF000082E482E4C2F4F45
:101C60000022CDE90388CDE90188016804F500660A
:101C700041F010010160016801F01001009100992C
:101C8000016841F020010160016801F0200100912C
:101C90000099016841F004010160016801F004014C
:101CA00000910099016841F00801016042F610417D
:101CB000006800F00800009000983046B8472046C1
:101CC0004FF400410022B84704F580653821002216
:101CD000A3462846B8474FF002094FF0010A42F6E2
:101CE00010400F4C0190CDE90389CDF808A001AF59
:101CF00030463946A0474FF4004000F011FA5846EC
:101D0000A047382000F00CFA2846A04705B0BDE8EF
:101D1000F08F00BF1810024000080140E5090008DC
:101D20002508000810B50B480B4B0C4C00214FF454
:101D30008042C0E90043C0E90211C0E90421C0E9C2
:101D400006110162FEF758FE18B1BDE81040FEF71B
:101D500052BD10BD58030020A08601000054004071
:101D6000F8B50F4800220A210E4F4FF482764FF447
:101D7000007301240225C0E90A213821C0E90822A4
:101D8000C0E90076C0E90222C0E90454C0E9063186
:101D9000FFF77EFA18B1BDE8F840FEF72CBDF8BD9C
:101DA000AC0300200030014010B586B00F48002180
:101DB0004FF4E15242F210734FF0804400F0B7F953
:101DC00008B1FEF718FD4FF480500290074802A9B1
:101DD000FFF746FC08B1FEF70EFD04486946FFF721
:101DE00087FB08B1FEF707FD06B010BD0404002014
:101DF00010B586B00F48104C00214FF4347242F2F7
:101E0000107300F094F908B1FEF7F5FC4FF4805020
:101E10000290084802A9FFF723FC08B1FEF7EBFC8B
:101E200004486946FFF764FB08B1FEF7E4FC06B01E
:101E300010BD00BF4C0400200004004010B586B067
:101E40000F48104C00214FF4347242F2107300F02E
:101E50006EF908B1FEF7CFFC4FF4805002900848AD
:101E600002A9FFF7FDFB08B1FEF7C5FC044869466F
:101E7000FFF73EFB08B1FEF7BEFC06B010BD00BF89
:101E800094040020000C0040FEE7FEE7002000F074
:101E900001B80000F8B5514E04460025E8B2072805
:101EA00088BFF8BD45F0B000C0B2B04700200027A1
:101EB000B0471020B04778B2002804D4204600F084
:101EC000BDFB0137F7E70135E8E700BF10B5C820D3
:101ED000FEF796FC414CAE20A0472020A0471020E2
:101EE000A047B020A047C020A0470020A047102056
:101EF000A0474020A0478120A047FF20A047A02066
:101F0000A047A620A047A820A0473F20A047A42084
:101F1000A047D320A0470020A047D520A047F0200D
:101F2000A047D920A0472220A047DA20A0471220AE
:101F3000A047DB20A0472020A0478D20A0471420E9
:101F4000A047AF202146BDE81040084780B514489F
:101F5000144A0521036800F001FC0020032101233D
:101F6000BDE8804000F060B810B50D480D4A05216D
:101F7000036800F0F3FB0C4C002000210022A04776
:101F8000002000210122A047002000210222A047BA
:101F900006A2002002210123BDE8104000F044B851
:101FA000DC040020BC380008E11F00083230323267
:101FB0003136383900000000B0B50446A1F15000B8
:101FC000064DC0B2A84720091030A84704F00E0003
:101FD00029460130BDE8B040084700BF1926000877
:101FE0002DE9F04116460D468046FFF7E5FF0D4FFF
:101FF000760100240F2C05D8B85D00F01FFB0134DA
:102000000136F7E7681CC1B24046FFF7D5FF002450
:102010000F2C88BFBDE8F081B85D00F00FFB0137E1
:102020000134F5E7080000202DE9FE4F934688466D
:102030000646012B45D0022B6BD1374D0021CDF840
:1020400004B0C8B21BF80040002C62D0F0B202917C
:10205000782888BF08F1010888BF0026F7B25FFA28
:1020600088F13846FFF7A8FFA4F12000AA464FF0F8
:102070000009C0B205EB00144FEA001BB9F1080FCC
:1020800006D014F8090000F0D9FA09F10109F5E7C2
:1020900008F10100C1B23846FFF78EFF0AEB0B00D2
:1020A000DDF804B05546002700F10804082F04D0DD
:1020B000E05D00F0C3FA0137F8E702990836013114
:1020C000BFE7DFF858904FF0000A5FFA8AF01BF87C
:1020D0000040F4B1F0B27E2888BF08F1010888BF43
:1020E00000265FFA88F1F0B2FFF766FFA4F1200046
:1020F0000024C0B200EB400009EB4007062C04D0DE
:10210000385D00F09BFA0134F8E70AF1010A06365F
:10211000DBE7BDE8FE8F00BFC23200089A3000083E
:102120003946CDF81090CDE902A80190704705918D
:10213000CDE90311CDE900118161C0E90043C0E997
:1021400002120161FFF706BA01228DF805100101A4
:1021500000F0F0008DF807108DF8060020461021E1
:10216000FEF740BC20F001003062306A20F004002D
:1021700070471C21012201EAD00100F01F0002FA81
:1021800000F0704703224FF47A73FFF70FB97068BD
:1021900000F00C000828704701902068C168019188
:1021A0008068019001987047012084F8460084F807
:1021B0003E0084F83F0084F8400084F8410084F831
:1021C000420084F8430084F8440084F8450084F811
:1021D0003D00002010BD016841F4007101607047AE
:1021E000816801F0070106297047002084F850003B
:1021F000012084F851000320BDE8FC81016841F012
:1022000001010160704794F83C000128704737F8DD
:10221000021BC1602763E08E0138E08670472046CC
:1022200010210022FEF7DEBB016841F04001016091
:102230007047206881688907704794F83D0020281E
:102240007047202084F83D00002084F83C0084F88A
:102250003E007047002084F83C002046704794F808
:10226000500001287047D1E90123C9681A4342EAA6
:102270000121826822F47F421143816081687047A6
:10228000012084F85100002084F85000606D00287F
:1022900070474DF808ED2046FFF7C2FA20465DF87A
:1022A00008EBFFF7BEBA00212022216384F83D200D
:1022B00084F83E1084F83C10216C704790F83C2064
:1022C00004460220012A7047044690F83D00002889
:1022D000704784F83D20402284F83E20002222648A
:1022E00061856062704716460F460446FEF780BB64
:1022F0002046FFF70FBA608D0138608570470020D7
:102300002021206384F83D1084F83E0084F83C00CE
:10231000206C40F0200020647047086840F0010005
:1023200008607047002184F83C10012184F83D10BA
:1023300070474B68CA68194600F04AB92068C0590E
:102340002840401BB0FA80F04009B042704724207A
:1023500084F83D002068016821F0010101607047A8
:1023600084F83C20226898E803011368DB07704773
:102370000097FFF7A3BB0220211D84F83D002068D1
:1023800000F0D0B8B0FBF3F001306FF31F3000283D
:1023900070470173206B01302063E08E0138E086C6
:1023A0007047002084F83C00704770477CB50D46AC
:1023B000164600920221012204462B4600F012F834
:1023C00040B92046802100222B460096002600F0CE
:1023D00009F820B1606D032640F0200060653046AA
:1023E0007CBD00002DE9F843089F1C4615460E46AB
:1023F0008046FEF7FDFA381A0719FEF7F9FA81460A
:10240000274801340068C0F3CB3078430090D8F8F7
:10241000000081683140891BB1FA81F14909A94264
:102420000FD0002CF5D0FEF7E3FAA0EB0900B8427C
:102430000AD20098009901390091002808BF074688
:10244000E5E70020BDE8F883D8E900014268B1F56E
:10245000827F22F0E00242600BD1D8F80810B1F57B
:10246000004F02D0B1F5806F03D1016821F0400127
:102470000160D8F82810B1F5005F07D1016821F498
:1024800000510160016841F400510160002088F8AA
:102490005000012088F851000320BDE8F88300BFF8
:1024A000280300207047FEF7E9BBB0B590B04FF4A9
:1024B000E010002402250F904FF48030CDE90B444A
:1024C000CDE909440D950E90CDE907040120069051
:1024D0000A9006A8FEF752FD18B1EFF3108072B60D
:1024E000FEE74FF4806005940221CDE903400F2000
:1024F000CDE9010501A8FEF75BFC18B1EFF31080F0
:1025000072B6FEE710B0B0BD704700006D48FFF72F
:1025100002B900BF6D48FFF7FEB800BF6C48FFF777
:10252000FAB800BF70B5254A0368904222D0B0F1D6
:10253000804F0BD0224CA04208D0224CA04205D0A4
:10254000214CA04202D0214CA04203D14C6823F080
:1025500070032343B0F1804F10D0194CA0420DD02E
:10256000184CA0420AD0184CA04207D0174CA042E9
:1025700004D007E04C6823F070032343CC6823F4B5
:10258000407323434E6923F080030C688D68334306
:1025900090420360C562846203D002F500629042FB
:1025A00001D109690163012141610169C90703D0B2
:1025B000016921F00101016170BD00BF002C0140E3
:1025C000000400400008004000340140000C0040BE
:1025D00010B5036A046A24F001040462846924F0DB
:1025E000F00444EA0212826123F00A0211430162FC
:1025F00010BD10B5036A046A24F0100404628469F3
:1026000024F4704444EA0232826123F0A00242EAD8
:102610000111016210BDFEE7F8B58DF80F006420CE
:1026200001210DF10F02012302900D48CDE9002197
:1026300078210022FEF772FA8FBD00BFF8B58DF841
:102640000F00642001210DF10F02012302900448C4
:10265000CDE9002178214022FEF760FA8FBD00BF4E
:1026600058030020164801210160FEF711FBFFF717
:102670001CFFFFF7EDFAFFF773FBFFF795FBFFF782
:1026800051FBFFF7DBFBFFF7B3FB0E480E4CA047F7
:102690000E48A0470E48A047FFF718FCFFF7F6FBCF
:1026A000FFF7B4FA1A484FF400510122FEF79AF9E5
:1026B000FFF75AFC00F030F8FFF748FCFAE700BFDC
:1026C0005403002004040020F51500084C040020E9
:1026D000940400201CB5F8210D4CFFF735FD0120B6
:1026E000FEF78EF80B480DF10501FFF74BFDFFF7E4
:1026F00096FD1CBD1CB5FA21054CFFF725FD0548CC
:102700000DF10501FFF73EFDFFF789FD1CBD00BF80
:1027100000100140AC030020E0B50A480068FDF756
:10272000E8FDCDE9000108A2202100F017F808A279
:1027300000200021FFF758FA02200021BDE88C405C
:10274000FFF752BAE0040020252E31660000000099
:10275000E697B6E997B474696D6572000FB47CB5FD
:102760000C0009AD01D0611E00E00021CDE900019F
:10277000064B6A462946089800F0DCF8002C02D087
:10278000009A002111707CBC5DF814FB63300008D6
:1027900002E008C8121F08C1002AFAD1704770472A
:1027A000002001E001C1121F002AFBD17047000088
:1027B0002DE9FF5F82B00021DDE90430020DDDF874
:1027C00040B0034318D044F61050A2F2FF32424307
:1027D0001514119801281FD0A5EB0B00401C5FEACF
:1027E000000A4FF000064E4FDFF83891B0465046D1
:1027F00015D5CAF1000413E0119801244AA3012859
:1028000001D16FEA0B010298119AC0E90031C0E9C9
:10281000024206B0BDE8F09FCBF10000DFE70446BE
:102820000021404A491842EB0450CDE9001012E063
:10283000E00707D032463B4640464946FDF784FE56
:102840008046894632463B4610461946FDF77CFED7
:1028500006460F466410002CEAD1DDE90401DDE9EB
:102860000023BAF1000F06DAFDF76EFE42464B4632
:10287000FDF76AFE05E0FDF7D9FE42464B46FDF73F
:10288000D5FE04460E460022284BFDF757FF03D81D
:102890004FF0FF30014607E00022254B204631462D
:1028A000FDF772FCFDF731FF102409E0002C0ADB74
:1028B0000A220023FDF762FD039B30321A55641E85
:1028C00050EA0102F2D1641C039AC4F111031444CA
:1028D000119A012A03D0012208430DD10AE00843CE
:1028E00004D000204FF0110B119072E7A3EB0B0501
:1028F0006D1E0DE05B4504DD4FF0000205F10105A2
:1029000004E003DA4FF00002A5F10105002AECD043
:1029100002981199C0E90231C0E9004579E7000049
:10292000000014400000F03F300000000000F043C1
:102930000000E03F2DE9FF4F95B09B4689460646D3
:1029400000250FE2252877D100242746F84A0121E7
:10295000059400E0044316F8013F203B01FA03F020
:102960001042F7D130782A2811D06FF02F03307839
:10297000A0F13002092A16D8059A44F0020402EBAD
:10298000820203EB42021044761C0590EFE759F8EF
:10299000042B0592002A03DA504244F400540590B7
:1029A00044F00204761C30782E2816D116F8010F58
:1029B00044F004042A280DD06FF02F023078A0F1E3
:1029C0003003092B09D807EB870302EB4303C71831
:1029D000761CF3E759F8047B761C30786C280FD00E
:1029E00006DC4C2817D068280DD06A2814D104E0E2
:1029F000742810D07A280FD10DE044F400140AE0B6
:102A000044F4801401E044F440147278824202D10C
:102A100004F58014761C761C307866280BD013DC05
:102A2000582877D009DC002875D04528F6D04628EC
:102A3000F4D047281AD19DE118E0632835D06428E6
:102A400079D0652812D195E1702873D008DC672809
:102A5000F1D069286FD06E280DD06F2806D1B5E06F
:102A600073282CD0752875D0782874D05A461799B9
:102A700090476D1C75E1C4F30250022809D0032869
:102A80000DD0D9F8001004280DD00D6009F104090B
:102A900067E1D9F80010EA17C1E90052F6E7D9F862
:102AA00000100D80F2E70D70F0E719F8041B8DF8A7
:102AB000001000208DF80100EA46012003E059F8DB
:102AC00004AB4FF0FF3061074FF0000102D40DE07E
:102AD00008F101018846B9420FDA8045F8DB1AF89F
:102AE00008100029F4D108E008F10101884681426C
:102AF000FADB1AF808100029F6D105985B46A0EB1E
:102B0000080721463846179A00F094FA284400EB4B
:102B1000080507E04DE029E10DE01AF8010B5A46DF
:102B200017999047B8F10108F7D25B46214638461D
:102B3000179A13E142E00A220092C4F302524FF0C6
:102B4000000A022A08D059F804CB032A4FEAEC7194
:102B50000AD00DE029E02AE009F1070121F007027F
:102B6000F2E802C1914609E00FFA8CFC4FEAEC71E1
:102B7000042A03D14FFA8CFC4FEAEC71002907DAE2
:102B80000A460021DCF1000C61EB02012D2202E07B
:102B9000220504D52B228DF80420012203E0E20750
:102BA00001D02022F7E7904659E00A2102E01022E6
:102BB0000DE010214FF0000A00910BE010224FF0C1
:102BC000000A44F004040827009203E008224FF0B2
:102BD000000A0092C4F30252022A05D059F804CB2D
:102BE0000021032A08D009E009F1070121F00702BA
:102BF000F2E802C1914605E01FFA8CFC042A01D1DB
:102C00000CF0FF0C4FF00008220728D5702806D0E2
:102C1000009B83F0100353EA0A0305D00EE0402224
:102C20008DF80420012208E05CEA010206D030227F
:102C30008DF804208DF8050002229046009B83F059
:102C4000080353EA0A030AD15CEA010201D16207D0
:102C500005D530228DF804204FF001087F1E58283A
:102C600004D034A003900EA802900DE036A0F9E73E
:102C700053466046009AFDF781FB84460398825CC8
:102C80000298401E029002705CEA0100F0D10298A6
:102C900006A9081A00F1200A600702D524F480343E
:102CA00000E00127574502DDA7EB0A0000E0002005
:102CB00000EB0A01009005984144401A0590E0039A
:102CC00006D45B462146179A059800F0B3F90544EF
:102CD000002706E001A85A46C05D179990476D1C71
:102CE0007F1C4745F6DBE0030CD55B462146179A6F
:102CF000059800F09FF9054404E030205A461799E2
:102D000090476D1C0099481E00900029F5DC08E0F2
:102D1000029802995A460078491C029117999047E7
:102D20006D1CBAF10001AAF1010AF1DC65E10000B5
:102D30000928010030313233343536373839616291
:102D40006364656600000000303132333435363755
:102D500038394142434445460000000000F058F92C
:102D60000544761C307800287FF4ECAD19B0284675
:102D7000BDE8F08F620700D4062709F1070222F0B0
:102D8000070CFCE80223E14603F000485FEA080C68
:102D900002D00FF2702C0DE05FEA045C02D50FF256
:102DA000682C07E05FEAC47C02D00FF2602C01E0DF
:102DB000AFF2700C4FF0FF3823F00043CDF850C055
:102DC00065280CD006DC452809D046281DD04728A8
:102DD0003DD13DE0662818D067287ED138E000213B
:102DE000112F01DB112000E0781CCDE9000106A9BC
:102DF0000EA8FFF7DDFCDDE90F010E9A039100211B
:102E0000009207F1010A04914DE04FF00040009755
:102E1000CDE9011006A90EA8FFF7CAFCDDE90F02F3
:102E200003920E9B11990022DDF80CA000930492EE
:102E300011B9791C00EB010AB7EB0A0004D4C0F108
:102E4000FF3007F1010A0490AAEB0700019044E06B
:102E5000012F00DA01270021112F01DD112000E0F0
:102E60003846CDE9000106A90EA8FFF7A1FCDDE96F
:102E70000F010E9A0391002104910092BA46210796
:102E80000CD40399514500DA8A46BAF1010F05DDE9
:102E9000009AAAF10101515C302908D0B84202DA47
:102EA00010F1040F06DA0121CDE9011015E0AAF1B5
:102EB0000101E9E7002805DC049901440491AAEB2B
:102EC000000102E0411C514500DD8A460499401A88
:102ED000401C01904FF000400290200704D401985C
:102EE000504501DBCDF8048000208DF84F0002989A
:102EF0000DF14F07B0F1004F25D02B200E90029816
:102F00004FF0020800280CDA404202902D200E906B
:102F100007E00A210298FDF71BFA3031029007F80A
:102F2000011DB8F10001A8F10108F2DC02980028A7
:102F3000EFD1791E0E980870307800F0200040F034
:102F4000450007F8020D12A8C01B00F107081498ED
:102F5000007800B1012000EB0A01019801EBE0715B
:102F600005984144401A401E0590E00306D45B4694
:102F70002146179A059800F05DF8054414980078EA
:102F800018B15A46179990476D1CE00324D55B464B
:102F90002146179A059800F04DF805441CE0049866
:102FA000002807DBDDE90301884203DD0098405C6F
:102FB000179901E0179930205A469047049805F177
:102FC0000105401C04900198401E019004D12E2060
:102FD0005A46179990476D1CBAF10001AAF1010AEF
:102FE000DDDC05E017F8010B5A46179990476D1C78
:102FF000B8F10001A8F10108F4DC5B462146179AFC
:103000000598ABE62D0000002B000000200000001A
:103010002DE9F041044600251E461746880404D4D5
:1030200005E039462020B0476D1C641EF9D52846BE
:10303000BDE8F0812DE9F041044600251E4690468A
:10304000C80301D5302700E02027880404D505E017
:1030500041463846B0476D1C641EF9D52846BDE888
:10306000F0814A68002A06D00A68531C0B60107071
:103070004868401E486070470000000000000000E3
:10308000010203040607080900000000010203040E
:103090000102040810204080000000000000000031
:1030A0000000002F000000000700070000147F143C
:1030B0007F1400242A7F2A1200626408132300363A
:1030C0004955225000000503000000001C22410069
:1030D000000041221C000014083E08140008083EAD
:1030E0000808000000A060000008080808080000A8
:1030F00060600000002010080402003E5149453E77
:103100000000427F40000042615149460021414594
:103110004B31001814127F10002745454539003CFB
:103120004A494930000171090503003649494936C9
:1031300000064949291E00003636000000005636B8
:10314000000000081422410000141414141400009C
:103150004122140800020151090600324959513E2A
:10316000007C1211127C007F49494936003E4141E2
:103170004122007F4141221C007F49494941007F93
:1031800009090901003E4149497A007F0808087F82
:103190000000417F4100002040413F01007F0814B2
:1031A0002241007F40404040007F020C027F007FB0
:1031B0000408107F003E4141413E007F0909090695
:1031C000003E4151215E007F0919294600464949C8
:1031D00049310001017F0101003F4040403F001F95
:1031E0002040201F003F4038403F00631408146314
:1031F00000070870080700615149454300007F41FE
:10320000410000552A552A55000041417F00000425
:10321000020102040040404040400000010204005E
:10322000002054545478007F4844443800384444C3
:10323000442000384444487F00385454541800084F
:103240007E0901020018A4A4A47C007F080404786D
:103250000000447D4000004080847D00007F1028F5
:1032600044000000417F4000007C04180478007C8A
:103270000804047800384444443800FC242424180A
:103280000018242418FC007C080404080048545446
:10329000542000043F444020003C4040207C001C5F
:1032A0002040201C003C4030403C00442810284472
:1032B000001CA0A0A07C004464544C4414141414BA
:1032C00014140000000000000000000000000000D6
:1032D0000000000000F80000000000000033300093
:1032E000000000100C06100C06000000000000009A
:1032F000000040C07840C0784000043F04043F0410
:103300000400007088FC08300000001820FF211E17
:103310000000F008F000E018000000211C031E214E
:103320001E0000F00888700000001E2123241927C9
:10333000211010160E000000000000000000000028
:103340000000000000E01804020000000007182040
:10335000400000020418E0000000004020180700B0
:103360000000404080F0804040000202010F010256
:103370000200000000F0000000000101011F010137
:103380000100000000000000000080B0700000009C
:103390000000000000000000000000010101010128
:1033A00001010000000000000000003030000000BB
:1033B0000000000000008060180400601806010092
:1033C000000000E010080810E000000F102020109E
:1033D0000F00001010F8000000000020203F202007
:1033E000000000700808088870000030282422219E
:1033F0003000003008888848300000182020201154
:103400000E000000C02010F8000000070424243F34
:10341000240000F8088888080800001921202011DD
:103420000E0000E0108888180000000F1120201105
:103430000E0000380808C83808000000003F0000EF
:1034400000000070880808887000001C22212122DA
:103450001C0000E010080810E000000031222211DA
:103460000F00000000C0C00000000000003030006D
:1034700000000000008000000000000080600000EC
:103480000000000080402010080000010204081025
:103490002000404040404040400004040404040434
:1034A00004000008102040800000002010080402E2
:1034B0000100007048080808F000000000303601E4
:1034C0000000C030C828E810E000071827242314A3
:1034D0000B000000C038E0000000203C230202275F
:1034E000382008F8888888700000203F20202011AC
:1034F0000E00C030080808083800071820202010E7
:10350000080008F808080810E000203F20202010DC
:103510000F0008F88888E8081000203F20202320AA
:10352000180008F88888E8081000203F20000300F1
:103530000000C03008080838000007182020221EAC
:10354000020008F808000008F808203F21010121C6
:103550003F20000808F8080800000020203F202035
:10356000000000000808F8080800C08080807F0084
:10357000000008F888C028180800203F20012638DD
:10358000200008F8080000000000203F2020202034
:10359000300008F8F800F8F80800203F003F003F2E
:1035A000200008F830C00008F808203F2000071865
:1035B0003F00E01008080810E0000F102020201045
:1035C0000F0008F808080808F000203F2101010159
:1035D0000000E01008080810E0000F1824243850FC
:1035E0004F0008F8888888887000203F2000030C6E
:1035F0003020007088080808380000382021212277
:103600001C00180808F8080818000000203F2000D7
:10361000000008F808000008F808001F20202020FB
:103620001F000878880000C83808000007380E011D
:103630000000F80800F80008F800033C0700073C09
:103640000300081868808068180820302C03032CB9
:1036500030200838C800C83808000000203F20008B
:10366000000010080808C83808002038262120204B
:103670001800000000FE020202000000007F40402F
:103680004000000C30C000000000000000010638BF
:10369000C00000020202FE000000004040407F0027
:1036A000000000000402020204000000000000000C
:1036B000000000000000000000008080808080800A
:1036C00080800002020400000000000000000000F2
:1036D0000000000080808080000000192422222247
:1036E0003F2008F8008080000000003F11202011DA
:1036F0000E000000008080800000000E11202020BD
:103700001100000000808088F800000E11202010B9
:103710003F200000808080800000001F22222222A3
:103720001300008080F0888888180020203F202027
:1037300000000000808080808000006B949494934F
:10374000600008F8008080800000203F21000020F9
:103750003F2000809898000000000020203F20209B
:103760000000000000809898000000C08080807FEA
:10377000000008F8000080808000203F24022D30E7
:103780002000000808F8000000000020203F202052
:1037900000008080808080808000203F20003F20CB
:1037A000003F8080008080800000203F21000020BA
:1037B0003F200000808080800000001F202020200B
:1037C0001F00808000808000000080FFA120201169
:1037D0000E000000008080808000000E112020A0DC
:1037E000FF80808080008080800020203F2120009A
:1037F0000100000080808080800000332424242485
:103800001900008080E0808000000000001F202060
:1038100000008080000000808000001F2020201019
:103820003F20808080000080808000010E300806EC
:10383000010080800080008080800F300C030C30FD
:103840000F0000808000808080000020312E0E312B
:103850002000808080000080808080818E7018062B
:10386000010000808080808080000021302C222197
:10387000300000000000807C020200000000003FD9
:10388000404000000000FF00000000000000FF00BA
:1038900000000002027C800000000040403F000069
:1038A0000000000601010202040400000000000004
:1038B00000003F065B4F666D7D077F6F256400004B
:1038C000E038000800000020300300009C070008DA
:1038D000583B000830030020B8090000A02700086A
:1038E00032012A1004100F10D0FF90104242E25211
:1038F000CA4642E04013040312FF400A21104C2341
:10390000184780403F4C80BEAA0133BF821010048C
:103910008484444424140F14242444C446043B40A7
:1039200042012AFE051443624010088080402010A6
:103930000C031008030C102040C0401008E01008D1
:10394000080810E010080F10202020100F5408F86D
:10395000081B203F101B2030103E8888E8081010FC
:103960002C23201820393039201930151060028C92
:10397000100B84E41C05C6BC2424E4041C04047E4F
:10398000BB500AFF82412618294681802B7F4901BE
:10399000627F2AFF0C6AFF07414BFE920142FE182C
:1039A0000940424458407F40400415504846404A30
:1039B00040C13AC20613404015201008062B408033
:1039C0004D1502040830180B100C0484146405060D
:1039D000F4040113140C1010048484444724140CC0
:1039E000070C14244484041E02FA8282FEF4100898
:1039F000504C434C502040101008184884443F401D
:103A00004458414E60584740180F1010F01F10F0F6
:103A1000403C1010FF101010802E22150816217542
:103A20002A7F712119E61E081467844454411966DF
:103A30003D02FE43438F39B10111D336362B02824A
:103A4000013AFE061A0260490129E2290119B0244F
:103A5000C4B48C2008E40404FE424342180B8044A2
:103A600028182720404F4848031A48802142FF3930
:103A70006C190A458040300F5A3F103D404042CCFF
:103A8000554AFF50311B7F20C849362118100804C1
:103A9000F3525652525054535256F20202F02D979E
:103AA000553D15011CFD1517F1171010D0FF901092
:103AB0003DFE020202631B04033A2C83601F631C59
:103AC00040407820100E10FF9020984828090E28BA
:103AD00048A8182D0242817F751C42427E04124084
:103AE0002F40504E4848FFAB5AF87410083E02026F
:103AF000FF12221E1D0F40807FA0199F19BE2B921E
:103B0000920351100E3F100822120A06FF060A12F5
:103B10002220172424A4FE23222B3E22011A3EB089
:103B2000180B0601FF0106404949497F0412411064
:103B30002180818283848586879091929394959643
:103B40009788898A8B8C8D8E8F98999A9B9C9D9E45
:083B50009F53127A00000000EF
:0400000508000131BD
:00000001FF
