:020000040800F2
:10000000F8070020F9010008D5160008F5130008CC
:10001000D1160008B5020008ED1700080000000026
:10002000000000000000000000000000DD160008D5
:10003000B902000800000000D9160008E116000807
:10004000130200081302000813020008130200083C
:10005000130200081302000813020008130200082C
:10006000130200081302000813020008130200081C
:10007000130200081302000813020008130200080C
:1000800013020008130200081302000813020008FC
:1000900013020008130200081302000813020008EC
:1000A00013020008130200081302000813020008DC
:1000B000E9160008F51600081302000813020008EC
:1000C00013020008130200081302000813020008BC
:1000D00013020008130200081302000813020008AC
:1000E000130200081302000813020008130200089C
:1000F000130200081302000813020008130200088C
:100100001302000813020008011700081302000878
:10011000130200081302000813020008130200086B
:10012000130200081302000813020008130200085B
:1001300000F002F800F050F814A696E8000CB24463
:10014000B344DA4501D100F047F8BAE80F000FA632
:1001500096E83000A5EB040504EB0607AAEB0704BC
:10016000A7F101074FEA15154FEA3414A4F1010471
:10017000AC4201D300F030F813F0010F18BFFB1AA6
:1001800043F0010300F001F8DBE71847081700000F
:1001900028170000103A24BF78C878C1FAD852074F
:1001A00024BF30C830C144BF04680C6070470000F1
:1001B000704700000023002400250026103A28BFC5
:1001C00078C1FBD8520728BF30C148BF0B607047C9
:1001D0001FB51FBD10B510BD00F031F81146FFF777
:1001E000F7FF01F005FB00F04FF803B4FFF7F2FF53
:1001F00003BC00F057F80000094880470948004751
:10020000FEE7FEE7FEE7FEE7FEE7FEE7FEE7FEE7C6
:10021000FEE7FEE704480549054A064B7047000023
:10022000E516000831010008F8010020F807002059
:10023000F8030020F80300207047704770477546A8
:1002400000F02CF8AE4605006946534620F0070042
:10025000854618B020B5FFF7DDFFBDE820404FF020
:1002600000064FF000074FF000084FF0000BAC46BF
:10027000ACE8C009ACE8C009ACE8C009ACE8C0090A
:1002800021F007018D46704710B50446AFF300809A
:100290002046BDE81040FFF7A8BF000000487047A7
:1002A0001000002001491820ABBEFEE72600020026
:1002B00070470000FEE7000070470000EFF3108079
:1002C00072B600BFFEE700002DE9F04F82B00E6865
:1002D000002E00F0E980A0F1804241F6004540F296
:1002E0000043A2F58432C4F201050624C4F20103DE
:1002F0004FEAB227A84208BF05244FF0000E4FF086
:1003000001080F254FF0000A4FF0000B052F38BFF2
:100310004FEAB224009408E00E680AF1010A36FAA6
:100320000AF20EF1040E00F0BF8008FA0AFC16EA89
:100330000C09F1D04E684FF6FF72C1F210029642DE
:1003400012DC122E56D8DFE806F0350B4D49555514
:10035000555555555555555555555545510000BFA1
:10036000D1F80CB046E000BF4FF6FF72C1F2210297
:1003700096420FDC0022C1F2110296421AD00022EE
:10038000C1F21202964215D00022C1F22102964219
:1003900010D02FE00022C1F2220296420AD00022A1
:1003A000C1F23102964205D00022C1F232029642D9
:1003B00020D100BF8A684AB1012A14BFC0F814C016
:1003C000C0F810C04FF0080B14E000BF4FF0040B52
:1003D00010E000BFCA6802F1040B0BE04FF0000B05
:1003E00008E000BFCA6802F1080B03E0CA6802F126
:1003F0000C0B00BF02467446B9F5807F24BF04325F
:10040000203C166805FA04F726EA07070BFA04F6FB
:1004100037431760CA79D2067FF57EAF41F21807DD
:10042000C4F202073A684FF6084542F001023A600A
:100430003A68CFF6FF7502F001020192019A2AF0A4
:1004400003021A440F2457590EF00C06B440A74378
:10045000009C04FA06F6374357514E6840F20C44AC
:10046000F2029A6854BF22EA090242EA0902C4F27F
:1004700001049A602268B70254BF22EA090242EAE4
:10048000090222605A68B70354BF22EA090242EA0D
:1004900009025A600F251A68F70354BF22EA0902BD
:1004A00042EA09021A6037E702B0BDE8F08F0000A7
:1004B000002A08BF090401617047000040F2F410EF
:1004C000C2F2000000687047002804BF0120704796
:1004D000F0B581B0044690F83D0028B9002084F8BA
:1004E0003C00204600F0A2F8242084F83D0020685B
:1004F000016821F001010160016841F400410160DF
:10050000016821F40041016000F066FA636848F276
:10051000A16CC0F2010C40F60011C0F23D01634530
:100520003CBF48F28041C0F21E01884202D2012045
:1005300001B0F0BD4DF68361C4F21B31A0FB011286
:100540002168970CD1F804E04FF496762EF03F0521
:1005500045EA92454D60774348F638160D6AC0F279
:100560004106A7FB067625F03F07634538BF960C8A
:10057000721C3A430A62CA6948F2A0664CF6FF77D9
:10058000C0F20106B34222EA07020BD801385B0031
:10059000B0FBF3F001306FF31F30042898BF042044
:1005A0001BE000BFA768013857B119277B43B0FB98
:1005B000F3F001306FF31F3070B100F5804007E0B9
:1005C00003EB4303B0FBF3F001306FF31F3018B1BE
:1005D00000F5004001E000BF01201043C861086839
:1005E000D4E9072320F0C00010431843086088684E
:1005F00048F2FF3204F10C0790438CCF18431043AC
:10060000A6698860C86820F0FF0038433043C8609E
:10061000086840F00100086000202021206484F870
:100620003D10206384F83E0001B0F0BD10B586B0E7
:10063000006845F20041C4F2000188424FF000001A
:10064000CDE90400CDE9020002D006B010BD00BF24
:1006500041F21804C4F20204206802A940F0080024
:100660002060206800F00800019001984FF440706D
:100670000290122003900320059040F60040C4F23F
:100680000100FFF721FE0420C4F20100016841F0DF
:10069000E06141F002010160606840F400106060B8
:1006A000606800F400100190019806B010BD0000D1
:1006B00040F2000040F2F411C2F20000C2F2000168
:1006C00000780A68104408607047000080B542F264
:1006D0000000C4F20200016841F010010160032033
:1006E00000F08CF80F2000F005F800F027F800204B
:1006F00080BD000070B540F20006C2F2000640F274
:1007000008013278C2F200014FF47A730968B3FB32
:10071000F2F20446B1FBF2F1084600F003FC0F2CA4
:100720004FF0010508D838B94FF0FF3021460022BC
:10073000002500F037F87460284670BD82B041F2A1
:100740001800C4F202000168022241F001010160B8
:10075000016801F0010101910199416841F0805166
:100760004160406800F08050009000980420C4F27E
:100770000100016862F31A61016002B07047000075
:10078000002848BF704700F01F01012202FA01F162
:100790001C2202EAD0004EF20012CEF2000281507A
:1007A0007047000010B54EF60C5CCEF2000CDCF881
:1007B0000030C3F3022E8EF00704042C28BF04245B
:1007C000BEF103034FF0FF3E0EFA04F438BF0023DE
:1007D000A14399400EFA03F39A43114300F00F022C
:1007E00000F160430901043A03F5644362440028C0
:1007F00048BF02F10C03197010BD00004EF60C51F9
:10080000CEF200010A684FF6FF031A4060F30A2295
:1008100042F0806040F0FD7008607047002804BF1F
:10082000012070472DE9F04381B042F20008C4F284
:1008300002080446D8F800000D4600F00700884280
:100840000CD2D8F8000020F007002843C8F80000B8
:10085000D8F8000000F00700A8426CD1206841F2EF
:1008600004098107C4F2020917D5410705D5D9F853
:10087000001041F4E061C9F80010010705D5D9F86E
:10088000001041F46051C9F80010D9F80010A268B6
:1008900021F0F0011143C9F80010C00742D1D8F887
:1008A000000000F00700A8420CD9D8F8000020F0A2
:1008B00007002843C8F80000D8F8000000F007003F
:1008C000A84238D12068410707D5D9F80010E2685E
:1008D00021F4E0611143C9F80010000708D5D9F8E8
:1008E0000000216920F4605040EAC100C9F800000E
:1008F000D9F8002002F00C00082841F20020C0F2D4
:100900007A004DD141F68403C2F38341C0F600035F
:10091000595CD20338D440F60010C0F23D00484381
:100920003EE000BF606859F8041C022808D0012886
:1009300026D1890306D4012001B0BDE8F08300BFB1
:100940008901F8D5D9F8001021F003010843C9F84E
:100950000000FFF7B3FD064641F28837D9F80000E2
:10096000616800F00C00B0EB810F98D0FFF7A6FD96
:10097000801BB842F2D9032001B0BDE8F08300BF6C
:100980008907D8D5DEE700BFD9F8002041F68203F9
:10099000C2F34042C0F600039A5C4843B0FBF2F059
:1009A000D9F8001041F66A02C1F30311C0F6000243
:1009B000515C40F2080220FA01F140F20400C2F258
:1009C00000000068C2F200021160FFF793FE0020F1
:1009D00001B0BDE8F083000040F2080041F20401DC
:1009E000C2F20000C4F202010068096841F67A020E
:1009F000C1F30221C0F60002515CC84070470000FC
:100A0000002804BF012070472DE9F04182B0044660
:100A1000007841F20006C007C4F202060CD07068EC
:100A200000F00C00042840F081803068800303D57A
:100A30006068002800F04681207880071BD5706828
:100A400010F00C0F09D0706800F00C00082840F07E
:100A500087807068C00300F183803068800703D509
:100A60002069012840F02E813068616920F0F8008B
:100A700040EAC10030602078000713D42078400796
:100A80002CD4E569002D00F01881706800F00C008E
:100A9000082840F0A780012D40F00481012002B019
:100AA000BDE8F081A069002800F084800020C4F235
:100AB00042200121C0F88014FFF700FD054600BF69
:100AC000706A800700F1B280FFF7F8FC401B022833
:100AD000F6D9032002B0BDE8F08100BFF0695FEAFB
:100AE000C00808D4F06940F08050F061F06900F06F
:100AF00080500090009847F20007C4F20007386861
:100B0000C00549D4386840F480703860FFF7D6FCDF
:100B1000054600BF3868C0053ED4FFF7CFFC401B38
:100B20006428F7D9032002B0BDE8F081706800F0B6
:100B30000C00082803D17068C0033FF576AF6168E8
:100B40003068002900F00C81B1F5A02F00F0008181
:100B5000B1F5803F40F01A8140F480301CE100BFC5
:100B60002069002840F20000C4F2422000F0888092
:100B700001210160FFF7A2FC054600BF3068800735
:100B80003FF572AFFFF79AFC401B0228F6D903200D
:100B900002B0BDE8F08100BFE168306A002900F0D2
:100BA0009D80052900F09280012940F0AF8040F03F
:100BB0000100B1E00020C4F242200021C0F88014FE
:100BC000FFF77CFC054600BF706A80077FF556AFD3
:100BD000FFF774FC401B0228F6D9032002B0BDE8E1
:100BE000F08100BF0027C4F2422700203866FFF7DB
:100BF00065FC022D05460DD13068800140F1DE8094
:100C0000FFF75CFC401B02284FF00300F4D902B050
:100C1000BDE8F081306880014FD5FFF74FFC401BE5
:100C200002284FF00300F5D9F1E700BF40F20800B9
:100C3000C2F20000006844F6D351C1F26201A0FB89
:100C40000101480A019000BF00BF0198411E002821
:100C500001913FF413AF00BF0198411E002801919C
:100C60003FF40CAF00BF0198411E002801913FF4F2
:100C700005AF00BF0198411E00280191E4D1FDE6B7
:100C800000210160FFF71AFC054600BF30688007AD
:100C90007FF5F1AEFFF712FC401B02284FF0030076
:100CA000F4D9B4E77068216A00F480328A4209D12D
:100CB000616A00F47010884204D1002002B0BDE8DF
:100CC000F08100BF012002B0BDE8F08140F00400D7
:100CD0003062306A40F001001EE000BF20F00100E9
:100CE0003062306A20F004003062FFF7E7FB05460F
:100CF00041F28837306A800720D5FFF7DFFB401BC1
:100D0000B8424FF00300F5D981E700BF20F00100A1
:100D10003062306A20F004003062FFF7CFFB0546F6
:100D200041F28837306A800708D4FFF7C7FB401BC1
:100D3000B842F7D9032002B0BDE8F081B8F1000F46
:100D40003FF59FAEF06920F08050F06199E600BF5A
:100D500040F480203060306840F480301CE000BFF8
:100D600020F480303060306820F480203060FFF75D
:100D7000A5FB0546306880037FF55EAEFFF79EFB5E
:100D8000401B64284FF00300F4D940E720F4803082
:100D90003060306820F480203060FFF78FFB05461C
:100DA000306880033FF548AEFFF788FB401B64289E
:100DB000F6D9032002B0BDE8F08100BF206AB0F58B
:100DC000803F05D17168A26821F400311143716040
:100DD0007168626A21F47411114308437060012044
:100DE0003866FFF76BFB0446306880013FF565AF5E
:100DF000FFF764FB001B02284FF00300F4D906E75D
:100E000070B528B1416A29B100210161142106E0C1
:100E1000012070BD4168B1F5827F02D01C21002203
:100E200042500026866290F8511029B980F850602F
:100E3000054600F039F82846022180F8511090E864
:100E40002E0002F482720C6803F4044324F0400480
:100E50000C601A4405F4006305691A4405F00203A6
:100E600045691A4405F001038569C4691A4405F40B
:100E700000731A4404F03803046A1A4404F080032F
:100E8000846A1A4304F400531A430A60042202EAF3
:100E900015424A60CA6922F40062CA6101214665AE
:100EA00080F85110304670BD70B586B040F6000431
:100EB000C4F20104006804F520510026884205961A
:100EC000CDE90366029601D006B070BD41F218006C
:100ED000C4F20200016802AD41F480510160016872
:100EE00001F4805101910199016841F00401016010
:100EF0000068294600F0040001900198A0200290AB
:100F000002200390032005902046FFF7DDF94020E2
:100F1000CDE90206204629460496FFF7D5F906B02A
:100F200070BD0000411E0020B0EB116F1CBF0120FE
:100F300070474EF21002CEF2000251604EF623517D
:100F4000CEF20001F0230B70072190601160704712
:100F5000704700007047000090F83C20012A4FF0D5
:100F6000020242D010B580F83D200268D2F804E0B9
:100F7000D2F808C00C682EF07003234340F6FF340B
:100F8000C4F20004A242536010DCB2F1804F1FD0C3
:100F900040F20043C4F200039A4219D040F6000325
:100FA000C4F200039A4213D017E000BF40F600439A
:100FB000C4F200039A420BD043F20043C4F201038F
:100FC0009A4205D042F60043C4F201039A4204D18A
:100FD00049682CF08003194391600121002280F8B8
:100FE0003D1080F83C20BDE81040104670470000DE
:100FF000002804BF0120704710B5044690F83D005A
:1010000028B9002084F83C00204600F01FF8022098
:1010100084F83D002068211D00F078FB012084F851
:10102000460084F83E0084F83F0084F8400084F8CD
:10103000410084F8420084F8430084F8440084F8B6
:10104000450084F83D00002010BD000010B584B0BC
:10105000006840F60041C4F2000188422ED040F200
:101060000041C4F20001884216D0B0F1804F1CBF8D
:1010700004B010BD41F21C00C4F20200016800225D
:1010800041F0010101600068012100F001000390BE
:1010900003981C201C2422E041F21C00C4F2020030
:1010A0000168002241F0020101600068002100F0A7
:1010B0000200029002981D201D2410E041F21C0045
:1010C000C4F202000168002241F0080101600068DA
:1010D000002100F008000190019832203224FFF72F
:1010E00061FB204604B0BDE81040FFF749BB00009B
:1010F00090F83C20012A4FF002026CD080B580F8B5
:101100003D20D0F800C04FF67772DCF8083023EAB3
:101110000202CCF808200B684F2B29DC1F2B45DD81
:10112000202B46D0302B44D0402B40F0AF80D1F85C
:1011300004E0C968DCF82030DCF8202022F001024D
:10114000CCF82020DCF8182022F0F00242EA01114D
:1011500023F00A0242EA0E02CCF81810CCF8202044
:10116000DCF8081041F0470121F0300128E000BF11
:101170006F2B33DDB3F5005F74D0B3F5805F21D002
:10118000702B40F08380D1E901E3C968DCF80820C6
:1011900043EA0E0322F47F4243EA01211143CCF8D3
:1011A0000810DCF8081041F0770109E00BB1102BB2
:1011B0006CD1DCF8081021F07001194341F00701EF
:1011C000CCF808100022012180F83D10002180F8A1
:1011D0003C10BDE880401046704700BF502B21D026
:1011E000602B53D1D1F804E0C968DCF82030DCF87A
:1011F000202022F01002CCF82020DCF8182022F465
:10120000704242EA013123F0A00242EA0E12CCF809
:101210001810CCF82020DCF8081041F0670121F00C
:101220001001CDE7D1F804E0C968DCF82030DCF823
:10123000202022F00102CCF82020DCF8182022F037
:10124000F00242EA011123F00A0242EA0E02CCF84F
:101250001810CCF82020DCF8081041F0570121F0DC
:101260002001ADE7D1E901E3C968DCF8082043EAD1
:101270000E0322F47F4243EA01211143CCF8081007
:10128000DCF8081041F480419AE700BF01229AE798
:101290007047000070B504460068C5680669B1076C
:1012A00016D515F0020113D06FF002010161012182
:1012B00021778069800703D02046FFF7E9FF05E02A
:1012C000204600F08FF8204600F08EF800202077AE
:1012D000700719D515F0040016D020686FF00401CE
:1012E000016102212177806910F4407F04D02046FB
:1012F000FFF7CEFF06E000BF204600F073F820465F
:1013000000F072F800202077300717D515F008009C
:1013100014D020686FF00801016104212177C069B1
:10132000800703D02046FFF7B3FF05E0204600F01A
:1013300059F8204600F058F800202077F00619D51B
:1013400015F0100016D020686FF01001016108211F
:101350002177C06910F4407F04D02046FFF798FF42
:1013600006E000BF204600F03DF8204600F03CF8C3
:1013700000202077F00718BF15F0010002D13006D9
:1013800009D412E020686FF001010161204600F0ED
:101390002DF8300609D515F0800006D020686FF0D2
:1013A000800101612046FFF7D3FD700609D515F0D5
:1013B000400006D020686FF040010161204600F037
:1013C00017F8B00658BF70BD15F0200008D021688E
:1013D0006FF0200220460A61BDE87040FFF7BABDF9
:1013E00070BD0000704700007047000070470000AB
:1013F00070470000FEE700002DE9F04F85B04FF088
:10140000000B41F21800CDE903BBCDE901BBC4F2EA
:101410000200016840F6000841F010010160016817
:10142000C4F2010801F0100100910099016808F56B
:10143000006641F0200101600168002201F02001F6
:1014400000910099016842F6104741F004010160E3
:10145000016801F0040100910099016841F0080160
:101460000160006842F6104100F00800009000980A
:101470003046FFF71DF840464FF400410022FFF7C9
:1014800017F808F580652846382100224FF0380A01
:10149000FFF70EF8019701AF01244FF00209304623
:1014A0003946CDE9024BCDF81090FEF70DFF4FF411
:1014B000004001A981E8110840463946CDF8109056
:1014C000FEF702FF28463946CDE901A4CDE903B96C
:1014D000FEF7FAFE05B0BDE8F08F000080B540F2DF
:1014E000700045F20041C2F20000C4F2000148F26F
:1014F000A06200234FF4804CC0F2010280E80E008D
:10150000C0E9033CC0E90533C0E90733FEF7DCFF5F
:10151000002808BF80BDBDE88040FEF7CFBE0000B8
:1015200080B540F2C40043F20001C2F20000C4F2F0
:1015300001014FF48272002380E80E0000F11401D3
:101540004FF4007C4FF0100E81E808500A21C0E9EA
:101550000333C0E90833C0E90A31FFF751FC002822
:1015600008BF80BDBDE88040FEF7A8BE80B586B04C
:1015700040F21C100021C2F200004FF0804242F203
:1015800010734FF4E15C0591CDE90311CDE9001131
:10159000C0E90023C0E9021C01618161FFF728FD59
:1015A000002818BFFEF78AFE4FF48050029040F2E8
:1015B0001C10C2F2000002A9FFF79AFD002818BF14
:1015C000FEF77CFE40F21C10C2F200006946FFF7F5
:1015D000C3FC002818BFFEF771FE06B080BD0000F6
:1015E00080B586B040F2641040F200420021C2F2A1
:1015F0000000C4F2000242F210734FF4347C0591F3
:10160000CDE90311CDE90011C0E90023C0E9021CB6
:1016100001618161FFF7ECFC002818BFFEF74EFE68
:101620004FF48050029040F26410C2F2000002A910
:10163000FFF75EFD002818BFFEF740FE40F2641081
:10164000C2F200006946FFF787FC002818BFFEF7CA
:1016500035FE06B080BD000080B586B040F2AC100B
:1016600040F600420021C2F20000C4F2000242F241
:1016700010734FF4347C0591CDE90311CDE90011CD
:10168000C0E90023C0E9021C01618161FFF7B0FCE1
:10169000002818BFFEF712FE4FF48050029040F26F
:1016A000AC10C2F2000002A9FFF722FD002818BF0B
:1016B000FEF704FE40F2AC10C2F200006946FFF7EC
:1016C0004BFC002818BFFEF7F9FD06B080BD0000F6
:1016D000FEE70000FEE700007047000070470000D2
:1016E000FEF7E6BF7047000040F21C10C2F2000097
:1016F000FFF7D0BD40F26410C2F20000FFF7CABD90
:1017000040F2AC10C2F20000FFF7C4BD10B540F6C5
:10171000FF320368C4F2000240F6004E43F2004C70
:101720009042C4F2000EC4F2010C21DCB0F1804FF3
:1017300028D040F20044C4F20004A04222D040F677
:101740000004C4F20004A0421CD0904220DCB0F19E
:10175000804F27D040F20042C4F20002904221D0D4
:1017600040F60002C4F2000290421BD01EE000BF0F
:10177000704507D0604505D042F60044C4F201042C
:10178000A042E2D14C6823F0700323439042DEDD97
:10179000704507D0604505D042F60042C4F2010210
:1017A000904203D1CA6823F4407313434C6923F079
:1017B0008002D1F800E08B68224360450260C3627A
:1017C000C0F828E005D042F60042C4F2010290427F
:1017D00001D109690163012141610169C90708BF9C
:1017E00010BD016921F00101016110BDFEE700009B
:1017F00090B0FEF76BFF00240120CDE90B44CDE94A
:10180000094406900A904FF4E0104FF4803102250D
:101810000F9006A8CDE90714CDE90D51FFF7F0F8B8
:1018200020B1EFF3108072B6FEE700BF0F20CDE9C4
:1018300001054FF48060CDE9040401A8022103945E
:10184000FEF7ECFF20B1EFF3108072B6FEE700BFA9
:10185000FFF7D2FDFFF764FEFFF788FEFFF73EFEBD
:10186000FFF7FAFEFFF7BCFEFEE7000000000000F5
:10187000000001020304060708090000000001023D
:101880000304010202030405060708090A0B0C0DF4
:101890000E0F1010B8180008000000201000000003
:1018A00094010008C818000810000020E807000094
:1018B000B40100080000000001000000100000005A
:0818C00000127A000000000094
:0400000508000131BD
:00000001FF
