:020000040800F2
:1000000048080020190200085D2A0008F91E0008AF
:10001000592A0008910A0008453000080000000035
:10002000000000000000000000000000CD2D0008CE
:10003000950A000800000000C92D0008D12D000815
:1000400033020008330200083302000833020008BC
:1000500033020008330200083302000833020008AC
:10006000330200083302000833020008330200089C
:10007000330200083302000833020008330200088C
:10008000330200083302000833020008330200087C
:10009000330200083302000833020008330200086C
:1000A000330200083302000833020008330200085C
:1000B000D92D00080D2E0008330200083302000875
:1000C000330200083302000833020008330200083C
:1000D000330200083302000833020008330200082C
:1000E000330200083302000833020008330200081C
:1000F000330200083302000833020008330200080C
:1001000033020008330200088D2E00083302000875
:1001100033020008330200083302000833020008EB
:1001200033020008330200083302000833020008DB
:1001300000F002F800F060F814A696E8000CB24453
:10014000B344DA4501D100F057F8BAE80F000FA622
:1001500096E83000A5EB040504EB0607AAEB0704BC
:10016000A7F101074FEA15154FEA3414A4F1010471
:10017000AC4201D300F040F813F0010F18BFFB1A96
:1001800043F0010300F001F8DBE718474C400000A2
:100190006C400000103A24BF78C878C1FAD85207E2
:1001A00024BF30C830C144BF04680C6070470000F1
:1001B000704700000023002400250026103A28BFC5
:1001C00078C1FBD8520728BF30C148BF0B607047C9
:1001D000662903F08087642900F03E800020704784
:1001E0001FB500F0DFFA04000020002103F0F8FB47
:1001F000E0601FBD10B510BD00F0D4FB1146FFF745
:10020000EFFF02F0C3FF00F0F2FB03B4FFF7F2FFD1
:1002100003BC00F035FC000009488047094800474E
:10022000FEE7FEE7FEE7FEE7FEE7FEE7FEE7FEE7A6
:10023000FEE7FEE704480549054A064B7047000003
:10024000D52D000831010008480200204808002090
:1002500048040020480400202DE9F041064600240F
:1002600010687529314616A510D0AFF3008000281C
:1002700002DA404213A507E031688A0701D512A5CA
:1002800002E0490704D511A5012401E0AFF3008085
:1002900000210A2206F1240709E0B0FBF2FCB0FBC2
:1002A000F2F302FB1C00303078541846491C002839
:1002B000F3D123462A463046BDE8F04100F00BB8A2
:1002C000000000002D0000002B00000020000000B6
:1002D0007047704770472DE9F0470D4699469246A2
:1002E000044600F124080168880604D5E06921F07D
:1002F0001001216000E00120A84201DD471B00E061
:100300000027A1697A1902EB0900081AA061207878
:10031000C00602D42046AFF30080002608E0D4E9EE
:1003200001211AF806009047206A401C761C2062C2
:100330004E45F4DB2078C0060AD52046AFF3008096
:1003400006E0D4E9012130209047206A401C206259
:10035000381EA7F10107F4DC07E0D4E9012118F801
:1003600005009047206A401C2062281EA5F1010567
:10037000F3DC2046AFF300802078000602D502208F
:10038000BDE8F0870120FBE72DE9FF4F0C461E4634
:100390004FF0FF378BB0D2E90001DDF860800A90A2
:1003A0008A46C1F30A5505B93D46002108464FF07B
:1003B0000000BAF1000F00F4400005DA00EB800005
:1003C0004FF4400101EA50004FEA9059B9F1010F92
:1003D00000DDB9460A9850EA4A000ED044F61050A3
:1003E000A5F2FF3545432F14B8F1000F1ED075421A
:1003F000291E1EDDC9F100021CE0B8F1010F4FF00B
:10040000000001D0302103E0F24305E02154401CFC
:10041000B042FBDB30460022002121540B99C1F889
:100420000880C1E900200FB0BDE8F08FBD1B6D1C36
:10043000DEE74A4600DA694206A800F03DFA06AB5C
:1004400093E8070003AB83E8070050460A9902F0DF
:10045000EAFE8DE80700A0F500501F3800900398D1
:10046000002D0ADD42F21F014A460844002303A979
:100470000390684603F054F909E0A0F500504A469D
:100480001F38002303A90390684603F05EF98DE846
:1004900007000004000C03D04FF0FF30410800E0DB
:1004A0001046B8F1000F03D00022009215461EE05E
:1004B000751E05D400F07AF9303262556D1EF9D5FB
:1004C000B3460122084302D000227F1C04E02078BA
:1004D000302801D100227F1E002A099784D01DE018
:1004E000112D07DA00F062F9303262556D1C50EAC6
:1004F0000102F5D1084302D00098C8B10EE00021F6
:10050000681E05E0235C625C63542254401E491C53
:100510008142F7DBAB46A81B401E0990002004F87F
:100520000B000B98099AC0F80880C0E9002B7AE705
:1005300011264FF0000857E72DE9F04F8846044692
:10054000D21D22F0070191B0D1E90001CDE90A01E5
:1005500003F032FA02460B98C00F01D02D2007E0BD
:100560002068810701D52B2002E0202101EAC0008C
:10057000032A099001D0072A05DB0346414620469D
:1005800000F05AF90BE12078800601D5E06900E01F
:100590000620B8F1650F814606D0B8F1660F18D075
:1005A000B8F1670F70D131E00020B9F1110F009060
:1005B00001DB112301E009F101030AAA01A90CA83A
:1005C000FFF7E2FEDDE90C70002609F10105834624
:1005D00047E001204B4600904FF000470AAA01A9CE
:1005E0000CA8FFF7D1FEDDE90DB00C995D460026A1
:1005F00010B909F101000D18B9EB050003D4C0F1E1
:10060000FF3609F10105A5EB09002BE0B9F1010F57
:1006100001DA4FF001090020B9F1110F00904846AE
:1006200001DD112300E003460AAA01A90CA8FFF787
:10063000ABFEDDE90C704D460026834620780007AE
:100640000AD4AB4500DA5D4601A8012D04DD41194D
:1006500011F8011C302907D04F4502DA17F1040FB9
:1006600004DA012082460FE06D1EEEE7002F02DC67
:10067000ED1B3E4403E0781CA84200DD7D1CB81B46
:1006800000F1010A4FF000472078000703D4AA4583
:1006900001DB4FF0FF3A0021B7F1004F0DF14308A5
:1006A0008DF8431024D002202B23002F01DA7F4243
:1006B0002D230A21021EA0F1010000DC5FB197FB8F
:1006C000F1FC97FBF1F201FB1C7C17460CF1300C9E
:1006D00008F801CDEEE7A8F10100037021880905B3
:1006E00001D5452100E06521A0F1010800F8011CB9
:1006F00009980FA9A1EB0807FF1D00B101204119BE
:1007000001EBEA70A1693844081A401EA061207804
:10071000C00602D42046AFF30080099828B1D4E97E
:1007200001219047206A401C20622078C00622D513
:100730002046AFF300801EE0002E04DBB34502DD4F
:1007400001A8805D00E03020D4E901219047206AB3
:10075000401C2062761CAAF101005FEA000A0AD15F
:1007600000F020F8C0680168405CD4E9012190479E
:10077000206A401C2062281EA5F10105DCDC07E090
:10078000D4E9012118F8010B9047206A401C20622F
:10079000381EA7F10107F3DC2046AFF300800320E9
:1007A00011B041E6004870475000002030B5B0F16C
:1007B0000A0271F100034FEA900E4EEA817EB0EB1F
:1007C0000E0061EB91014FEA101E4EEA017E10EB24
:1007D0000E0041EB11114FEA102E4EEA016E10EBA4
:1007E0000E0041EB11214FEA104E4EEA014E10EB84
:1007F0000E0041EB1141401841F100014FEAD000D9
:1008000040EA41704FEAD1014FEA810444EA907412
:1008100010EB800544EB01046D1944EB0404521BFA
:10082000A3414FF0000348BF0A3200D530BD401C41
:1008300041F1000130BD00002DE9F0411F460446A2
:1008400003260168072A01F4006004DB08B116A53D
:1008500005E016A503E008B115A500E015A521F0F7
:1008600010002060A069C01EA0610FB1401EA061F1
:100870002046AFF300804FB1D4E9012138469047BC
:10088000206A401C2062C01C206206E0206AFAE751
:10089000D4E9012115F8010B9047761EF8D22046C5
:1008A000AFF30080BDE8F0814E414E006E616E00F6
:1008B000494E4600696E66002DE9F04781461646AE
:1008C0008AB0354878440DC88DE80D003248784428
:1008D000801C03AC0DC884E80D0041F69B30084431
:1008E000372190FBF1F290FBF1F5A5F1800501FBBA
:1008F00012041B3C02D56442012000E00020DFF816
:1009000098A080460027FA44AAF1BE0A0EE0E0074C
:100910000AD03246684607EB470101230AEB810102
:1009200002F013FF8DE8070064107F1C002CEED14D
:10093000194F7F44AE3F19E0E80715D007EB0410CC
:100940000DF1180A90E80E008AE80E00C068F04227
:1009500001D1981908903246012306A903A802F094
:10096000F4FE03AB83E807006D10641C002DE3D197
:100970004FF0010332466946B8F1000F03A802D0D8
:1009800002F0CEFE01E002F0E0FEC9E90001C9F884
:1009900008200AB0BDE8F087903800000048704792
:1009A000300000207546FFF7F9FFAE4605006946A6
:1009B000534620F00700854618B020B5FFF73AFCF3
:1009C000BDE820404FF000064FF000074FF0000850
:1009D0004FF0000BAC46ACE8C009ACE8C009ACE88D
:1009E000C009ACE8C00921F007018D46704710B579
:1009F0000446AFF300802046BDE81040FFF705BC79
:100A00004FF0013C50F8042B51F8043B9A4221D19D
:100A1000A2EB0C03934313EACC1317D150F8042B29
:100A200051F8043B9A4215D1A2EB0C03934313EA0D
:100A3000CC130BD150F8042B51F8043B9A4209D146
:100A4000A2EB0C03934313EACC13DBD04FF000006E
:100A5000704700BFD01A01BAB1FA81F101F0180154
:100A600022FA01F0CB40DBB2C0B2C01AC1F12001C2
:100A70002CFA01F3D11A914311EAC311E6D1704760
:100A800001491820ABBEFEE72600020070470000B7
:100A9000FEE7000070470000EFF3108072B600BF61
:100AA000FEE70000B0B5044600F00AF9054640F242
:100AB0000000C2F200000078611C18BF044400BFAF
:100AC00000F0FEF8401BA042FAD3B0BD2DE9F04F74
:100AD00082B00E68002E00F0E980A0F1804241F65D
:100AE000004540F20043A2F58432C4F20105062419
:100AF000C4F201034FEAB227A84208BF05244FF011
:100B0000000E4FF001080F254FF0000A4FF0000BC8
:100B1000052F38BF4FEAB224009408E00E680AF1AE
:100B2000010A36FA0AF20EF1040E00F0BF8008FA4C
:100B30000AFC16EA0C09F1D04E684FF6FF72C1F2BA
:100B40001002964212DC122E56D8DFE806F0350B62
:100B50004D49555555555555555555555555554569
:100B6000510000BFD1F80CB046E000BF4FF6FF7255
:100B7000C1F2210296420FDC0022C1F2110296421C
:100B80001AD00022C1F21202964215D00022C1F200
:100B90002102964210D02FE00022C1F2220296429A
:100BA0000AD00022C1F23102964205D00022C1F2E1
:100BB0003202964220D100BF8A684AB1012A14BF8E
:100BC000C0F814C0C0F810C04FF0080B14E000BF0C
:100BD0004FF0040B10E000BFCA6802F1040B0BE0F9
:100BE0004FF0000B08E000BFCA6802F1080B03E0F9
:100BF000CA6802F10C0B00BF02467446B9F5807F4B
:100C000024BF0432203C166805FA04F726EA0707D9
:100C10000BFA04F637431760CA79D2067FF57EAF28
:100C200041F21807C4F202073A684FF6084542F04D
:100C300001023A603A68CFF6FF7502F001020192B4
:100C4000019A2AF003021A440F2457590EF00C0699
:100C5000B440A743009C04FA06F6374357514E6848
:100C600040F20C44F2029A6854BF22EA090242EAB6
:100C70000902C4F201049A602268B70254BF22EA52
:100C8000090242EA090222605A68B70354BF22EA05
:100C9000090242EA09025A600F251A68F70354BF95
:100CA00022EA090242EA09021A6037E702B0BDE807
:100CB000F08F0000002A08BF09040161704700009E
:100CC00040F24420C2F2000000687047002804BFD0
:100CD00001207047F0B581B0044690F83D0028B976
:100CE000002084F83C00204600F050F9242084F8CD
:100CF0003D002068016821F001010160016841F4B4
:100D000000410160016821F40041016000F014FB22
:100D1000636848F2A16CC0F2010C40F60011C0F209
:100D20003D0163453CBF48F28041C0F21E0188424C
:100D300002D2012001B0F0BD4DF68361C4F21B3137
:100D4000A0FB01122168970CD1F804E04FF49676CD
:100D50002EF03F0545EA92454D60774348F6381638
:100D60000D6AC0F24106A7FB067625F03F076345F2
:100D700038BF960C721C3A430A62CA6948F2A066F0
:100D80004CF6FF77C0F20106B34222EA07020BD805
:100D900001385B00B0FBF3F001306FF31F30042823
:100DA00098BF04201BE000BFA768013857B119277E
:100DB0007B43B0FBF3F001306FF31F3070B100F5EF
:100DC000804007E003EB4303B0FBF3F001306FF327
:100DD0001F3018B100F5004001E000BF01201043B2
:100DE000C8610868D4E9072320F0C0001043184305
:100DF0000860886848F2FF3204F10C0790438CCFFA
:100E000018431043A6698860C86820F0FF00384383
:100E10003043C860086840F00100086000202021CD
:100E2000206484F83D10206384F83E0001B0F0BDDA
:100E30002DE9F04383B0994616460F460446FFF766
:100E40003FFF94F83D10202924D10546206800BFBB
:100E5000816989071AD5FFF733FF411B20681A29DA
:100E6000F6D381698907F3D500202021206384F817
:100E70003D1084F83E00216C41F02001216484F88B
:100E80003C00022003B0BDE8F08300BF94F83C10A2
:100E9000012903D1022003B0BDE8F083012284F8C8
:100EA0003C200368DDE90B180A9ADB0703D10368CD
:100EB00043F001030360036823F40063036021200F
:100EC00084F83D00402084F83E00002020646262E7
:100ED0006185608D394620850020CFF6FF70E06285
:100EE000204632464B46CDE9008501F007F818B19F
:100EF000012003B0BDE8F083208D98B9204641461B
:100F00002A4601F05FF888B3206C0428F0D12068ED
:100F1000016841F400710160012003B0BDE8F08375
:100F20000004EBD0204641462A4601F0FBF9002898
:100F3000EAD1616A2268084610F8013B1361238DEB
:100F40006062581E2085678D013F678557697F075E
:100F5000E6D50704E4D048781061881C6062981ECA
:100F60002085618D01396185DAE700BF206801685D
:100F700041F400710160202084F83D00002084F8D5
:100F80003E0084F83C0003B0BDE8F08310B586B0A5
:100F9000006845F20041C4F2000188424FF00000B1
:100FA000CDE90400CDE9020002D006B010BD00BFBB
:100FB00041F21804C4F20204206802A940F00800BB
:100FC0002060206800F00800019001984FF4407004
:100FD0000290122003900320059040F60040C4F2D6
:100FE0000100FFF773FD0420C4F20100016841F025
:100FF000E06141F002010160606840F4001060604F
:10100000606800F400100190019806B010BD000067
:1010100040F2000040F24421C2F20000C2F200019E
:1010200000780A68104408607047000080B542F2FA
:101030000000C4F20200016841F0100101600320C9
:1010400000F08CF80F2000F005F800F027F80020E1
:1010500080BD000070B540F20006C2F2000640F20A
:1010600028013278C2F200014FF47A730968B3FBA9
:10107000F2F20446B1FBF2F1084600F003FC0F2C3B
:101080004FF0010508D838B94FF0FF302146002253
:10109000002500F037F87460284670BD82B041F238
:1010A0001800C4F202000168022241F0010101604F
:1010B000016801F0010101910199416841F08051FD
:1010C0004160406800F08050009000980420C4F215
:1010D0000100016862F31A61016002B0704700000C
:1010E000002848BF704700F01F01012202FA01F1F9
:1010F0001C2202EAD0004EF20012CEF20002815011
:101100007047000010B54EF60C5CCEF2000CDCF817
:101110000030C3F3022E8EF00704042C28BF0424F1
:10112000BEF103034FF0FF3E0EFA04F438BF002374
:10113000A14399400EFA03F39A43114300F00F02C2
:1011400000F160430901043A03F564436244002856
:1011500048BF02F10C03197010BD00004EF60C518F
:10116000CEF200010A684FF6FF031A4060F30A222C
:1011700042F0806040F0FD7008607047002804BFB6
:10118000012070472DE9F04381B042F20008C4F21B
:1011900002080446D8F800000D4600F00700884217
:1011A0000CD2D8F8000020F007002843C8F800004F
:1011B000D8F8000000F00700A8426CD1206841F286
:1011C00004098107C4F2020917D5410705D5D9F8EA
:1011D000001041F4E061C9F80010010705D5D9F805
:1011E000001041F46051C9F80010D9F80010A2684D
:1011F00021F0F0011143C9F80010C00742D1D8F81E
:10120000000000F00700A8420CD9D8F8000020F038
:1012100007002843C8F80000D8F8000000F00700D5
:10122000A84238D12068410707D5D9F80010E268F4
:1012300021F4E0611143C9F80010000708D5D9F87E
:101240000000216920F4605040EAC100C9F80000A4
:10125000D9F8002002F00C00082841F20020C0F26A
:101260007A004DD144F28A13C2F38341C0F60003E1
:10127000595CD20338D440F60010C0F23D00484318
:101280003EE000BF606859F8041C022808D001281D
:1012900026D1890306D4012001B0BDE8F08300BF48
:1012A0008901F8D5D9F8001021F003010843C9F8E5
:1012B0000000FFF705FD064641F28837D9F8000027
:1012C000616800F00C00B0EB810F98D0FFF7F8FCDC
:1012D000801BB842F2D9032001B0BDE8F08300BF03
:1012E0008907D8D5DEE700BFD9F8002044F288137B
:1012F000C2F34042C0F600039A5C4843B0FBF2F0F0
:10130000D9F8001044F27012C1F30311C0F60002C4
:10131000515C40F2280220FA01F140F20400C2F2CE
:1013200000000068C2F200021160FFF793FE002087
:1013300001B0BDE8F083000040F2280041F2040152
:10134000C2F20000C4F202010068096844F280128F
:10135000C1F30221C0F60002515CC8407047000092
:10136000002804BF012070472DE9F04182B00446F7
:10137000007841F20006C007C4F202060CD0706883
:1013800000F00C00042840F081803068800303D511
:101390006068002800F04681207880071BD57068BF
:1013A00010F00C0F09D0706800F00C00082840F015
:1013B00087807068C00300F183803068800703D5A0
:1013C0002069012840F02E813068616920F0F80022
:1013D00040EAC10030602078000713D4207840072D
:1013E0002CD4E569002D00F01881706800F00C0025
:1013F000082840F0A780012D40F00481012002B0B0
:10140000BDE8F081A069002800F084800020C4F2CB
:1014100042200121C0F88014FFF752FC054600BFAE
:10142000706A800700F1B280FFF74AFC401B022877
:10143000F6D9032002B0BDE8F08100BFF0695FEA91
:10144000C00808D4F06940F08050F061F06900F005
:1014500080500090009847F20007C4F200073868F7
:10146000C00549D4386840F480703860FFF728FC24
:10147000054600BF3868C0053ED4FFF721FC401B7D
:101480006428F7D9032002B0BDE8F081706800F04D
:101490000C00082803D17068C0033FF576AF61687F
:1014A0003068002900F00C81B1F5A02F00F0008118
:1014B000B1F5803F40F01A8140F480301CE100BF5C
:1014C0002069002840F20000C4F2422000F0888029
:1014D00001210160FFF7F4FB054600BF306880077B
:1014E0003FF572AFFFF7ECFB401B0228F6D9032053
:1014F00002B0BDE8F08100BFE168306A002900F069
:101500009D80052900F09280012940F0AF8040F0D5
:101510000100B1E00020C4F242200021C0F8801494
:10152000FFF7CEFB054600BF706A80077FF556AF18
:10153000FFF7C6FB401B0228F6D9032002B0BDE826
:10154000F08100BF0027C4F2422700203866FFF771
:10155000B7FB022D05460DD13068800140F1DE80D9
:10156000FFF7AEFB401B02284FF00300F4D902B096
:10157000BDE8F081306880014FD5FFF7A1FB401B2B
:1015800002284FF00300F5D9F1E700BF40F2280030
:10159000C2F20000006844F6D351C1F26201A0FB20
:1015A0000101480A019000BF00BF0198411E0028B8
:1015B00001913FF413AF00BF0198411E0028019133
:1015C0003FF40CAF00BF0198411E002801913FF489
:1015D00005AF00BF0198411E00280191E4D1FDE64E
:1015E00000210160FFF76CFB054600BF30688007F3
:1015F0007FF5F1AEFFF764FB401B02284FF00300BC
:10160000F4D9B4E77068216A00F480328A4209D1C3
:10161000616A00F47010884204D1002002B0BDE875
:10162000F08100BF012002B0BDE8F08140F004006D
:101630003062306A40F001001EE000BF20F001007F
:101640003062306A20F004003062FFF739FB054653
:1016500041F28837306A800720D5FFF731FB401B05
:10166000B8424FF00300F5D981E700BF20F0010038
:101670003062306A20F004003062FFF721FB05463B
:1016800041F28837306A800708D4FFF719FB401B06
:10169000B842F7D9032002B0BDE8F081B8F1000FDD
:1016A0003FF59FAEF06920F08050F06199E600BFF1
:1016B00040F480203060306840F480301CE000BF8F
:1016C00020F480303060306820F480203060FFF7F4
:1016D000F7FA0546306880037FF55EAEFFF7F0FA53
:1016E000401B64284FF00300F4D940E720F4803019
:1016F0003060306820F480203060FFF7E1FA054662
:10170000306880033FF548AEFFF7DAFA401B6428E3
:10171000F6D9032002B0BDE8F08100BF206AB0F521
:10172000803F05D17168A26821F4003111437160D6
:101730007168626A21F474111143084370600120DA
:101740003866FFF7BDFA0446306880013FF565AFA3
:10175000FFF7B6FA001B02284FF00300F4D906E7A2
:1017600070B528B1416A29B100210161142106E058
:10177000012070BD4168B1F5827F02D01C2100229A
:1017800042500026866290F8511029B980F85060C6
:10179000054600F039F82846022180F8511090E8FB
:1017A0002E0002F482720C6803F4044324F0400417
:1017B0000C601A4405F4006305691A4405F002033D
:1017C00045691A4405F001038569C4691A4405F4A2
:1017D00000731A4404F03803046A1A4404F08003C6
:1017E000846A1A4304F400531A430A60042202EA8A
:1017F00015424A60CA6922F40062CA610121466545
:1018000080F85110304670BD70B586B040F60004C7
:10181000C4F20104006804F52051002688420596B0
:10182000CDE90366029601D006B070BD41F2180002
:10183000C4F20200016802AD41F480510160016808
:1018400001F4805101910199016841F004010160A6
:101850000068294600F0040001900198A020029041
:1018600002200390032005902046FFF72FF9402027
:10187000CDE90206204629460496FFF727F906B06F
:1018800070BD0000411E0020B0EB116F1CBF012095
:1018900070474EF21002CEF2000251604EF6235114
:1018A000CEF20001F0230B700721906011607047A9
:1018B000704700007047000090F83C20012A4FF06C
:1018C000020242D010B580F83D200268D2F804E050
:1018D000D2F808C00C682EF07003234340F6FF34A2
:1018E000C4F20004A242536010DCB2F1804F1FD05A
:1018F00040F20043C4F200039A4219D040F60003BC
:10190000C4F200039A4213D017E000BF40F6004330
:10191000C4F200039A420BD043F20043C4F2010325
:101920009A4205D042F60043C4F201039A4204D120
:1019300049682CF08003194391600121002280F84E
:101940003D1080F83C20BDE8104010467047000074
:10195000002804BF0120704710B5044690F83D00F0
:1019600028B9002084F83C00204600F01FF802202F
:1019700084F83D002068211D01F0F4FA012084F86C
:10198000460084F83E0084F83F0084F8400084F864
:10199000410084F8420084F8430084F8440084F84D
:1019A000450084F83D00002010BD000010B584B053
:1019B000006840F60041C4F2000188422ED040F297
:1019C0000041C4F20001884216D0B0F1804F1CBF24
:1019D00004B010BD41F21C00C4F2020001680022F4
:1019E00041F0010101600068012100F00100039055
:1019F00003981C201C2422E041F21C00C4F20200C7
:101A00000168002241F0020101600068002100F03D
:101A10000200029002981D201D2410E041F21C00DB
:101A2000C4F202000168002241F008010160006870
:101A3000002100F008000190019832203224FFF7C5
:101A400061FB204604B0BDE81040FFF749BB000031
:101A500090F83C20012A4FF002026CD080B580F84B
:101A60003D20D0F800C04FF67772DCF8083023EA4A
:101A70000202CCF808200B684F2B29DC1F2B45DD18
:101A8000202B46D0302B44D0402B40F0AF80D1F8F3
:101A900004E0C968DCF82030DCF8202022F00102E4
:101AA000CCF82020DCF8182022F0F00242EA0111E4
:101AB00023F00A0242EA0E02CCF81810CCF82020DB
:101AC000DCF8081041F0470121F0300128E000BFA8
:101AD0006F2B33DDB3F5005F74D0B3F5805F21D099
:101AE000702B40F08380D1E901E3C968DCF808205D
:101AF00043EA0E0322F47F4243EA01211143CCF86A
:101B00000810DCF8081041F0770109E00BB1102B48
:101B10006CD1DCF8081021F07001194341F0070185
:101B2000CCF808100022012180F83D10002180F837
:101B30003C10BDE880401046704700BF502B21D0BC
:101B4000602B53D1D1F804E0C968DCF82030DCF810
:101B5000202022F01002CCF82020DCF8182022F4FB
:101B6000704242EA013123F0A00242EA0E12CCF8A0
:101B70001810CCF82020DCF8081041F0670121F0A3
:101B80001001CDE7D1F804E0C968DCF82030DCF8BA
:101B9000202022F00102CCF82020DCF8182022F0CE
:101BA000F00242EA011123F00A0242EA0E02CCF8E6
:101BB0001810CCF82020DCF8081041F0570121F073
:101BC0002001ADE7D1E901E3C968DCF8082043EA68
:101BD0000E0322F47F4243EA01211143CCF808109E
:101BE000DCF8081041F480419AE700BF01229AE72F
:101BF0007047000070B504460068C5680669B10703
:101C000016D515F0020113D06FF002010161012118
:101C100021778069800703D02046FFF7E9FF05E0C0
:101C2000204600F08FF8204600F08EF80020207744
:101C3000700719D515F0040016D020686FF0040164
:101C4000016102212177806910F4407F04D0204691
:101C5000FFF7CEFF06E000BF204600F073F82046F5
:101C600000F072F800202077300717D515F0080033
:101C700014D020686FF00801016104212177C06948
:101C8000800703D02046FFF7B3FF05E0204600F0B1
:101C900059F8204600F058F800202077F00619D5B2
:101CA00015F0100016D020686FF0100101610821B6
:101CB0002177C06910F4407F04D02046FFF798FFD9
:101CC00006E000BF204600F03DF8204600F03CF85A
:101CD00000202077F00718BF15F0010002D1300670
:101CE00009D412E020686FF001010161204600F084
:101CF0002DF8300609D515F0800006D020686FF069
:101D0000800101612046FFF7D3FD700609D515F06B
:101D1000400006D020686FF040010161204600F0CD
:101D200017F8B00658BF70BD15F0200008D0216824
:101D30006FF0200220460A61BDE87040FFF7BABD8F
:101D400070BD000070470000704700007047000041
:101D50007047000070B541F20004C4F20104A4F51C
:101D600000660546C20930464FF40041FEF7A2FF67
:101D700020464FF400610022FEF79CFF0120FEF791
:101D800091FE20464FF400610122FEF793FF0120EF
:101D9000FEF788FEC5F3801230464FF40041FEF78F
:101DA00089FF20464FF400610022FEF783FF0120E7
:101DB000FEF778FE20464FF400610122FEF77AFF1D
:101DC0000120FEF76FFEC5F3401230464FF400418C
:101DD000FEF770FF20464FF400610022FEF76AFF15
:101DE0000120FEF75FFE20464FF400610122FEF75E
:101DF00061FF0120FEF756FEC5F3001230464FF496
:101E00000041FEF757FF20464FF400610022FEF725
:101E100051FF0120FEF746FE20464FF400610122EB
:101E2000FEF748FF0120FEF73DFEC5F3C002304635
:101E30004FF40041FEF73EFF20464FF400610022C0
:101E4000FEF738FF0120FEF72DFE20464FF400611B
:101E50000122FEF72FFF0120FEF724FEC5F38002CA
:101E600030464FF40041FEF725FF20464FF4006155
:101E70000022FEF71FFF0120FEF714FE20464FF45C
:101E800000610122FEF716FF0120FEF70BFEC5F3ED
:101E9000400230464FF40041FEF70CFF20464FF45D
:101EA00000610022FEF706FF0120FEF7FBFD204641
:101EB0004FF400610122FEF7FDFE0120FEF7F2FD66
:101EC00005F0010230464FF40041FEF7F3FE2046D4
:101ED0004FF400610022FEF7EDFE0120FEF7E2FD67
:101EE00020464FF400610122FEF7E4FE0120BDE828
:101EF0007040FEF7D7BD0000FEE700002DE9F0437B
:101F000083B0044600680F4601680A9D0B9E41F4A9
:101F1000807199469046016020464FF001110022E1
:101F20002B46009600F0ACF850B120680068C00560
:101F300044BF4FF400702064032003B0BDE8F08379
:101F4000206807F0FE0101610221C0F20101204674
:101F50002A46334600F07AF920B1012003B0BDE8EB
:101F6000F08300BF00200290206832464169029150
:101F70008069294602900298204600F0D3F958B1B2
:101F8000206C0428E9D12068016841F400710160E7
:101F9000012003B0BDE8F0832068B9F1010F0AD039
:101FA0004FEA1821016120462946324600F0BAF96D
:101FB0000028E5D120685FFA88F10161002003B0B4
:101FC000BDE8F08370B50368044653F8140F40076A
:101FD00011D40E46481C29D086BB00BF18684005A6
:101FE00027D4FEF76DFE236853F8140F400737D54A
:101FF00018684007F2D5002070BD00BF1868400780
:10200000F9D41868400514D418684007F3D4186848
:1020100040050ED418684007EDD41868400508D470
:10202000186840074FF0000048BF70BD18684005B1
:10203000E4D56FF480601860042012E0154603E0D8
:1020400053F8140F4007D6D418684005F1D4FEF7B2
:1020500037FE401B2368B042F2D958694007EFD4DD
:10206000202000212022216384F83D2084F83E10A6
:10207000226C10432064012084F83C1070BD0000E5
:102080002DE9F041054600681E46144601F47F0222
:1020900001338FB242D0DDF81880B2F5803F40F0B6
:1020A000878040693840C01BB0FA80F04009A042E8
:1020B00040F0C8804EB924E040693840C01BB0FAF7
:1020C00080F04009A04240F0BD80FEF7F9FDA0EB92
:1020D00008012868B142EFD941693940C91BB1FAFA
:1020E00081F14909A142E7D19BE000BF4069384036
:1020F000C01BB0FA80F04009A0424FF0000040F051
:10210000A280FEF7DDFD286841693940C91BB1FA9C
:1021100081F14909A142E9D183E000BFB2F5803FD6
:1021200024D100BF41693940C91BB1FA81F1490985
:10213000A14240F0878041693940C91BB1FA81F161
:102140004909A14240F07E8041693940C91BB1FA7A
:1021500081F14909A14275D141693940C91BB1FAE0
:1021600081F14909A142DDD06CE000BF81693940AD
:10217000C91BB1FA81F14909A14263D18169394092
:10218000C91BB1FA81F14909A1425BD1816939408A
:10219000C91BB1FA81F14909A14253D18169394082
:1021A000C91BB1FA81F14909A142DFD04AE000BF61
:1021B00080693840C01BB0FA80F04009A04241D18C
:1021C00046B923E080693840C01BB0FA80F040096E
:1021D000A04237D1FEF774FDA0EB08012868B14298
:1021E000F0D981693940C91BB1FA81F14909A1428D
:1021F000E8D116E080693840C01BB0FA80F0400991
:10220000A0424FF0000018BFBDE8F081FEF758FD76
:10221000286881693940C91BB1FA81F14909A14295
:10222000E8D100202021286385F83D1085F83E0084
:10223000296C41F02001296485F83C000120BDE8AB
:10224000F08100BF0020BDE8F0810000F0B581B052
:10225000044600681D4643698FB203EA0701B9428C
:1022600002D1002001B0F0BD4169164601323CD0D8
:10227000490512D47EB300BFFEF722FD411B206842
:10228000B14203D941693940B9422BD14169394042
:10229000B942E6D041694905EED5016841F40071C3
:1022A00001606FF4806141610420002120222163DC
:1022B00084F83D2084F83E10226C1043206484F89A
:1022C0003C10012001B0F0BD41693940B942C8D08D
:1022D00041694905E1D4FEF7F3FC206841693940C2
:1022E000B942F1D02020E0E741694905D5D44169E0
:1022F0003940B942B5D041694905CED44169394028
:10230000B942AED041694905C7D441693940B942A3
:10231000A7D041694905C0D441693940B942E3D1E8
:102320009FE7000070B50368044653F8140F0006D9
:1023300011D40E46481C29D086BB00BF1868400542
:1023400027D4FEF7BDFC236853F8140F000637D5D9
:1023500018680006F2D5002070BD00BF186800069E
:10236000F9D41868400514D418680006F3D4186826
:1023700040050ED418680006EDD41868400508D44E
:10238000186800064FF0000048BF70BD186840058F
:10239000E4D56FF480601860042012E0154603E075
:1023A00053F8140F0006D6D418684005F1D4FEF790
:1023B00087FC401B2368B042F2D958690006EFD46D
:1023C000202000212022216384F83D2084F83E1043
:1023D000226C10432064012084F83C1070BD000082
:1023E00010B50120FFF7B6FC0220FFF7B3FC41F265
:1023F0000004C4F2010420464FF480610022FEF77D
:1024000059FC0120FEF74EFB20464FF4806101226B
:10241000FEF750FC0120FEF745FB0520FEF742FBCE
:102420000120FFF797FC0220FFF794FC20464FF4B1
:1024300080610022FEF73EFC0120FEF733FB2046C0
:102440004FF480610122FEF735FC0120FEF72AFBE4
:102450000520FEF727FB0120FFF77CFC0220FFF799
:1024600079FC20464FF480610022FEF723FC012016
:10247000FEF718FB20464FF480610122FEF71AFC9C
:102480000120FEF70FFB0520FEF70CFB0120FFF7F4
:1024900061FC0220FFF75EFC20464FF480610022C1
:1024A000FEF708FC0120FEF7FDFA20464FF480619C
:1024B0000122FEF7FFFB0120FEF7F4FA0520FEF7EC
:1024C000F1FA0120FFF746FC0220FFF743FC20460B
:1024D0004FF480610022FEF7EDFB0120FEF7E2FAE7
:1024E00020464FF480610122FEF7E4FB0120FEF755
:1024F000D9FA0520FEF7D6FA0120FFF72BFC0220BF
:10250000FFF728FC20464FF480610022FEF7D2FB43
:102510000120FEF7C7FA20464FF480610122FEF742
:10252000C9FB0120FEF7BEFA0520FEF7BBFA012029
:10253000FFF710FC0220FFF70DFC20464FF48061EE
:102540000022FEF7B7FB0120FEF7ACFA20464FF45D
:1025500080610122FEF7AEFB0120FEF7A3FA052001
:10256000FEF7A0FA0120FFF7F5FB0220FFF7F2FBD0
:1025700020464FF480610022FEF79CFB0120FEF70D
:1025800091FA20464FF480610122FEF793FB01206F
:10259000FEF788FA0520BDE81040FEF783BA000078
:1025A00080B544F2CB12C0F600020020012100F0F9
:1025B0001BF844F2BB12C0F600020220002100F01A
:1025C00013F844F2A212C0F600020320002100F02A
:1025D0000BF844F29A12C0F6000204200221BDE872
:1025E000804000F001B8000070B5154640F20802C6
:1025F000C2F2000240F6004402EBC000C4F2010443
:10260000465C204608210122FEF754FB0120FEF71C
:1026100049FAF82000F018FD06F0F00000F014FD73
:102620003001C0B200F010FD204608210022FEF764
:1026300041FB2E78002E08BF70BD013D20460821C9
:102640000122FEF737FB0120FEF72CFAFA2000F0FA
:10265000FBFC06F0F00000F0F7FC3001C0B200F027
:10266000F3FC204608210022FEF724FBAE7801355A
:10267000002EE3D170BD000010B53220FEF712FA33
:1026800040F60044C4F20104204608210122FEF76E
:1026900011FB0120FEF706FAF82000F0D5FC3020EF
:1026A00000F0D2FC002000F0CFFC204608210022E0
:1026B000FEF700FB0220FEF7F5F920460821012273
:1026C000FEF7F8FA0120FEF7EDF9F82000F0BCFC67
:1026D000002000F0B9FC302000F0B6FC20460821B4
:1026E0000022FEF7E7FA0220FEF7DCF92046082177
:1026F0000122FEF7DFFA0120FEF7D4F9F82000F0FE
:10270000A3FC002000F0A0FCC02000F09DFC2046AF
:1027100008210022FEF7CEFA0220FEF7C3F9204678
:1027200008210122FEF7C6FA0120FEF7BBF9F820C6
:1027300000F08AFC002000F087FC102000F084FCF0
:10274000204608210022FEF7B5FA0220FEF7AAF97A
:10275000204608210122FEF7ADFA0120FEF7A2F97A
:10276000F82000F071FC002000F06EFC602000F00A
:102770006BFC204608210022BDE81040FEF79ABA03
:102780002DE9F04F85B04FF0000B41F21800CDE974
:1027900003BBCDE901BBC4F20200016840F60008AA
:1027A00041F0100101600168C4F2010801F010015C
:1027B00000910099016808F5006641F02001016070
:1027C0000168002201F0200100910099016842F6A1
:1027D000104741F004010160016801F0040100911B
:1027E0000099016841F008010160006842F610415B
:1027F00000F00800009000983046FEF75BFA404673
:102800004FF400410022FEF755FA08F5806528468E
:10281000382100224FF0380AFEF74CFA019701AF39
:1028200001244FF0020930463946CDE9024BCDF87C
:102830001090FEF74BF94FF4004001A981E8110810
:1028400040463946CDF81090FEF740F92846394603
:10285000CDE901A4CDE903B9FEF738F905B0BDE82B
:10286000F08F000080B540F2B40045F20041C2F2A2
:102870000000C4F2000148F2A06200234FF4804C33
:10288000C0F2010280E80E00C0E9033CC0E9053354
:10289000C0E90733FEF71AFA002808BF80BDBDE87B
:1028A0008040FEF7F9B8000080B540F2081043F20E
:1028B0000001C2F20000C4F201014FF48272002351
:1028C00080E80E0000F114014FF4007C4FF0100E70
:1028D00081E808500A21C0E90333C0E90833C0E9A0
:1028E0000A31FEF73DFF002808BF80BDBDE88040EB
:1028F000FEF7D2B880B586B040F260100021C2F277
:1029000000004FF0804242F210734FF4E15C0591F9
:10291000CDE90311CDE90011C0E90023C0E9021C93
:1029200001618161FFF714F8002818BFFEF7B4F8C1
:102930004FF48050029040F26010C2F2000002A9F1
:10294000FFF786F8002818BFFEF7A6F840F26010DF
:10295000C2F200006946FEF7AFFF002818BFFEF77D
:102960009BF806B080BD000080B586B040F2A8108C
:1029700040F200420021C2F20000C4F2000242F222
:1029800010734FF4347C0591CDE90311CDE90011AA
:10299000C0E90023C0E9021C01618161FEF7D8FF94
:1029A000002818BFFEF778F84FF48050029040F2EC
:1029B000A810C2F2000002A9FFF74AF8002818BFC9
:1029C000FEF76AF840F2A810C2F200006946FEF76E
:1029D00073FF002818BFFEF75FF806B080BD000047
:1029E00080B586B040F2F01040F600420021C2F2FD
:1029F0000000C4F2000242F210734FF4347C0591DF
:102A0000CDE90311CDE90011C0E90023C0E9021CA2
:102A100001618161FEF79CFF002818BFFEF73CF8BA
:102A20004FF48050029040F2F010C2F2000002A970
:102A3000FFF70EF8002818BFFEF72EF840F2F0104E
:102A4000C2F200006946FEF737FF002818BFFEF704
:102A500023F806B080BD0000FEE70000FEE700009E
:102A60002DE9F04F85B040F2B40400250A26012775
:102A7000C2F200040DF1120B0DF113084FF0000922
:102A800049F0B0008DF8100004A8CDE900072046F9
:102A90007821002201230296FEF7CAF90DF11100F8
:102AA000CDE9000720467821002201238DF811503E
:102AB0000296FEF7BDF910208DF81200204678210D
:102AC00000220123CDE900B70296FEF7B1F94FF0DD
:102AD000000A00BF20467821402201238DF81350C0
:102AE000CDE900870296FEF7A3F90AF101004FFA3B
:102AF00080FABAF1FF3FEDDCB9F1070F09F10109E6
:102B0000BED305B0BDE8F08F2DE9F04784B040F2A8
:102B1000B404AE20C2F200048DF80F000A2501268D
:102B20000DF10F072046782100220123CDE9007620
:102B300002954FF00009FEF77BF94FF02008204680
:102B40007821002201238DF80F80CDE900760295CF
:102B5000FEF76EF94FF0100A20467821002201237B
:102B60008DF80FA0CDE900760295FEF761F9B0204F
:102B70008DF80F002046782100220123CDE9007650
:102B80000295FEF755F9C8208DF80F0020467821F0
:102B900000220123CDE900760295FEF749F920468F
:102BA0007821002201238DF80F90CDE9007602955F
:102BB000FEF73EF920467821002201238DF80FA070
:102BC000CDE900760295FEF733F940208DF80F002D
:102BD0002046782100220123CDE900760295FEF7F8
:102BE00027F981208DF80F0020467821002201234B
:102BF000CDE900760295FEF71BF9FF208DF80F0056
:102C00002046782100220123CDE900760295FEF7C7
:102C10000FF9A1208DF80F00204678210022012312
:102C2000CDE900760295FEF703F9A6208DF80F0096
:102C30002046782100220123CDE900760295FEF797
:102C4000F7F8A8208DF80F002046782100220123F4
:102C5000CDE900760295FEF7EBF83F208DF80F00E6
:102C60002046782100220123CDE900760295FEF767
:102C7000DFF8A4208DF80F002046782100220123E0
:102C8000CDE900760295FEF7D3F8D3208DF80F003A
:102C90002046782100220123CDE900760295FEF737
:102CA000C7F820467821002201238DF80F90CDE946
:102CB00000760295FEF7BCF8D5208DF80F0020466F
:102CC000782100220123CDE900760295FEF7B0F8C5
:102CD000F0208DF80F002046782100220123CDE955
:102CE00000760295FEF7A4F8D9208DF80F00204653
:102CF000782100220123CDE900760295FEF798F8AD
:102D000022208DF80F002046782100220123CDE9F2
:102D100000760295FEF78CF8DA208DF80F00204639
:102D2000782100220123CDE900760295FEF780F894
:102D300012208DF80F002046782100220123CDE9D2
:102D400000760295FEF774F8DB208DF80F00204620
:102D5000782100220123CDE900760295FEF768F87C
:102D600020467821002201238DF80F80CDE90076DE
:102D70000295FEF75DF88D208DF80F002046782132
:102D800000220123CDE900760295FEF751F81420C8
:102D90008DF80F002046782100220123CDE900762E
:102DA0000295FEF745F8AF208DF80F0020467821F8
:102DB00000220123CDE900760295FEF739F8FFF7EE
:102DC0004FFE04B0BDE8F087704700007047000078
:102DD000FEF71EB97047000080B540F29000C2F2C5
:102DE000000001684A1E18BF0122026041F2000083
:102DF000C4F201004FF40051FDF75CFF40F2601097
:102E0000C2F20000BDE88040FEF7F4BEF0B581B02C
:102E100040F23C27C2F20007386801F013F849F687
:102E20009A1449F69915C9F69914C3F6B97522464C
:102E30002B4600F01DFE00F0E9FD0021C4F27A41AE
:102E4000064601F04DF840F23821002818BF304600
:102E5000C2F2000140F240260A68C2F20006386061
:102E6000306801320A6000F0EDFF22462B4600F088
:102E7000FFFD00F0CBFD014640F2A810C2F20000B9
:102E8000316001B0BDE8F040FEF7B4BE40F29400FE
:102E9000C2F2000001684A1C0929026004DB426892
:102EA00000210160511C4160C1690A290ADB00212F
:102EB000C0E90011C0E90211C0E90411C0E906111E
:102EC0001CE000BF42680A2A18DB836800224260C7
:102ED0005A1C82600A2A14DAC2680A2A18DA0269BD
:102EE0000A2A1CDA42690A2A20DA82690A2A24DAC2
:102EF00040F2F010C2F20000FEF77CBE82680A2A9F
:102F0000EADBC368002282605A1CC2600A2AE6DB40
:102F100003690022C2605A1C02610A2AE2DB43698B
:102F2000002202615A1C42610A2ADEDB8369002208
:102F300042615A1C82610A2ADADB00224B1C0929F1
:102F4000C0E90623D4DBC0E90022C0E90222C0E9BF
:102F50000422C0E9062240F2F010C2F20000FEF79F
:102F600049BE000010B540F6FF320368C4F200020B
:102F700040F6004E43F2004C9042C4F2000EC4F200
:102F8000010C21DCB0F1804F28D040F20044C4F2A3
:102F90000004A04222D040F60004C4F20004A04283
:102FA0001CD0904220DCB0F1804F27D040F200428C
:102FB000C4F20002904221D040F60002C4F20002A6
:102FC00090421BD01EE000BF704507D0604505D081
:102FD00042F60044C4F20104A042E2D14C6823F05E
:102FE000700323439042DEDD704507D0604505D075
:102FF00042F60042C4F20102904203D1CA6823F4AF
:10300000407313434C6923F08002D1F800E08B68D1
:10301000224360450260C362C0F828E005D042F652
:103020000042C4F20102904201D109690163012109
:1030300041610169C90708BF10BD016921F00101A3
:10304000016110BDFEE7000070B540F60044C4F217
:103050000104054600F0800220461021FDF72AFEFB
:10306000204620210022FDF725FE0120FDF71AFD54
:10307000204620210122FDF71DFE802606EA45029A
:1030800020461021FDF716FE204620210022FDF7E4
:1030900011FE0120FDF706FD204620210122FDF74B
:1030A00009FE06EA850220461021FDF703FE2046B0
:1030B00020210022FDF7FEFD0120FDF7F3FC204654
:1030C00020210122FDF7F6FD06EAC5022046102167
:1030D000FDF7F0FD204620210022FDF7EBFD012049
:1030E000FDF7E0FC204620210122FDF7E3FD06EA82
:1030F000051220461021FDF7DDFD2046202100228B
:10310000FDF7D8FD0120FDF7CDFC2046202101224E
:10311000FDF7D0FD06EA451220461021FDF7CAFD55
:10312000204620210022FDF7C5FD0120FDF7BAFC55
:10313000204620210122FDF7BDFD06EA851220462A
:103140001021FDF7B7FD204620210022FDF7B2FD3A
:103150000120FDF7A7FC204620210122FDF7AAFD52
:10316000E801C2B220461021FDF7A4FD204620212F
:103170000022FDF79FFD0120FDF794FC2046202151
:103180000122BDE87040FDF795BD000090B040F20F
:103190009000C2F2000001250560FDF747FF002402
:1031A000CDE90B44CDE9094406954FF480300A95EA
:1031B0000225CDE90704CDE90D504FF4E0100F9042
:1031C00006A8FEF7CDF828B1EFF3108072B600BF65
:1031D000FEE700BF0F20CDE901054FF48060CDE987
:1031E000040401A802210394FDF7C8FF20B1EFF306
:1031F000108072B6FEE700BFFFF7C2FAFFF754FB7C
:10320000FFF778FBFFF72EFBFFF7EAFBFFF7ACFBBE
:10321000FFF77AFCFFF730FAFFF7E2F8FFF7C0F9A3
:10322000FFF7DEF8F8E75FEA400C08BF91F0000F07
:103230004FEA8C234FEAC12243EA51514FEA1C5016
:1032400018BF00F5F0404FEA300018BF41F00041D0
:103250005FEA6C5C00F02980BCF1FF3F08BF40F0E2
:1032600080407047130C06BF12044FF0100C4FF053
:10327000000C130E04BF12020CF1080C130F04BF54
:1032800012010CF1040C930F04BF92000CF1020C1C
:10329000D30F04BF52000CF1010C11464FF0000295
:1032A000A0F11F00A0EB0C00704711F0004F08BF09
:1032B000704731F000413FF4D5AF0B0C06BF090455
:1032C0004FF0100C4FF0000C0B0E04BF09020CF174
:1032D000080C0B0F04BF09010CF1040C8B0F04BF89
:1032E00089000CF1020CCB0F04BF49000CF1010C5A
:1032F000CCF1200322FA03F341EA030102FA0CF2B3
:10330000A0EB0C0000F101007047000023F07F47A4
:1033100020F07F4C80EA030000F00040ACEB070394
:1033200003F57C5303F1FF032DE9804909B44FEA0B
:10333000144324EA03484FEA154B25EA0B4E0FF2DB
:10334000042606EB13273E7803FB0667C7F5000744
:1033500007FB06F64FEAD64606F102064FEA543757
:1033600007FB066CCCF1005C4FEA1C472CEA074CCB
:103370000CFB06F507FB06F404EB15464FEA961620
:1033800049085FEA320234BF00204FF000404FEAA4
:10339000D13706FB07FC4FEA1C4C0CFB0BF7D21B8A
:1033A00003FB0CF761EB07010CFB0EF7B0EB0740DA
:1033B00072EB17420CFB08F734BFA2EB0742B2EBEB
:1033C000074261EB17414FEA0C444FEA910706FBB5
:1033D00007FC4FEA1C4C0CFB0BF7B0EBC74072EB41
:1033E000573203FB0CF734BFA2EBC742B2EBC74224
:1033F00061EB57310CFB0EF7B0EBC70072EB577265
:103400000CFB08F734BFA2EBC702B2EBC70261EBBB
:1034100057714FEA816141EA92114FEA826242EAB2
:1034200090124FEA806004EBCC04039F4FEAD1373F
:1034300006FB07FC4FEA1C4C0CFB0BF7D21B03FBF3
:103440000CF761EB07010CFB0EF7B0EB074072EBDA
:1034500017420CFB08F734BFA2EB0742B2EB07425E
:1034600061EB17414FEA8C5504EB9C244FEA91071E
:1034700006FB07FC4FEA1C4C0CFB0BF7B0EBC740FC
:1034800072EB573203FB0CF734BFA2EBC742B2EB2F
:10349000C74261EB57310CFB0EF7B0EBC70072EB84
:1034A00057720CFB08F734BFA2EBC702B2EBC7029E
:1034B00061EB57714FEA816141EA92114FEA8262F2
:1034C00042EA90124FEA806015EB4C2544F100046B
:1034D0004FEAD13706FB07FC4FEA1C4C0CFB0BF7FD
:1034E000D21B03FB0CF761EB07010CFB0EF7B0EBF3
:1034F000074072EB17420CFB08F734BFA2EB074200
:10350000B2EB074261EB17414FEA813141EA924148
:103510004FEA823242EA90424FEA80304FEA0C761C
:1035200015EB1C1544F1000448EA03434EEA0B482E
:103530004FF0000EB2EB080C71EB030724BF62469C
:1035400039464EEB0E0E4FF0000B00185241494128
:103550004BEB0B0BB2EB080C71EB03077BF1000B91
:1035600024BF624639464EEB0E0E4FF0000B00189A
:10357000524149414BEB0B0BB2EB080C71EB0307CB
:103580007BF1000B24BF624639464EEB0E0E51EA2A
:10359000020718BF46F0010616EB0E7655F1000241
:1035A00054F1000103D5BDE88901BDE80088BDE8FC
:1035B0008901BDE80048B619524141EB0101A3F170
:1035C0000103704780807F7E7D7C7B7A7978777677
:1035D00076757473727171706F6E6E6D6C6C6B6AF0
:1035E0006A6968686766666564646363626161608E
:1035F000605F5F5E5E5D5D5C5C5B5B5A5A5959580B
:103600005857575656555555545453535252525174
:10361000515050504F4F4F4E4E4D4D4D4C4C4C4BCA
:103620004B4B4A4A4A494949484848474747474611
:10363000464645454544444444434343434242424D
:10364000424141419C46002B30D477002BD04FEAB9
:1036500037071CB503B44FF010004FF01001BAF15A
:10366000000F06D0BCF1000FDCBF40F0080040F0B6
:1036700008014FF000000FBCBDE810400BF1010B3A
:10368000BBF1010F08BF5FEA170722BF12F1010269
:1036900011F101014FF0004143F1000300F000403F
:1036A00043EA00007047F9D35708D0E746EA0646D8
:1036B0004FEA164613F1400F1FDD13F1200FDFBF55
:1036C00016430A46002120335B42BED0C3F12007D7
:1036D00046EA06464FEA164602FA07F746EA0706A2
:1036E00022FA03F2C3F1200701FA07F742EA0702C0
:1036F00021FA03F14FF00003A7E746EA020646EA83
:1037000006464FEA164646EA0106BCBF46EA0646AA
:10371000360C4FF000034FF000024FF0000194E729
:103720002DE9804C70B49A46934691E8380007C85A
:1037300031EA400C48BF34EA430C03D5FFF7E6FDFD
:10374000FFF780FFF0BCBDE8008C2DE9804C70B421
:103750009A46934691E8380007C810F0804F08BF9A
:1037600013F0804F03D100F005F8FFF76BFFF0BCBA
:10377000BDE8008C20F07F4723F07F4C80EA0300F7
:1037800000F0004007EB0C03A3F57C53A3F1FE030C
:1037900092F0000F00F0B38095F0000F00F07780FA
:1037A0002DE901494FEA114021EA00484FEA144649
:1037B00024EA064700FB06FC08FB06F607FB08F8B0
:1037C00018EB06484CEB164C00FB07F718EB0748C4
:1037D0004CEB17404FEA124B22EA0B4E4FEA1546CC
:1037E00025EA06470BFB06FC0EFB06F607FB0EFE62
:1037F0001EEB064E4CEB164C0BFB07F71EEB074E71
:103800004CEB174B18EB0B0840F1000018EB0E0BBC
:1038100058EB000840F100008F1A4FF000014FF004
:1038200000063CBFC943661B14BFB5EB040C002166
:103830003CBFC943F61B4FEA174427EA04454FEA49
:103840001C472CEA074C04FB076205FB07F70CFB3F
:1038500005F616EB074642EB174204FB0CFC16EB91
:103860000C4642EB1C421BEB060658EB02024141A0
:103870004EEA8E0E46EA9E0601D5BDE80189B619CC
:10388000524141EB0101A3F10103BDE801894FEA77
:10389000144524EA05464FEA114721EA074C05FB87
:1038A00007F406FB07F70CFB06F111EB074144EBAD
:1038B000174405FB0CFC11EB0C4144EB1C444FEA94
:1038C000124722EA074C05FB07F206FB07F70CFB41
:1038D00006F616EB074642EB174205FB0CFC16EB0F
:1038E0000C4642EB1C456A1854F1000148BF704772
:1038F000B619524141EB0101A3F10103704795F064
:10390000000F37D04FEA114221EA02464FEA14472E
:1039100024EA074C02FB07F106FB07F70CFB06F451
:1039200014EB074441EB174102FB0CFC14EB0C4475
:1039300041EB1C414FEA154725EA074C02FB07F50E
:1039400006FB07F70CFB06F616EB074645EB17459B
:1039500002FB0CFC16EB0C4645EB1C42121951F114
:10396000000148BF7047B619524141EB0101A3F174
:10397000010370474FEA144524EA05464FEA114710
:1039800021EA074C05FB07F106FB07F70CFB06F2E3
:1039900012EB074241EB174105FB0CFC12EB0C420A
:1039A00051EB1C414FF0000648BF7047921841EBA5
:1039B0000101A3F101037047490050EAC12018BF7B
:1039C00004204A0D18BF40F0010040F2FF72B2EB34
:1039D000515F08BF40F00200012808BF0520704772
:1039E00010B500290AD00878002807D00548784487
:1039F000FDF706F8002801D0002010BD02487844E9
:103A000010BD00000A0800000208000021F000427A
:103A100001F00043A2F16052B2F5801F28BFD2F13D
:103A20007F6C0BD95FEA001C43EAC20242EB507084
:103A300018BF704728BF20F001007047B2F5801F03
:103A4000BCBF184670474FEA410C1CF5001F02D25C
:103A5000084600F03BBB70B500F0B2F800000089EA
:103A6000FFF7F6BF4FF00040A0F580007047000060
:103A700010B591EA030F48BF83F0004300F1FC80CA
:103A8000841A71EB030C05D2121943EB0C03001BD3
:103A900061EB0C014FEA1154A4EB135CDFF81CE15D
:103AA0001EEA430F18BF9EEA445F00F0748021EACB
:103AB000045123EA0E0343F48013DCF1200E32D3C9
:103AC00022FA0CFE10EB0E0023FA0CFE41EB0E0165
:103AD000CCF1200E03FA0EFE10EB0E00CCF1200EFE
:103AE00051F10001B1F5801F32D201EB045112FAFD
:103AF0000EF2BDE8104058BF7047401C38BF5FEA67
:103B0000420218BF7047002814BF20F0010041F1A5
:103B100000014FEA410313F5001F38BF7047A1F1C0
:103B2000C04100F09BB8012A43EB0302ACF1200C2A
:103B3000DCF11F0E32BF4FF0000E23FA0CF310EB36
:103B4000030041EB0451B4EB115FD0D0A1EB045161
:103B500001F58011490801EB04515FEA30000ED3F2
:103B600050F1000038BF12FA0EFE08D1BDE8104037
:103B7000C9E7401C38BF5FEA4202CAD1C3E7BDE8CB
:103B800010404FEA410313F5001F38BF7047A1F101
:103B9000C04100F063B89EEA445F08D011EA5E0FAE
:103BA000BDE8104004BF01F0004100207047BDE8AF
:103BB000104070B500F004F864FBBE3E0000E0FF6A
:103BC0000EF1020E2EF0030E5EF8046B364205D4A1
:103BD000012A43EB030515F5001F12D8012841EB1C
:103BE000010C1CF5001F0CD80ED14FEAD17C0CEB58
:103BF0004C0C0CF1020C15F5001F08BF4CEBD37CEC
:103C000004E04FF0080C01E04FEAD37C0CEB4C05CC
:103C100026FA05F606F00706B6F1040C06D20EEBFE
:103C2000860CBDE870404CF0010C6047DFE80CF0FA
:103C3000090B02024FF00041A1F500214FF00000F6
:103C400070BD19461046012851EB010418BFD4F588
:103C5000001484BF002001F0004170BD0808A0F5E9
:103C600000114FEA3101704710B591EA030F48BFC8
:103C700083F000433FF504AF841A71EB030C07D2C5
:103C80008CF0004C121943EB0C03001B61EB0C0190
:103C90004FEA1154A4EB135CDFF8A4E11EEA430FD2
:103CA00018BF9EEA445F00F0B48021EA045123EA81
:103CB0006E035242C3EB6E0338BF5B1EDCF1200E75
:103CC00025D322FA0CFE10EB0E0043FA0CFE41EB5A
:103CD0000E01CCF1200E03FA0EFE10EB0E00CCF11B
:103CE000200E51F1000129D401EB045112FA0EF219
:103CF000BDE8104058BF7047401C1CBFB2F1004FD8
:103D0000704700280CBF491C20F00100704712EBDF
:103D1000020E43EB030218BF4FF0010E4EEA4202BF
:103D2000ACF1200CDCF11E0E56D943FA0CFE10EB60
:103D30000E00CCF11E0E51F1FF31D5D50EF1010E62
:103D400012FA0EFE404141EB010101EB445C5FEAD7
:103D50005C5C10D901EB045110EBDE7038BFBEF192
:103D6000004FBDE8104018BF704700280CBF491C29
:103D700020F00100704734D24FEAD42C24F40064C0
:103D800011F500111BD0B1FA81F20B3AA41AA41E4E
:103D9000D2F12003914030FA03F31943904001EB34
:103DA000CC7101EB0451002CBDE81040A8BF704756
:103DB00001F1C04101F000414FF000007047B0FA3E
:103DC00080F310FA03F102D1BDE810407047E41A05
:103DD000173C4805C90AE2E701EB0451BDE8104071
:103DE000704749104FEA300001EB0451BDE8104024
:103DF00002E04FF0000170474A0008BF0042F8D0CF
:103E0000B2F5001F28BF704701F000414FF00000DD
:103E100070479EEA445F07D011EA5E0FBDE810408C
:103E200004BF002100207047BDE8104070B5FFF7C7
:103E3000C7FE00BF40DFF63E104683F000417047EA
:103E40000000E0FF43004FEAD30C4FEA3C0C434034
:103E50001FBF40070CF1605113F0FE4F70471CF07C
:103E6000006F03D10CF00041002070470CF00043BC
:103E700043EA507040EACC0010B500F0E1F800BF12
:103E8000000000924FEA0001FFF7E8BE4FF000414A
:103E9000A1F500214FF00000704710B500F034F894
:103EA0000CBF0120002010BD10B500F02DF814BF8C
:103EB0000120002010BD10B500F05AF88CBF012081
:103EC000002010BD10B500F053F82CBF01200020D9
:103ED00010BD10B500F080F894BF0120002010BD87
:103EE00010B500F079F834BF0120002010BD40105B
:103EF00058BFC0F14040491058BFC1F14041814214
:103F0000EFF300807047000050EA010C00F11380CD
:103F10001CF5000F58BFBCF5000F01D48842704754
:103F200007D710F5000F58BF11F5000F15D48842C0
:103F30007047894270471CF5000F04D5BCF5000F8F
:103F4000F7D5814270474FF0807C1CEB400F38BFA3
:103F50001CEB410F01D28142704710B500F070F8A0
:103F6000922449004FF000504FF08051FFF7BFBF3F
:103F700050EA010C00F113801CF5000F58BFBCF58E
:103F8000000F01D48842704707D710F5000F58BFC3
:103F900011F5000F15D488427047894270471CF50F
:103FA000000F04D5BCF5000FF7D5814270474FF0E4
:103FB000807C1CEB400F38BF1CEB410F01D28142CB
:103FC000704710B500F03CF8922449004FF0805043
:103FD0004FF00051FFF78BBF50EA010C00F1138046
:103FE0001CF5000F58BFBCF5000F01D48842704784
:103FF00007D710F5000F58BF11F5000F15D48842F0
:104000007047894270471CF5000F04D5BCF5000FBE
:10401000F7D5814270474FF0807C1CEB400F38BFD2
:104020001CEB410F01D28142704710B500F008F837
:10403000922449004FF000504FF08051FFF757BFD6
:104040000EF1020E2EF0030E5EF8044B244204D44F
:104050004FEA4102B2F17F4F11D84FEA4003B3F16A
:104060007F4F0CD80ED14FEAD07C0CEB4C0C0CF1EE
:10407000020CB2F17F4F08BF4CEBD17C04E04FF053
:10408000080C01E04FEAD17C0CEB4C0324FA03F45A
:1040900004F00704B4F1040C06D20EEB840CBDE866
:1040A00010404CF0010C6047DFE80CF007080202FA
:1040B0004FF00040A0F5800010BD0846420018BF38
:1040C000D2F1807288BF00F0004010BDFF2141EAAC
:1040D000D050C0057047FCF72FBA00000240000026
:1040E000000000A00000000005400000000000C823
:1040F000000000000C4000000000409C0000000098
:10410000194000000020BCBE000000003440000048
:10411000BFC91B8E00000004B5400000504BCFD03B
:104120006607E2CF010000006C4100003E8251AA08
:10413000DFEEA73401000000D9420000DCB5A0E2A8
:104140003A301F97FFFFFFFFB4450000FD25A0C8D0
:10415000E9A3C14FFFFFFFFFFF3F00000000008009
:1041600000000000FF3F0000000000800000000091
:104170000000000000000000010203040607080917
:104180000000000001020304010202030405060707
:1041900008090A0B0C0D0E0F101032303231363870
:1041A0003900E4BA8CE99BB6E4BA8CE4BA8CE4B882
:1041B00080E585ADE585ABE4B99D00E887AAE58A91
:1041C000A8E58C96E5ADA6E999A200E9878DE5BA48
:1041D00086E5A4A7E5ADA60018420008000000206F
:1041E0003000000094010008484200083000002020
:1041F00018080000B40100081C0000004300000083
:10420000F8FFFFFF0C0000000E0000000F00000090
:104210002E0000000000000001000000100000005F
:1042200080818283848586879091929394959697D6
:1042300088898A8B8C8D8E8F98999A9B9C9D9E9F46
:0842400000127A0000000000EA
:0400000508000131BD
:00000001FF
