:020000040800F2
:10000000D806002045010008C71D0008071B00088E
:10001000C51D000861080008FB2100080000000061
:100020000000000000000000000000008120000827
:10003000F909000800000000871F0008832000085D
:100040005F0100085F0100085F0100085F01000810
:100050005F0100085F0100085F0100085F01000800
:100060005F0100085F0100085F0100085F010008F0
:100070005F0100085F0100085F0100085F010008E0
:100080005F0100085F0100085F0100085F010008D0
:100090005F0100085F0100085F0100085F010008C0
:1000A0005F0100085F0100085F0100085F010008B0
:1000B000E9200008F12000085F0100085F01000846
:1000C0005F0100085F0100085F0100085F01000890
:1000D0005F0100085F0100085F0100085F01000880
:1000E0005F0100085F0100085F0100085F01000870
:1000F0005F0100085F0100085F0100085F01000860
:100100005F0100085F010008FD2000085F01000892
:100110005F0100085F0100085F0100085F0100083F
:100120005F0100085F0100085F0100085F0100082F
:10013000DFF80CD000F024FB00480047FD21000848
:10014000D80600200648804706480047FEE7FEE73D
:10015000FEE7FEE7FEE7FEE7FEE7FEE7FEE7FEE777
:10016000E520000831010008202A04DB203A21FAAA
:1001700002F00021704721FA02F3D040C2F12002C0
:1001800091400843194670472DE9FE4F804681EAA9
:100190000300C00F0C46009021F0004123F0004501
:1001A000B8EB0200A94105D24046214690461C46C4
:1001B0000B46024623F00040104347D0270DC7F3FB
:1001C0000A00C3F30A510290401A019040286BDAEA
:1001D000C3F3130040F4801B0098924620B1002323
:1001E000D2EB030A63EB0B0B01985946C0F14002B6
:1001F000504600F068F906460D4650465946019AA9
:1002000000F070F910EB08006141002487EA1152F8
:1002100084EAE7731A4340D0009A62B3019A012A34
:100220004FEA075215DC001B61EB02014FF0004260
:1002300002EA0752CDE90042001C41F58011324626
:100240002B4600F04FFA03B0BDE8F08F4046214640
:10025000F9E7001B61EB0201001C41F58013001857
:100260005B412018A2F5001747EB030140EAD57067
:10027000B6196D4111E06D084FEA360645EAC075C2
:100280004FEA0752001B61EB0201001C41F580118F
:1002900049084FEA30000019514132462B4603B05D
:1002A000BDE8F04F00F00FBA009801224000002393
:1002B000D0EB020263EBE073009821464FEAE07452
:1002C000B8EB000061EB0401E9E783F000435BE772
:1002D00081F0004158E72DE9FE4F81EA030404F064
:1002E000004421F0004100944FF0000B23F0004344
:1002F00050EA01045ED052EA03045BD0C3F30A540F
:10030000C1F30A552C44A4F2F3340194A0FB025427
:10031000C1F3130141F48011C3F3130343F48013B9
:1003200001FB024400FB034E840A970A44EA81540D
:1003300047EA8357A4FB076802958D0A05FB0785EA
:100340004FEA932C04FB0C542705029D4FEA0658F4
:1003500047EA1637B5EB08056EEB070C870E920ED1
:1003600047EA811742EA8312A7FB0201B6EB0B01B1
:1003700064EB00042B0D43EA0C335E1844EB1C5075
:10038000DA465146E7FB0201C5F313044FEA0B338B
:1003900043EA14534FEA0432019C43EA0603A4F1F2
:1003A0000C040294009CCDE900B400F09BF903B06A
:1003B000BDE8F08F00200146F9E7002801DBC0F11D
:1003C0000040002901DBC1F10041814201D8012038
:1003D0007047002070470EB5C10F80EAE0700844F6
:1003E000CA07002140F233438DE80E000A460B464F
:1003F00000F078F903B000BD00F0004220F00040AA
:10040000C10DC0F3160040F400007F2901DA00207E
:100410007047962903DCC1F19601C84001E0963986
:100420008840002AF4D04042704770B5C1F30A52A8
:1004300001F000450024C1F3130140F2FF3341F401
:1004400080119A4201DA002070BD40F233439A4293
:10045000A2F2334203DC5242FFF786FE00E09040F6
:100460002C43F1D0404270BD00F0004230F000401B
:100470000AD0C10D01F56071C0F3160042EA0151C6
:10048000C20840071143704700200146704701F041
:10049000004330B421F0004150EA010206D00A0DB9
:1004A000A2F56072C1F31301002A02DC30BC002007
:1004B0007047440F44EAC104C100E01830BC00EBAF
:1004C000C25000F021B8202A04DB203A00FA02F1E1
:1004D000002070479140C2F1200320FA03F3194332
:1004E00090407047202A06DBCB17203A41FA02F0F1
:1004F00043EAE07306E041FA02F3D040C2F1200281
:1005000091400843194670470029A8BF7047401C16
:10051000490008BF20F00100704710B4B0FA80FC19
:1005200000FA0CF050EA010404BF10BC704749B156
:10053000CCF1200421FA04F411FA0CF118BF0121C6
:1005400021430843A3EB0C01CB1D4FEA00614FEAA6
:10055000102042BF002010BC704700EBC350104475
:100560000029A4BF10BC7047401C490008BF20F000
:10057000010010BC7047F0B480EA0102D40F4200C1
:10058000B2EB410F02D20246084611464A0042D061
:10059000C30DDDB2C1F3C752AD1A202D35DAC1F358
:1005A000160141F4000204B15242C5F1200602FADC
:1005B00006F12A411044B3EBD05F23D0C4B1012D22
:1005C000A0EBC35009DCF0BC4FF0004202EAC3527A
:1005D000DBB200F50000FFF7A0BF400000F1807023
:1005E00000EBC350A0F1807040EAD170490009E0EF
:1005F000490841EAC071A0EBC35000F50000400873
:1006000000EBC350F0BCFFF77FBF6142012202EB59
:100610004101001BF6E7F0BC704781F00041AAE7FA
:1006200080F00040A7E780EA010210B502F0004325
:10063000400022D04A001FD0010E01EB1261C0F32E
:100640005600C2F3560240F4000042F40002A0FB40
:10065000022000047F39140400D0401C50EA1240EC
:1006600001D44000491EC2B20C0604EBD010401C5D
:100670004008802A02D003E0002010BD20F00100D5
:10068000002900DA0020184310BD10B541000CD03D
:10069000C0F3C751962908DC7E2909DC06DB41023C
:1006A00004D000F0004040F07E5010BD002010BD8E
:1006B000C1F19604C4F1200100FA01F1E040FFF716
:1006C00023FFA04010BD10B5141E73F1000408DA1A
:1006D000401C41F1000192185B411A4301D120F006
:1006E000010010BD2DE9F04D92469B4611B1B1FAC3
:1006F00081F202E0B0FA80F220329046FFF7E3FE8A
:1007000004460F4640EA0A0041EA0B0153465A46A6
:10071000084313D0114653EA010019D0C8F1400232
:100720005046FFF721FD05460E46504659464246C3
:10073000FFF7C9FE084305D0012004E020463946F2
:10074000BDE8F08D0020054346EAE0762C433743B0
:100750000A986305E40AA0EB08000022FD0A44EAB7
:1007600047540A3002D500200146E9E70105101977
:100770006941DDE9084500196941BDE8F04DA2E78E
:100780001CB509480090094801900546009C06E008
:10079000E06840F0010394E8070098471034AC4249
:1007A000F6D3FFF7C9FC0000F8250008182600085A
:1007B00030B480EA010202F0004530F0004221F03E
:1007C000004013D090B1C30DD40DC2F31601C0F395
:1007D0001600E41A41F4000140F400027D34914215
:1007E00001D3641C00E04900002C02DA30BC002078
:1007F00070474FF400000023914201D3891A03434C
:1008000040084FEA4101F7D151B1914202D14FF076
:10081000004105E002D24FF0010101E06FF001015B
:1008200003EBC450284430BCFFF76EBE420005D035
:10083000C0F3C7525242914201DC0020704700EBE6
:10084000C1507047C10F80EAE0700844CA07962380
:100850000021FFF762BE962300221146FFF75DBE1E
:10086000FEE7000010B5534C4FF480710122204682
:1008700000F04AFA20464FF400710122BDE8104012
:1008800000F042BA2DE9F8431748194F194D214E8F
:100890000024804615488146B4F5807F1ED020464E
:1008A000FFF799FD4FF0C0424346FFF714FD0022C9
:1008B0004B46FFF710FDFFF7EAFD01F0BDFDFFF726
:1008C000D3FD00223B46FFF75FFC00222B46FFF7DB
:1008D00002FDFFF7AAFD30550134DDE70C48002189
:1008E0000180BDE8F88300BFFB2119400000703F84
:1008F0000000F03F00E05F4010B5054C054920883E
:10090000085C00F009F820880130C0B2208010BDDA
:10091000CC010020CE010020F8B5264C264F05461C
:100920004FF4807100222046B84720464FF40071F2
:100930000022B84704F5806605F001024FF48051AB
:100940003046B847C5F3400230464FF40051B8472F
:10095000C5F3800230464FF48041B847C5F3C0026A
:1009600030464FF40041B84704F50066C5F3001265
:1009700040213046B847C5F3401230468021B84781
:10098000C5F3801230464FF48071B847EA0930460B
:100990004FF40071B84720464FF400710122B84768
:1009A00020464FF4807101223B4601B0BDE8F04083
:1009B000184700BF00080140090D00081CB50903D5
:1009C0006FF31F320A4C41EA80301021104401229B
:1009D00001F001FA20461021002200F095F90548A7
:1009E0000DF1060101224FF0FF3300F0F1FD1CBDB7
:1009F000001001409C0000207047EFF3108072B699
:100A0000FEE770B110B544790223012C06D00371C2
:100A100001F0100142F0800201F0E2F9BDE810405F
:100A200000E001231846704708B301B3B0B544791C
:100A30000223012C18D0037102F0100240F6FE735D
:100A400004689340256825EA030322C9294391409D
:100A5000194300232160C0219140226822EA01014C
:100A60002160012143710171BDE8B04000E0012324
:100A70001846704778B110B50446007920B90020B7
:100A80006071204600F00AF8022001212071002048
:100A90002061217110BD012070470000FEB50021CA
:100AA000CDE90411CDE902110168104881421BD142
:100AB000FA4900F514404A6842F000524A604A6818
:100AC00002F000520192019A0A6842F004020A60A0
:100AD000096801F0040101910321039110210291A1
:100AE000019902A900F030F806B080BD0074004002
:100AF000C0B143790222012B24D0B0B5027101F0BC
:100B00001003012202FA03F4026815682C431460F2
:100B1000146849B13C21994004F470138B420BD105
:100B2000022106E001220DE004F03C013C2903D142
:100B30000121536819435160002201214271017162
:100B4000BDE8B040104670472DE9FC4F81465F4834
:100B500006234FF0000C4FF001084FF00F0E4FF03E
:100B6000000A81455A4808BF052348444FEAB0228D
:100B7000052A38BF4FEAB023009300220C6834FAEC
:100B800002F508BFBDE8FC8F08FA02F714EA070572
:100B900000F098804C68032C16D9112C26D0122C0A
:100BA00032D04E48844213D04D48844210D04D4834
:100BB00084420DD04C4884420AD04C48844207D02D
:100BC0004B48844204D022E0DFE804F0021B1418F2
:100BD0008C6844B1012C14BFC9F81470C9F81070A6
:100BE0004FF0080A13E04FF0040A10E0CC6804F15B
:100BF000040A0CE0CC6804F1080A08E04FF0000A8F
:100C000005E0D1F80CA002E0CC6804F10C0A6446BF
:100C10004846B5F5807F28BF203C28BF04300668D1
:100C20000EFA04F70AFA04F4BE4334430460C879A8
:100C3000C00647D5C44B274F22F003061868BB46B1
:100C40003E4440F00100186018682A4B00F0010093
:100C500001900CF00C00019F0EFA00F49E46F7582C
:100C6000009B03FA00F027EA04041B4B204346F8DC
:100C70000E004FF00F0E4F68F802DBF8080054BF6B
:100C800020EA050440EA0504CBF80840B8021868D9
:100C900054BF20EA050440EA05041C60B803DBF8F1
:100CA000040054BF20EA050440EA0504CBF80440E0
:100CB000F803DBF8000054BF20EA050440EA05040D
:100CC000CBF800400CF1040C013257E7001C014046
:100CD00000F8FEBF000401400C04014000001110A8
:100CE000000012100000211000002210000031103E
:100CF0000000321008FCFFFFC26802EA01039143C2
:100D000041EA034101617047002A08BF09040161FB
:100D10007047000066480068704700BF10B3F8B520
:100D2000044690F83D0020B901F029F9204600F072
:100D300087F801F005F9016841F40041016001689C
:100D400021F40041016000F0F3F96368384A394941
:100D500093423CBF48F28041C0F21E01884203D258
:100D60000120F8BD0120704733494FF47A77B0FB7A
:100D7000F1F521684E6826F03F062E434E604FF491
:100D800096766E43934228BFB6FBF7F56A1C0D6A50
:100D900025F03F052A434CF6FF750A62CA69AA434B
:100DA000264DAB420AD85B000138B0FBF3F00130AE
:100DB0006FF31F30042898BF042013E0A5680138A2
:100DC0003DB119256B4301F0CBF80AD000F5804006
:100DD00004E003EB430301F0C3F802D000F5004048
:100DE00000E00120104304F10C06C861E0690A68C4
:100DF00022F0C0021043226A104348F2FF3208601A
:100E0000886890436CCE184310438860C86820F00F
:100E1000FF0028433043C86001F081F80020202102
:100E2000206484F83D10206384F83E00F8BD00BFC4
:100E3000A186010000093D0040420F00A08601008C
:100E400010B586B00021CDE90411CDE90211016889
:100E5000114881421DD13C4C00F53840216841F0D9
:100E600008012160216801F0080101910321059129
:100E700012210391C0210291019902A9FFF764FE9A
:100E8000606840F400106060606800F40010019039
:100E9000019806B010BD00BF005400401810024079
:100EA0001A48034900780A6810440860704700BF78
:100EB000D402002080B59B48016841F01001016018
:100EC000032000F077F80F2000F004F800F020F87D
:100ED000002080BD70B50D4E04464FF47A71307815
:100EE000B1FBF0F097490968B1FBF0F000F0FCFBB2
:100EF00001250F2C08D838B94FF0FF3021460022C9
:100F0000002500F031F87460284670BD0400002010
:100F100082B00D480222016841F0010101600168C0
:100F200001F0010101910199416841F08051416056
:100F3000406800F08050009000980448016862F317
:100F40001A61016002B070471810024004000140AD
:100F5000002805D4734600F05AFF9E46014A885087
:100F6000704700BF00E100E0F0B5184B4FF0FF36CE
:100F70001C68C4F30224E51E84F0070438BF002572
:100F800006FA05F7BA43042C28BF042406FA04F431
:100F9000A14300F00F04A940043C1143044A234438
:100FA00009010244002848BF03F10C021170F0BD92
:100FB00000E400E005494FF6FF030A681A4060F3B9
:100FC0000A22034810430860704700BF0CED00E0A0
:100FD0000000FA05002873D02DE9F8430D46514969
:100FE0000446086800F00700A84209D2086820F00B
:100FF000070028430860086800F00700A8426BD18A
:101000002068894681075E4988461AD5410706D57A
:10101000D8F80010424641F4E061C8F8001001071A
:1010200006D5D8F80010424641F46051C8F80010C7
:10103000A168D8F80020434622F0F0021143C8F816
:101040000010C0073ED1D9F8000000F00700A84208
:101050000CD9D9F8000020F007002843C9F8000097
:10106000D9F8000000F00700A84235D120684107F8
:1010700008D5E168D8F80020434622F4E062114325
:10108000C8F80010000709D52069D8F800104246BA
:1010900021F4605141EAC000C8F8000000F056F8A1
:1010A000D8F80010204AC1F30311515CC84025490B
:1010B00008601E480068FFF70DFF0020BDE8F883B8
:1010C00001207047404658F8041C6068022806D08A
:1010D000012823D1890304D40120BDE8F8838901C4
:1010E000FAD5D8F8001021F003010843C8F8000031
:1010F000FFF710FE064641F2883741466068D8F88F
:10110000001001F00C01B1EB800F9CD0FFF702FE44
:10111000801BB842F1D90320BDE8F8838907DBD5ED
:10112000DFE700BF00200240E025000808000020A3
:10113000DE481349044A00680968C1F30221515C82
:10114000C84070470C000020F025000810B50C497D
:101150000C480A6802F00C03082B07D1C2F3834342
:1011600009A4D203E35C02D40C48584310BD0968BB
:1011700009A25843C1F34041515CB0FBF1F010BDEE
:101180000410024000127A00020304050607080951
:101190000A0B0C0D0E0F10100102000000093D009B
:1011A000002843D02DE9FC4104460078BD4EC0071D
:1011B0000BD0706800F00C00042839D1306880032F
:1011C00003D56068002800F0B6802078800717D526
:1011D000706810F00C0F05D000F022FE42D170684C
:1011E000C0033FD43068800703D52069012840F050
:1011F000A2806069316821F0F80141EAC0003060E6
:10120000207800075ED5A06900283ED0A6480121BD
:10121000C0F88014FFF77EFD0546706A800744D44D
:10122000FFF778FD401B0228F7D902E10120704743
:1012300000F0F6FD02D17068C003BFD46268306868
:10124000002A20F4803100F0F780B2F5A02F00F0E2
:10125000DD80B2F5803F00F0DD803160306820F441
:101260008020D9E021699048002900F08F80012179
:101270000160FFF74FFD054630688007B9D4FFF7DE
:1012800049FD401B0228F7D9D3E087480021C0F868
:101290008014FFF73FFD0546706A800712D5FFF7FF
:1012A00039FD401B0228F7D9C3E080484FF4FA51BA
:1012B0000068B0FBF1F0019000BF0198411E0028CA
:1012C0000191F9D12078400714D4E7697FB100F08B
:1012D000A7FD3ED1012F2ED0216A706800F4803224
:1012E0008A4228D1616A00F47010884223D100201C
:1012F000BDE8FC81F0695FEAC00808D4F06940F0FD
:101300008050F061F06900F0805000900098684FC4
:101310003868C00512D4386840F480703860FFF730
:10132000F9FC05463868C00508D4FFF7F3FC401BFC
:101330006428F7D97DE00120BDE8FC81E168306ACE
:10134000002948D0052931D0012933D000F058FDBB
:1013500032E05549002088460866FFF7DBFC054669
:10136000022F09D13068800179D5FFF7D3FC411BEA
:1013700003200229F6D9BBE730688001B7D5FFF713
:10138000C9FC411B03200229F6D9B1E70021016005
:10139000FFF7C0FC0546306880077FF531AFFFF7E7
:1013A000B9FC411B03200229F5D9A1E740F0040054
:1013B0003062306A40F001003062FFF7ABFC054656
:1013C00041F28837306A800717D4FFF7A3FC401B2F
:1013D000B842F7D92DE000F013FD3062FFF79AFC18
:1013E000054641F28837306A800706D5FFF792FC40
:1013F000411B0320B942F6D97AE7B8F1000F3FF557
:1014000064AFF06920F08050F0615EE740F4802026
:101410003060306840F480303060FFF77BFC054678
:10142000306880033FF5D1AEFFF774FC401B6428A1
:10143000F6D90320BDE8FC813160306820F48020BB
:101440003060FFF767FC0546306880037FF5BDAE6E
:10145000FFF760FC411B03206429F5D948E7206AA7
:10146000B0F5803F05D1A168726822F400321143C3
:101470007160616A726822F47412114308437060EB
:101480000120C8F86000FFF745FC04463068800181
:101490003FF52DAFFFF73EFC011B03200229F5D9D4
:1014A00026E700BF00100240000042420C0000206E
:1014B0000070004070B530B10446406A28B1002089
:1014C0002061142006E0012546E06068B0F5827FC7
:1014D00002D01C20002121500025A56294F8510063
:1014E00020B9204684F8505000F038F8022084F8E3
:1014F000510094E80F0001F4827102F4044206687E
:10150000114403F40062114426F04006066022698B
:1015100002F002021144626902F001021144A26960
:1015200002F400731944E36903F038031944236A91
:1015300003F080031943A36A03F4005319430160C5
:10154000042101EA12414160C16921F40061C161D5
:101550000120656584F85100284670BD70B586B0DD
:10156000194C00680026CDE90466CDE9026604F551
:101570002051884225D11548016841F4805101600D
:10158000016801F4805101910199016841F0040161
:101590000160006800F00400019003200590022023
:1015A0000390A0200290019802AD20462946FFF743
:1015B000CBFA40202946CDE9036602902046FFF78A
:1015C000C3FA06B070BD00BF000801401810024009
:1015D0002DE9FC411D4616460F460446FFF79AFBCF
:1015E000804694F85100012804D137B12EB100F0A3
:1015F00064FC05D10220BDE8FC810120BDE8FC812E
:101600000320012184F8510000206065E68684F8FB
:101610005010A6862763A087A063C4E91000E08766
:10162000A1682068B1F5004F07D1016821F04001A1
:101630000160016841F4804101600168490601D4FC
:1016400000F02DFCE2686168B2F5006F1CD109B1B1
:10165000012E01D100F01BFC6E1CE08E70B300F077
:1016600023FC08D4FFF756FB002EF6D0A0EB0800B1
:10167000A842F2D335E0216B31F8022BC26021631E
:10168000E08E0138E086E8E709B1012E02D1397811
:1016900000F06DFC6E1CE08E80B100F005FC08D4FB
:1016A000FFF738FB002EF6D0A0EB0800A842F2D3DB
:1016B00017E0216B097800F05AFCECE72046294638
:1016C000424600F061FC08B120206065A06810B9B6
:1016D000002000F0AAFB00F001FC18BF0120BDE8CB
:1016E000FC8100F0C6BB0000411E0020B0EB116F72
:1016F0001CBF01207047044AF023516003490B705E
:10170000072190601160704710E000E023ED00E0D9
:101710007047704790F83C300222012B29D010B559
:1017200080F83D2002680B68546824F070041C4364
:101730009368B2F1804F54600ED04D4CA2420BD052
:101740004C4CA24208D04C4CA24205D04B4CA24279
:1017500002D04B4CA24204D1496823F080031943C4
:1017600091600022012180F83C2080F83D10BDE806
:1017700010401046704700BF58B110B500F0C7FBCD
:1017800003D100F095FB00F007F800F0E2FB00F059
:1017900054BB0120704700001FB5006836498842DD
:1017A00021D03349884211D0B0F1804F18BF1FBDFE
:1017B00018481C24016841F0010101600121006802
:1017C00000F00100039003981C2019E011481D242B
:1017D000016841F002010160006800F0020002901F
:1017E00002981D200BE00B483224016841F00801EB
:1017F0000160006800F0080001900198322000218B
:101800000022FFF7B1FB204604B0BDE81040FFF70F
:101810009FBB00BF1C10024090F83D1001291CBF67
:1018200001207047022180F83D100068C168B0F1C6
:10183000804F41F00101C1600ED00D4988420BD0AC
:101840000C49884208D00C49884205D00B4988428F
:1018500002D00B49884204D1724600F005FB96463F
:1018600003D0724600F00EFB96460020704700BF82
:101870000004004000080040000C0040003401401B
:10188000002C014010B500F03CFB54D084F83D0022
:1018900001204FF6777384F83C00206882689A43F1
:1018A00082600A68C2B1102A16D0202A14D0302AC9
:1018B00012D0402A33D0502A28D0602A13D0B2F553
:1018C000005F1CD0B2F5805F32D0702A1CD100F0CE
:1018D000F8FA41F077012AE0816821F070011143A4
:1018E00041F0070123E04B68CA68194600F073FC19
:1018F0002068816841F0670121F0100117E000F0D5
:10190000E0FA41F4804112E0012012E000F013FB04
:101910002068816841F0570121F0200107E000F0C4
:101920000AFB2068816841F0470121F030018160A5
:10193000002000F0F9FA10BD704770B50446006849
:10194000C5680669B10710D5A9070ED56FF0020169
:101950000161012121778069800702D000F0DCFA63
:1019600001E000F0C4FA00202077700712D5680764
:1019700010D520686FF00401016102212177806990
:1019800010F4407F02D000F0C7FA01E000F0AFFA97
:1019900000202077300711D528070FD520686FF079
:1019A0000801016104212177C069800702D000F09D
:1019B000B3FA01E000F09BFA00202077F00612D580
:1019C000E80610D520686FF0100101610821217729
:1019D000C06910F4407F02D000F09EFA01E000F0F0
:1019E00086FA00202077F00708D0E80706D02068A4
:1019F0006FF001010161204600F026F8300608D59D
:101A0000280606D520686FF0800101612046FFF7A7
:101A10007FFE700608D5680606D520686FF0400185
:101A20000161204600F06EF8B00601D5A80600D48A
:101A300070BD20686FF0200101612046BDE8704054
:101A4000FFF767BE70477047B0B5264CA1684A1CC7
:101A5000AB496FF31F328842A26006D0BF4988426B
:101A600012D0D649884231D0B0BD2068012805D1B6
:101A70001E484FF40051FFF73FF9A26800200121F2
:101A8000BDE8B040FEF79ABFFEF736FF6068012858
:101A900004D116484FF40051FFF72EF9144D1549A3
:101AA0002C682046FEF789FC08B900242C601248F7
:101AB00000680128D8D02046FEF7D6FC0F4A104B0C
:101AC000FEF762FBFEF7E3FC2860B0BD0648016844
:101AD0000131CA1701EB527222F00702891A016024
:101AE000B0BD00BF24000020D00200200010014043
:101AF00020000020286B6E4E1C0000209A999999B6
:101B00009999B93F7047FEE7E0B50F480F4901606A
:101B10000021019124210091FEF7ACFF08B1FEF7EE
:101B20006CFF094869460022FEF77EFF08B1FEF708
:101B300064FF054800214FF43062FEF762FF08B1F0
:101B4000FEF75BFF8CBD00BF340000200074004036
:101B50002DE9F04F85B04FF0000B2E482F4F00229B
:101B600042F2D034CDE903BBCDE901BB016841F0BD
:101B700010010160016801F01001009100990168F5
:101B800041F020010160016801F0200100910099FD
:101B9000016841F004010160016801F00401009155
:101BA0000099016841F00801016042F2D0310068FB
:101BB00000F0080000900098174800F50065824684
:101BC0002846B8470AF580664FF2380100223046B1
:101BD000B84750464FF440710022B8474FF0020911
:101BE0004FF001082846CDE90148CDE903B901AF1E
:101BF0000B4C3946A0474FF2380000F0E5F830466C
:101C0000A0474FF4407000F0DFF85046A04705B001
:101C1000BDE8F08F1810024000080140090D0008CF
:101C2000490B000810B50B480B4B0C4C00214FF42E
:101C30008042C0E90043C0E90211C0E90421C0E9C3
:101C400006110162FFF76AF818B1BDE81040FEF70F
:101C5000D4BE10BD48000020A08601000054004002
:101C600070B50F4800220A210E4E01244FF48275F0
:101C70004FF40073C0E90A211021C0E90822C0E92D
:101C80000065C0E90222C0E90424C0E90631FFF77B
:101C900011FC18B1BDE87040FEF7AFBE70BD00BFCB
:101CA0009C0000200030014010B586B0144800218F
:101CB000182203234FF080440591CDE903110191CF
:101CC0008161C0E9021201612021C0E90043009155
:101CD000FFF752FD08B1FEF790FE4FF480500290DE
:101CE000074802A9FFF7CEFD08B1FEF786FE0448BB
:101CF0006946FFF70FFD08B1FEF77FFE06B010BD85
:101D0000F400002010B586B0FB48154C00214FF4BC
:101D1000347248230591CDE90311CDE900118161A9
:101D2000C0E90043C0E902120161FFF725FD08B1D7
:101D3000FEF763FE4FF480500290EF4802A9FFF7D0
:101D4000A1FD08B1FEF759FEEB486946FFF7E2FC3A
:101D500008B1FEF752FE06B010BD00BF3C010020E6
:101D60000004004010B586B0E6488021144C48239A
:101D7000142281610021C0E90043C0E9021201611F
:101D80000591CDE90311CDE90011FFF7F5FC08B18C
:101D9000FEF733FE4FF480500290DA4802A9FFF7B5
:101DA00071FD08B1FEF729FED6486946FFF7B2FC7F
:101DB00008B1FEF722FE06B010BD00BF840100206E
:101DC000000C0040FEE7FEE73946CDF81090CDE963
:101DD000028B01907047ADF806002046FEF794BFD5
:101DE0004FF47C638A4003FA01F103681C6824EA1B
:101DF00001011143196000230121437101717047F2
:101E000020F001003062306A20F0040070471C218D
:101E1000012201EAD00100F01F0002FA00F0704731
:101E2000706800F00C000828704701902068C168B5
:101E300001918068019001987047012084F8460064
:101E400084F83E0084F83F0084F8400084F84100A4
:101E500084F8420084F8430084F8440084F8450084
:101E600084F83D00002010BD816801F007010629BB
:101E70007047002084F85000012084F851000320AE
:101E8000BDE8FC81016841F001010160704737F84D
:101E9000021BC1602763E08E0138E086704701684D
:101EA00041F04001016070472068816889077047F0
:101EB000002084F83C002046704794F85000012828
:101EC0007047D1E90123C9681A4342EA01218268B7
:101ED00022F47F421143816081687047012084F8B9
:101EE0005100002084F85000606D002870474DF8C4
:101EF00008ED2046FFF7A6FD20465DF808EBFFF74A
:101F0000A2BD90F83C2004460220012A70470446F6
:101F100090F83D00002870472046FFF70DBD086887
:101F200040F0010008607047002184F83C10012156
:101F300084F83D1070474B68CA68194600F03AB9FA
:101F4000242084F83D002068016821F0010101602F
:101F500070470220211D84F83D00206800F0D4B8AD
:101F6000B0FBF3F001306FF31F30002870470173AE
:101F7000206B01302063E08E0138E086704700203E
:101F800084F83C00704770477CB50D4616460092B9
:101F90000221012204462B4600F012F840B92046E7
:101FA000802100222B460096002600F009F820B17F
:101FB000606D032640F02000606530467CBD000067
:101FC0002DE9F843089F1C4615460E468046FEF74D
:101FD000A1FE381A0719FEF79DFE814627480134F5
:101FE0000068C0F3CB3078430090D8F800008168D7
:101FF0003140891BB1FA81F14909A9420FD0002C67
:10200000F5D0FEF787FEA0EB0900B8420AD200988F
:10201000009901390091002808BF0746E5E7002034
:10202000BDE8F883D8E900014268B1F5827F22F06B
:10203000E00242600BD1D8F80810B1F5004F02D091
:10204000B1F5806F03D1016821F040010160D8F83B
:102050002810B1F5005F07D1016821F4005101603B
:10206000016841F400510160002088F8500001200F
:1020700088F851000320BDE8F88300BF0C00002061
:102080007047FEF70DBFB0B590B04FF4E0100024DC
:1020900002250F904FF48030CDE90B44CDE909447F
:1020A0000D950E90CDE90704012006900A9006A830
:1020B000FFF776F818B1EFF3108072B6FEE74FF431
:1020C000806005940221CDE903400F20CDE9010590
:1020D00001A8FEF77FFF18B1EFF3108072B6FEE79C
:1020E00010B0B0BD704700005A48FFF726BC00BFD3
:1020F0005948FFF722BC00BF3C0100200148FFF710
:102100001CBC00BF8401002070B5254A03689042C2
:1021100022D0B0F1804F0BD0224CA04208D0224CEC
:10212000A04205D0214CA04202D0214CA04203D1B4
:102130004C6823F070032343B0F1804F10D0194C4A
:10214000A0420DD0184CA0420AD0184CA04207D093
:10215000174CA04204D007E04C6823F070032343DF
:10216000CC6823F4407323434E6923F080030C684A
:102170008D68334390420360C562846203D002F5E8
:102180000062904201D10969016301214161016945
:10219000C90703D0016921F00101016170BD00BFD1
:1021A000002C0140000400400008004000340140C1
:1021B000000C004010B5036A046A24F001040462B4
:1021C000846924F0F00444EA0212826123F00A02D6
:1021D0001143016210BD10B5036A046A24F01004B3
:1021E0000462846924F4704444EA0232826123F078
:1021F000A00242EA0111016210BDFEE7144801216C
:102200000160FEF757FEFFF73EFFFFF7A1FCFFF767
:1022100027FDFFF749FDFFF7A5FDFFF773FDFFF76A
:1022200001FDFFF771FC0B48FFF7F6FA0A48FFF7CC
:10223000F3FA0A480021FEF75BFCFEF713FBFEF7FA
:1022400021FB07484FF400510122FEF75DFDFEE738
:1022500030000020F40000203C0100203400002069
:10226000001001404100080218BF04200A0E18BFE8
:1022700040F001004FF07F4232EA010108BF40F018
:102280000200012808BF052070470121FEF7CEBAE1
:1022900000210846FEF78CBA6FF05E010807FEF7D2
:1022A000C5BA00002DE9F04D0D4614464FF07F41B0
:1022B000B1EB440F9EBF4FF0FF312960BDE8F08DB8
:1022C0004FF0004040EA0421C4F3C750783810F0C2
:1022D0001F024A4B4FEA601CC2F120067B44C4F344
:1022E000C750A0F178004FEA601003EB800053F86C
:1022F0002C3008BFD0E901C612D0D0F804C09340FA
:102300002CFA06F73B4387680CFA02FC27FA06F81A
:10231000C06807FA02F2F0404CEA080C42EA0006F4
:10232000A3FB0132ACFB01C0A6FB016101EB0C0673
:102330008E4234BF4FF0010C4FF0000CC1186144C5
:10234000BCF1000F02D0814202D903E0814201D2E8
:10235000012000E00020104400F120024FEA921812
:102360008006CA0C40EA42304F03C5F80080FEF7F1
:1023700069FA82463846FEF76EFA6FF01201FEF7F0
:1023800055FA07463046FEF766FA6FF02501FEF76C
:102390004DFA834639465046FEF7EDF85946FEF7AA
:1023A000EAF800F500666FF30B0651463046FEF77B
:1023B00034F93946FEF731F95946FEF731F910493B
:1023C000FEF731F907460F493046FEF72CF939463A
:1023D000FEF7D1F807460C493046FEF724F9394696
:1023E000FEF7C9F814F0004F08BFBDE8F08DC8F142
:1023F000805180F000402960BDE8F08DE0020000CF
:10240000DB0FC92F22AAFD290000C92F02E008C84E
:10241000121F08C1002AFAD170477047002001E05E
:1024200001C1121F002AFBD170470000014908605A
:1024300070470000000000202DE9F84304460246E2
:1024400052486946B0EB420F09D94FF0E640B0EB75
:10245000420F94BF00204FF0FF30009030E04C4B13
:1024600022F00040834271D94A492046FEF7DBF84A
:10247000FEF70BF98046FDF7BFFF00F00300009068
:1024800045494046FEF7CFF8054644494046FEF729
:10249000CAF8064642494046FEF7C5F80746414994
:1024A0004046FEF7C0F82146FEF7BAF83946FEF777
:1024B000B4F83146FEF7B1F82946FEF7AEF8044607
:1024C0002546009C002C45DB294614F0010F0846E8
:1024D0001ED0FEF7A8F805463349FEF7A4F83349A5
:1024E000FEF749F82946FEF79EF83149FEF743F812
:1024F0002946FEF798F84FF07E51FEF73CF814F0AD
:10250000020F08BFBDE8F88380F00040BDE8F88303
:10251000FEF789F806462749FEF785F82649FEF7B3
:102520002AF83146FEF77FF82449FEF724F83146B1
:10253000FEF779F82946FEF776F82946FEF71BF8EC
:1025400014F0020FE0D1BDE8F883FFE71046FFF773
:10255000A9FEB4E76800B0F17F4F09D22846FFF723
:1025600081FE042808BFFFF797FE2846BDE8F883E0
:1025700006D10120FFF75AFFBDE8F843FFF788BEF8
:102580002846BDE8F843FFF780BE0000B61F927EE4
:10259000490E494683F9223F1A61342C0020A233A8
:1025A00000A0FD390000C93FB93AB2BACA9F2A3D1E
:1025B000DDFFFFBE336D4CB9DA82083CA0AA2ABE0B
:1025C000000000006E83F9A22915444ED15727FC64
:1025D000C0DD34F5999562DB4190433CAB6351FE1D
:1025E00000000000000000000102030406070809C3
:1025F000000000000102030418260008000000206B
:10260000100000000C2400082826000810000020FC
:10261000C80600001C2400080000000001000000A3
:082620001000000000127A0016
:0400000508000131BD
:00000001FF
