:020000040800F2
:100000002807002045010008B52D000847290008F1
:10001000712D0008290E000881370008000000003B
:10002000000000000000000000000000C9310008CE
:10003000690E000800000000CF300008CB31000836
:100040005F0100085F0100085F0100085F01000810
:100050005F0100085F0100085F0100085F01000800
:100060005F0100085F0100085F0100085F010008F0
:100070005F0100085F0100085F0100085F010008E0
:100080005F0100085F0100085F0100085F010008D0
:100090005F0100085F0100085F0100085F010008C0
:1000A0005F0100085F0100085F0100085F010008B0
:1000B000313200083D3200085F0100085F0100088E
:1000C0005F0100085F0100085F0100085F01000890
:1000D0005F0100085F010008793700085F01000830
:1000E0005F0100085F0100085F0100085F01000870
:1000F0005F0100085F0100085F0100085F01000860
:100100005F0100085F010008493200085F01000834
:100110005F0100085F0100085F0100085F0100083F
:100120005F0100085F0100085F0100085F0100082F
:10013000DFF80CD000F090FC00480047853700083D
:10014000280700200648804706480047FEE7FEE7EC
:10015000FEE7FEE7FEE7FEE7FEE7FEE7FEE7FEE777
:100160002D32000831010008202A04DB203A21FA50
:1001700002F00021704721FA02F3D040C2F12002C0
:10018000914008431946704740EA01039B0703D09A
:1001900009E008C9121F08C0042AFAD203E011F8C6
:1001A000013B00F8013B521EF9D27047D2B201E088
:1001B00000F8012B491EFBD270470022F6E710B56C
:1001C00013460A4604461946FFF7F0FF204610BDC5
:1001D00030B505462A460B4612F8010B13F8014BC1
:1001E00008B1A042F8D01CB1002802D06D1CF1E784
:1001F000284630BD421C10F8011B0029FBD1801A93
:10020000704700000FB400B58DB010A909900B9095
:1002100000914FF0FF300A9000200C9005480690A6
:10022000054807906A4609A80F9900F009FA0DB031
:100230005DF814FB5D0600087B0600082DE9FF5FF2
:100240001D464FF0FF3BD5E9014691465F464FF012
:100250000008A9697F1C01988847296A8246884757
:100260000028F6D1BAF1FF3F0CD024F4C064002E70
:1002700019DD600614D5BAF12B0F09D0BAF12D0F94
:100280000ED103E0584604B0BDE8F09F44F480640A
:10029000A9697F1C01988847761E8246002E02DDE0
:1002A000BAF1300F03D0B9F1000F26D032E0A969BE
:1002B000761E44F400747F1C019888478246002E05
:1002C00005DDBAF1780F06D0BAF1580F03D0B9F1B5
:1002D000000F10D01EE0B9F1000F02D0B9F1100FDD
:1002E00018D1A969761E24F400747F1C01988847F0
:1002F0008246102002E0082000E00A20814609E042
:1003000008FB0908A969761E44F400747F1C019853
:1003100088478246002E05DD4946504600F07BF9AD
:100320000028EDDAE96901988847A00502D46FF04A
:100330000100A8E7E00725D1600613D5600502D5C6
:10034000C8F1000000E0404629680A1D2A600968DB
:10035000220501D5087015E0220701D5088011E0BB
:1003600008600FE02868011D29600068210502D59A
:1003700080F8008006E0210702D5A0F8008001E0A7
:10038000C0F8008038467EE780EA010210B502F02E
:100390000043400022D04A001FD0010E01EB126141
:1003A000C0F35600C2F3560240F4000042F40002CB
:1003B000A0FB022000047F39140400D0401C50EA46
:1003C000124001D44000491EC2B20C0604EBD0100A
:1003D000401C4008802A02D003E0002010BD20F01D
:1003E0000100002900DA0020184310BD30B480EA73
:1003F000010202F0004530F0004221F0004013D02D
:1004000090B1C30DD40DC2F31601C0F31600E41A67
:1004100041F4000140F400027D34914201D3641C98
:1004200000E04900002C02DA30BC002070474FF495
:1004300000000023914201D3891A034340084FEA88
:100440004101F7D151B1914202D14FF0004105E095
:1004500002D24FF0010101E06FF0010103EBC45043
:10046000284430BC00F01AB92DE9F04D81EA0304AC
:1004700004F0004B21F0004514464FF0000A23F031
:10048000004150EA050220D054EA01021DD0C5F314
:100490000A570246C5F31303C1F31300C1F30A560A
:1004A00040F4801543F48013A7EB0608101BD646D2
:1004B00008F2FD3873EB050002D308F1010801E0F2
:1004C00092185B41B8F1000F03DA00200146BDE845
:1004D000F08D00204FF48011064684460EE0171B75
:1004E00073EB050705D3121B63EB050306434CEAC8
:1004F000010C49084FEA300092185B4150EA0107AD
:10050000EDD152EA030012D082EA040083EA050129
:10051000084305D0101BAB4106D20122002306E0A0
:1005200000224FF0004302E06FF0010253101AEB7B
:1005300006004CEB085110EB0A0041EB0B01BDE843
:10054000F04D00F0E2B8C10F80EAE0700844CA073D
:100550009623002100F0ABB896230022114600F04C
:10056000A6B800F0004230F000400AD0C10D01F5FD
:100570006071C0F3160042EA0151C20840071143FE
:10058000704700200146704730B50B4601460020F9
:100590002022012409E021FA02F59D4205D303FA45
:1005A00002F5491B04FA02F52844151EA2F10102C6
:1005B000F1DC30BD2DE9F05F0546002092469B46F8
:1005C00088460646814640241BE028464146474669
:1005D0002246FFF7C9FD53465A46C01A914110D32F
:1005E00011461846224600F04FFA2D1A67EB010813
:1005F0004F4622460120002100F046FA17EB000981
:100600004E41201EA4F10104DFDC484631462A4653
:100610004346BDE8F09F3A2800D2303820F020024F
:10062000412A01D3A2F13700884201D34FF0FF30B5
:100630007047000002681144137801601846704743
:10064000D1600449516104491162002111611146D0
:1006500000F040BA35060008CB0A0008426842B1F3
:10066000016811F8013B23B1521EC0E9001218467F
:1006700070470121C160881E704742685AB1C36843
:10068000016843B983688B4205D0491E521CC0E9FA
:100690000012002070474FF0FF3070470029A8BFBC
:1006A0007047401C490008BF20F00100704710B49B
:1006B000B0FA80FC00FA0CF050EA010404BF10BC50
:1006C000704749B1CCF1200421FA04F411FA0CF17D
:1006D00018BF012121430843A3EB0C01CB1D4FEAB6
:1006E00000614FEA102042BF002010BC704700EBB1
:1006F000C35010440029A4BF10BC7047401C4900DF
:1007000008BF20F0010010BC704710B5141E73F133
:10071000000408DA401C41F1000192185B411A43C1
:1007200001D120F0010010BD2DE9F04D92469B460D
:1007300011B1B1FA81F202E0B0FA80F220329046B3
:1007400000F0A2F904460F4640EA0A0041EA0B0114
:1007500053465A46084313D0114653EA010019D0B4
:10076000C8F140025046FFF7FFFC05460E465046D2
:100770005946424600F088F9084305D0012004E0BC
:1007800020463946BDE8F08D0020054346EAE07674
:100790002C4337430A986305E40AA0EB08000022C3
:1007A000FD0A44EA47540A3002D500200146E9E731
:1007B000010510196941DDE9084500196941BDE8E5
:1007C000F04DA2E72DE9FE4F804681EA0300C00FFD
:1007D0000C46009021F0004123F00045B8EB0200E8
:1007E000A94105D24046214690461C460B4602468A
:1007F00023F00040104347D0270DC7F30A00C3F38E
:100800000A510290401A019040286BDAC3F313009A
:1008100040F4801B0098924620B10023D2EB030ADB
:1008200063EB0B0B01985946C0F14002504600F0B3
:100830002BF906460D4650465946019A00F033F909
:1008400010EB08006141002487EA115284EAE77343
:100850001A4340D0009A62B3019A012A4FEA075224
:1008600015DC001B61EB02014FF0004202EA075267
:10087000CDE90042001C41F5801132462B46FFF7BE
:1008800053FF03B0BDE8F08F40462146F9E7001B57
:1008900061EB0201001C41F5801300185B41201838
:1008A000A2F5001747EB030140EAD570B6196D4178
:1008B00011E06D084FEA360645EAC0754FEA075267
:1008C000001B61EB0201001C41F5801149084FEA51
:1008D00030000019514132462B4603B0BDE8F04FBD
:1008E000FFF713BF0098012240000023D0EB020263
:1008F00063EBE073009821464FEAE074B8EB000028
:1009000061EB0401E9E783F000435BE781F000411C
:1009100058E72DE9FE4F81EA030404F0004421F07A
:10092000004100944FF0000B23F0004350EA010413
:100930005ED052EA03045BD0C3F30A54C1F30A55F4
:100940002C44A4F2F3340194A0FB0254C1F313012C
:1009500041F48011C3F3130343F4801301FB0244F9
:1009600000FB034E840A970A44EA815447EA8357FE
:10097000A4FB076802958D0A05FB07854FEA932CB7
:1009800004FB0C542705029D4FEA065847EA163728
:10099000B5EB08056EEB070C870E920E47EA811740
:1009A00042EA8312A7FB0201B6EB0B0164EB0004E1
:1009B0002B0D43EA0C335E1844EB1C50DA465146CB
:1009C000E7FB0201C5F313044FEA0B3343EA145368
:1009D0004FEA0432019C43EA0603A4F10C0402949A
:1009E000009CCDE900B4FFF79FFE03B0BDE8F08F97
:1009F00000200146F9E7C1F30A52C1F3130140F2A6
:100A0000FF3341F480119A4202DA00200146704718
:100A100040F233439A42A2F2334202DC5242FFF7E1
:100A2000A3BB00F031B8000030B5041E71F1000422
:100A300004DB4FF00044404264EB0101141E73F1EB
:100A4000000405DB1C464FF00043524263EB0403F5
:100A5000994208BF904230BD1CB509480090094832
:100A600001900546009C06E0E06840F0010394E830
:100A7000070098471034AC42F6D3FFF75DFB000047
:100A80004445000864450008202A04DB203A00FAA7
:100A900002F1002070479140C2F1200320FA03F3D5
:100AA000194390407047202A06DBCB17203A41FAC1
:100AB00002F043EAE07306E041FA02F3D040C2F1EB
:100AC00020029140084319467047C0B24FF4F051DC
:100AD00000F096B92DE9F34F8BB04FF0000801F10B
:100AE0000C000C464FF0010B46460DF1080A019030
:100AF0006269012101989047051E2DD0252D2CD02B
:100B0000216A8847C0B16269012101989047216A32
:100B100088470028F7D1411E62690198904700E09C
:100B2000761CA1690B988847216A88470028F7D16D
:100B3000E1690B988847DBE7A1690B98884707466E
:100B4000A84201D1761CD3E7E1690B9888477F1C46
:100B500002D1B8F1000F6FD046E1002762693D462F
:100B60003946019890472A2804D1626901210198E9
:100B700090470125DFF8849262690121019890472E
:100B8000A0F130010A290AD24F45E5DC07EB8701C5
:100B900000EB4107303FDFD445F01005ECE7E906F4
:100BA00001D46FF000476C280AD04C2814D0682874
:100BB00015D06A280DD074281CD07A281AD01DE0D0
:100BC00062690121019890476C2802D045F0040524
:100BD00014E045F002050DE045F020050AE06269E9
:100BE000012101989047682802D045F0080505E0EA
:100BF00045F400656269012101989047C4E90157F5
:100C000065283DD019DC58287AD00CDC452837D02F
:100C100004DC252826D0412831D131E046282FD0C8
:100C200047282CD12CE05B2877D0612828D0632876
:100C30007CD0642823D15AE0D0E06F2848D008DC6B
:100C400066281DD067281BD0692821D06E2816D1B0
:100C500027E0702845D0732868D0752847D07828B9
:100C60000DD14DE0A1690B988847054625283FF432
:100C700069AFE1690B9888476D1C3FF46AAFB3E038
:100C800023466A466FF001000B99AFF300809EE0A7
:100C900045F040006060A80723464FF0000236D4BC
:100CA0003EE0E8077FF447AF2068011D216000683F
:100CB000290501D506701BE7290701D5068017E72E
:100CC000A90703D5F117C0E9006111E706600FE736
:100CD00045F040006060A80723464FF0080216D494
:100CE0001EE040F60E0125EA0100606016E045F0C6
:100CF00040006060A80723464FF00A0207D40FE0C7
:100D000045F040006060A80708D5234610226FF028
:100D100001000B99AFF3008059E007E02346102251
:100D20006FF001000B99FFF789FA50E04FF00009CE
:100D30004F464B46632802D05B2806D040E0E806C9
:100D400001D40120A06001273AE0626901210198E5
:100D500090475E2805D14FF0010962694946019824
:100D60009047216939B900210A46534643F82120AA
:100D7000491C0829FADBB0B3216969B9C11700EB36
:100D8000D16253110AEB830122F01F02821A012063
:100D90000B68904003430B60626901210198904702
:100DA0005D28E8D1B9F1000F09D00020514651F873
:100DB0002020D24341F82020401C0828F7DB02AB5A
:100DC000224600976FF001000B99AFF300800028D6
:100DD0000CDA401C08D1BBF1000F05D04FF0FF30FA
:100DE0000DB0BDE8F08FFFE74046F9E7E90701D114
:100DF00008F1010806444FF0000B79E6CCCCCC0C8E
:100E00007F2801D9002208E0064A02EB5002C00701
:100E1000127800D1120902F00F0201209040084020
:100E200070470000DE430008FEE70000022888BF8C
:100E30007047B0B50A490B4C01EAC00501200121F9
:100E400020FA05F2204600F0AAF94FF48070022142
:100E5000E840C2B22046BDE8B04000F0A0B900BFF3
:100E6000F8FFFF00001001407047EFF3108072B6EA
:100E7000FEE790F82110022915D110B50168D0E9DC
:100E80000F230C6824F00E040C600C6824F001049D
:100E90000C60012101FA03F3536080F82110002156
:100EA000BDE8104002E0042181630121002280F8A6
:100EB000202008467047000090F8211002291AD11E
:100EC00010B50268116821F00E011160116821F05F
:100ED000010111602C4901F17C039A420FD9324B78
:100EE0009A4226D0314B9A4221D0314B9A4225D199
:100EF0004FF480732AE004218163012142E0234BF7
:100F00009A422CD0224B9A422ED0224B9A4228D081
:100F1000214B9A421DD0214B9A420CD0204B9A4231
:100F20001AD0204B9A4206D14FF080721DE0102358
:100F30000CE001230AE04FF4803216E001F58864EA
:100F40004FF48033A24208BF4FF48053C1F80034FD
:100F50000CE04FF4805208E04FF4801205E00122CB
:100F600003E04FF4807200E010220A6000210122A9
:100F700080F8201080F82120426B0AB190470021B0
:100F8000BDE81040084670470400024008000240D7
:100F90001C00024030000240440002405800024061
:100FA0006C00024080000240080402401C04024021
:100FB00030040240B0B5044600F0F6F80546F748A4
:100FC000611C007818BF044400F0EEF8401BA042FA
:100FD000FAD3B0BD2DE9FC4F81465F4806234FF0A0
:100FE000000C4FF001084FF00F0E4FF0000A814542
:100FF0005A4808BF052348444FEAB022052A38BFA3
:101000004FEAB023009300220C6834FA02F508BFBF
:10101000BDE8FC8F08FA02F714EA070500F0988093
:101020004C68032C16D9112C26D0122C32D04E48E5
:10103000844213D04D48844210D04D4884420DD094
:101040004C4884420AD04C48844207D04B488442E2
:1010500004D022E0DFE804F0021B14188C6844B1CD
:10106000012C14BFC9F81470C9F810704FF0080AA9
:1010700013E04FF0040A10E0CC6804F1040A0CE01D
:10108000CC6804F1080A08E04FF0000A05E0D1F846
:101090000CA002E0CC6804F10C0A64464846B5F5A1
:1010A000807F28BF203C28BF043006680EFA04F772
:1010B0000AFA04F4BE4334430460C879C00647D535
:1010C000C54B274F22F003061868BB463E4440F04C
:1010D0000100186018682A4B00F0010001900CF024
:1010E0000C00019F0EFA00F49E46F758009B03FA8D
:1010F00000F027EA04041B4B204346F80E004FF093
:101100000F0E4F68F802DBF8080054BF20EA050410
:1011100040EA0504CBF80840B802186854BF20EA3A
:10112000050440EA05041C60B803DBF8040054BF62
:1011300020EA050440EA0504CBF80440F803DBF894
:10114000000054BF20EA050440EA0504CBF8004043
:101150000CF1040C013257E7001C014000F8FEBFFF
:10116000000401400C0401400000111000001210A6
:101170000000211000002210000031100000321089
:1011800008FCFFFF8068084018BF01207047C26854
:1011900002EA0103914341EA034101617047002AD9
:1011A00008BF09040161704765480068704700BFC7
:1011B00010B3F8B5044690F83D0020B901F083FF64
:1011C000204600F087F801F059FF016841F4004122
:1011D0000160016821F40041016000F0F1F96368E9
:1011E000384A394993423CBF48F28041C0F21E015F
:1011F000884203D20120F8BD0120704733494FF4E3
:101200007A77B0FBF1F521684E6826F03F062E4351
:101210004E604FF496766E43934228BFB6FBF7F5C7
:101220006A1C0D6A25F03F052A434CF6FF750A62D9
:10123000CA69AA43264DAB420AD85B000138B0FB0D
:10124000F3F001306FF31F30042898BF042013E03F
:10125000A56801383DB119256B4301F025FF0AD07F
:1012600000F5804004E003EB430301F01DFF02D0D2
:1012700000F5004000E00120104304F10C06C861B5
:10128000E0690A6822F0C0021043226A104348F263
:10129000FF320860886890436CCE18431043886022
:1012A000C86820F0FF0028433043C86001F0BDFE4D
:1012B00000202021206484F83D10206384F83E0043
:1012C000F8BD00BFA186010000093D0040420F00AB
:1012D000A086010010B586B00021CDE90411CDE94A
:1012E00002110168114881421DD13B4C00F5384084
:1012F000216841F008012160216801F00801019195
:101300000321059112210391C0210291019902A9A3
:10131000FFF760FE606840F400106060606800F4F1
:1013200000100190019806B010BD00BF00540040AD
:101330001A48034900780A6810440860704700BFE3
:101340002403002080B59B48016841F01001016032
:10135000032000F077F80F2000F004F800F020F8E8
:10136000002080BD70B50D4E04464FF47A71307880
:10137000B1FBF0F09C490968B1FBF0F000F004FC0F
:1013800001250F2C08D838B94FF0FF302146002234
:10139000002500F031F87460284670BD0000002080
:1013A00082B00D480222016841F00101016001682C
:1013B00001F0010101910199416841F080514160C2
:1013C000406800F08050009000980448016862F383
:1013D0001A61016002B07047181002400400014019
:1013E000002805D4734601F011FD9E46014A88503D
:1013F000704700BF00E100E0F0B5184B4FF0FF363A
:101400001C68C4F30224E51E84F0070438BF0025DD
:1014100006FA05F7BA43042C28BF042406FA04F49C
:10142000A14300F00F04A940043C1143044A2344A3
:1014300009010244002848BF03F10C021170F0BDFD
:1014400000E400E005494FF6FF030A681A4060F324
:101450000A22034810430860704700BF0CED00E00B
:101460000000FA05002873D02DE9F8430D465149D4
:101470000446086800F00700A84209D2086820F076
:10148000070028430860086800F00700A8426BD1F5
:10149000206889468107634988461AD5410706D5E1
:1014A000D8F80010424641F4E061C8F80010010786
:1014B00006D5D8F80010424641F46051C8F8001033
:1014C000A168D8F80020434622F0F0021143C8F882
:1014D0000010C0073ED1D9F8000000F00700A84274
:1014E0000CD9D9F8000020F007002843C9F8000003
:1014F000D9F8000000F00700A84235D12068410764
:1015000008D5E168D8F80020434622F4E062114390
:10151000C8F80010000709D52069D8F80010424625
:1015200021F4605141EAC000C8F8000000F060F802
:10153000D8F80010204AC1F30311515CC8402A4971
:1015400008601E480068FFF70DFF0020BDE8F88323
:1015500001207047404658F8041C6068022806D0F5
:10156000012823D1890304D40120BDE8F88389012F
:10157000FAD5D8F8001021F003010843C8F800009C
:10158000FFF712FE064641F2883741466068D8F8F8
:10159000001001F00C01B1EB800F9CD0FFF704FEAE
:1015A000801BB842F1D90320BDE8F8838907DBD559
:1015B000DFE700BF002002401E44000804000020B6
:1015C000E3481849094A00680968C1F30221515CDF
:1015D000C8407047DE481349044A00680968C1F3EF
:1015E000C221515CC84070476C0000202E440008A6
:1015F00010B50C490C480A6802F00C03082B07D1FF
:10160000C2F3834309A4D203E35C02D40C485843D9
:1016100010BD096809A25843C1F34041515CB0FBB9
:10162000F1F010BD0410024000127A00020304051C
:10163000060708090A0B0C0D0E0F1010010200001E
:1016400000093D00002843D02DE9FC410446007804
:10165000BD4EC0070BD0706800F00C00042839D1D3
:101660003068800303D56068002800F0B6802078D9
:10167000800717D5706810F00C0F05D001F0E3FB60
:1016800042D17068C0033FD43068800703D5206919
:10169000012840F0A2806069316821F0F80141EA38
:1016A000C0003060207800075ED5A06900283ED0D9
:1016B000A6480121C0F88014FFF776FD0546706A40
:1016C000800744D4FFF770FD401B0228F7D902E1E0
:1016D0000120704701F0B7FB02D17068C003BFD48E
:1016E00062683068002A20F4803100F0F780B2F59B
:1016F000A02F00F0DD80B2F5803F00F0DD8031608A
:10170000306820F48020D9E021699048002900F059
:101710008F8001210160FFF747FD05463068800793
:10172000B9D4FFF741FD401B0228F7D9D3E0874821
:101730000021C0F88014FFF737FD0546706A800766
:1017400012D5FFF731FD401B0228F7D9C3E08048CE
:101750004FF4FA510068B0FBF1F0019000BF01981E
:10176000411E00280191F9D12078400714D4E7697F
:101770007FB101F068FB3ED1012F2ED0216A706845
:1017800000F480328A4228D1616A00F470108842E5
:1017900023D10020BDE8FC81F0695FEAC00808D4CD
:1017A000F06940F08050F061F06900F080500090E6
:1017B0000098684F3868C00512D4386840F48070CB
:1017C0003860FFF7F1FC05463868C00508D4FFF71C
:1017D000EBFC401B6428F7D97DE00120BDE8FC81CB
:1017E000E168306A002948D0052931D0012933D079
:1017F00001F005FB32E05549002088460866FFF7F6
:10180000D3FC0546022F09D13068800179D5FFF756
:10181000CBFC411B03200229F6D9BBE730688001CD
:10182000B7D5FFF7C1FC411B03200229F6D9B1E768
:1018300000210160FFF7B8FC0546306880077FF59E
:1018400031AFFFF7B1FC411B03200229F5D9A1E715
:1018500040F004003062306A40F001003062FFF76F
:10186000A3FC054641F28837306A800717D4FFF79A
:101870009BFC401BB842F7D92DE001F0C0FA306262
:10188000FFF792FC054641F28837306A800706D59B
:10189000FFF78AFC411B0320B942F6D97AE7B8F179
:1018A000000F3FF564AFF06920F08050F0615EE713
:1018B00040F480203060306840F480303060FFF7C2
:1018C00073FC0546306880033FF5D1AEFFF76CFC32
:1018D000401B6428F6D90320BDE8FC8131603068E4
:1018E00020F480203060FFF75FFC054630688003FD
:1018F0007FF5BDAEFFF758FC411B03206429F5D9E5
:1019000048E7206AB0F5803F05D1A168726822F4EB
:10191000003211437160616A726822F474121143DB
:10192000084370600120C8F86000FFF73DFC0446E2
:10193000306880013FF52DAFFFF736FC011B032017
:101940000229F5D926E700BF0010024000004242FC
:101950006C0000200070004070B530B10446406A51
:1019600028B100202061142006E0012546E06068CF
:10197000B0F5827F02D01C20002121500025A562F5
:1019800094F8510020B9204684F8505000F038F8FF
:10199000022084F8510094E80F0001F4827102F4EF
:1019A00004420668114403F40062114426F0400624
:1019B0000660226902F002021144626902F001022B
:1019C0001144A26902F400731944E36903F0380377
:1019D0001944236A03F080031943A36A03F40053F4
:1019E00019430160042101EA12414160C16921F4F7
:1019F0000061C1610120656584F85100284670BD11
:101A000070B586B0BC4C00680026CDE90466CDE90F
:101A1000026604F52051884225D11448016841F43A
:101A200080510160016801F48051019101990168C0
:101A300041F004010160006800F0040001900320FF
:101A4000059002200390A0200290019802AD20464C
:101A50002946FFF7BFFA40202946CDE903660290E8
:101A60002046FFF7B7FA06B070BD00BF181002405D
:101A70002DE9FC411D4616460F460446FFF794FB30
:101A8000804694F85100012804D137B12EB101F0FD
:101A90006EFA05D10220BDE8FC810120BDE8FC8181
:101AA0000320012184F8510000206065E68684F857
:101AB0005010A6862763A087A063C4E91000E087C2
:101AC000A1682068B1F5004F07D1016821F04001FD
:101AD0000160016841F4804101600168490601D458
:101AE00001F02FFAE2686168B2F5006F1CD109B10C
:101AF000012E01D101F007FA6E1CE08E70B301F0E7
:101B000028FA08D4FFF750FB002EF6D0A0EB08000F
:101B1000A842F2D335E0216B31F8022BC260216379
:101B2000E08E0138E086E8E709B1012E02D139786C
:101B300001F0C1FA6E1CE08E80B101F00AFA08D4FF
:101B4000FFF732FB002EF6D0A0EB0800A842F2D33C
:101B500017E0216B097801F0AEFAECE72046294640
:101B6000424601F0B5FA08B120206065A06810B9BE
:101B7000002001F06DF901F00BFA18BF0120BDE85B
:101B8000FC8101F09DB90000411E0020B0EB116FF7
:101B90001CBF01207047044AF023516003490B70B9
:101BA000072190601160704710E000E023ED00E035
:101BB0007047704790F83C300222012B29D010B5B5
:101BC00080F83D2002680B68546824F070041C43C0
:101BD0009368B2F1804F54600ED05E4CA2420BD09D
:101BE0005D4CA24208D05D4CA24205D05C4CA242A2
:101BF00002D05C4CA24204D1496823F0800319430F
:101C000091600022012180F83C2080F83D10BDE861
:101C100010401046704700BF58B110B501F0EAF906
:101C200003D101F09FF900F007F801F030FA01F05C
:101C300017B9012070470000FEB50021006801F0CF
:101C4000FDF8464988423FD0424988422BD0B0F146
:101C5000804F26D12748016841F0010101600168E9
:101C600001F001010191019950F8041C41F00401B7
:101C700040F8041C50F8040C00F00400019000200F
:101C8000CDE9030001200290019802A91A48FFF74C
:101C9000A1F91C2001210022FFF7AEFB1C20FFF759
:101CA0009FFB06B080BD13480022016841F002018D
:101CB00001600021006800F00200019001981D20E1
:101CC000FFF79AFB1D200FE00A480022016841F04F
:101CD000080101600021006800F0080001900198EF
:101CE0003220FFF789FB322006B0BDE88040FFF7C5
:101CF00077BB00BF1C1002400008014090F83D1067
:101D000001291CBF01207047022180F83D100068A6
:101D1000C168B0F1804F41F00101C1600ED0CA49E5
:101D200088420BD0C949884208D0C949884205D0A9
:101D3000C849884202D0C849884204D1724601F09D
:101D4000A6F8964603D0724601F0C3F896460020E6
:101D5000704700BF0004004000080040000C004035
:101D600000340140002C014010B501F032F954D08C
:101D700084F83D0001204FF6777384F83C0020681A
:101D800082689A4382600A68C2B1102A16D0202A5B
:101D900014D0302A12D0402A33D0502A28D0602ABA
:101DA00013D0B2F5005F1CD0B2F5805F32D0702A3C
:101DB0001CD101F0E0F841F077012AE0816821F0C0
:101DC0007001114341F0070123E04B68CA681946CE
:101DD00001F096FB2068816841F0670121F0100155
:101DE00017E001F0C8F841F4804112E0012012E050
:101DF00001F027F92068816841F0570121F02001A6
:101E000007E001F01EF92068816841F0470121F0E8
:101E100030018160002001F00DF910BD0168B1F1C1
:101E2000804F00D07047017F0129FBD1B0B5194C1C
:101E30000021257800F084FA55B1E060E068A168DF
:101E4000884209D2A068E168081A00F5803006E0EF
:101E5000A060012020701AE0E068A168401A2061AB
:101E6000206978B12069FEF777FB01460A48FEF742
:101E7000BDFA606109496069FEF7B8FA0849FEF7E2
:101E800083FA01E000206061A061E068A060BDE825
:101E9000B04070478C0000200024744900002041AD
:101EA00000007042F8B501F0D1F804BF0220F8BD7F
:101EB00001F0A5F861D8DFE801F0024E102CD5E959
:101EC0000012EB68206801F0E7FA206850F8181F4C
:101ED00021F00C010160A9684BE02268136A106AC6
:101EE00020F480701062D5E90067D5E9021060F334
:101EF0000717104650F81C5F25F0F3053D430560B9
:101F0000750865F349231362026822F00C0202602F
:101F10002FE021684FF2FF070A6A086A20F4805018
:101F20000862D5E90030D5E9026500025B0820EAC5
:101F30000707084663F34D3265F30F3750F81C5F0F
:101F400025F473453D4305600A62016821F4406150
:101F5000016031020DE0D5E90012EB68206801F064
:101F6000E1FA206850F8181F21F440610160A96867
:101F700009020268114301600020002184F83C102E
:101F8000F8BD58B110B501F035F803D100F0EAFF03
:101F900000F006F801F07BF800F062BF0120704706
:101FA0007047000010B5044641B1042909D0082942
:101FB00019BF452041224420402204E042203E2215
:101FC00001E043203F22A35C225C0120012B08BFDB
:101FD000012A00D010BD022061B108290DD00429CA
:101FE00019BF84F8410084F8450084F83F0084F864
:101FF000430004E001F02FF801E000F0AEFF4FEAEB
:10200000B100032884BF012010BD0E4A00F06CFF10
:1020100000F0DBFF0ED0B74988420BD0B6498842AA
:1020200008D0B649884205D0B549884202D0B549A2
:10203000884202D100F02BFF01D000F04AFF0020BF
:1020400010BD00BF384400080004004000080040F4
:10205000000C004000340140002C014070B50446E3
:102060000068C5680669B10710D5A9070ED56FF0DD
:1020700002010161012121778069800702D000F00F
:10208000C6FF01E000F097FF00202077700712D50F
:10209000680710D520686FF00401016102212177E3
:1020A000806910F4407F02D000F0B1FF01E000F041
:1020B00082FF00202077300711D528070FD5206830
:1020C0006FF00801016104212177C069800702D007
:1020D00000F09DFF01E000F06EFF00202077F00689
:1020E00012D5E80610D520686FF0100101610821B3
:1020F0002177C06910F4407F02D000F088FF01E032
:1021000000F059FF00202077F00708D0E80706D03C
:1021100020686FF001010161204600F0F5F83006FB
:1021200008D5280606D520686FF080010161204699
:10213000FFF73EFD700608D5680606D520686FF0EB
:1021400040010161204600F005F9B00601D5A8065E
:1021500000D470BD20686FF0200101612046BDE809
:102160007040FFF726BD0000FEB50021006800F0BA
:1021700065FE6049884217D10C48016841F01001A2
:102180000160006800F010000190022005900390AB
:1021900040200290019802A96648FEF71BFF044800
:1021A000044A01681143016006B080BD1810024066
:1021B00004000140000C000770470000B0B500F0BB
:1021C00045FF04BF0220B0BD00F019FF37D8DFE89B
:1021D00001F002220A1A2068294601F097F82068C7
:1021E00050F8181F06E02068294601F0EFF8206833
:1021F00050F81C1F41F008010160016821F0040142
:102200000160296917E02068294601F00FF920686C
:1022100050F81C1F06E02068294601F0A7F8206846
:1022200050F8181F41F400610160016821F48061D9
:102230000160296909020268114301600020002140
:1022400084F83C10B0BD58B110B500F0D3FE03D1F6
:1022500000F088FE00F006F800F019FF00F000BE64
:10226000012070477047704710B50446A1B104299A
:1022700004D0082914BF4120402000E03F20205C0A
:10228000012811D10220082910D0042914BF84F894
:10229000410084F83F000BE094F83E00012803D190
:1022A000022084F83E0003E0012010BD84F84000C5
:1022B000206800F030FE00F088FE14D00D498842FE
:1022C00011D00D4988420ED00C4988420BD00C49E0
:1022D000884202D00B4A904208D100F00EFE02D094
:1022E0000849884202D100F0D2FD01D000F0F1FD92
:1022F000002010BD0004004000080040000C004019
:1023000000340140002C01400949884218BF704741
:1023100080B508484FF40051FEF739FF06480749D9
:1023200040224FF47A73BDE8804000F0B5BA00BF98
:102330007C01002000100140540200200800002011
:102340004FEAB10103298FBF0020006800EB810034
:10235000406B70477047704770470000F8B50446FF
:1023600000680268C168466915074FEA82633FD07A
:1023700001F4907706F00106BF193DD0D70705D0CC
:10238000CF0503D5676C47F001076764570704D58D
:102390001EB1676C47F002076764920704D51EB14F
:1023A000626C42F004026264002D07D501F0200245
:1023B000921903D0626C42F008026264626C002AD7
:1023C00000F0E180002B05D5890603D5204601F0F9
:1023D000E9F820684069616C00F0400001F00801F4
:1023E000401847D12046FFF7B7FF00206064CAE0DD
:1023F000002B01D58B0653D4236B012B03D1D306BD
:1024000001D5CB0651D4130601D50B0611D45206C3
:1024100040F1B980490640F1B680C16821F0400121
:10242000C160202084F841002046BDE8F84000F05B
:1024300089BA94F84110212940F0A580A168B1F52E
:10244000805F03D12169002900F09E80216A4A1C27
:10245000226209784160E18C0139E184090440F08D
:102460009280C16821F08001C160C16841F04001E3
:10247000C160F8BD00F06AFD00F050FD4DD500F0E0
:10248000CEFCFCD1E06B002847D043494163FEF706
:1024900013FD002877D0E06B416BBDE8F84008479A
:1024A0002046BDE8F84001F07DB8002100910168A8
:1024B00000914168009100994069400632D4E08D56
:1024C000A18DE28D002A5ED081425CD0081A21687D
:1024D00051E8031F226821F4907142E80313002B96
:1024E000F5D1216851E8051F226821F0010142E879
:1024F0000513002BF5D1202184F84210002121631F
:10250000216851E8031F226821F0100142E80313FB
:10251000002BF5D1022161632FE02046BDE8F84091
:10252000FFF71ABFE06B016849688AB25AB3A38DFE
:102530009A4228D2E1858069202819D0206850E885
:10254000030F216820F4807000F064FDF6D100F0E4
:10255000EEFCFCD100F063FCFCD1202084F84200AA
:102560000020206300F01DFDFCD1E06BFEF781FC34
:1025700002206063A08DE18D401A81B22046BDE843
:10258000F840FFF7E8BEF8BD216A31F8022B6FF37F
:102590005F22216242605EE75735000890B110B5B6
:1025A000044690F8410008B900F078FD00F017FDEE
:1025B0002068016921F490410161416921F02A01FB
:1025C00000F04EBD0120704770B586B01D4C00680C
:1025D0000026CDE90466CDE90266A4F544418842AF
:1025E0002DD11948416841F400314160416801F43E
:1025F000003101910199016841F004010160006816
:1026000000F00400019003200590022003900420B4
:102610000290019802AD20462946FEF7DBFC082017
:102620002946CDE9036602902046FEF7D3FC26201A
:1026300002210022FEF7E0FE2620FEF7D1FE06B0C2
:1026400070BD00BF000801401810024010B590F89E
:102650004230202B06D139B132B10024046301F09D
:1026600041F802E0022400E00124204610BD0000F1
:1026700000685349884206D0524853A11E224FF4A5
:102680007A7300F009B97CB5574C58A104F11C05C8
:1026900000F0A3FB30B10020FEF7C8FB564D5748B1
:1026A00056A109E059A100F098FBF8B10120FEF70E
:1026B000BDFB514D584858A14A688B68C96885E8E8
:1026C0000D00E9602846FDF795FD82B23D48294698
:1026D000642300F0E1F800200C2244F81C0FC4E948
:1026E000010038482146FFF7B1FF7CBD4EA100F044
:1026F00074FB60B10220FEF799FB3F4D4D484DA1A0
:10270000D1E9012385E80D00087B2873DAE74DA1A4
:1027100000F063FB60B1012000F02CFB4CA1364DB2
:102720004B480E1D4CCE85E84D00087C2874C9E747
:102730004CA100F052FB68B1022000F01BFB4C489A
:102740002D4D90E84E0085E84E00018A807C29825C
:10275000A874B7E747A100F040FBC8B100210730DB
:10276000019146A101AAFDF74DFD01281DD1019857
:1027700040F2E632411E91421BD84349C2B2087072
:102780004249096848631C48414901F09BF915E03A
:10279000194E40492A46304601F094F93046FDF77B
:1027A00029FD82B20748314692E7134834492E2268
:1027B00002E0114833493222FDF7E6FC0E4D81E775
:1027C00000440040540200204572726F723A205556
:1027D0006E6B6E6F776E205541525420696E737424
:1027E000616E63650A0000008C000020666F7277DE
:1027F0006172644D6F740000A4020020466F72770E
:10280000617264204D6F746F720D0A006261636BB8
:10281000776172646D74000052657665727365202D
:102820006D6F746F720D0A007373746F706D6F74D7
:102830006F72000073746F70206D6F746F720D0A89
:1028400000000000737065656475706D747200003F
:102850007370656564207570206D6F746F720D0AFA
:10286000000000007370656564646F776E6D000032
:10287000CC440008737065656461740025640000D1
:10288000E04400081045000870000020C40100204A
:102890007F440008724400082DE9F843044690F88C
:1028A000410020281CBF0220BDE8F883884679B388
:1028B00017466AB300201D466064212084F8410059
:1028C000FEF772FCE7840646A784A068B0F5805F37
:1028D00001D1206998B34FF000094746E08CD0B190
:1028E0002046802132462B4600F015FF08BB27B159
:1028F00017F8010B2168486006E039F8021B2068D0
:1029000000276FF35F214160E08C0138E084E5E748
:102910000120BDE8F8832046402132462B4600F0D6
:10292000FAFE202184F84110002818BF0320BDE8DA
:10293000F883202084F841000320BDE8F8830027B5
:10294000C146CBE77047FEE7FEB51F4C1F4F032083
:1029500000212246B8471E4821A31EA122A20068DA
:10296000012808BF0B46002818BF1A460020002186
:10297000B8471F480068FDF7E6FDFDF7F2FD1D4B67
:102980000022FDF771FD1C4E651CCDE900010821F8
:102990002846324601F07CF8012000212A46B8473B
:1029A00016480068FDF7DDFD0934CDE90001082176
:1029B0003246204601F06CF80220002122463B46B8
:1029C00003B0BDE8F040184778000020012A000855
:1029D000900000206261636B776172640000000008
:1029E00073746F7000000000666F7277617264002C
:1029F0006800002000408F406D440008A4000020C3
:102A000010B51446064A02EBC000405C01F01EF807
:102A1000207818B101F02AF80134F9E710BD00BFA1
:102A2000480000200F4900203022082802D00A5414
:102A30000130FAE7B0B50C4D3220A8470B4C3020DE
:102A4000A0470220A8470220A8470C20A047012049
:102A5000A8470220A8470120A04702202946BDE838
:102A6000B0400847B8000020B50F00084D3A0008F4
:102A70002DE9F04F85B000243448002242F21308BB
:102A8000CDE90344CDE90144016841F01001016042
:102A9000016801F0100100910099016841F02001E6
:102AA0000160016801F0200100910099016841F086
:102AB00004010160016801F00401009100990168BE
:102AC00041F00801016042F21301006800F00800C3
:102AD000009000981E4800F5006605463046FEF757
:102AE0005EFB05F5806540F23F41002240F23F4920
:102AF0002846FEF754FB4FF0020A4FF0010B304618
:102B0000CDE9018BCDE9034A01AFDFF8288F3946C3
:102B1000C04728463946CDE9034ACDE9019BC04765
:102B20004FF4FC5000F05CF93046C0474FF40040D1
:102B300000F056F90648C0474FF4007000F050F915
:102B40002846C04705B0BDE8F08F00BF181002400E
:102B50000008014010B50B480B4B0C4C00214FF402
:102B60008042C0E90043C0E90211C0E90421C0E984
:102B700006110162FEF71CFB18B1BDE81040FEF71C
:102B800074B910BDC0000020A086010000540040B0
:102B9000B0B50E4800210A240D4B4FF482724FF459
:102BA0000075C0E90A141024C0E90811C0E9003218
:102BB000C0E90211C0E90411C0E90654FEF7CCFED9
:102BC00018B1BDE8B040FEF750B9B0BD24010020F7
:102BD0000030014010B58AB01C4800214FF6FF724A
:102BE00047234FF080440991CDE9071100F026F901
:102BF00000F0FBF808B1FEF738F94FF4805006906A
:102C0000124806A9FFF7B0F808B1FEF72EF90F48F1
:102C1000FFF7B7F908B1FEF728F900240B48CDE912
:102C2000044404A9FEF7C6FF08B1FEF71EF901200F
:102C300069460022CDE90244CDE900400348FFF790
:102C400031F908B1FEF711F90AB010BD7C0100207E
:102C500010B58EB000241C210D94CDE90B44CDE9B4
:102C6000084401A8FDF7A9FA51481E4B40F2E7318C
:102C700047228461C0E90032C0E902410461FEF7E5
:102C8000CBFF08B1FEF7F1F84FF480500A904848A6
:102C90000AA9FFF769F808B1FEF7E7F84448FFF71B
:102CA000D2FA08B1FEF7E1F800244148CDE9084422
:102CB00008A9FEF77FFF08B1FEF7D7F86420059456
:102CC00003940022029060200190394801A9FFF787
:102CD00075FA08B1FEF7C9F83548FFF745FA0EB0A6
:102CE00010BD00BF0004004010B586B01048114C64
:102CF00000214FF4347242F210730591CDE90311B3
:102D000000F073F808B1FEF7B0F84FF4805002906D
:102D1000074802A9FFF728F808B1FEF7A6F804480B
:102D20006946FEF747FF08B1FEF79FF806B010BDF1
:102D30000C020020000C004010B50B480B4C002189
:102D40000C224FF4E133C0E90043C0E90211C0E9AD
:102D50000412C0E90611FFF721FC18B1BDE81040CC
:102D6000FEF783B810BD00BF5402002000440040AD
:102D7000FEE700000D4902280A6809D001280FD19A
:102D8000B2F5617FA8BF4FF4617202F1640005E003
:102D9000A2F16400B2F5967FD8BFC820086000E0B9
:102DA0001046034909684863704700BF6800002067
:102DB000C4010020FEE701228DF80510010100F09A
:102DC000F0008DF807108DF8060020461021FEF760
:102DD000E6B939460190204628472846FDF7F8B95C
:102DE0003946CDE9024401907047CDE90011816177
:102DF000C0E90043C0E902120161FEF70DBF20F0F7
:102E000001003062306A20F0040070471C2101226A
:102E100001EAD00100F01F0002FA00F070472068BC
:102E200050E8050F216820F0400041E80502002A23
:102E3000704703224FF47A73FEF71ABECDE90411EE
:102E4000CDE902117047706800F00C000828704747
:102E500001902068C16801918068019001987047D5
:102E6000012084F8460084F83E0084F83F0084F88E
:102E7000400084F8410084F8420084F8430084F85C
:102E8000440084F8450084F83D00002010BD8168AE
:102E900001F0070106297047016851E8051F026823
:102EA00021F0010142E80513002B7047016851E849
:102EB000031F026821F0100142E80313002B704742
:102EC000002084F85000012084F851000320BDE860
:102ED000FC81016841F001010160704701680191C6
:102EE000406801900198704752F820202068C3681C
:102EF0001A43C260012200F0F9B9426C884242F4E0
:102F000000424264704737F8021BC1602763E08EBD
:102F10000138E0867047012200F0E8B92068406976
:102F200040067047204610210022FEF738B920687D
:102F300050E8050F216820F0010041E80502002A51
:102F40007047016841F0400101607047204600F081
:102F500008BB206881688907704784F8400084F8BE
:102F600044007047002084F83C002046704794F8E5
:102F7000500001287047D1E90123C9681A4342EA89
:102F80000121826822F47F42114381608168704789
:102F9000012084F85100002084F85000606D002862
:102FA0007047206850E8030F216820F0100041E8C6
:102FB0000302002A70474DF808ED2046FFF7FCF8A1
:102FC00020465DF808EBFFF74EB92068B0F1804F5E
:102FD000704790F83C2004460220012A70472420C4
:102FE00084F841002068C16821F40051C160204686
:102FF00000F036BB044690F83D00002870470D46AF
:1030000001204FEAB201032984F83C0070472046B2
:10301000FEF704BF41E80302002A70470262B8428B
:103020008C68D1F800C045687047086840F001001E
:1030300008607047002184F83C10012184F83D109D
:1030400070474B68CA68194600F014BA044690F8F5
:103050003C000128704784F83E0084F84200704725
:103060004161C16841F40051C160002020216064C9
:1030700084F8411084F84210606310BD242084F865
:103080003D002068016821F00101016070470220C5
:10309000211D84F83D00206800F0DCB8002084F891
:1030A00040002046FFF790BAB0FBF3F001306FF319
:1030B0001F30002870470173206B01302063E08EC1
:1030C0000138E0867047002084F83C007047704764
:1030D0007CB50D46164600920221012204462B467D
:1030E00000F012F840B92046802100222B460096BD
:1030F000002600F009F820B1606D032640F02000A2
:10310000606530467CBD00002DE9F843089F1C46F1
:1031100015460E468046FEF747F8381A0719FEF79F
:1031200043F88146274801340068C0F3CB30784328
:103130000090D8F8000081683140891BB1FA81F114
:103140004909A9420FD0002CF5D0FEF72DF8A0EBCD
:103150000900B8420AD2009800990139009100286C
:1031600008BF0746E5E70020BDE8F883D8E900017D
:103170004268B1F5827F22F0E00242600BD1D8F8BC
:103180000810B1F5004F02D0B1F5806F03D101688E
:1031900021F040010160D8F82810B1F5005F07D197
:1031A000016821F400510160016841F4005101609F
:1031B000002088F85000012088F851000320BDE865
:1031C000F88300BF6C0000207047FEF7B1B8B0B5BF
:1031D00090B04FF4E010002402250F904FF480309F
:1031E000CDE90B44CDE909440D950E90CDE90704D6
:1031F000012006900A9006A8FEF724FA18B1EFF312
:10320000108072B6FEE74FF4806005940221CDE98C
:1032100003400F20CDE9010501A8FEF723F918B1FD
:10322000EFF3108072B6FEE710B0B0BD704700003B
:103230000148FEF713BF00BF7C0100200148FEF7E4
:103240000DBF00BFC40100200148FEF707BF00BF4B
:103250000C02002070B5A94A0368904222D0B0F158
:10326000804F0BD0A14CA04208D0A14CA04205D069
:10327000A14CA04202D09F4CA04203D14C6823F045
:1032800070032343B0F1804F10D0984CA0420DD072
:10329000974CA0420AD0984CA04207D0954CA0422F
:1032A00004D007E04C6823F070032343CC6823F478
:1032B000407323434E6923F080030C688D683343C9
:1032C00090420360C562846203D002F500629042BE
:1032D00001D109690163012141610169C90703D075
:1032E000016921F00101016170BD00BF10B501F05D
:1032F0001F010123046A8B4002FA01F124EA03034F
:103300000362026A1143016210BD0000F0B5036A56
:10331000026A794E22F0010223F00203A6F500674B
:1033200002628C68D1F800C0456823438469B842C2
:1033300018BFB04210D1CA6823F00C0322F0040277
:103340001343B84218BFB04206D125F44072D1E908
:1033500005562A4342EA060524F07302456042EA14
:103360000C028261496841630362F0BDF0B5036AF3
:10337000026A614E22F01002A6F5006723F02003D6
:10338000FFF74CFED0F818E018BFB04243EA041330
:1033900012D1CA686FF0400423F0C00304EA02129D
:1033A0001343B84218BFB04206D125F44062D1E9B8
:1033B00005452C4342EA84052EF4E642456042EA84
:1033C0000C228261496881630362F0BDF0B5036A33
:1033D000026A494E22F48072A6F5006723F4007356
:1033E000FFF71CFED0F81CE018BFB04243EA0423EC
:1033F00012D1CA6840F2FF4423F440631202A24390
:103400001343B84218BFB04206D125F44052D1E967
:1034100005452C4342EA04152EF07302456042EA4A
:103420000C02C2614968C1630362F0BDF0B5026A73
:10343000036A314F23F48053B842036245680C6835
:103440008B68C66902D02D4FB84204D14F6925F46C
:10345000804545EA8715456026F4E64545EA04249B
:10346000C4614968016422F4005141EA03310162F8
:10347000F0BD00BF10B5036A046A24F001040462C1
:10348000846924F0F00444EA0212826123F00A0203
:103490001143016210BD000070B5046A056AB0F105
:1034A000804F25F00105056285690ED00F4EB042B0
:1034B0000BD00F4EB04208D00E4EB04205D00E4E8B
:1034C000B04202D00D4EB0420CD125F003052A4384
:1034D00063F3071201F00A01826124F00A02114429
:1034E000016270BD45F00102F2E700BF0004004038
:1034F00000080040000C004000340140002C014056
:1035000010B5036A046A24F010040462846924F488
:10351000704444EA0232826123F0A00242EA0111BF
:10352000016210BDB0B5046A056A120201F00A0119
:1035300025F0100505624FF2FF05AA4363F30F3231
:10354000836923F473431A43826124F0A00242EAA0
:1035500001110162B0BD406A0021C185C184FEF73E
:10356000FBBE016851E8031F026821F4907142E834
:103570000313002BF5D14DF808EDFFF78DFC5DF836
:1035800008EBF8D1016B012906D14DF808EDFFF7E2
:103590008DFC5DF808EBF8D1202180F84210002165
:1035A0000163704790F84210222920D183680246B7
:1035B000B3F5805F08D152F8281F52F8183C002B51
:1035C00045D003685B6809E052F8281F13B9036906
:1035D000002BF6D003685B6803F07F030B70116863
:1035E00001311160C18D0139C185090400D07047D6
:1035F0000168CA6822F02002CA60CA6822F4807298
:10360000CA604A6922F001024A61202180F8421012
:1036100000214163026B012A18BFFFF729B881B06E
:1036200001634DF808EDFFF741FC5DF808EBF8D1B8
:1036300001680A68D20606D5002200920A68009244
:10364000496800910099818D01B0FEF784BE02683F
:1036500052686FF35F2221F8022B8162C2E70000FB
:10366000B0B50446006804F108030ECB056925F4E3
:10367000405519432A4341F20C650261C2686369EF
:10368000AA4319431143C1604169A26921F4407101
:10369000114341611149884202D0FDF791FF01E0D9
:1036A000FDF798FF19214843D4E900120C4C920011
:1036B000B0FBF2F06422B0FBF2F303FB040032240F
:1036C00004EB0010B0FBF2F000F0F00200F00F008D
:1036D00002EB031210448860B0BD00BF0038014007
:1036E0009CFFFF0F0023C2854364816222218285F3
:1036F00080F842100168006918B1C86840F4807011
:10370000C860486940F001004861C86840F0200086
:10371000C860002070472DE9FC41044600681D4642
:1037200090460F465E1C01683940B94221D0002EF8
:10373000F9D0FDF739FDA0EB08010320A94216D806
:10374000ADB12068C1684907EDD5402FEBD0802F7F
:10375000E9D001680907E6D500250195FFF7BEFB12
:10376000FFF7F4FB082084F8405060640120BDE8B6
:10377000FC810020BDE8FC813748FEF7EFBD00BFAB
:10378000FEE7000030484FF00108C0F80080FDF768
:10379000D9FDFFF71CFDFFF76BF9FFF7F9F9FFF70C
:1037A00019FAFFF7A1FAFFF753FAFFF7D3F9FFF77A
:1037B000C3FA264C2046FEF7A1FA254D2846FEF70F
:1037C0009DFA284600210027FEF7ECFB2046002149
:1037D000FEF74AFD1F4C20480C2204F11C01FEF7A5
:1037E00035FFFFF71FF9A8484FF400510022FDF7FD
:1037F000D6FC954D022600F031F808B32878302821
:1038000004D10020FDF712FB28786760342805D129
:103810000120FDF70BFB2878C4F80480382804D178
:103820000220FDF703FB28786660352803D10120CC
:10383000FFF7A0FA2878362802D10220FFF79AFA7B
:10384000FFF782F8D7E700BFB4000020C4010020D2
:103850007C0100208C000020540200202DE9F04F54
:1038600085B002204FF000084FF0010B704E714DF3
:1038700004904FF40040CDF80C80CDF808B00190D2
:1038800001AF30463946A8474FF4E05006F50064D2
:10389000FFF79FFADFF8A0A130464FF40041002265
:1038A000D04720464FF480610022D04720464FF495
:1038B00000610022D04720464FF480510022D047BB
:1038C00040F2074006F580663946CDE9028B01904B
:1038D0003046A8470A20FDF76DFB30460121FDF771
:1038E00051FCA0B130460221FDF74CFC98B13046A6
:1038F0000421FDF747FC90B130464FF48061FDF79D
:1039000041FC00286CD14FF0020904200AE04FF07E
:103910000209012006E04FF00209022002E04FF008
:1039200002090320CDE9000BCDE902B801AF304612
:103930003946A84730463946CDF80490A8470420B8
:10394000394601903046A8474FF4806B30463946DF
:103950004FF00109CDF804B0A847304601210022FC
:10396000D047304602210022D047304604210022B1
:10397000D04730464FF480610022D0472C4E4FF4A0
:1039800000403946CDE9028901903046A8472046DB
:103990003946CDF804B0A8474FF40060FFF719FA94
:1039A0004FF48050FFF715FA0A20FDF703FB30466D
:1039B0004FF40041FDF7E6FBA0B120464FF48061D3
:1039C000FDF7E0FB009D78B120464FF40061FDF764
:1039D000D9FB60B120464FF48051FDF7D3FB48B1CD
:1039E000002021E0009D07E04FF0040804E04FF0C4
:1039F000080801E04FF00C0808EB050036210F4ADB
:103A0000104C0B2838BF2F21014413680C48C154B7
:103A1000012020600C4C2170591CCB1701EB137353
:103A200023F00F03C91A116005B0BDE8F08F00BF85
:103A300000080140D50F00089F1100089C020020DB
:103A400014010020A0020020780000201CB5F821FD
:103A50000D4CFFF7B0F90120FDF7ACFA0B480DF162
:103A60000501FFF7E6F9FFF75DFA1CBD1CB5FA2169
:103A7000054CFFF7A0F905480DF10501FFF7D9F94D
:103A8000FFF750FA1CBD00BF0010014024010020C8
:103A90000FB47CB50C0009AD01D0611E00E000211F
:103AA000CDE90001064B6A462946089800F0F0F877
:103AB000002C02D0009A002111707CBC5DF814FB30
:103AC000BF4300080FB4084B10B504A902AA03981D
:103AD00000F0DEF8044602A9002000F07BFC20463E
:103AE00010BC5DF814FB0000D543000802E008C8D4
:103AF000121F08C1002AFAD170477047002001E068
:103B000001C1121F002AFBD1704700002DE9FF5FA1
:103B100082B00021DDE90430020DDDF840B003433E
:103B200018D044F61050A2F2FF32424315141198F7
:103B300001281FD0A5EB0B00401C5FEA000A4FF0E4
:103B400000064E4FDFF83891B046504615D5CAF101
:103B5000000413E0119801244AA3012801D16FEA5F
:103B60000B010298119AC0E90031C0E9024206B087
:103B7000BDE8F09FCBF10000DFE704460021404A9A
:103B8000491842EB0450CDE9001012E0E00707D0DD
:103B900032463B4640464946FCF7BBFE80468946D6
:103BA00032463B4610461946FCF7B3FE06460F4622
:103BB0006410002CEAD1DDE90401DDE90023BAF14B
:103BC000000F06DAFCF7A5FE42464B46FCF7A1FEC5
:103BD00005E0FCF749FC42464B46FCF745FC044631
:103BE0000E460022284BFCF71FFF03D84FF0FF3092
:103BF000014607E00022254B20463146FCF7E2FD56
:103C0000FCF7F9FE102409E0002C0ADB0A2200234D
:103C1000FCF7D0FC039B30321A55641E50EA0102B7
:103C2000F2D1641C039AC4F111031444119A012ABD
:103C300003D0012208430DD10AE0084304D000203C
:103C40004FF0110B119072E7A3EB0B056D1E0DE009
:103C50005B4504DD4FF0000205F1010504E003DAE5
:103C60004FF00002A5F10105002AECD0029811994D
:103C7000C0E90231C0E9004579E7000000001440C6
:103C80000000F03F300000000000F0430000E03F83
:103C90002DE9FF4F95B09B468946064600250FE269
:103CA000252877D100242746F84A0121059400E011
:103CB000044316F8013F203B01FA03F01042F7D10C
:103CC00030782A2811D06FF02F033078A0F130021D
:103CD000092A16D8059A44F0020402EB820203EB8B
:103CE00042021044761C0590EFE759F8042B059228
:103CF000002A03DA504244F40054059044F00204D0
:103D0000761C30782E2816D116F8010F44F00404E2
:103D10002A280DD06FF02F023078A0F13003092B44
:103D200009D807EB870302EB4303C718761CF3E7B8
:103D300059F8047B761C30786C280FD006DC4C28B0
:103D400017D068280DD06A2814D104E0742810D048
:103D50007A280FD10DE044F400140AE044F48014F2
:103D600001E044F440147278824202D104F58014D8
:103D7000761C761C307866280BD013DC582877D058
:103D800009DC002875D04528F6D04628F4D047280D
:103D90001AD19DE118E0632835D0642879D06528D0
:103DA00012D195E1702873D008DC6728F1D069281A
:103DB0006FD06E280DD06F2806D1B5E073282CD0B7
:103DC000752875D0782874D05A46179990476D1C7D
:103DD00075E1C4F30250022809D003280DD0D9F8A8
:103DE000001004280DD00D6009F1040967E1D9F82D
:103DF0000010EA17C1E90052F6E7D9F800100D806B
:103E0000F2E70D70F0E719F8041B8DF800100020A0
:103E10008DF80100EA46012003E059F804AB4FF0A9
:103E2000FF3061074FF0000102D40DE008F10101FD
:103E30008846B9420FDA8045F8DB1AF808100029E5
:103E4000F4D108E008F1010188468142FADB1AF852
:103E500008100029F6D105985B46A0EB080721461B
:103E60003846179A00F094FA284400EB080507E05A
:103E70004DE029E10DE01AF8010B5A4617999047D9
:103E8000B8F10108F7D25B4621463846179A13E18C
:103E900042E00A220092C4F302524FF0000A022AC2
:103EA00008D059F804CB032A4FEAEC710AD00DE090
:103EB00029E02AE009F1070121F00702F2E802C136
:103EC000914609E00FFA8CFC4FEAEC71042A03D109
:103ED0004FFA8CFC4FEAEC71002907DA0A46002100
:103EE000DCF1000C61EB02012D2202E0220504D579
:103EF0002B228DF80420012203E0E20701D02022CA
:103F0000F7E7904659E00A2102E010220DE0102167
:103F10004FF0000A00910BE010224FF0000A44F02D
:103F200004040827009203E008224FF0000A0092E0
:103F3000C4F30252022A05D059F804CB0021032A07
:103F400008D009E009F1070121F00702F2E802C1F7
:103F5000914605E01FFA8CFC042A01D10CF0FF0CFD
:103F60004FF00008220728D5702806D0009B83F068
:103F7000100353EA0A0305D00EE040228DF8042016
:103F8000012208E05CEA010206D030228DF804200C
:103F90008DF8050002229046009B83F0080353EA47
:103FA0000A030AD15CEA010201D1620705D5302279
:103FB0008DF804204FF001087F1E582804D034A04B
:103FC00003900EA802900DE036A0F9E75346604634
:103FD000009AFCF7EFFA84460398825C0298401E30
:103FE000029002705CEA0100F0D1029806A9081A5A
:103FF00000F1200A600702D524F4803400E0012794
:10400000574502DDA7EB0A0000E0002000EB0A01A3
:10401000009005984144401A0590E00306D45B46A1
:104020002146179A059800F0B3F90544002706E0E9
:1040300001A85A46C05D179990476D1C7F1C4745E3
:10404000F6DBE0030CD55B462146179A059800F095
:104050009FF9054404E030205A46179990476D1C9B
:104060000099481E00900029F5DC08E002980299AA
:104070005A460078491C0291179990476D1CBAF175
:104080000001AAF1010AF1DC65E100000928010044
:1040900030313233343536373839616263646566BE
:1040A0000000000030313233343536373839414280
:1040B000434445460000000000F058F90544761CD2
:1040C000307800287FF4ECAD19B02846BDE8F08FB9
:1040D000620700D4062709F1070222F0070CFCE86A
:1040E0000223E14603F000485FEA080C02D00FF219
:1040F000702C0DE05FEA045C02D50FF2682C07E03B
:104100005FEAC47C02D00FF2602C01E0AFF2700CC9
:104110004FF0FF3823F00043CDF850C065280CD095
:1041200006DC452809D046281DD047283DD13DE072
:10413000662818D067287ED138E00021112F01DBD6
:10414000112000E0781CCDE9000106A90EA8FFF7B8
:10415000DDFCDDE90F010E9A03910021009207F1C9
:10416000010A04914DE04FF000400097CDE90110A5
:1041700006A90EA8FFF7CAFCDDE90F0203920E9B09
:1041800011990022DDF80CA00093049211B9791C5A
:1041900000EB010AB7EB0A0004D4C0F1FF3007F1CD
:1041A000010A0490AAEB0700019044E0012F00DA15
:1041B00001270021112F01DD112000E03846CDE953
:1041C000000106A90EA8FFF7A1FCDDE90F010E9A78
:1041D0000391002104910092BA4621070CD403995F
:1041E000514500DA8A46BAF1010F05DD009AAAF1BD
:1041F0000101515C302908D0B84202DA10F1040FF5
:1042000006DA0121CDE9011015E0AAF10101E9E783
:10421000002805DC049901440491AAEB000102E0A6
:10422000411C514500DD8A460499401A401C01900A
:104230004FF000400290200704D40198504501DB64
:10424000CDF8048000208DF84F0002980DF14F0743
:10425000B0F1004F25D02B200E9002984FF00208AD
:1042600000280CDA404202902D200E9007E00A212F
:104270000298FCF789F93031029007F8011DB8F176
:104280000001A8F10108F2DC02980028EFD1791EA4
:104290000E980870307800F0200040F0450007F8D4
:1042A000020D12A8C01B00F107081498007800B195
:1042B000012000EB0A01019801EBE07105984144EF
:1042C000401A401E0590E00306D45B462146179A2B
:1042D000059800F05DF805441498007818B15A4626
:1042E000179990476D1CE00324D55B462146179A29
:1042F000059800F04DF805441CE00498002807DB01
:10430000DDE90301884203DD0098405C179901E074
:10431000179930205A469047049805F10105401C32
:1043200004900198401E019004D12E205A461799FE
:1043300090476D1CBAF10001AAF1010ADDDC05E02D
:1043400017F8010B5A46179990476D1CB8F10001F8
:10435000A8F10108F4DC5B462146179A0598ABE604
:104360002D0000002B000000200000002DE9F0418E
:10437000044600251E461746880404D405E0394645
:104380002020B0476D1C641EF9D52846BDE8F08199
:104390002DE9F041044600251E469046C80301D58C
:1043A000302700E02027880404D505E04146384640
:1043B000B0476D1C641EF9D52846BDE8F0814A68F7
:1043C000002A06D00A68531C0B6010704868401E13
:1043D000486070470A68531C0B6010707047DDDD41
:1043E000DDDDDCBBBBDDDDDDDDDDDDDDDDDD9888DC
:1043F00088888888888877777777778888888555C8
:10440000555666666666666666666668888883333D
:10441000333222222222222222222228888D0000C8
:104420000000000000000102030406070809000064
:10443000000001020304000002000000040000006C
:104440000800000010000000FDFFFFFFFBFFFFFF62
:10445000F7FFFFFFEFFFFFFFFFFDFFFFFFFBFFFF8A
:10446000FFF7FFFFFFEFFFFF4144433A00252E31E6
:104470006600E694B6E588B03A2025730D0A004E32
:1044800045572050574D2564487AE9A291E78E8719
:10449000E997AAE783810D0A0059616E6748616F49
:1044A0005469616E204B6579332070726573736552
:1044B000640A003230323231363839204B65793671
:1044C00020707265737365640A000000737065651F
:1044D0006420646F776E206D6F746F720D0A000038
:1044E000E6A0BCE5BC8FE99499E8AFAFEFBC8CE8DF
:1044F000AFB7E8BE93E585A573706565646174E543
:10450000908EE8B79FE695B0E5AD970D0A000000E4
:10451000E697A0E69588E997AAE78381E9A291E763
:104520008E87EFBC8CE8AFB7E8BE93E585A5312D4B
:10453000393939E4B98BE997B4E79A84E580BC0D41
:104540000A00000068450008000000207800000014
:10455000EC3A0008E045000878000020B0060000B2
:10456000FC3A0008000000000100000010000000FC
:1045700068656C6C6F20776F726C640A00000000D5
:10458000000000000000000000000000000000002B
:10459000000000000000000000000000000000001B
:1045A000000000000000000000000000000000000B
:1045B0008081828384858687909192939495969743
:1045C00088898A8B8C8D8E8F98999A9B9C9D9E9FB3
:1045D0006400000000127A000100000000000000EA
:0400000508000131BD
:00000001FF
