:020000040800F2
:10000000F8060020450100084D350008A92D00081C
:10001000093500081D0E0008E13E00080000000040
:10002000000000000000000000000000053900088A
:10003000710E0008000000000938000807390008A8
:100040005F0100085F0100085F0100085F01000810
:100050005F0100085F0100085F0100085F01000800
:100060005F0100085F0100085F0100085F010008F0
:100070005F0100085F0100085F0100085F010008E0
:100080005F0100085F0100085F0100085F010008D0
:100090005F0100085F0100085F0100085F010008C0
:1000A0005F0100085F0100085F0100085F010008B0
:1000B00075390008813900085F0100085F010008F8
:1000C0005F0100085F0100085F0100085F01000890
:1000D0005F0100085F010008D93E00085F010008C9
:1000E0005F0100085F0100085F0100085F01000870
:1000F0005F0100085F0100085F0100085F01000860
:100100005F0100085F0100088D3900085F010008E9
:100110005F0100085F0100085F0100085F0100083F
:100120005F0100085F0100085F0100085F0100082F
:10013000DFF80CD000F080FC00480047553F000875
:10014000F80600200648804706480047FEE7FEE71D
:10015000FEE7FEE7FEE7FEE7FEE7FEE7FEE7FEE777
:10016000713900083101000840EA01039B0703D000
:1001700009E008C9121F08C0042AFAD203E011F8E6
:10018000013B00F8013B521EF9D27047D2B201E0A8
:1001900000F8012B491EFBD270470022F6E710B58C
:1001A00013460A4604461946FFF7F0FF204610BDE5
:1001B00030B505462A460B4612F8010B13F8014BE1
:1001C00008B1A042F8D01CB1002802D06D1CF1E7A4
:1001D000284630BD421C10F8011B0029FBD1801AB3
:1001E000704700000FB400B58DB010A909900B90B6
:1001F00000914FF0FF300A9000200C9005480690C7
:10020000054807906A4609A80F9900F009FA0DB051
:100210005DF814FB3D0600085B0600082DE9FF5F52
:100220001D464FF0FF3BD5E9014691465F464FF032
:100230000008A9697F1C01988847296A8246884777
:100240000028F6D1BAF1FF3F0CD024F4C064002E90
:1002500019DD600614D5BAF12B0F09D0BAF12D0FB4
:100260000ED103E0584604B0BDE8F09F44F480642A
:10027000A9697F1C01988847761E8246002E02DD00
:10028000BAF1300F03D0B9F1000F26D032E0A969DE
:10029000761E44F400747F1C019888478246002E25
:1002A00005DDBAF1780F06D0BAF1580F03D0B9F1D5
:1002B000000F10D01EE0B9F1000F02D0B9F1100FFD
:1002C00018D1A969761E24F400747F1C0198884710
:1002D0008246102002E0082000E00A20814609E062
:1002E00008FB0908A969761E44F400747F1C019874
:1002F00088478246002E05DD4946504600F07BF9CE
:100300000028EDDAE96901988847A00502D46FF06A
:100310000100A8E7E00725D1600613D5600502D5E6
:10032000C8F1000000E0404629680A1D2A600968FB
:10033000220501D5087015E0220701D5088011E0DB
:1003400008600FE02868011D29600068210502D5BA
:1003500080F8008006E0210702D5A0F8008001E0C7
:10036000C0F8008038467EE780EA010210B502F04E
:100370000043400022D04A001FD0010E01EB126161
:10038000C0F35600C2F3560240F4000042F40002EB
:10039000A0FB022000047F39140400D0401C50EA66
:1003A000124001D44000491EC2B20C0604EBD0102A
:1003B000401C4008802A02D003E0002010BD20F03D
:1003C0000100002900DA0020184310BD30B480EA93
:1003D000010202F0004530F0004221F0004013D04D
:1003E00090B1C30DD40DC2F31601C0F31600E41A88
:1003F00041F4000140F400027D34914201D3641CB9
:1004000000E04900002C02DA30BC002070474FF4B5
:1004100000000023914201D3891A034340084FEAA8
:100420004101F7D151B1914202D14FF0004105E0B5
:1004300002D24FF0010101E06FF0010103EBC45063
:10044000284430BC00F01AB92DE9F04D81EA0304CC
:1004500004F0004B21F0004514464FF0000A23F051
:10046000004150EA050220D054EA01021DD0C5F334
:100470000A570246C5F31303C1F31300C1F30A562A
:1004800040F4801543F48013A7EB0608101BD646F2
:1004900008F2FD3873EB050002D308F1010801E012
:1004A00092185B41B8F1000F03DA00200146BDE865
:1004B000F08D00204FF48011064684460EE0171B95
:1004C00073EB050705D3121B63EB050306434CEAE8
:1004D000010C49084FEA300092185B4150EA0107CD
:1004E000EDD152EA030012D082EA040083EA05014A
:1004F000084305D0101BAB4106D20122002306E0C1
:1005000000224FF0004302E06FF0010253101AEB9B
:1005100006004CEB085110EB0A0041EB0B01BDE863
:10052000F04D00F0E2B8C10F80EAE0700844CA075D
:100530009623002100F0ABB896230022114600F06C
:10054000A6B800F0004230F000400AD0C10D01F51D
:100550006071C0F3160042EA0151C208400711431E
:10056000704700200146704730B50B460146002019
:100570002022012409E021FA02F59D4205D303FA65
:1005800002F5491B04FA02F52844151EA2F10102E6
:10059000F1DC30BD2DE9F05F0546002092469B4618
:1005A00088460646814640241BE028464146474689
:1005B000224600F062FA53465A46C01A914110D3BF
:1005C00011461846224600F049FA2D1A67EB010839
:1005D0004F4622460120002100F040FA17EB0009A7
:1005E0004E41201EA4F10104DFDC484631462A4674
:1005F0004346BDE8F09F3A2800D2303820F0200270
:10060000412A01D3A2F13700884201D34FF0FF30D5
:100610007047000002681144137801601846704763
:10062000D1600449516104491162002111611146F0
:1006300000F04ABA15060008BF0A0008426842B135
:10064000016811F8013B23B1521EC0E9001218469F
:1006500070470121C160881E704742685AB1C36863
:10066000016843B983688B4205D0491E521CC0E91A
:100670000012002070474FF0FF3070470029A8BFDC
:100680007047401C490008BF20F00100704710B4BB
:10069000B0FA80FC00FA0CF050EA010404BF10BC70
:1006A000704749B1CCF1200421FA04F411FA0CF19D
:1006B00018BF012121430843A3EB0C01CB1D4FEAD6
:1006C00000614FEA102042BF002010BC704700EBD1
:1006D000C35010440029A4BF10BC7047401C4900FF
:1006E00008BF20F0010010BC704710B5141E73F154
:1006F000000408DA401C41F1000192185B411A43E2
:1007000001D120F0010010BD2DE9F04D92469B462D
:1007100011B1B1FA81F202E0B0FA80F220329046D3
:1007200000F09CF904460F4640EA0A0041EA0B013A
:1007300053465A46084313D0114653EA010019D0D4
:10074000C8F14002504600F098F905460E46504662
:100750005946424600F082F9084305D0012004E0E2
:1007600020463946BDE8F08D0020054346EAE07694
:100770002C4337430A986305E40AA0EB08000022E3
:10078000FD0A44EA47540A3002D500200146E9E751
:10079000010510196941DDE9084500196941BDE805
:1007A000F04DA2E72DE9FE4F804681EA0300C00F1D
:1007B0000C46009021F0004123F00045B8EB020008
:1007C000A94105D24046214690461C460B460246AA
:1007D00023F00040104347D0270DC7F30A00C3F3AE
:1007E0000A510290401A019040286BDAC3F31300BB
:1007F00040F4801B0098924620B10023D2EB030AFC
:1008000063EB0B0B01985946C0F14002504600F0D3
:1008100025F906460D4650465946019A00F03DF925
:1008200010EB08006141002487EA115284EAE77363
:100830001A4340D0009A62B3019A012A4FEA075244
:1008400015DC001B61EB02014FF0004202EA075287
:10085000CDE90042001C41F5801132462B46FFF7DE
:1008600053FF03B0BDE8F08F40462146F9E7001B77
:1008700061EB0201001C41F5801300185B41201858
:10088000A2F5001747EB030140EAD570B6196D4198
:1008900011E06D084FEA360645EAC0754FEA075287
:1008A000001B61EB0201001C41F5801149084FEA71
:1008B00030000019514132462B4603B0BDE8F04FDD
:1008C000FFF713BF0098012240000023D0EB020283
:1008D00063EBE073009821464FEAE074B8EB000048
:1008E00061EB0401E9E783F000435BE781F000413D
:1008F00058E72DE9FE4F81EA030404F0004421F09B
:10090000004100944FF0000B23F0004350EA010433
:100910005ED052EA03045BD0C3F30A54C1F30A5514
:100920002C44A4F2F3340194A0FB0254C1F313014C
:1009300041F48011C3F3130343F4801301FB024419
:1009400000FB034E840A970A44EA815447EA83571E
:10095000A4FB076802958D0A05FB07854FEA932CD7
:1009600004FB0C542705029D4FEA065847EA163748
:10097000B5EB08056EEB070C870E920E47EA811760
:1009800042EA8312A7FB0201B6EB0B0164EB000401
:100990002B0D43EA0C335E1844EB1C50DA465146EB
:1009A000E7FB0201C5F313044FEA0B3343EA145388
:1009B0004FEA0432019C43EA0603A4F10C040294BA
:1009C000009CCDE900B4FFF79FFE03B0BDE8F08FB7
:1009D00000200146F9E7C1F30A52C1F3130140F2C6
:1009E000FF3341F480119A4202DA00200146704739
:1009F00040F233439A42A2F2334202DC524200F008
:100A00003CB800F02BB8000030B5041E71F10004B2
:100A100004DB4FF00044404264EB0101141E73F10B
:100A2000000405DB1C464FF00043524263EB040315
:100A3000994208BF904230BD064C074D06E0E06881
:100A400040F0010394E8070098471034AC42F6D315
:100A5000FFF772FB5C5500087C550008202A04DB78
:100A6000203A00FA02F1002070479140C2F12003C1
:100A700020FA03F3194390407047202A04DB203A00
:100A800021FA02F00021704721FA02F3D040C2F1AE
:100A900020029140084319467047202A06DBCB17F5
:100AA000203A41FA02F043EAE07306E041FA02F329
:100AB000D040C2F120029140084319467047C0B2AD
:100AC0004FF4F05100F096B92DE9F34F8BB04FF091
:100AD000000801F10C000C464FF0010B46460DF1E9
:100AE000080A01906269012101989047051E2DD0E6
:100AF000252D2CD0216A8847C0B162690121019857
:100B00009047216A88470028F7D1411E6269019801
:100B1000904700E0761CA1690B988847216A8847B6
:100B20000028F7D1E1690B988847DBE7A1690B98AA
:100B300088470746A84201D1761CD3E7E1690B98A4
:100B400088477F1C02D1B8F1000F6FD046E1002723
:100B500062693D463946019890472A2804D1626966
:100B60000121019890470125DFF8849262690121F3
:100B700001989047A0F130010A290AD24F45E5DCDF
:100B800007EB870100EB4107303FDFD445F010054C
:100B9000ECE7E90601D46FF000476C280AD04C2836
:100BA00014D0682815D06A280DD074281CD07A2853
:100BB0001AD01DE062690121019890476C2802D08B
:100BC00045F0040514E045F002050DE045F0200570
:100BD0000AE06269012101989047682802D045F037
:100BE000080505E045F40065626901210198904718
:100BF000C4E9015765283DD019DC58287AD00CDCAF
:100C0000452837D004DC252826D0412831D131E0D1
:100C100046282FD047282CD12CE05B2877D061289C
:100C200028D063287CD0642823D15AE0D0E06F28F4
:100C300048D008DC66281DD067281BD0692821D041
:100C40006E2816D127E0702845D0732868D0752803
:100C500047D078280DD14DE0A1690B98884705460B
:100C600025283FF469AFE1690B9888476D1C3FF474
:100C70006AAFB3E023466A466FF001000B99AFF309
:100C800000809EE045F040006060A80723464FF0DA
:100C9000000236D43EE0E8077FF447AF2068011D2C
:100CA00021600068290501D506701BE7290701D5D9
:100CB000068017E7A90703D5F117C0E9006111E71E
:100CC00006600FE745F040006060A80723464FF03C
:100CD000080216D41EE040F60E0125EA010060600D
:100CE00016E045F040006060A80723464FF00A0276
:100CF00007D40FE045F040006060A80708D5234600
:100D000010226FF001000B99AFF3008059E007E06B
:100D1000234610226FF001000B99FFF77FFA50E095
:100D20004FF000094F464B46632802D05B2806D09F
:100D300040E0E80601D40120A06001273AE06269A2
:100D40000121019890475E2805D14FF001096269A1
:100D5000494601989047216939B900210A4653460E
:100D600043F82120491C0829FADBB0B3216969B98D
:100D7000C11700EBD16253110AEB830122F01F026D
:100D8000821A01200B68904003430B6062690121C5
:100D9000019890475D28E8D1B9F1000F09D00020F3
:100DA000514651F82020D24341F82020401C082809
:100DB000F7DB02AB224600976FF001000B99AFF30F
:100DC000008000280CDA401C08D1BBF1000F05D0D0
:100DD0004FF0FF300DB0BDE8F08FFFE74046F9E778
:100DE000E90701D108F1010806444FF0000B79E64C
:100DF000CCCCCC0C7F2801D9002208E0064A02EBBB
:100E00005002C007127800D1120902F00F0201202F
:100E10009040084070470000264C0008FEE70000A4
:100E200010B5022806D0012811D0E8B90F4C0121D5
:100E3000012202E00D4C01210022204600F0B1F910
:100E4000204602210022BDE8104000F0AAB9074C5C
:100E500001210022204600F0A4F9204602210122AF
:100E6000BDE8104000F09DB910BD00BF001001406A
:100E70007047EFF3108072B6FEE790F82110022958
:100E800012D1016801230A6822F00E020A600A6882
:100E900022F001020A60D0E90F1203FA02F24A605E
:100EA000002180F8213002E0042181630121002229
:100EB00080F820200846704790F82110022919D1A7
:100EC0000268116821F00E011160116821F0010122
:100ED00011602D4901F17C039A420FD9324B9A429D
:100EE00024D0324B9A4223D0314B9A4222D14FF434
:100EF000807327E004218163012143E0234B9A4260
:100F000026D0234B9A4225D0224B9A4224D0224B02
:100F10009A4224D0214B9A4217D0214B9A4221D099
:100F2000204B9A4211D14FF080721DE0012309E05D
:100F3000102307E001F5886C4FF48033624508BF49
:100F40004FF48053C1F800340FE04FF480320BE0CF
:100F5000012209E0102207E04FF4807204E04FF410
:100F6000805201E04FF480120A600021012280F8D3
:100F7000201080F82120426B22B180B590470021DB
:100F8000BDE8804008467047040002400800024067
:100F90001C00024030000240440002405800024061
:100FA0006C00024080000240080402401C04024021
:100FB00030040240B0B5044600F0F8F805467D481C
:100FC000611C007818BF044400F0F0F8401BA042F8
:100FD000FAD3B0BD2DE9FC4F81465F4806234FF0A0
:100FE000000C4FF001084FF00F0E4FF0000A814542
:100FF0005A4808BF052348444FEAB022052A4FF05B
:10100000000238BF4FEAB02300930C6834FA02F5AF
:1010100008BFBDE8FC8F08FA02F73C4200F0988058
:101020004D68032D16D9112D26D0122D28D04F48EA
:10103000854213D04E48854210D04E4885420DD08F
:101040004D4885420AD04D48854207D04C488542DC
:1010500004D022E0DFE805F002181B1F8C6844B1C1
:10106000012C4FF0080A14BFC9F81470C9F81070A9
:1010700013E04FF0040A10E0CC6804F1040A0CE01D
:10108000CC6804F10C0A08E0D1F80CA005E0CC68AB
:1010900004F1080A01E04FF0000A082A64464846B5
:1010A00028BF203C28BF043006680EFA04F50AFA6F
:1010B00004F426EA05052C430460C879C00647D528
:1010C0002948274E22F0030503460068B3463544FD
:1010D00040F00100186018682A4B00F001000190F0
:1010E0000CF00C00019E0EFA00F49E46EE58009B98
:1010F00003FA00F026EA04041A4B204345F80E00D8
:101100004FF00F0E4D68DBF8080015F4801F0CBF80
:1011100020EA070440EA0704A802CBF80840186850
:1011200054BF20EA070440EA0704A8031C60DBF868
:10113000040054BF20EA070440EA0704E803CBF8A0
:101140000440DBF8000054BFB8433843CBF800003C
:101150000CF1040C013258E7001C014000F8FEBFFE
:10116000000401400C04014018100240000011105E
:1011700000001210000021100000221000003110A9
:101180000000321008FCFFFF8068084018BF0120F3
:101190007047C26802EA0103914341EA03410161D9
:1011A0007047002A08BF090401617047DF48806862
:1011B000704700BF28000020B0B5044658B394F82B
:1011C0003D0028B9002084F83C00204600F04CF98E
:1011D000242084F83D002068016821F001010160AD
:1011E000016841F400410160016821F4004101609F
:1011F00000F098FA4C494D4B00224D4D88424FF07B
:10120000000138BF0121984238BF01226368AB4218
:1012100038BF0A460AB10120B0BD4649B0FBF1F221
:1012200021684D6825F03F0515434D600D6A25F096
:101230003F0C414DAB4213D80132013842EA0C0257
:101240000A625A004CF6FF73B0FBF2F001306FF304
:101250001F30042898BF0420CA6922EA030C3AE030
:101260004FF49675A0F1010E6A434FF47A75B2FB04
:10127000F5F24CF6FF75013242EA0C020A62CA69C5
:1012800022EA050CA26842B1192004255843BEFB8E
:10129000F0F0013065F31F3006E003EB4300BEFBC6
:1012A000F0F001306FF31F30000509D052B1192062
:1012B00004225843BEFBF0F0013062F31F3008E017
:1012C000012008E003EB4300BEFBF0F001306FF3B8
:1012D0001F3040F4004040EA0C00C8610868D4E9BF
:1012E000072320F0C000104348F2FF321843086083
:1012F00088689043D4E90323184310438860C86882
:10130000D4E9052320F0FF0010431843C8600868A3
:1013100040F00100086000202021206484F83D1086
:10132000206384F83E00B0BD80841E0000093D00AB
:10133000A186010040420F00A08601002DE9FE4376
:10134000994616460F460446FFF730FF054694F8C7
:101350003D0020280BD14249204601221923009547
:1013600001F0C7FD18B994F83C00012804D102200F
:10137000C0B203B0BDE8F0830DF12808012298E85F
:10138000030184F83C202268136813F0010F02BFA8
:10139000136843F001031360136823F400631360C0
:1013A00021224B4684F83D20402284F83E20002232
:1013B0002264618560622B493246608DE162394664
:1013C00020852046CDE9008501F008FD08B1012007
:1013D000CEE7208D4FF6FF7622E0204641462A4692
:1013E00001F02AFE20BB616A2268084610F8013B22
:1013F00013616062238D581E20853042678DA7F1EE
:1014000001076785576918BF17F0040708D04878A7
:1014100002311061981E20856162618D01396185FC
:101420000004DAD1204641462A4601F035FD40B19C
:10143000206C0428CBD12068016841F40071016060
:10144000C5E72068016841F400710160202084F83C
:101450003D00002084F83C0084F83E0088E700BF8F
:10146000020010000000FFFF10B586B00021CDE99A
:101470000411CDE902110168114881421DD13A4C95
:1014800000F53840216841F008012160216801F031
:1014900008010191019912210391C02102910321B8
:1014A000059102A9FFF796FD606840F400106060A6
:1014B000606800F400100190019806B010BD00BFF4
:1014C00000540040194801788268114481607047D7
:1014D00080B50748016841F010010160032000F069
:1014E00077F80F2000F006F800F022F8002080BD09
:1014F0000020024070B50D4E04464FF47A713078EA
:10150000B1FBF0F091490968B1FBF0F000F058FC34
:1015100001250F2C08D838B94FF0FF3021460022A2
:10152000002500F033F87460284670BD28000020C4
:1015300082B00D480222016841F00101016001689A
:1015400001F0010101910199416841F08051416030
:10155000406800F08050009000980448016862F3F1
:101560001A61016002B07047181002400400014087
:10157000002808DB00F01F010122400902FA01F1F6
:10158000014A42F82010704700E100E010B5164B08
:101590001B68C3F3022E0EF1040CAEF103048EF0AF
:1015A0000703BCF1070F4FF0010C38BF0024042BD8
:1015B00028BF04230CFA03F3013B19400CFA04F38F
:1015C000013BA1401A401143BDE8104002F0B0BCFD
:1015D00005494FF6FF030A681A4060F30A220348E0
:1015E00010430860704700BF0CED00E00000FA05F2
:1015F0002DE9F04188460446002800F08880464FD7
:101600004FF48050395801F0070141450AD239584A
:1016100021F0070141EA08013950385800F007006D
:10162000404574D1206810F0020F11D0410742BF2D
:10163000796841F4E0617960010742BF796841F45B
:10164000605179607968A26821F0F00111437960F6
:10165000C00727D06068012804D1396811F4003F21
:1016600008D154E03968022802D1890102D44EE041
:1016700089074CD5796821F0030108437860FFF7AA
:1016800095FD064641F288357868616800F00C00E7
:10169000B0EB810F06D0FFF789FD801BA842F3D97C
:1016A000032035E04FF48050395801F007014145DF
:1016B0000AD9395821F0070141EA08013950385850
:1016C00000F00700404522D1206810F0040F05D03B
:1016D0007968E26821F4E06111437960000706D57A
:1016E0007868216920F4605040EAC100786000F019
:1016F00031F87968094AC1F30311515CC8401349B4
:10170000086007480068FFF7F5FE002000E00120B0
:10171000C0B2BDE8F08100BF00100240664C000876
:101720002C0000200948FA49094A00680968C1F3F9
:101730000221515CC8407047F748F549044A0068E7
:101740000968C1F3C221515CC840704758000020AD
:10175000764C000810B50D4C0D48226802F00C03C1
:10176000082B18BF10BDC2F383430AA112F4803FB7
:10177000CB5C02D10C48584310BD216809A25843E4
:10178000C1F34041515CB0FBF1F010BD04100240C8
:1017900000127A0002030405060708090A0B0C0D63
:1017A0000E0F10100102000000093D002DE9FE435C
:1017B0000446002800F05C812078D44ED44FC00746
:1017C000B14650D0386800F00C00042818D03868B2
:1017D00000F00C00082803D1386810F4803F0FD1C6
:1017E0006068A0B1B0F5803F06D03168B0F5A02F99
:1017F00025D141F480203060306840F4803024E00E
:10180000306810F4003F2ED0606860BB30E1306873
:1018100020F480303060306820F480203060FFF7A2
:10182000C5FC0546D9F800004E4610F4003F1AD01A
:10183000FFF7BCFC411B03206429F3D919E121F413
:1018400080303060306820F480203060FFF7AEFCDC
:101850000546306810F4003F05D1FFF7A7FC401B98
:101860006428F6D9E6E0207880072FD5386810F094
:101870000C0F08D0386800F00C0008280BD138682D
:1018800010F4803F07D1306810F0020F17D02069A4
:10189000012814D0ECE021699E48002900F08A80DC
:1018A00001210160FFF782FC0546306810F0020F4D
:1018B00005D1FFF77BFC401B0228F6D9BAE030685F
:1018C000616920F0F80040EAC1003060207800072C
:1018D00030D5A06980B18F480121C0F88014FFF78E
:1018E00065FC0546386A10F0020F16D1FFF75EFC62
:1018F000401B0228F6D99DE086480021C0F88014DC
:10190000FFF754FC0546386A10F0020F12D0FFF7BB
:101910004DFC401B0228F6D98CE07F484FF4FA5169
:101920000068B0FBF1F0029000BF0298411E002851
:101930000291F9D12078400740F18580B86910F014
:10194000805F0BD1B8694FF0010840F08050B8615A
:10195000B86900F080500190019801E04FF0000854
:101960006E4E484659F8060010F4807F14D159F89D
:10197000060040F4807049F80600FFF717FC0546A2
:10198000484659F8060010F4807F05D1FFF70EFC99
:10199000401B6428F4D94DE0E068F0B1012805D07F
:1019A000F969052831D141F00400F861F86940F087
:1019B000010030E000210160FFF7F8FB05464846D2
:1019C000D9F8000010F0020F3FF480AFFFF7EEFBF4
:1019D000411B03200229F2D94BE0F86920F00100F5
:1019E000F861F86920F00400F861FFF7DFFB0546B5
:1019F00041F28836F86910F0020F1DD0FFF7D6FBD0
:101A0000411B0320B142F5D933E021F00100F86118
:101A1000F86920F00400F861FFF7C8FB054641F2C1
:101A20008836F86910F0020F06D1FFF7BFFB401BA4
:101A3000B042F6D903201CE0B8F1000F1EBFB86910
:101A400020F08050B861E669002E5DD0386800F063
:101A50000C00082811D1012E0AD03868216A00F440
:101A600080328A4204D1616A00F4701088424BD0FF
:101A70000120C0B203B0BDE8F083264900208846AB
:101A80000866FFF793FB0546022E0DD146464846F1
:101A9000D9F8000010F0007F13D0FFF787FB411B3F
:101AA00003200229F3D9E4E74846D9F8000010F0F2
:101AB000007F29D0FFF77AFB411B03200229F3D9CD
:101AC000D7E7206AB0F5803F05D13968A26821F4D4
:101AD0000031114339603968626A104321F474118E
:101AE0000843386001203066FFF760FB0446484633
:101AF000D9F8000010F0007F06D1FFF757FB011B5B
:101B000003200229F3D9B4E70020B2E70010024015
:101B10000410024000004242580000200060FEFF16
:101B200070B5044630B1606A30B10020206104F124
:101B3000140007E001264CE06068B0F5827F03D016
:101B400004F11C000021016000264FF0000CA66289
:101B500094F8510038B9204684F8506000F03CF801
:101B6000A06A00F4005C022184F8511021680A6820
:101B700022F040020A60D4E90123D4E9030502F40B
:101B8000827203F4044300F400601A43104305F02A
:101B900002021043626902F001021043A26902F4DA
:101BA00000731843E36903F038031843236A03F012
:101BB0008003184340EA0C000860042000EA124049
:101BC0004860C86920F40060C8610120666584F837
:101BD0005100304670BD000070B586B00026E34C61
:101BE000CDE90466CDE90266006804F5205188421B
:101BF00025D1144802AD016841F4805101600168AB
:101C000001F4805101910199016841F004010160E2
:101C10002946006800F0040001900198022003901A
:101C2000A0200290032005902046FFF7D3F9402022
:101C300003962946029020460496FFF7CBF906B09A
:101C400070BD00BF181002402DE9FC411D4616462C
:101C50000F460446FFF7AAFA804694F8510001287F
:101C600006D101202FB126B194F85000012804D1EB
:101C70000220C0B202B0BDE8F0810320012184F847
:101C8000510000206065E68684F850102763A68620
:101C9000A063A087C4E91000E087A1682068B1F5BF
:101CA000004F07D1016821F040010160016841F453
:101CB000804101600168731EB3FA83F311F0400F95
:101CC0004FEA531302BF016841F0400101606168AF
:101CD000E268B1FA81F1B2F5006F4FEA511141EAC1
:101CE000030122D131B137F8021BC1602763E08EB6
:101CF0000138E0866E1C14E02068816811F0020F44
:101D000007D1FFF753FA66B1A0EB0800A84208D349
:101D10004EE0216B31F8022BC2602163E08E013866
:101D2000E086E08E0028E7D123E039B139780173ED
:101D3000206B01302063E08E0138E0866E1C15E0D8
:101D40002068816811F0020F07D1FFF72FFA6EB1FA
:101D5000A0EB0800A84209D32AE0216B097801739F
:101D6000206B01302063E08E0138E086E08E002891
:101D7000E6D120462946424601F047FD08B1202021
:101D80006065A06838B9002001902068C1680191A1
:101D9000806801900198012084F85100002084F8A7
:101DA0005000606D002818BF012002B0BDE8F0812E
:101DB000002084F85000012084F85100032058E7E7
:101DC000411E0020B0EB116F1CBF01207047044A78
:101DD000F023516003490B70072190601160704738
:101DE00010E000E023ED00E07047704790F83C30D1
:101DF0000222012B2ED080B580F83D20012280F8F0
:101E00003C2002685368D2F808C0B2F1804F23F03A
:101E1000700E0B6843EA0E035360BDE880400ED09D
:101E2000694B9A420BD0694B9A4208D0684B9A4250
:101E300005D0684B9A4202D0674B9A4204D1496858
:101E40002CF08003194391600022012180F83C208E
:101E500080F83D10D0B2704710B5044630B394F806
:101E60003D0028B9002084F83C00204600F020F80E
:101E70000220211D84F83D00206801F08DFD012025
:101E800084F8460084F83E0084F83F0084F840005F
:101E900084F8410084F8420084F8430084F8440048
:101EA00084F8450084F83D00002010BD012010BDDD
:101EB000FEB50021CDE90411CDE9021144490068C5
:101EC00088422BD04049884239D0B0F1804F48D168
:101ED0002548016841F001010160016801F001013C
:101EE0000191019950F8041C41F0040140F8041CD0
:101EF000012150F8040C00F004000190019800202A
:101F0000039002910490194802A9FFF763F81C207E
:101F100001210022FFF73AFB1C2020E0124800229A
:101F2000016841F0080101600021006800F008002C
:101F3000019001983220FFF729FB32200FE00A4878
:101F40000022016841F0020101600021006800F0F8
:101F50000200019001981D20FFF718FB1D20FFF7DC
:101F600007FB06B080BD00BF1C1002400008014006
:101F700090F83D1001291CBF01207047022180F814
:101F80003D100068C168B0F1804F41F00101C160AF
:101F90000ED0F74988420BD0F649884208D0F6495E
:101FA000884205D0F549884202D0F549884204D1DB
:101FB000816801F00701062903D0016841F00101A1
:101FC00001600020704700BF00040040000800408E
:101FD000000C004000340140002C014010B590F886
:101FE0003C2004460220012A70D084F83D000120E4
:101FF0004FF6777384F83C00206882689A438260C9
:102000000A6812B3102A20D0202A1ED0302A1CD0F1
:10201000402A21D0502A2BD0602A35D0B2F5005F5B
:102020003ED0B2F5805F4AD0702A51D1D1E9012368
:10203000C9681A4342EA0121826822F47F421143AF
:102040008160816841F0770138E0816821F0770193
:10205000114341F0070131E04B68CA68194601F0AD
:102060009BFD2068816821F0770141F0470125E060
:102070004B68CA68194601F08FFD2068816821F01D
:10208000770141F0570119E04B68CA68194601F021
:10209000CDFD2068816821F0770141F067010DE0F6
:1020A000D1E90123C9681A4342EA0121826822F476
:1020B0007F4211438160816841F48041816000204A
:1020C000002184F83C10012184F83D10C0B210BDFD
:1020D0000120F5E7B0B50168B1F1804F00D0B0BD87
:1020E000017F012918BFB0BD184C0021657800F0B0
:1020F000F3FA55B1E060E068A168884209D2A068AF
:10210000E168C0F58030084406E0A06001206070FE
:10211000B0BDE068A168401A2061206978B12069EB
:10212000FEF70AFA01460A48FEF750F960610949CC
:102130006069FEF74BF90849FEF716F901E0002047
:102140006061A061E068A060B0BD00BF0000002039
:1021500000247449000020410000704270B504461C
:1021600090F83C000D46012801D1022065E04FEABD
:10217000B2010120032984F83C005BD8DFE801F0BC
:10218000020C1634D5E90012EB68206801F016FD48
:10219000206850F8181F22E0D5E90012EB6820688B
:1021A00001F056FD206850F8181F3AE0D5E900C24A
:1021B0002368D5F80CE01E6A186A6EF3071220F443
:1021C00080701862184650F81C1F21F0F30111436B
:1021D0000160CCF3560161F349261E62016821F0CB
:1021E0000C010160A96821E0D5E900C02368EA6814
:1021F0001E6A196A000221F4805119624FF2FF0130
:1022000020EA0101184662F30F3150F81C2F22F426
:10221000734211430160CCF3520161F34D361E62EB
:10222000016821F440610160A96809020268114354
:1022300001600020002184F83C10C0B270BD10B5D0
:10224000044630B394F83D0028B9002084F83C00DF
:10225000204600F020F80220211D84F83D0020686F
:1022600001F09AFB012084F8460084F83E0084F8CF
:102270003F0084F8400084F8410084F8420084F86C
:10228000430084F8440084F8450084F83D000020B1
:1022900010BD012010BD704710B5044641B104299E
:1022A0000BD008290ED104F1440004F140020DE0E6
:1022B00004F1420004F13E0208E004F1430004F19D
:1022C0003F0203E004F1450004F141021378027873
:1022D0000120012B08BF012A00D010BD022041B10E
:1022E00004290BD008290ED184F8400084F844005A
:1022F0000DE084F83E0084F8420008E084F83F00D6
:1023000084F8430003E084F8410084F845004FEA74
:10231000B100032884BF012010BD144A52F82020C8
:102320002068C3681A43C260012201F06DFB206877
:10233000B0F1804F0ED0DC4988420BD0DB49884297
:1023400008D0DB49884205D0DA49884202D0DA4910
:10235000884204D1816801F00701062903D0016891
:1023600041F001010160002010BD00BF9854000839
:102370000004004000080040000C00400034014010
:10238000002C0140B0B504460068C168026902EA49
:10239000010515F0020F14D06FF002010161012157
:1023A0002177806910F0030F03D02046FFF792FEDB
:1023B00005E0204600F09EF8204600F017F90020C6
:1023C0002077680715D520686FF0040101610221AC
:1023D0002177806910F4407F03D02046FFF77AFE12
:1023E00005E0204600F086F8204600F0FFF80020C7
:1023F0002077280715D520686FF0080101610421B6
:102400002177C06910F0030F03D02046FFF762FE6A
:1024100005E0204600F06EF8204600F0E7F80020C6
:102420002077E80615D520686FF0100101610821BA
:102430002177C06910F4407F03D02046FFF74AFEA1
:1024400005E0204600F056F8204600F0CFF80020C6
:102450002077E80706D020686FF00101016120466F
:1024600000F02CF9280606D520686FF08001016184
:102470002046FFF7B9FC680606D520686FF04001DA
:102480000161204600F03FF9A80658BFB0BD2068A2
:102490006FF0200101612046BDE8B040FFF7A5BC08
:1024A000FEB50021CDE90411CDE902117E49006895
:1024B000884217D10C48016841F0100101604021A9
:1024C000006800F010000190019802200390029132
:1024D0000590804802A9FEF77DFD0448044A016882
:1024E0001143016006B080BD181002400400014095
:1024F000000C000770470000B0B5044690F83C009F
:102500000D46012801D1022041E04FEAB20101202D
:10251000032984F83C0037D8DFE801F0020A1222D0
:102520002068294601F080FA206850F8181F0EE054
:102530002068294601F0A6FA206850F8181F16E016
:102540002068294601F0D0FA206850F81C1F41F09D
:1025500008010160016821F00401016029690FE0B0
:102560002068294601F0F2FA206850F81C1F41F457
:1025700000610160016821F480610160296909023C
:102580000268114301600020002184F83C10C0B2B1
:10259000B0BD10B5044630B394F83D0028B9002012
:1025A00084F83C00204600F020F80220211D84F829
:1025B0003D00206801F0F0F9012084F8460084F81D
:1025C0003E0084F83F0084F8400084F8410084F81D
:1025D000420084F8430084F8440084F8450084F8FD
:1025E0003D00002010BD012010BD70477047000065
:1025F000B0B5044641B1082909D0042914BF04F13B
:10260000410004F13F0004E004F13E0001E004F168
:102610004000007801281CBF0120B0BD022041B15C
:10262000082909D0042914BF84F8410084F83F0028
:1026300004E084F83E0001E084F8400020680122B4
:1026400001F0E2F92068B0F1804F1DD016498842B0
:102650001AD0164A904217D0154B984214D0154CF8
:10266000A04202D0144DA84213D1456CB0F1804F66
:1026700045F40045456407D0884205D0904203D018
:10268000984218BFA0420AD1816801F007010629CB
:1026900003D0016841F0010101600020B0BD06498E
:1026A0008842F1D0F5E700BF000400400008004078
:1026B000000C004000340140002C014004498842D5
:1026C00018BF704703484FF40051FEF762BD00BFCA
:1026D0004C010020001001404FEAB101032984BFE2
:1026E00000207047DFE801F0020B05080068343075
:1026F00007E000683C3004E00068403001E000681A
:10270000383000687047704770477047BCB5044662
:10271000006802680146D0F80CE051F8143F12F04E
:102720000F0F65D00EF4907503F0010C5CEA050301
:1027300068D0D0071FBF1EF48070606C40F00100AD
:102740006064500706D5BCF1000F1EBF606C40F0FE
:1027500002006064900706D5BCF1000F1EBF606CDC
:1027600040F004006064100708D50EF0200050EA25
:102770000C001EBF606C40F008006064606C0028B4
:1027800000F009810EEA0200800605D5204601F01E
:10279000AAFA206800F114010868616C00F040009A
:1027A00001F00801084300F0E280204601F074FACD
:1027B0002068416911F0400F01D1D3E0206850E852
:1027C000050F216820F0400041E80502002AF5D1FC
:1027D000E06B002800F0C68074494163FEF76CFB93
:1027E000002800F0D880E06B416BBDE8BC40084792
:1027F0000EEA020111F0200F06D02046BDE8BC40D1
:1028000001F071BA0EEA0201226BCB063DD5012A16
:102810003BD1002101910168019141680191019929
:10282000416911F0400F41D1E18DA28DE38D002B64
:1028300000F0B180511A0A0401D1ACE0206850E8E0
:10284000030F226820F4907042E80303002BF5D1B7
:10285000206850E8050F226820F0010042E80503D7
:10286000002BF5D1202084F842000020206320684E
:1028700050E8030F226820F0100042E80303002B09
:10288000F5D1022089B2606357E00A065AD449069E
:1028900040F18180C16821F04001C160202084F8AE
:1028A00041002046BDE8BC4000F07DBAE26B1168F3
:1028B0004B6899B200296ED0B4F82CC061456AD239
:1028C000E3859169202901D131E0206850E8030FA8
:1028D000216820F4807041E80302002AF5D12068C5
:1028E00050E8050F216820F0010041E80502002AA8
:1028F000F5D1206850E8050F216820F0400041E83C
:102900000502002AF5D1202084F84200002020632F
:10291000206850E8030F216820F0100041E803020E
:10292000002AF5D1E06BFEF7A8FAB4F82CC002201B
:102930006063E08DACEB000081B22046BDE8BC4096
:10294000FFF7E2BE94F84110212924D1A168B1F526
:10295000805F01D1216981B1216A4A1C2262097814
:10296000416011E02046BDE8BC40FFF7CEBE2046E6
:10297000FFF7CBFE00206064BCBD216A31F8022B5A
:102980006FF35F2242602162E18C4FF6FF720139E2
:102990001142E18400D0BCBDC16821F08001C1605A
:1029A000C16841F04001C160BCBD00BF8D3C000862
:1029B00010B5044648B394F8410028B9002084F8C3
:1029C0004000204600F024F8242084F841002068CC
:1029D000C16821F40051C160204601F0E9F9206886
:1029E000016921F490410161416921F02A014161AD
:1029F000C16841F40051C16000202021606484F866
:102A0000411084F84210606310BD012010BD000029
:102A100070B586B000261D4CCDE90466CDE902668E
:102A20000068A4F5444188422DD1194802AD41689F
:102A300041F400314160416801F400310191019994
:102A4000016841F0040101602946006800F00400BB
:102A50000190019802200390042002900320059029
:102A60002046FEF7B7FA0820039629460290204632
:102A70000496FEF7AFFA262002210022FEF786FD1B
:102A80002620FEF775FD06B070BD00BF00080140AE
:102A90001810024010B590F84230202B07D10124C5
:102AA00031B12AB10024046301F0C4F900E002242A
:102AB000E0B210BD7CB500685849884207D058483C
:102AC00058A11E224FF47A7300F012F97CBD5D4CC0
:102AD0005DA104F11C052846FDF76AFB30B100201A
:102AE000FEF79EF95BA05F4D5A4B0AE05EA12846B7
:102AF000FDF75EFB00B30120FEF792F95DA0594D92
:102B00005C4BD0E90112C068C5E90031C5E902207B
:102B10002846FDF75FFB82B241482946642300F056
:102B2000E7F800200A2244F81C0F208160603C482E
:102B30002146FFF7AFFF7CBD52A12846FDF738FBC9
:102B400068B10220FEF76CF951A0464D504BD0E918
:102B50000112007BC5E90031AA602873D8E750A1B3
:102B60002846FDF725FB70B1012000F0CFFC4FA0F7
:102B70003C4D4E4E031D007C0ECBC5E90061C5E9FE
:102B800002232874C4E74EA12846FDF711FB68B163
:102B9000022000F0BBFC4D48324D90E84E0085E825
:102BA0004E00817C008AA9742882B1E748A128469A
:102BB000FDF7FEFAC8B10021073001AA019146A134
:102BC000FDF710FB01281DD1019840F2E632411EAD
:102BD00091421BD84349234D2070C2B20968486313
:102BE0004149284601F092FB92E71E4E3F492A4692
:102BF000304601F08BFB3046FDF7ECFA82B2084814
:102C000031468BE7174D35492E2202E0154D3449E8
:102C100032222846FDF7A8FA7AE700BF00440040B8
:102C2000240200204572726F723A20556E6B6E6FEF
:102C3000776E205541525420696E7374616E6365DE
:102C40000A00000000000020666F72776172644D18
:102C50006F740000466F7277617264204D6F746FFD
:102C6000720D0A00740200206261636B7761726406
:102C70006D74000052657665727365206D6F746FB8
:102C8000720D0A007373746F706D6F746F72000051
:102C900073746F70206D6F746F720D0A0000000006
:102CA000737065656475706D74720000737065652E
:102CB00064207570206D6F746F720D0A0000000043
:102CC0007370656564646F776E6D0000E45400088E
:102CD000737065656461740025640000F854000831
:102CE0002855000894010020CA540008BD5400086B
:102CF0002DE9F843044690F841001D4617468846E2
:102D000020281CD1B8F1000F4FF0010018BF002F90
:102D100016D04FF000092120C4F8449084F84100F7
:102D2000FEF744FAA784E7840646A068B0F5805F02
:102D30000AD12769002F0CBFC14647461CE002207C
:102D4000C0B201B0BDE8F083474615E020468021BF
:102D500032462B4601F087F800BB1FB117F8011B64
:102D6000206805E039F8021B206800276FF35F2117
:102D70004160E08C0138E084E08C0028E6D12046F8
:102D8000402132462B4601F06EF82021002884F8BD
:102D9000411018BF032001B0BDE8F083202084F863
:102DA00041000320CCE77047FEE7000002680021E5
:102DB000536913F4806F0ED09E4B53612022016340
:102DC00080F83D2080F83E1080F83C10016C41F006
:102DD0000401016401210846704700BF2DE9FE434C
:102DE000044600680F460A9D0B9E994690460022B5
:102DF00001682B4641F48071016020464FF00111BB
:102E0000009600F076F848B12068006810F4807FE2
:102E10001CBF4FF40070206403200BE0206807F013
:102E2000FE012A46334601611A49204600F0AAF8FD
:102E300020B10120C0B203B0BDE8F08300203246CB
:102E400002902068416902912946806902900298A7
:102E5000204600F0F1F840B1206C0428E9D1206848
:102E6000016841F400710160E3E7B9F1010F0AD094
:102E700020684FEA1821324601612046294600F0B9
:102E8000DBF80028E8D120685FFA88F101610020B2
:102E9000D0E700BF02000100F8B515460E46044613
:102EA0004F1C2068406910F0040F1FD12046FFF727
:102EB0007DFFC8B9002FF4D0FEF778F916B1401B9A
:102EC000B042EED92068406910F0040FE9D100202B
:102ED0002021206384F83D1084F83E0084F83C00F3
:102EE000206C40F020002064012000E0002001B0B0
:102EF000F0BD2DE9F047DDF82090984616460446CF
:102F00008FB201F47F0503F1010AB5F5803F4FF060
:102F1000180008BF1420216808583840C01BB0FAB8
:102F200080F04009B0421CBF0020BDE8F087BAF134
:102F3000000FEAD0FEF73AF9B8F1000F03D0A0EB8A
:102F400009004045E1D9B5F5803F4FF0180008BFB2
:102F50001420216808583840C01BB0FA80F040099E
:102F6000B042D2D100202021206384F83D1084F8A3
:102F70003E0084F83C00206C40F0200020640120DA
:102F8000BDE8F0872DE9F8439846914604468FB294
:102F900001F47F05561C2068B5F5803F06D1014637
:102FA00051F8142F3A40BA4206D12AE081693940DB
:102FB000B94226D000F11401096811F4806F22D1C2
:102FC000002EE8D0FEF7F2F8B9F1000F03D0A0EB25
:102FD00008004845DFD92068B5F5803F0CBF40693F
:102FE00080693840B842D6D000202021206384F880
:102FF0003D1084F83E0084F83C00206C40F0200036
:1030000013E0002013E0016841F4007101600949F8
:10301000416100202021206384F83D1084F83E00A7
:1030200084F83C00206C40F004002064012001B0D2
:10303000BDE8F083FFFBFFFFF8B515460E460446DA
:103040004F1C2068406910F0800F1FD12046FFF709
:10305000ADFEC8B9002FF4D0FEF7A8F816B1401B9A
:10306000B042EED92068406910F0800FE9D100200D
:103070002021206384F83D1084F83E0084F83C0051
:10308000206C40F020002064012000E0002001B00E
:10309000F0BD00007CB5204C03200021224600F04A
:1030A00055F81E480068012804D0002814BF21A24A
:1030B0001EA200E01AA20020002100F047F81F48DD
:1030C0000068FDF730FAFDF73CFA1D4B0022FDF7D2
:1030D000BBF91C4E651CCDE900010821284632468B
:1030E00001F0FCF8012000212A4600F02FF81648D4
:1030F0000068FDF726FA0934CDE9000108213246BF
:10310000204601F0EBF802200021224602B0BDE883
:10311000704000F01BB800BF6000002004000020D9
:103120006261636B7761726400000000666F7277A2
:103130006172640073746F7000000000540000201E
:1031400000408F40B85400081800002010B5144605
:10315000064A02EBC000405C01F07AF802E001F0A0
:1031600099F8013420780028F9D110BD34000020EE
:103170000F490020302201E00A5401300828FBD119
:10318000B0B50C4D3220A8470B4C3020A047022090
:10319000A8470220A8470C20A0470120A8470220EA
:1031A000A8470120A04702202946BDE8B0400847B3
:1031B00088000020B50F0008514200082DE9F04FAB
:1031C00085B03648002242F213080024016841F01D
:1031D00010010160016801F010010191019901687D
:1031E00041F020010160016801F020010191019985
:1031F000016841F004010160016801F004010191DE
:103200000199016841F00801016042F21301006870
:1032100000F0080001900198214800F5006605467D
:103220003046FDF7BEFF05F5806540F23F410022C4
:1032300040F23F492846FDF7B4FF4FF0010A01AFC5
:103240004FF0020B3046CDE9018ADFF8588039464D
:103250000394CDF810B0C04728463946CDE9019A0D
:10326000CDE9034BC0474FF4FC500294394601901E
:1032700030460394C0474FF4004002943946019011
:1032800007480394C0474FF40070029439460190F8
:1032900028460394C04705B0BDE8F08F18100240DF
:1032A00000080140D50F000880B50C480C490D4AB4
:1032B00000234FF4804C0362C0E90021C0E90233CF
:1032C000C0E904C3C0E90633FDF776FF002814BF48
:1032D000BDE8804080BDFDF7CCBD00BF9000002060
:1032E000A086010000540040B0B51148114A4FF4C7
:1032F000827100234FF0020C4FF0010E4FF4007466
:103300003825C0E900210A21C0E90233C0E904CE12
:10331000C0E90645C0E90833C0E90A31FEF700FC00
:10332000002814BFBDE8B040B0BDFDF7A2BD00BF8E
:10333000F40000200030014010B58AB0224800217E
:103340004FF0804247234FF6FF74CDE90811CDE9D5
:103350000611CDE90411C0E90023C0E9021401619E
:103360008161CDE90211CDE90011FEF775FD08B1CB
:10337000FDF77FFD4FF4805006A906901248FEF736
:103380002DFE08B1FDF775FD0F48FEF758FF08B197
:10339000FDF76FFD0C48002404A9CDE90444FEF7B5
:1033A00025FD08B1FDF765FD012069460022CDE944
:1033B00000400548CDE90244FEF7D0FE08B1FDF714
:1033C00058FD0AB010BD00BF4C01002010B58EB0F2
:1033D000002401A81C21CDE90C44CDE90A44CDE923
:1033E0000844FCF7DAFE58481D4A472140F2E7330B
:1033F000C0E90021C0E9024304618461FEF72CFDAD
:1034000008B1FDF736FD4FF480500AA90A904E48E6
:10341000FEF7E4FD08B1FDF72CFD4B48FFF7B9F8C6
:1034200008B1FDF726FD4848002408A9CDE9084465
:10343000FEF7DCFC08B1FDF71CFD642001A90022A9
:10344000029060200190404803940594FFF754F8DF
:1034500008B1FDF70EFD3C48FFF722F80EB010BD95
:1034600000040040FEB51748174A002142F21073CD
:103470004FF4347CCDE90411CDE90211C0E90023F9
:10348000C0E9021C01618161CDE90011FEF7E4FC95
:1034900008B1FDF7EEFC4FF4805002A902900948F4
:1034A000FEF79CFD08B1FDF7E4FC00206946CDE97C
:1034B00000000448FEF79AFC08B1FDF7DAFC06B0FC
:1034C00080BD00BFDC010020000C004080B50C482E
:1034D0000C4A4FF4E13100234FF00C0CC0E90021FD
:1034E000C0E90233C0E9043CC0E90633FFF760FAE3
:1034F000002814BFBDE8804080BDFDF7BABC00BF06
:103500002402002000440040FEE7000001280AD009
:10351000022812D168490A68A2F16400B2F5967FC8
:10352000D8BFC82007E0644908686430B0F57A7FE6
:10353000A8BF4FF47A70086001E05F480068024954
:1035400009684863704700BF94010020FEE700202F
:10355000AFF30080F8B56C4E04460025E8B20728AA
:1035600088BFF8BDA5F15000C0B2B04700200027C9
:10357000B0471020B04703E0204600F0C5FC0137FB
:1035800078B20028F8DA0135E8E700BF10B5C820A6
:10359000FDF710FD5C4CAE20A0472020A047102076
:1035A000A047B020A047C020A0470020A04710207F
:1035B000A0474020A0478120A047FF20A047A0208F
:1035C000A047A620A047A820A0473F20A047A420AE
:1035D000A047D320A0470020A047D520A047F02037
:1035E000A047D920A0472220A047DA20A0471220D8
:1035F000A047DB20A0472020A0478D20A047142013
:10360000A047AF202146BDE8104008477CB5224EB8
:103610003068012804D0002814BF25A222A200E0AF
:103620001EA200200021022300F070F8224800684A
:10363000FCF779FFFCF785FF204B0022FCF704FF25
:10364000204D1F4CCDE90001082120462A4600F0FC
:1036500045FE002003212246022300F057F81A48B5
:103660000068FCF76EFF0834CDE9000108212A4606
:10367000204600F033FE3068022803D113A2022056
:10368000052102E0022005212246022302B0BDE806
:10369000704000F03BB800BF040000206261636B23
:1036A0007761726400000000666F72776172640077
:1036B00073746F70000000005400002000408F40C1
:1036C00074000020B8540008180000204D6F746F7B
:1036D00072206861732073746F70706564000000FD
:1036E000B0B50446A1F15000074DC0B2A847102064
:1036F00040EA1410A84704F00E00294640F00100EB
:10370000BDE8B040084700BFE53E00082DE9FE4F88
:10371000934688460646012B47D0022B43D1384DAD
:103720000021CDF804B039E0F0B20291782888BFCA
:1037300008F1010888BF0026F7B25FFA88F1384621
:10374000FFF7CEFFA4F12000AA464FF00009C0B257
:1037500005EB00144FEA001B05E014F8090000F027
:10376000D3FB09F10109B9F1080FF6D108F1010005
:10377000C1B23846FFF7B4FF4BF00800DDF804B0E3
:10378000554600270AEB000403E0E05D00F0BCFBB7
:103790000137082FF9D1029908360131C8B21BF858
:1037A0000040002CC0D1BDE8FE8FDFF858904FF0EC
:1037B000000A5FFA8AF01BF80040002C08BFBDE841
:1037C000FE8FF0B27E2888BF08F1010888BF00266E
:1037D0005FFA88F1F0B2FFF783FFA4F12000002424
:1037E000C0B200EB400009EB400703E0385D00F099
:1037F0008BFB0134062CF9D10AF1010A0636D8E711
:10380000A64E00087E4C000870477CB50D46164653
:1038100000920221012204462B4600F013F840B921
:103820002046802100222B460096002600F00AF850
:1038300020B1606D032640F020006065F0B202B058
:1038400070BD00002DE9F843DDF820801F461546C5
:103850000E460446FDF7AAFCA8EB000000EB0709A2
:10386000FDF7A4FC8046264801370068C0F3CB3042
:1038700000FB09F000900DE067B1FDF797FCA0EBAD
:103880000800484514D20098009901390028009199
:1038900008BF8146206880683040801BB0FA80F005
:1038A0004009A842E8D10020C0B201B0BDE8F083D1
:1038B0002068416821F0E00141606168B1F5827FD4
:1038C0000AD1A168B1F5004F02D0B1F5806F03D1E4
:1038D000016821F040010160A16AB1F5005F07D1E4
:1038E000016821F400510160016841F40051016058
:1038F000002084F85000012084F851000320D3E711
:10390000580000207047FDF7DDBDB0B590B0002431
:1039100001A81421CDE90B44CDE90944FCF73DFC95
:103920004FF48030012102250790069108940A91F6
:10393000CDE90D504FF4E0100F9006A8FDF736FFCB
:1039400018B1EFF3108072B6FEE70F20022101904C
:103950004FF480600394CDE9040401A80295FDF7BB
:1039600047FE18B1EFF3108072B6FEE710B0B0BD9D
:10397000704700000148FEF705BD00BF4C01002064
:103980000148FEF7FFBC00BF940100200148FEF78C
:10399000F9BC00BFDC0100200268B0F1804F0ED0FE
:1039A0009D4B98420BD09D4B984208D09C4B98421F
:1039B00005D09C4B984202D09B4B984208D14B6853
:1039C00022F45C7CCA6823F4407343EA0C031A4374
:1039D0004B6922F080021A4302608A68C2620A6858
:1039E0008262904A904202D08F4A904201D1096986
:1039F000016301214161016911F0010F1EBF0169DD
:103A000021F001010161704701F01F01012303FA58
:103A100001FC036A02FA01F123EA0C030362026A61
:103A2000114301627047000070B5026A036A23F017
:103A3000010322F002020362D0F804E0D0F818C0BB
:103A40008C680B6822432CF0730444EA030C754B1A
:103A5000984202D0744B98420CD1CE68D1E905450A
:103A60002EF4407322F00C02234343EA050E26F0A5
:103A700004031A43C0F804E0C0F818C04968416361
:103A8000026270BD70B5026A036A23F0100322F06F
:103A900020020362D0F804E0D0F818C08C680B68EC
:103AA00042EA04122CF4E64444EA032C5D4B9842AB
:103AB00002D05D4B98420FD1CE68D1E905452EF476
:103AC000406322F0C00243EA840343EA850E6FF0AC
:103AD0004F0303EA06131A43C0F804E0C0F818C005
:103AE00049688163026270BD70B5026A036A23F49B
:103AF000807322F400720362D0F804E0D0F81CC096
:103B00008C680B6842EA04222CF0730444EA030C2C
:103B1000444B984202D0444B98420FD1CE68D1E931
:103B200005452EF4405322F4406243EA041340F268
:103B3000FF4443EA051E3302A3431A43C0F804E0DE
:103B4000C0F81CC04968C163026270BDB0B5026AAA
:103B5000036A23F4805322F400520362D0F804E095
:103B6000C5698B680C6842EA033C2E4B25F4E6429B
:103B700042EA0422984202D02B4B984204D14B696E
:103B80002EF4804545EA831EC0F804E0C26149680E
:103B90000164C0F820C0B0BDD0F820C0036A23F093
:103BA00001030362836923F0F00343EA0212826196
:103BB0002CF00A02114301627047000010B5D0F8E2
:103BC00020C0D0F820E0B0F1804F2EF0010EC0F8F8
:103BD00020E0D0F818E00ED00F4CA0420BD00F4CD4
:103BE000A04208D00E4CA04205D00E4CA04202D0FC
:103BF0000D4CA0420CD12EF00304224363F30712B4
:103C000001F00A0182612CF00A021143016210BD29
:103C10004EF00102F2E700BF00040040000800403F
:103C2000000C004000340140002C0140D0F820C0BE
:103C3000036A23F010030362836923F4704343EAA9
:103C4000023282612CF0A00242EA01110162704747
:103C500080B5D0F820C0D0F820E001F00A012EF0A5
:103C6000100EC0F820E04FEA022E4FF2FF022EEABB
:103C7000020263F30F32836923F473431A438261B0
:103C80002CF0A00242EA0111016280BD406A0021CD
:103C9000C185C184FEF739BD016851E8031F026880
:103CA00021F4907142E80313002BF5D1016851E82B
:103CB000051F026821F0010142E80513002BF5D130
:103CC000016B012909D1016851E8031F026821F045
:103CD000100142E80313002BF5D1202180F8421097
:103CE00000210163704790F84210222918BF7047E5
:103CF0008368B3F5805F05D10169B1B100F1280196
:103D00000A680BE00146002B51F8282F01D1036906
:103D100023B103685B6803F07F0301E003685B681D
:103D200013700A6801320A6007E00168826A496814
:103D30006FF35F2122F8021B8262C18D4FF6FF7282
:103D400001391142C18500D070470168CA6822F06C
:103D50002002CA60CA6822F48072CA604A6922F0EE
:103D600001024A61202280F8422000224263036B54
:103D7000012B18BFFEF79EBE026351E8031F0268C5
:103D800021F0100142E803130168002BF5D10A6805
:103D900012F0100F08D081B0002200920A68009241
:103DA00049680091009901B0818DFEF7ADBC00001B
:103DB00010B5044600680169E26821F440511143DE
:103DC00041F20C620161D4F808C0D4E904E3C1688F
:103DD00091434EEA0C021A431143C1604169A26942
:103DE00021F44071114341611149884202D0FDF72D
:103DF00099FC01E0FDF7A0FC19214843D4E9001229
:103E00006FF063049200B0FBF2F06422B0FBF2F3B7
:103E100003FB0400322404EB0010B0FBF2F000F0CE
:103E2000F00200F00F0002EB03121043886010BD97
:103E3000003801400023C2854364828581622221CB
:103E400080F842100168006918B1C86840F48070B9
:103E5000C860486940F001004861C86840F020002F
:103E6000C860002070472DE9FC41044600681D46EB
:103E700090460F465E1C01683940B94226D0002E9C
:103E8000F9D0FDF793F903210DB3A0EB0800A84288
:103E90001DD82068C16811F0040FECD0402F18BF66
:103EA000802FE8D0016811F0080FE4D000250195BB
:103EB000016801914068019001982046FFF7ECFEEF
:103EC0000121082084F84050606400E00021C8B25D
:103ED00002B0BDE8F08100005D48FEF717BC00BFEE
:103EE000FEE70000F8B58DF80F00642001210DF108
:103EF0000F020123CDE9002102900C487821002215
:103F0000FDF71CFA8FBD00BFF8B58DF80F006420D7
:103F100001210DF10F020123CDE900210290034898
:103F200078214022FDF70AFA8FBD00BF90000020E3
:103F300010B5074C00F00F03044AB0F1FF3F2344D3
:103F4000C8BF83180801187010BD00BF00E400E06E
:103F500014ED00E02DE9F04139484FF00108C0F8B8
:103F60000080FDF7B5FAFFF7D0FCFFF727F9FFF760
:103F7000BBF9FFF7E1F9FFF775FAFFF727FAFFF74B
:103F800093F9FFF7A3FA2F4C2046FDF7F1FF2E4DD2
:103F90002846FDF7EDFF284600210027FEF77CF9B3
:103FA00020460021FEF724FB284C29480A2204F170
:103FB0001C01FEF76FFDFFF7DBF8C6484FF4005118
:103FC0000022FDF7EEF8FFF7E1FAFFF7C0FA9D4D8A
:103FD000022600F03FF868B32878302804D100208A
:103FE000FCF71EFF28786760342805D10120FCF714
:103FF00017FF2878C4F80480382804D10220FCF781
:104000000FFF28786660352803D10120FFF77EFA7C
:104010002878392803D10120FFF778FA2878362844
:1040200003D10220FFF772FA2878412802D102203A
:10403000FFF76CFAFFF72EF8FFF7E8FAC9E700BFC1
:1040400084000020940100204C010020000000208A
:10405000240200202DE9F04F85B04FF000084FF00A
:1040600001090220734E01AF734DCDF80C80CDF8DD
:10407000089004904FF40040394601903046A8471C
:104080004FF4E05006F50064394601902046A847F9
:10409000DFF8A8A130464FF400410022D047204667
:1040A0004FF480610022D04720464FF40061002287
:1040B000D04720464FF480510022D04740F20740BD
:1040C00006F58066CDE90289394601903046A84759
:1040D0000A20FCF76FFF30460121FDF755F8A0B12B
:1040E00030460221FDF750F898B130460421FDF723
:1040F0004BF890B130464FF48061FDF745F8002849
:1041000070D14FF0020B04200AE04FF0020B0120A7
:1041100006E04FF0020B022002E04FF0020B0320FA
:1041200001AFCDE90298CDE9000930463946A847EC
:1041300030463946CDF804B0A847042039460190EE
:104140003046A8474FF48069304639464FF0010B9E
:10415000CDF80490A847304601210022D0473046D0
:1041600002210022D047304604210022D0473046A9
:104170004FF480610022D0472E4E4FF40040CDE92D
:10418000028B394601903046A84720463946CDF883
:104190000490A8474FF40060394601902046A84794
:1041A0004FF48050394601902046A8470A20FCF77A
:1041B00001FF30464FF40041FCF7E6FFB0B1204666
:1041C0004FF48061FCF7E0FF70B120464FF40061CE
:1041D000FCF7DAFF009D30B320464FF48051FCF726
:1041E000D3FF18B300201BE04FF00408009D1449D2
:1041F0000120164F086008EB050101F136020B297A
:1042000038BF01F12F020F490A700F490B68FA54A9
:104210005A1CD31702EB137323F00F03D21A0A6050
:1042200005B0BDE8F08F4FF00808E0E74FF00C084C
:10423000DDE700BF00080140D50F0008A31100080A
:1042400070020020600000206C020020E4000020CA
:104250001CB5F8211F4C01228DF8051000F0F0016B
:1042600000018DF806108DF8070020461021FCF79C
:1042700098FF0120FCF79EFE17480DF1050103226F
:104280004FF47A73FDF7E0FC204610210022FCF782
:1042900088FF1CBD1CB5FA210E4C01228DF80510BB
:1042A00000F0F00100018DF806108DF8070020469F
:1042B0001021FCF776FF08480DF1050103224FF4A9
:1042C0007A73FDF7C1FC204610210022FCF769FF3C
:1042D0001CBD00BF00100140F40000200FB41CB54D
:1042E0000246002007AC00290BD0491ECDE9002171
:1042F000054B6A462146069800F0EEF8009A002128
:1043000011701CBC5DF814FB074C00080FB4084B7F
:1043100010B504A902AA039800F0DEF8044602A929
:10432000002000F07BFC204610BC5DF814FB000070
:104330001D4C000802E008C8121F08C1002AFAD16B
:1043400070477047002001E001C1121F002AFBD115
:10435000704700002DE9FF5F82B00021DDE90430E5
:10436000020DDDF840B0034318D044F61050A2F21D
:10437000FF3242431514119801281FD0A5EB0B0002
:10438000401C5FEA000A4FF000064E4FDFF83891FC
:10439000B046504615D5CAF1000413E01198012427
:1043A0004AA3012801D16FEA0B010298119AC0E9D2
:1043B0000031C0E9024206B0BDE8F09FCBF1000039
:1043C000DFE704460021404A491842EB0450CDE99A
:1043D000001012E0E00707D032463B46404649460F
:1043E000FCF787FA8046894632463B461046194616
:1043F000FCF77FFA06460F466410002CEAD1DDE98F
:104400000401DDE90023BAF1000F06DAFCF771FAC6
:1044100042464B46FCF76DFA05E0FCF715F84246BC
:104420004B46FCF711F804460E460022284BFCF7D9
:10443000EBFA03D84FF0FF30014607E00022254B8E
:1044400020463146FCF7AEF9FCF7C5FA102409E026
:10445000002C0ADB0A220023FCF79CF8039B303275
:104460001A55641E50EA0102F2D1641C039AC4F189
:1044700011031444119A012A03D0012208430DD1DB
:104480000AE0084304D000204FF0110B119072E7AE
:10449000A3EB0B056D1E0DE05B4504DD4FF0000244
:1044A00005F1010504E003DA4FF00002A5F1010572
:1044B000002AECD002981199C0E90231C0E9004508
:1044C00079E70000000014400000F03F30000000D9
:1044D0000000F0430000E03F2DE9FF4F95B09B4600
:1044E0008946064600250FE2252877D10024274675
:1044F000F84A0121059400E0044316F8013F203BEF
:1045000001FA03F01042F7D130782A2811D06FF069
:104510002F033078A0F13002092A16D8059A44F00A
:10452000020402EB820203EB42021044761C059067
:10453000EFE759F8042B0592002A03DA504244F4BD
:104540000054059044F00204761C30782E2816D1D1
:1045500016F8010F44F004042A280DD06FF02F0242
:104560003078A0F13003092B09D807EB870302EB61
:104570004303C718761CF3E759F8047B761C3078A0
:104580006C280FD006DC4C2817D068280DD06A287C
:1045900014D104E0742810D07A280FD10DE044F42F
:1045A00000140AE044F4801401E044F440147278EA
:1045B000824202D104F58014761C761C307866287D
:1045C0000BD013DC582877D009DC002875D045289B
:1045D000F6D04628F4D047281AD19DE118E0632888
:1045E00035D0642879D0652812D195E1702873D030
:1045F00008DC6728F1D069286FD06E280DD06F28AD
:1046000006D1B5E073282CD0752875D0782874D0E1
:104610005A46179990476D1C75E1C4F30250022861
:1046200009D003280DD0D9F8001004280DD00D6052
:1046300009F1040967E1D9F80010EA17C1E900524D
:10464000F6E7D9F800100D80F2E70D70F0E719F8E1
:10465000041B8DF8001000208DF80100EA460120AF
:1046600003E059F804AB4FF0FF3061074FF0000151
:1046700002D40DE008F101018846B9420FDA804505
:10468000F8DB1AF808100029F4D108E008F101015C
:1046900088468142FADB1AF808100029F6D10598FD
:1046A0005B46A0EB080721463846179A00F094FABB
:1046B000284400EB080507E04DE029E10DE01AF879
:1046C000010B5A4617999047B8F10108F7D25B469B
:1046D00021463846179A13E142E00A220092C4F3B9
:1046E00002524FF0000A022A08D059F804CB032ADC
:1046F0004FEAEC710AD00DE029E02AE009F1070148
:1047000021F00702F2E802C1914609E00FFA8CFCA1
:104710004FEAEC71042A03D14FFA8CFC4FEAEC719A
:10472000002907DA0A460021DCF1000C61EB0201E6
:104730002D2202E0220504D52B228DF8042001222F
:1047400003E0E20701D02022F7E7904659E00A2172
:1047500002E010220DE010214FF0000A00910BE062
:1047600010224FF0000A44F004040827009203E0EE
:1047700008224FF0000A0092C4F30252022A05D028
:1047800059F804CB0021032A08D009E009F10701F8
:1047900021F00702F2E802C1914605E01FFA8CFC05
:1047A000042A01D10CF0FF0C4FF00008220728D595
:1047B000702806D0009B83F0100353EA0A0305D04B
:1047C0000EE040228DF80420012208E05CEA01029C
:1047D00006D030228DF804208DF805000222904684
:1047E000009B83F0080353EA0A030AD15CEA010242
:1047F00001D1620705D530228DF804204FF0010861
:104800007F1E582804D034A003900EA802900DE01B
:1048100036A0F9E753466046009AFBF7BBFE844694
:104820000398825C0298401E029002705CEA0100CC
:10483000F0D1029806A9081A00F1200A600702D5F3
:1048400024F4803400E00127574502DDA7EB0A007D
:1048500000E0002000EB0A01009005984144401A56
:104860000590E00306D45B462146179A059800F0B0
:10487000B3F90544002706E001A85A46C05D179920
:1048800090476D1C7F1C4745F6DBE0030CD55B466B
:104890002146179A059800F09FF9054404E030205E
:1048A0005A46179990476D1C0099481E00900029A0
:1048B000F5DC08E0029802995A460078491C0291FA
:1048C000179990476D1CBAF10001AAF1010AF1DCB9
:1048D00065E10000092801003031323334353637C4
:1048E000383961626364656600000000303132333C
:1048F00034353637383941424344454600000000DC
:1049000000F058F90544761C307800287FF4ECADAF
:1049100019B02846BDE8F08F620700D4062709F1D8
:10492000070222F0070CFCE80223E14603F00048EE
:104930005FEA080C02D00FF2702C0DE05FEA045C15
:1049400002D50FF2682C07E05FEAC47C02D00FF2B8
:10495000602C01E0AFF2700C4FF0FF3823F0004301
:10496000CDF850C065280CD006DC452809D0462873
:104970001DD047283DD13DE0662818D067287ED15C
:1049800038E00021112F01DB112000E0781CCDE977
:10499000000106A90EA8FFF7DDFCDDE90F010E9A64
:1049A00003910021009207F1010A04914DE04FF0BC
:1049B00000400097CDE9011006A90EA8FFF7CAFC38
:1049C000DDE90F0203920E9B11990022DDF80CA085
:1049D0000093049211B9791C00EB010AB7EB0A00AD
:1049E00004D4C0F1FF3007F1010A0490AAEB0700DC
:1049F000019044E0012F00DA01270021112F01DD91
:104A0000112000E03846CDE9000106A90EA8FFF705
:104A1000A1FCDDE90F010E9A03910021049100929F
:104A2000BA4621070CD40399514500DA8A46BAF1F7
:104A3000010F05DD009AAAF10101515C302908D06F
:104A4000B84202DA10F1040F06DA0121CDE90110B3
:104A500015E0AAF10101E9E7002805DC0499014409
:104A60000491AAEB000102E0411C514500DD8A4699
:104A70000499401A401C01904FF00040029020071A
:104A800004D40198504501DBCDF8048000208DF856
:104A90004F0002980DF14F07B0F1004F25D02B20A9
:104AA0000E9002984FF0020800280CDA4042029063
:104AB0002D200E9007E00A210298FBF755FD3031BA
:104AC000029007F8011DB8F10001A8F10108F2DC1D
:104AD00002980028EFD1791E0E980870307800F007
:104AE000200040F0450007F8020D12A8C01B00F19D
:104AF00007081498007800B1012000EB0A01019822
:104B000001EBE07105984144401A401E0590E00316
:104B100006D45B462146179A059800F05DF80544D7
:104B20001498007818B15A46179990476D1CE00305
:104B300024D55B462146179A059800F04DF80544A8
:104B40001CE00498002807DBDDE90301884203DD4F
:104B50000098405C179901E0179930205A46904719
:104B6000049805F10105401C04900198401E019035
:104B700004D12E205A46179990476D1CBAF10001B6
:104B8000AAF1010ADDDC05E017F8010B5A46179976
:104B900090476D1CB8F10001A8F10108F4DC5B46F8
:104BA0002146179A0598ABE62D0000002B00000067
:104BB000200000002DE9F041044600251E4617465E
:104BC000880404D405E039462020B0476D1C641EDB
:104BD000F9D52846BDE8F0812DE9F04104460025CD
:104BE0001E469046C80301D5302700E020278804E0
:104BF00004D505E041463846B0476D1C641EF9D522
:104C00002846BDE8F0814A68002A06D00A68531C8D
:104C10000B6010704868401E486070470A68531C5B
:104C20000B6010707047DDDDDDDDDCBBBBDDDDDD85
:104C3000DDDDDDDDDDDD9888888888888888777708
:104C4000777777888888855555566666666666667E
:104C500066666668888883333332222222222222C3
:104C600022222228888D000000000000000001029E
:104C70000304060708090000000001020304000005
:104C8000000000000000002F0000000007000700E7
:104C900000147F147F1400242A7F2A120062640803
:104CA0001323003649552250000005030000000080
:104CB0001C224100000041221C000014083E081480
:104CC0000008083E0808000000A06000000808086E
:104CD0000808000060600000002010080402003E88
:104CE0005149453E0000427F400000426151494623
:104CF000002141454B31001814127F100027454513
:104D00004539003C4A494930000171090503003624
:104D10004949493600064949291E00003636000037
:104D2000000056360000000814224100001414143C
:104D30001414000041221408000201510906003237
:104D40004959513E007C1211127C007F4949493675
:104D5000003E41414122007F4141221C007F4949E0
:104D60004941007F09090901003E4149497A007F14
:104D70000808087F0000417F4100002040413F01BA
:104D8000007F08142241007F40404040007F020C19
:104D9000027F007F0408107F003E4141413E007FBA
:104DA00009090906003E4151215E007F0919294683
:104DB0000046494949310001017F0101003F40405F
:104DC000403F001F2040201F003F4038403F00630D
:104DD000140814630007087008070061514945432F
:104DE00000007F41410000552A552A5500004141ED
:104DF0007F000004020102040040404040400000E7
:104E000001020400002054545478007F4844443880
:104E100000384444442000384444487F0038545407
:104E2000541800087E0901020018A4A4A47C007F85
:104E3000080404780000447D4000004080847D0028
:104E4000007F102844000000417F4000007C0418CF
:104E50000478007C0804047800384444443800FC9A
:104E6000242424180018242418FC007C08040408B6
:104E700000485454542000043F444020003C40402B
:104E8000207C001C2040201C003C4030403C004462
:104E900028102844001CA0A0A07C004464544C446A
:104EA000141414141414000000000000000000008A
:104EB000000000000000000000F8000000000000FA
:104EC00000333000000000100C06100C060000003B
:104ED00000000000000040C07840C0784000043F5F
:104EE00004043F040400007088FC0830000000182F
:104EF00020FF211E0000F008F000E0180000002153
:104F00001C031E211E0000F00888700000001E21F6
:104F100023241927211010160E00000000000000A5
:104F2000000000000000000000E018040200000083
:104F300000071820400000020418E00000000040B4
:104F4000201807000000404080F08040400002022E
:104F5000010F01020200000000F00000000001014A
:104F6000011F01010100000000000000000080B0EE
:104F700070000000000000000000000000000001C0
:104F800001010101010100000000000000000030EB
:104F90003000000000000000000080601804006085
:104FA00018060100000000E010080810E000000FE3
:104FB000102020100F00001010F80000000000204A
:104FC000203F202000000070080808887000003092
:104FD000282422213000003008888848300000183A
:104FE000202020110E000000C02010F80000000753
:104FF0000424243F240000F80888880808000019C9
:10500000212020110E0000E0108888180000000FF9
:10501000112020110E0000380808C83808000000D0
:10502000003F000000000070880808887000001C25
:10503000222121221C0000E010080810E0000000DE
:10504000312222110F00000000C0C000000000004B
:105050000030300000000000008000000000000070
:105060008060000000000000804020100800000167
:10507000020408102000404040404040400004042A
:1050800004040404040000081020408000000020F4
:10509000100804020100007048080808F000000031
:1050A000003036010000C030C828E810E0000718C2
:1050B000272423140B000000C038E0000000203C2F
:1050C00023020227382008F8888888700000203FD3
:1050D000202020110E00C0300808080838000718EA
:1050E00020202010080008F808080810E000203FE1
:1050F000202020100F0008F88888E8081000203FC2
:1051000020202320180008F88888E8081000203F95
:10511000200003000000C03008080838000007180D
:105120002020221E020008F808000008F808203F8E
:10513000210101213F20000808F808080000002094
:10514000203F2020000000000808F8080800C08068
:1051500080807F00000008F888C028180800203FE1
:1051600020012638200008F8080000000000203F39
:1051700020202020300008F8F800F8F80800203F30
:10518000003F003F200008F830C00008F808203F2A
:10519000200007183F00E01008080810E0000F107A
:1051A000202020100F0008F808080808F000203F11
:1051B000210101010000E01008080810E0000F18AC
:1051C000242438504F0008F8888888887000203FD1
:1051D0002000030C302000708808080838000038D0
:1051E000202121221C00180808F8080818000000D7
:1051F000203F2000000008F808000008F808001F01
:10520000202020201F000878880000C838080000EF
:1052100007380E010000F80800F80008F800033C09
:105220000700073C030008186880806818082030D1
:105230002C03032C30200838C800C83808000000B0
:10524000203F2000000010080808C8380800203857
:10525000262120201800000000FE020202000000AB
:10526000007F40404000000C30C000000000000003
:1052700000010638C00000020202FE0000000040EB
:1052800040407F0000000000040202020400000011
:10529000000000000000000000000000000080800E
:1052A00080808080808000020204000000000000F6
:1052B00000000000000000008080808000000019D5
:1052C000242222223F2008F8008080000000003FB6
:1052D000112020110E000000008080800000000ED0
:1052E000112020201100000000808088F800000EAE
:1052F000112020103F200000808080800000001FCF
:10530000222222221300008080F088888818002042
:10531000203F202000000000808080808000006B03
:1053200094949493600008F8008080800000203FEF
:10533000210000203F2000809898000000000020FD
:10534000203F20200000000000809898000000C04E
:105350008080807F000008F8000080808000203F6F
:1053600024022D302000000808F800000000002072
:10537000203F202000008080808080808000203FAF
:1053800020003F20003F8080008080800000203F80
:10539000210000203F200000808080800000001F4E
:1053A000202020201F00808000808000000080FFDF
:1053B000A12020110E000000008080808000000EDF
:1053C000112020A0FF80808080008080800020202D
:1053D0003F21200001000000808080808000003399
:1053E000242424241900008080E080800000000034
:1053F000001F202000008080000000808000001F2F
:10540000202020103F2080808000008080800001CC
:105410000E300806010080800080008080800F3000
:105420000C030C300F000080800080808000002082
:10543000312E0E31200080808000008080808081AD
:105440008E7018060100008080808080800000211E
:10545000302C2221300000000000807C020200007D
:105460000000003F404000000000FF00000000007E
:105470000000FF0000000002027C800000000040ED
:10548000403F000000000006010102020404000089
:105490000000000000000000020000000400000006
:1054A0000800000010000000FDFFFFFFFBFFFFFFF2
:1054B000F7FFFFFFEFFFFFFF252E316600E694B6F2
:1054C000E588B03A2025730D0A004E455720505705
:1054D0004D2564487AE9A291E78E87E997AAE78388
:1054E000810D0A00737065656420646F776E206DAE
:1054F0006F746F720D0A0000E6A0BCE5BC8FE994E2
:1055000099E8AFAFEFBC8CE8AFB7E8BE93E585A5EF
:1055100073706565646174E5908EE8B79FE695B039
:10552000E5AD970D0A000000E697A0E69588E9979B
:10553000AAE78381E9A291E78E87EFBC8CE8AFB739
:10554000E8BE93E585A5312D393939E4B98BE99762
:10555000B4E79A84E580BC0D0A000000805500087D
:10556000000000206000000034430008E0550008FF
:10557000600000209806000044430008000000007E
:10558000010000000000000000000000000000001A
:10559000000000000000000000000000000000000B
:1055A00000000000000000000100000010000000EA
:1055B0000000000080818283848586879091929389
:1055C0009495969788898A8B8C8D8E8F98999A9BC3
:1055D0009C9D9E9F6400000000127A000000000065
:0400000508000131BD
:00000001FF
