:020000040800F2
:1000000000090020450100086B200008151B0008AE
:1000100069200008DF050008232800080000000010
:100020000000000000000000000000008926000819
:10003000E1050008000000008F2500088B2600085D
:100040005F0100085F0100085F0100085F01000810
:100050005F0100085F0100085F0100085F01000800
:100060005F0100085F0100085F0100085F010008F0
:100070005F0100085F0100085F0100085F010008E0
:100080005F0100085F0100085F0100085F010008D0
:100090005F0100085F0100085F0100085F010008C0
:1000A0005F0100085F0100085F0100085F010008B0
:1000B000152700081D2700085F0100085F010008E0
:1000C0005F0100085F0100085F0100085F01000890
:1000D0005F0100085F0100085F0100085F01000880
:1000E0005F0100085F0100085F0100085F01000870
:1000F0005F0100085F0100085F0100085F01000860
:100100005F0100085F010008252700085F01000863
:100110005F0100085F0100085F0100085F0100083F
:100120005F0100085F0100085F0100085F0100082F
:10013000DFF80CD000F0EAF9004800477128000809
:10014000000900200648804706480047FEE7FEE712
:10015000FEE7FEE7FEE7FEE7FEE7FEE7FEE7FEE777
:100160001127000831010008202A04DB203A21FA77
:1001700002F00021704721FA02F3D040C2F12002C0
:100180009140084319467047D2B201E000F8012BB4
:10019000491EFBD270470022F6E710B513460A4607
:1001A00004461946FFF7F0FF204610BD2DE9FE4F2B
:1001B000804681EA0300C00F0C46009021F0004108
:1001C00023F00045B8EB0200A94105D24046214684
:1001D00090461C460B46024623F00040104347D091
:1001E000270DC7F30A00C3F30A510290401A019089
:1001F00040286BDAC3F3130040F4801B009892464A
:1002000020B10023D2EB030A63EB0B0B0198594694
:10021000C0F14002504600F0C3F806460D46504675
:100220005946019A00F0CBF810EB08006141002418
:1002300087EA115284EAE7731A4340D0009A62B306
:10024000019A012A4FEA075215DC001B61EB0201FB
:100250004FF0004202EA0752CDE90042001C41F58E
:10026000801132462B4600F002F903B0BDE8F08F52
:1002700040462146F9E7001B61EB0201001C41F5F5
:10028000801300185B412018A2F5001747EB03010B
:1002900040EAD570B6196D4111E06D084FEA360697
:1002A00045EAC0754FEA0752001B61EB0201001CD2
:1002B00041F5801149084FEA30000019514132469A
:1002C0002B4603B0BDE8F04F00F0C2B80098012201
:1002D00040000023D0EB020263EBE073009821465C
:1002E0004FEAE074B8EB000061EB0401E9E783F04A
:1002F00000435BE781F0004158E7002801DBC0F1D3
:100300000040002901DBC1F10041814201D20120FE
:1003100070470020704700F0004230F000400AD0E3
:10032000C10D01F56071C0F3160042EA0151C20827
:1003300040071143704700200146704701F0004319
:1003400030B421F0004150EA010206D00A0DA2F5B6
:100350006072C1F31301002A02DC30BC0020704738
:10036000440F44EAC104C100E01830BC00EBC250A5
:1003700000F037B830B50B4601460020202201249A
:1003800009E021FA02F59D4205D303FA02F5491B63
:1003900004FA02F52844151EA2F10102F1DC30BD79
:1003A000202A04DB203A00FA02F100207047914035
:1003B000C2F1200320FA03F3194390407047202A2A
:1003C00006DBCB17203A41FA02F043EAE07306E07D
:1003D00041FA02F3D040C2F120029140084319468D
:1003E00070470029A8BF7047401C490008BF20F093
:1003F0000100704710B4B0FA80FC00FA0CF050EA2B
:10040000010404BF10BC704749B1CCF1200421FAAB
:1004100004F411FA0CF118BF012121430843A3EBA6
:100420000C01CB1D4FEA00614FEA102042BF0020B3
:1004300010BC704700EBC35010440029A4BF10BC8F
:100440007047401C490008BF20F0010010BC7047F5
:1004500010B5141E73F1000408DA401C41F10001CC
:1004600092185B411A4301D120F0010010BD2DE923
:10047000F04D92469B4611B1B1FA81F202E0B0FA1A
:1004800080F220329046FFF78BFF04460F4640EA89
:100490000A0041EA0B0153465A46084313D011465D
:1004A00053EA010019D0C8F140025046FFF75CFE44
:1004B00005460E46504659464246FFF771FF08432F
:1004C00005D0012004E020463946BDE8F08D00202B
:1004D000054346EAE0762C4337430A986305E40A6D
:1004E000A0EB08000022FD0A44EA47540A3002D576
:1004F00000200146E9E7010510196941DDE90845D9
:1005000000196941BDE8F04DA2E700001CB509489B
:100510000090094801900546009C06E0E06840F024
:10052000010394E8070098471034AC42F6D3FFF774
:1005300003FE0000F83200081833000870B58C186C
:1005400010F8015B15F0070301D110F8013B2A11E7
:1005500006D110F8012B03E010F8016B01F8016BD4
:100560005B1EF9D12B0705D40023521E0DD401F8D0
:10057000013BFAE710F8013BCB1A921C03E013F899
:10058000015B01F8015B521EF9D5A142D8D30020CE
:1005900070BDB0B5044600688168C90701D100206C
:1005A000B0BD816821F00101816000F04DFA05467F
:1005B00020688068C007F2D000F046FA401B03288C
:1005C000F6D320688068C007F2D0A06A40F010001F
:1005D000A062E06A40F00100E0620120B0BDFEE7E9
:1005E0007047EFF3108072B6FEE7000078B5002286
:1005F000009290F82420012A01D1022157E04C6892
:10060000012280F82420062C0ED804EB84030A680B
:100610001F25053B02FA03F49D4003685E6B26EA42
:1006200005052C435C6317E0036804EB84020C2C83
:1006300009D8A2F1230401F049FF1E6B26EA040445
:100640002C431C6308E0A2F1410401F03FFFDE6A85
:1006500026EA04042C43DC6202EB4204092A19D97D
:1006600089681E3C0725A14005FA04F4DD6825EAE7
:1006700004042143D96022F00101102913D1194942
:10068000A1F10804A34214D0816A41F020018162E3
:10069000012109E007221D698968A24025EA0202BA
:1006A000A140114319610021002280F8242008464E
:1006B00078BD0B681B02F6D40B68102A43F40003C4
:1006C0000B60F0D10849094A0968B1FBF2F101EB6E
:1006D00081014900009100990029E4D00099013975
:1006E000F8E700BF082401400803002040420F0043
:1006F000E8B3F8B50446806A28B901F038FFE06233
:10070000204600F07BF82046FFF743FFA26AA16A6B
:1007100078BB12F010002CD141F2021021EA000047
:100720000230A06294E80700531EB3FA83F35D0918
:100730001346B2F5807F18BF2B022C4DE669454069
:1007400086F440273D4308BF4FF400263143257B04
:10075000267D41EA4501012E14D175B1A56A45F007
:100760002005A562E56A45F00105E5620AE0012081
:10077000704741F01000A06235E0A56903EB4533F6
:10078000A3F5C053456825F469452B43184D4360D4
:1007900083682B400B43B2F5807F836001D0012A30
:1007A00004D12269134B03EB025200E00022C36A1A
:1007B00023F470031A43C2620F4A806810408842D3
:1007C00007D100200122E062A16A62F30101A16267
:1007D000F8BDA06A40F0100020F00200A062E06ABC
:1007E00040F00100E0620120F8BD00BF003C014084
:1007F000FDF7E1FF0000F0FFFE0E1FFFFEB5014612
:100800000020CDE90400CDE902001148096800F597
:10081000E052914219D17D490A6842F400720A609F
:100820000A6802F400720192019A0A6842F0040216
:100830000A60096801F0040101910321039101217B
:100840000291019902A900F017F806B080BD00BF1F
:1008500000080140B0B5044600F0F6F8054605482A
:10086000611C007818BF044400F0EEF8401BA04261
:10087000FAD3B0BD000000202DE9FC4F81465F484F
:1008800006234FF0000C4FF001084FF00F0E4FF011
:10089000000A81455A4808BF052348444FEAB02260
:1008A000052A38BF4FEAB023009300220C6834FABF
:1008B00002F508BFBDE8FC8F08FA02F714EA070545
:1008C00000F098804C68032C16D9112C26D0122CDD
:1008D00032D04F48844213D04E48844210D04E4804
:1008E00084420DD04D4884420AD04D48844207D0FE
:1008F0004C48844204D022E0DFE804F0021B1418C4
:100900008C6844B1012C14BFC9F81470C9F8107078
:100910004FF0080A13E04FF0040A10E0CC6804F12D
:10092000040A0CE0CC6804F1080A08E04FF0000A61
:1009300005E0D1F80CA002E0CC6804F10C0A644692
:100940004846B5F5807F28BF203C28BF04300668A4
:100950000EFA04F70AFA04F4BE4334430460C8797B
:10096000C00647D5D84B274F22F003061868BB4670
:100970003E4440F00100186018682B4B00F0010065
:1009800001900CF00C00019F0EFA00F49E46F758FF
:10099000009B03FA00F027EA04041B4B204346F8AF
:1009A0000E004FF00F0E4F68F802DBF8080054BF3E
:1009B00020EA050440EA0504CBF80840B8021868AC
:1009C00054BF20EA050440EA05041C60B803DBF8C4
:1009D000040054BF20EA050440EA0504CBF80440B3
:1009E000F803DBF8000054BF20EA050440EA0504E0
:1009F000CBF800400CF1040C013257E7001C014019
:100A000000F8FEBF000401400C0401401810024031
:100A10000000111000001210000021100000221030
:100A2000000031100000321008FCFFFFC26802EA2B
:100A30000103914341EA034101617047002A08BF65
:100A40000904016170470000A6480068704700BFB4
:100A500010B3F8B5044690F83D0020B901F093FDBD
:100A6000204600F0FFF801F060FD016841F400410C
:100A70000160016821F40041016000F0E5FA63685B
:100A8000384A394993423CBF48F28041C0F21E01C6
:100A9000884203D20120F8BD0120704733494FF44A
:100AA0007A77B0FBF1F521684E6826F03F062E43B9
:100AB0004E604FF496766E43934228BFB6FBF7F52F
:100AC0006A1C0D6A25F03F052A434CF6FF750A6241
:100AD000CA69AA43264DAB420AD85B000138B0FB75
:100AE000F3F001306FF31F30042898BF042013E0A7
:100AF000A56801383DB119256B4301F031FD0AD0DD
:100B000000F5804004E003EB430301F029FD02D02F
:100B100000F5004000E00120104304F10C06C8611C
:100B2000E0690A6822F0C0021043226A104348F2CA
:100B3000FF320860886890436CCE18431043886089
:100B4000C86820F0FF0028433043C86001F0D3FCA0
:100B500000202021206484F83D10206384F83E00AA
:100B6000F8BD00BFA186010000093D0040420F0012
:100B7000A08601002DE9FE43994601F09BFC054645
:100B800001F042FC0AD13549204601221923009583
:100B900001F054F810B901F01DFC02D10220BDE8AB
:100BA000FE8301220DF1280801F0C8FC03D113686F
:100BB00043F001031360136823F4006313602122E0
:100BC0004B4601F06DFC26493246608DE1623946A4
:100BD00020852046CDE9008500F0B6FF10B1012048
:100BE000BDE8FE83218D080422D0204641462A46D6
:100BF00001F07FF810BB606A2268014611F8013BE2
:100C00001361638D013B63856162238D591E2185CC
:100C100056697607E7D509044FF00001E3D0417823
:100C200002301161991E6062218501F04BFCDAE708
:100C3000204641462A4600F0E1FF30B1206C0428EE
:100C4000CDD1206801F0AEFBC9E72068016841F40E
:100C50000071016001F0DCFBBDE8FE8302001000C2
:100C60000000FFFF10B586B000210068CDE9041137
:100C7000CDE902111349884222D1404C206840F04E
:100C800008002060206800F0080001900320059013
:100C9000122003904FF440700290019802A90B4873
:100CA000FFF7EAFD36480A4A0168114301606068AF
:100CB00040F400106060606800F40010019001983A
:100CC00006B010BD0054004018100240000C014056
:100CD000020000071A48034900780A6810440860B7
:100CE000704700BFFC04002080B5D448016841F083
:100CF00010010160032000F077F80F2000F004F8E5
:100D000000F020F8002080BD70B50D4E04464FF471
:100D10007A713078B1FBF0F0D0490968B1FBF0F09E
:100D200000F06EFC01250F2C08D838B94FF0FF30C9
:100D300021460022002500F031F87460284670BD7D
:100D40000000002082B00D480222016841F001013C
:100D50000160016801F0010101910199416841F0D0
:100D600080514160406800F0805000900098044835
:100D7000016862F31A61016002B070471810024006
:100D800004000140002805D4734601F0D2FA9E46C3
:100D9000014A8850704700BF00E100E0F0B5184BF1
:100DA0004FF0FF361C68C4F30224E51E84F00704EC
:100DB00038BF002506FA05F7BA43042C28BF0424DF
:100DC00006FA04F4A14300F00F04A940043C1143C7
:100DD000044A234409010244002848BF03F10C02DD
:100DE0001170F0BD00E400E005494FF6FF030A680A
:100DF0001A4060F30A22034810430860704700BF9E
:100E00000CED00E00000FA052DE9FC4104460078F5
:100E1000A14EC00743D0B0695FEAC00808D4B069EA
:100E200040F08050B061B06900F0805001900198AE
:100E30002C4F3868C00511D4386840F48070386091
:100E4000FFF702FE05463868C00507D4FFF7FCFD32
:100E5000401B6428F7D90320BDE8FC81F06910F439
:100E600040700FD0616801F4407188420AD01E4979
:100E7000F06901220A6000220A6020F44071C00774
:100E8000F16120D16068F16921F440710843B8F143
:100E9000000FF06103D4B06920F08050B061206889
:100EA000810705D5A168326822F4404211433160C0
:100EB000C00605D56069316821F4800108433060BF
:100EC0000020BDE8FC81FFF7BFFD054641F28837F1
:100ED000F0698007D6D4FFF7B7FD411B0320B94264
:100EE000F6D9EEE70070004040044242002873D07B
:100EF0002DE9F8430D4651490446086800F0070003
:100F0000A84209D2086820F0070028430860086852
:100F100000F00700A8426BD12068894681075E492E
:100F200088461AD5410706D5D8F80010424641F444
:100F3000E061C8F80010010706D5D8F80010424655
:100F400041F46051C8F80010A168D8F80020434669
:100F500022F0F0021143C8F80010C0073ED1D9F8C2
:100F6000000000F00700A8420CD9D9F8000020F0DA
:100F700007002843C9F80000D9F8000000F0070076
:100F8000A84235D12068410708D5E168D8F800208B
:100F9000434622F4E0621143C8F80010000709D567
:100FA0002069D8F80010424621F4605141EAC0009F
:100FB000C8F8000000F056F8D8F80010204AC1F335
:100FC0000311515CC840254908601E480068FFF7BE
:100FD0009BFE0020BDE8F88301207047404658F88A
:100FE000041C6068022806D0012823D1890304D498
:100FF0000120BDE8F8838901FAD5D8F8001021F066
:1010000003010843C8F80000FFF71EFD064641F241
:10101000883741466068D8F8001001F00C01B1EB48
:10102000800F9CD0FFF710FD801BB842F1D9032040
:10103000BDE8F8838907DBD5DFE700BF0020024069
:10104000B62A000804000020DE481349044A00685C
:101050000968C1F30221515CC840704708030020B1
:10106000C62A000810B50C490C480A6802F00C03A7
:10107000082B07D1C2F3834309A4D203E35C02D453
:101080000C48584310BD096809A25843C1F34041B8
:10109000515CB0FBF1F010BD0410024000127A0068
:1010A00002030405060708090A0B0C0D0E0F1010A9
:1010B0000102000000093D00002843D02DE9FC4159
:1010C00004460078BD4EC0070BD0706800F00C00DD
:1010D000042839D13068800303D56068002800F007
:1010E000B6802078800717D5706810F00C0F05D0F7
:1010F00001F034F942D17068C0033FD430688007F2
:1011000003D52069012840F0A2806069316821F090
:10111000F80141EAC0003060207800075ED5A06980
:1011200000283ED0A6480121C0F88014FFF78CFCAF
:101130000546706A800744D4FFF786FC401B0228EE
:10114000F7D902E10120704701F008F902D1706877
:10115000C003BFD462683068002A20F4803100F0F8
:10116000F780B2F5A02F00F0DD80B2F5803F00F0EF
:10117000DD803160306820F48020D9E0216990481A
:10118000002900F08F8001210160FFF75DFC05461A
:1011900030688007B9D4FFF757FC401B0228F7D905
:1011A000D3E087480021C0F88014FFF74DFC0546C6
:1011B000706A800712D5FFF747FC401B0228F7D959
:1011C000C3E080484FF4FA510068B0FBF1F00190A1
:1011D00000BF0198411E00280191F9D120784007F5
:1011E00014D4E7697FB101F0B9F83ED1012F2ED0B8
:1011F000216A706800F480328A4228D1616A00F462
:101200007010884223D10020BDE8FC81F0695FEABC
:10121000C00808D4F06940F08050F061F06900F037
:10122000805000900098684F3868C00512D4386824
:1012300040F480703860FFF707FC05463868C00549
:1012400008D4FFF701FC401B6428F7D97DE001209A
:10125000BDE8FC81E168306A002948D0052931D019
:10126000012933D001F05EF832E05549002088466C
:101270000866FFF7E9FB0546022F09D130688001B7
:1012800079D5FFF7E1FB411B03200229F6D9BBE723
:1012900030688001B7D5FFF7D7FB411B0320022937
:1012A000F6D9B1E700210160FFF7CEFB05463068B3
:1012B00080077FF531AFFFF7C7FB411B03200229F1
:1012C000F5D9A1E740F004003062306A40F0010037
:1012D0003062FFF7B9FB054641F28837306A800774
:1012E00017D4FFF7B1FB401BB842F7D92DE001F04E
:1012F00019F83062FFF7A8FB054641F28837306ADB
:10130000800706D5FFF7A0FB411B0320B942F6D9A1
:101310007AE7B8F1000F3FF564AFF06920F0805034
:10132000F0615EE740F480203060306840F4803047
:101330003060FFF789FB0546306880033FF5D1AE8A
:10134000FFF782FB401B6428F6D90320BDE8FC812F
:101350003160306820F480203060FFF775FB05466F
:10136000306880037FF5BDAEFFF76EFB411B0320A5
:101370006429F5D948E7206AB0F5803F05D1A16816
:10138000726822F4003211437160616A726822F45B
:1013900074121143084370600120C8F86000FFF721
:1013A00053FB0446306880013FF52DAFFFF74CFB3F
:1013B000011B03200229F5D926E700BF00100240D7
:1013C00000004242080300200070004070B530B1B8
:1013D0000446406A28B100202061142006E001255F
:1013E00046E06068B0F5827F02D01C2000212150C9
:1013F0000025A56294F8510020B9204684F8505089
:1014000000F038F8022084F8510094E80F0001F44D
:10141000827102F404420668114403F4006211442C
:1014200026F040060660226902F002021144626959
:1014300002F001021144A26902F400731944E36945
:1014400003F038031944236A03F080031943A36AA5
:1014500003F4005319430160042101EA1241416081
:10146000C16921F40061C1610120656584F8510002
:10147000284670BD70B586B0194C00680026CDE9CD
:101480000466CDE9026604F52051884225D115484D
:10149000016841F480510160016801F480510191BB
:1014A0000199016841F004010160006800F0040046
:1014B00001900320059002200390A0200290019843
:1014C00002AD20462946FFF7D7F940202946CDE94D
:1014D000036602902046FFF7CFF906B070BD00BF4B
:1014E00000080140181002402DE9FC411D46164637
:1014F0000F460446FFF7A8FA804694F851000128E9
:1015000004D137B12EB100F091FF05D10220BDE822
:10151000FC810120BDE8FC810320012184F85100F9
:1015200000206065E68684F85010A6862763A087B1
:10153000A063C4E91000E087A1682068B1F5004FFE
:1015400007D1016821F040010160016841F4804148
:1015500001600168490601D400F04DFFE26861684E
:10156000B2F5006F1CD109B1012E01D100F036FF98
:101570006E1CE08E70B300F043FF08D4FFF764FAEE
:10158000002EF6D0A0EB0800A842F2D335E0216B84
:1015900031F8022BC2602163E08E0138E086E8E773
:1015A00009B1012E02D1397800F0E5FF6E1CE08E02
:1015B00080B100F025FF08D4FFF746FA002EF6D0E0
:1015C000A0EB0800A842F2D317E0216B097800F0E5
:1015D000D2FFECE720462946424600F0D9FF08B189
:1015E00020206065A06810B9002000F0BCFE00F06B
:1015F0002EFF18BF0120BDE8FC8100F0DDBE000019
:10160000411E0020B0EB116F1CBF01207047044A3F
:10161000F023516003490B700721906011607047FF
:1016200010E000E023ED00E07047704790F83C3098
:101630000222012B29D010B580F83D2002680B68EA
:10164000546824F070041C439368B2F1804F5460D6
:101650000ED04D4CA2420BD04C4CA24208D04C4C68
:10166000A24205D04B4CA24202D04B4CA24204D124
:10167000496823F08003194391600022012180F81A
:101680003C2080F83D10BDE810401046704700BF78
:1016900058B110B500F0FFFE03D100F0C2FE00F01B
:1016A00007F800F056FF00F066BE0120704700000A
:1016B0001FB500683649884221D03349884211D08D
:1016C000B0F1804F18BF1FBD18481C24016841F0BD
:1016D000010101600121006800F0010003900398FE
:1016E0001C2019E011481D24016841F0020101602D
:1016F000006800F00200029002981D200BE00B48E9
:101700003224016841F008010160006800F008001F
:1017100001900198322000210022FFF73FFB204674
:1017200004B0BDE81040FFF72DBB00BF1C10024005
:1017300090F83D1001291CBF01207047022180F85C
:101740003D100068C168B0F1804F41F00101C160F7
:101750000ED00D4988420BD00C49884208D00C4964
:10176000884205D00B49884202D00B49884204D1F7
:10177000724600F01CFE964603D0724600F025FE2D
:1017800096460020704700BF00040040000800405B
:10179000000C004000340140002C014010B500F066
:1017A00074FE54D084F83D0001204FF6777384F81E
:1017B0003C00206882689A4382600A68C2B1102A9D
:1017C00016D0202A14D0302A12D0402A33D0502AE2
:1017D00028D0602A13D0B2F5005F1CD0B2F5805F2C
:1017E00032D0702A1CD100F025FE41F077012AE0AA
:1017F000816821F07001114341F0070123E04B683B
:10180000CA68194600F0FBFF2068816841F0670153
:1018100021F0100117E000F00DFE41F4804112E0CC
:10182000012012E000F073FE2068816841F057014A
:1018300021F0200107E000F06AFE2068816841F095
:10184000470121F030018160002000F059FE10BDF9
:10185000704770B504460068C5680669B10710D5C1
:10186000A9070ED56FF0020101610121217780697E
:10187000800702D000F023FE01E000F0F1FD00201F
:101880002077700712D5680710D520686FF0040123
:10189000016102212177806910F4407F02D000F0BD
:1018A0000EFE01E000F0DCFD00202077300711D5AE
:1018B00028070FD520686FF0080101610421217706
:1018C000C069800702D000F0FAFD01E000F0C8FD19
:1018D00000202077F00612D5E80610D520686FF0BA
:1018E0001001016108212177C06910F4407F02D006
:1018F00000F0E5FD01E000F0B3FD00202077F007E7
:1019000008D0E80706D020686FF001010161204689
:1019100000F026F8300608D5280606D520686FF0B6
:10192000800101612046FFF77FFE700608D568063A
:1019300006D520686FF040010161204600F09CF858
:10194000B00601D5A80600D470BD20686FF0200154
:1019500001612046BDE87040FFF767BE70477047E1
:10196000F8B504463B48844206D03B4884420AD03E
:101970003F48844241D0F8BD5C484FF40051BDE877
:10198000F840FFF753B8FB4E354F42F20F73306803
:1019900001303060314801684A1C9942C8BF0122B9
:1019A00002603868FEF7B7FC2E4A2F4BFEF7FEFBAD
:1019B000FEF7C4FC2D490546FEF79FFC002818BF22
:1019C0002846386000200021072925D056F821201C
:1019D0000A2A06DB06EB810246F821005368013330
:1019E0005360F2690A2A06DB0022082A03D046F86F
:1019F00022000132F9E70131E6E71E4C2068013090
:101A0000206000F097F92068C11700EB517121F0B8
:101A10000701401A2060F8BDE8483022C179013141
:101A2000C17100210729A3D081F00703C55C3A2DBD
:101A300004D3C254431A9D7901359D7103783A2B22
:101A400005D30023082B02D0C2540133FAE7013139
:101A5000E8E700BF1804002060040020F004002024
:101A6000F40400209A9999999999B93F00007A4411
:101A7000A8040020F80400207047000010B51B4C9B
:101A80004FF4806100222046FEF7D8FF0120FEF7C8
:101A9000E1FE20464FF480610122FEF7CFFF0120D6
:101AA000BDE81040FEF7D6BE2DE9F84304460F48C6
:101AB0000F4D00278146A0F50068072F88BFBDE8BD
:101AC000F883E0B24FF40041C2094046A8474846B7
:101AD0004FF4006100224E46A84748464FF400618B
:101AE0000122A84701376400E7E700BF001001406A
:101AF0003D0A000870B50C4605460026F0B2A0422B
:101B000004D2285CFFF7D0FF0136F7E7BDE870404C
:101B1000FFF7B4BFFEE70268516949054FF00001C5
:101B20000FD56FF4806353612022016380F83D205C
:101B300080F83E1080F83C10016C41F00401016413
:101B400001210846704700002DE9FE430446006865
:101B50000E460A9D0B9F99469046002201682B462F
:101B600041F48071016020464FF0011100F0EEFC5D
:101B700048B120680068C00544BF4FF4007020647D
:101B80000320BDE8FE83206806F0FE012A463B469E
:101B900001611949204600F07CF810B10120BDE830
:101BA000FE8300203A46029020684169029129464E
:101BB000806902900298204600F09BF830B1206CBA
:101BC0000428EBD1206800F0EDFBE7E72068B9F1CD
:101BD000010F0AD04FEA18213A46016120462946F2
:101BE00000F087F80028EAD120685FFA88F10161E7
:101BF0000020BDE8FE8300BF02000100F8B51546D5
:101C00000E4604464F1C20684069400744BF002030
:101C1000F8BD2046FFF77FFF70B9002FF3D0FEF725
:101C200013FF401BB04201D8002EECD12068406960
:101C30004007E8D400F051FC0120F8BD2DE9F04741
:101C4000DDF8209004469846164601F47F001827D8
:101C50008DB203F1010AB0F5803F08BF142700F0F0
:101C60005BFC13D1BAF1000FF9D0FEF7EDFEA0EB4B
:101C70000900404502D8B8F1000FF0D100F04CFC4B
:101C8000EDD100F02AFC0120BDE8F0870020BDE87E
:101C9000F0872DE9F0419846164604468FB2551C50
:101CA000206841693940B94213D04169490513D4CC
:101CB000002DF5D0FEF7C8FEA0EB0800B04201D819
:101CC000002EEDD1206840693840B842E8D020208D
:101CD00008E00020BDE8F08100F064FB6FF4806153
:101CE0004161042000F0C6FB084320640120BDE8E8
:101CF000F081F8B515460E4604464F1C2068406931
:101D0000000644BF0020F8BD2046FFF704FF70B96D
:101D1000002FF3D0FEF798FE401BB04201D8002EF2
:101D2000ECD1206840690006E8D400F0D6FB012021
:101D3000F8BD00002DE9FC41DFF834800D4F0E4E58
:101D400000250DF10604082D08BFBDE8FC8185F0D3
:101D50000700022118F800008DF8060057F825004A
:101D6000305C8DF807002046FFF7C4FE0135EAE736
:101D7000CE2A00081C030020EE3200080F49002084
:101D80003022082802D00A540130FAE7B0B50C4DD1
:101D90003220A8470B4C3020A0470220A847022041
:101DA000A8470C20A0470120A8470220A8470120EF
:101DB000A04702202946BDE8B04008471403002090
:101DC00055080008D1280008BFB50E484FF460211F
:101DD00000240125C1610C49047505730561846007
:101DE000C0E90014FEF784FC08B1FEF7FAFB0548D1
:101DF0000394CDE9014501A9FEF7F8FB08B1FEF710
:101E0000F0FBBFBD3C030020002401402DE9F04F52
:101E100085B000243748394E002242F6104BCDE9F8
:101E20000344CDE90144016841F0100101600168FB
:101E300001F0100100910099016841F0200101605A
:101E4000016801F0200100910099016841F004014E
:101E50000160016801F0040100910099016841F0FE
:101E60000801016042F61041006800F0080000908F
:101E70000098214800F5006580462846B04708F5DF
:101E8000806740F6380100223846B04740464FF49C
:101E90001E410022B0474FF002094FF0010A2846C8
:101EA000CDE901BACDE9034901AEDFF854B03146BE
:101EB000D84740F6380000F04AFA3846D8474FF481
:101EC000704000F01DFA3846D8474FF4707000F0AB
:101ED00017FA2846D8474FF4807000F011FA4046B0
:101EE000D8474FF41E4000F032FA4046D84705B0BC
:101EF000BDE8F08F18100240000801403D0A0008BC
:101F00007908000810B50B480B4B0C4C00214FF41E
:101F10008042C0E90043C0E90211C0E90421C0E9E0
:101F200006110162FEF794FD18B1BDE81040FEF7FE
:101F300058BB10BD6C030020A08601000054004077
:101F400070B50F4800220A210E4E01244FF482750D
:101F50004FF40073C0E90A213821C0E90822C0E922
:101F60000065C0E90222C0E90424C0E90631FFF798
:101F70002DFA18B1BDE87040FEF733BB70BD00BF4D
:101F8000C00300200030014010B586B00F4800218A
:101F90004FF4E15242F210734FF0804400F0B5F973
:101FA00008B1FEF71EFB4FF480500290074802A9CB
:101FB000FFF7F4FB08B1FEF714FB04486946FFF78E
:101FC00035FB08B1FEF70DFB06B010BD180400206C
:101FD00010B586B00F48104C00214FF4347242F215
:101FE000107300F092F908B1FEF7FBFA4FF480503D
:101FF0000290084802A9FFF7D1FB08B1FEF7F1FAF9
:1020000004486946FFF712FB08B1FEF7EAFA06B08A
:1020100010BD00BF600400200004004010B586B071
:102020000F48104C00214FF4347242F2107300F04C
:102030006CF908B1FEF7D5FA4FF4805002900848C9
:1020400002A9FFF7ABFB08B1FEF7CBFA04486946DB
:10205000FFF7ECFA08B1FEF7C4FA06B010BD00BFF6
:10206000A8040020000C0040FEE7FEE7002000F07E
:1020700001B80000F8B54A4E04460025E8B207282A
:1020800088BFF8BD45F0B000C0B2B04700200027BF
:10209000B0471020B04778B2002804D4204600F0A2
:1020A000D3FB0137F7E70135E8E700BF10B5C820DB
:1020B000FEF7D0FB3A4CAE20A0472020A0471020CE
:1020C000A047B020A047C020A0470020A047102074
:1020D000A0474020A0478120A047FF20A047A02084
:1020E000A047A620A047A820A0473F20A047A420A3
:1020F000A047D320A0470020A047D520A047F0202C
:10210000A047D920A0472220A047DA20A0471220CC
:10211000A047DB20A0472020A0478D20A047142007
:10212000A047AF202146BDE81040084710B50D4834
:102130000DA20521036800F0DFFB0C4C00200021FC
:102140000022A047102000210122A04720200021CA
:102150000222A04706A2002002210223BDE810406F
:1021600000F044B8F004002025640000A521000818
:10217000323032323136383900000000B0B5044612
:10218000A1F15000064DC0B2A84720091030A84761
:1021900004F00E0029460130BDE8B040084700BFFA
:1021A000252800082DE9F04116460D468046FFF728
:1021B000E5FF0D4F760100240F2C05D8B85D00F027
:1021C00043FB01340136F7E7681CC1B24046FFF714
:1021D000D5FF00240F2C88BFBDE8F081B85D00F06A
:1021E00033FB01370134F5E7080000202DE9FE4FED
:1021F000934688460646012B45D0022B6BD1374DBE
:102200000021CDF804B0C8B21BF80040002C62D009
:10221000F0B20291782888BF08F1010888BF002633
:10222000F7B25FFA88F13846FFF7A8FFA4F1200063
:10223000AA464FF00009C0B205EB00144FEA001B9C
:10224000B9F1080F06D014F8090000F0FDFA09F101
:102250000109F5E708F10100C1B23846FFF78EFF2A
:102260000AEB0B00DDF804B05546002700F1080426
:10227000082F04D0E05D00F0E7FA0137F8E7029993
:1022800008360131BFE7DFF858904FF0000A5FFAD7
:102290008AF01BF80040F4B1F0B27E2888BF08F144
:1022A000010888BF00265FFA88F1F0B2FFF766FFE9
:1022B000A4F120000024C0B200EB400009EB40076D
:1022C000062C04D0385D00F0BFFA0134F8E70AF1BB
:1022D000010A0636DBE7BDE8FE8F00BFFE2C0008D2
:1022E000D62A000801228DF80510010100F0F00047
:1022F0008DF807108DF8060020461021FEF79EBBD2
:102300003146CDE90244019070470591CDE90311B2
:10231000CDE900118161C0E90043C0E90212016109
:10232000FFF7B6B920F001003062306A20F00400F7
:1023300070471C21012201EAD00100F01F0002FABF
:1023400000F0704703224FF47A73FFF7CDB831469F
:10235000CDF81090CDE902A401907047706800F0AC
:102360000C000828704701902068C16801918068BE
:10237000019001987047012084F8460084F83E00DF
:1023800084F83F0084F8400084F8410084F842005B
:1023900084F8430084F8440084F8450084F83D0044
:1023A000002010BD016841F4007101607047816830
:1023B00001F0070106297047002084F85000012031
:1023C00084F851000320BDE8FC81016841F001015F
:1023D0000160704794F83C000128704737F8021BF1
:1023E000C1602763E08E0138E086704720461021E7
:1023F0000022FEF723BB016841F0400101607047F5
:10240000206881688907704794F83D00202870474C
:10241000202084F83D00002084F83C0084F83E0031
:102420007047002084F83C002046704794F8500024
:1024300001287047D1E90123C9681A4342EA012102
:10244000826822F47F4211438160816870470120D5
:1024500084F85100002084F85000606D0028704717
:102460004DF808ED2046FFF779FA20465DF808EBB5
:10247000FFF775BA00212022216384F83D2084F8FB
:102480003E1084F83C10216C704790F83C200446C4
:102490000220012A7047044690F83D00002870474A
:1024A00084F83D20402284F83E2000222264618589
:1024B0006062704716460F460446FEF7C5BA2046CE
:1024C000FFF7C6B9608D0138608570470A681F261E
:1024D00002FA04F506FA04F4704700202021206374
:1024E00084F83D1084F83E0084F83C00206C40F0F5
:1024F000200020647047086840F0010008607047C1
:10250000002184F83C10012184F83D1070474B688D
:10251000CA68194600F062B92068C0592840401BBB
:10252000B0FA80F04009B0427047242084F83D00A2
:102530002068016821F001010160704784F83C20A7
:10254000226898E803011368DB0770470097FFF7DC
:1025500075BB0220211D84F83D00206800F0E8B81A
:10256000B0FBF3F001306FF31F30002870470020FC
:1025700084F8240070470173206B01302063E08EE3
:102580000138E0867047002084F83C0070477047AF
:102590007CB50D46164600920221012204462B46C8
:1025A00000F012F840B92046802100222B46009608
:1025B000002600F009F820B1606D032640F02000ED
:1025C000606530467CBD00002DE9F843089F1C463D
:1025D00015460E468046FEF737FA381A0719FEF7F9
:1025E00033FA8146274801340068C0F3CB30784382
:1025F0000090D8F8000081683140891BB1FA81F160
:102600004909A9420FD0002CF5D0FEF71DFAA0EB26
:102610000900B8420AD200980099013900910028B7
:1026200008BF0746E5E70020BDE8F883D8E90001C8
:102630004268B1F5827F22F0E00242600BD1D8F807
:102640000810B1F5004F02D0B1F5806F03D10168D9
:1026500021F040010160D8F82810B1F5005F07D1E2
:10266000016821F400510160016841F400510160EA
:10267000002088F85000012088F851000320BDE8B0
:10268000F88300BF080300207047FEF723BBB0B5F6
:1026900096B000241421CDE91144CDE90F4401A8DE
:1026A0000430FDF778FD4FF4E010022501210E946F
:1026B00015904FF48030139510911490CDE90C10C3
:1026C0000CA8FEF7F9FC18B1EFF3108072B6FEE724
:1026D0004FF480600B940221CDE909400F20CDE931
:1026E000070507A8FEF702FC18B1EFF3108072B6D9
:1026F000FEE74FF4004003900220019001A8FEF78E
:1027000083FB18B1EFF3108072B6FEE716B0B0BDD0
:10271000704700006C48FFF79CB800BF6B48FFF79C
:1027200098B800BF0148FFF794B800BFA804002084
:1027300070B5254A0368904222D0B0F1804F0BD08B
:10274000224CA04208D0224CA04205D0214CA042ED
:1027500002D0214CA04203D14C6823F070032343E4
:10276000B0F1804F10D0194CA0420DD0184CA042AF
:102770000AD0184CA04207D0174CA04204D007E062
:102780004C6823F070032343CC6823F44073234345
:102790004E6923F080030C688D68334390420360D8
:1027A000C562846203D002F50062904201D10969DA
:1027B0000163012141610169C90703D0016921F069
:1027C0000101016170BD00BF002C01400004004008
:1027D0000008004000340140000C004010B5036ABE
:1027E000046A24F001040462846924F0F00444EAD9
:1027F0000212826123F00A021143016210BD10B57A
:10280000036A046A24F010040462846924F47044A6
:1028100044EA0232826123F0A00242EA011101621D
:1028200010BDFEE7F8B58DF80F00642001210DF111
:102830000F02012302900D48CDE9002178210022EA
:10284000FEF798F98FBD00BFF8B58DF80F00642032
:1028500001210DF10F02012302900448CDE900216E
:1028600078214022FEF786F98FBD00BF6C0300205F
:10287000144801210160FEF737FAFFF708FFFFF760
:10288000C5FAFFF75DFBFFF77FFBFFF73BFBFFF7A9
:10289000C5FBFFF79DFBFFF797FA0B48FEF748FFD4
:1028A0000A48FEF745FFFFF701FCFFF7DFFBFFF7E4
:1028B00065FA0F484FF400510122FEF7BFF8FFF709
:1028C00035FCFEE7100300201804002060040020FF
:1028D0001CB5F821064CFFF705FD0120FDF7BAFFF6
:1028E00004480DF10501FFF72DFDFFF77FFD1CBD2D
:1028F00000100140C00300200FB47CB50C0009ADEE
:1029000001D0611E00E00021CDE90001064B6A46BE
:102910002946089800F01AF8002C02D0009A0021ED
:1029200011707CBC5DF814FBA12A000802E008C805
:10293000121F08C1002AFAD170477047002001E039
:1029400001C1121F002AFBD1704700002DE9FF4F83
:1029500089B09B460446002506E025280BD05A4640
:102960000B999047641C6D1C20780028F5D10DB0A0
:102970002846BDE8F08F0027B8460122474900E00D
:10298000074314F8013F203B02FA03F00842F7D155
:1029900020782E2819D114F8010F47F004072A28AF
:1029A0000ED06FF02F022078A0F1300109290CD849
:1029B00008EB880102EB410100EB0108641CF2E71F
:1029C0000A98641C50F8048B0A9020780028CED016
:1029D000642808D0692806D075281ED05A460B995D
:1029E00090476D1C58E00A994FF00A0901C90A91F5
:1029F000002802DA40422D2102E0390504D52B21BE
:102A00008DF82010012103E0F90704D02021F7E719
:102A10008A4608AE0DE00021FAE70A994FF00A094C
:102A200001C90A91F7E74946FDF7A4FC303106F8E1
:102A3000011D0028F7D1ADEB060000F12009780751
:102A400001D44FF00108C84502DDA8EB090000E001
:102A500000208046002706E008A85A46C05D0B9972
:102A600090476D1C7F1C5745F6DB04E030205A462A
:102A70000B9990476D1CB8F10001A8F10108F5DC35
:102A800005E016F8010B5A460B9990476D1CB9F1F9
:102A90000001A9F10109F4DC641C65E709280100C3
:102AA0004A68002A06D00A68531C0B6010704868F8
:102AB000401E486070470000000000000000010256
:102AC0000304060708090000000001020304FEFDDC
:102AD000FBF7EFDFBF7F0000000000000000002FC9
:102AE000000000000700070000147F147F1400247A
:102AF0002A7F2A12006264081323003649552250A7
:102B000000000503000000001C22410000004122DB
:102B10001C000014083E08140008083E08080000C5
:102B200000A06000000808080808000060600000BD
:102B3000002010080402003E5149453E0000427F3B
:102B40004000004261514946002141454B31001887
:102B500014127F10002745454539003C4A49493049
:102B60000001710905030036494949360006494903
:102B7000291E00003636000000005636000000080E
:102B800014224100001414141414000041221408EB
:102B900000020151090600324959513E007C1211D0
:102BA000127C007F49494936003E41414122007F65
:102BB0004141221C007F49494941007F090909011F
:102BC000003E4149497A007F0808087F0000417FA4
:102BD0004100002040413F01007F08142241007F56
:102BE00040404040007F020C027F007F0408107FBD
:102BF000003E4141413E007F09090906003E415126
:102C0000215E007F091929460046494949310001E2
:102C1000017F0101003F4040403F001F2040201F36
:102C2000003F4038403F00631408146300070870F9
:102C3000080700615149454300007F4141000055AC
:102C40002A552A55000041417F0000040201020478
:102C50000040404040400000010204000020545465
:102C60005478007F484444380038444444200038B5
:102C70004444487F00385454541800087E09010227
:102C80000018A4A4A47C007F080404780000447DFC
:102C90004000004080847D00007F10284400000038
:102CA000417F4000007C04180478007C080404780C
:102CB00000384444443800FC2424241800182424F8
:102CC00018FC007C080404080048545454200004F4
:102CD0003F444020003C4040207C001C2040201C01
:102CE000003C4030403C004428102844001CA0A078
:102CF000A07C004464544C441414141414140000B4
:102D000000000000000000000000000000000000C3
:102D100000F8000000000000003330000000001048
:102D20000C06100C0600000000000000000040C06F
:102D30007840C0784000043F04043F040400007061
:102D400088FC08300000001820FF211E0000F00859
:102D5000F000E018000000211C031E211E0000F0FE
:102D60000888700000001E21232419272110101646
:102D70000E00000000000000000000000000000045
:102D800000E01804020000000007182040000002C4
:102D90000418E00000000040201807000000404038
:102DA00080F0804040000202010F0102020000009A
:102DB00000F0000000000101011F010101000000FE
:102DC00000000000000080B0700000000000000063
:102DD00000000000000000010101010101010000EC
:102DE0000000000000000030300000000000000083
:102DF000000080601804006018060100000000E078
:102E000010080810E000000F102020100F00001024
:102E100010F8000000000020203F2020000000707B
:102E20000808088870000030282422213000003073
:102E30000888884830000018202020110E0000006B
:102E4000C02010F8000000070424243F240000F8EC
:102E50000888880808000019212020110E0000E0D1
:102E6000108888180000000F112020110E00003873
:102E70000808C83808000000003F0000000000708B
:102E8000880808887000001C222121221C0000E014
:102E900010080810E0000000312222110F0000008D
:102EA00000C0C00000000000003030000000000042
:102EB00000800000000000008060000000000000B2
:102EC000804020100800000102040810200040404B
:102ED000404040404000040404040404040000088E
:102EE0001020408000000020100804020100007043
:102EF00048080808F0000000003036010000C0302B
:102F0000C828E810E0000718272423140B0000004D
:102F1000C038E0000000203C23020227382008F8D7
:102F2000888888700000203F202020110E00C030CB
:102F3000080808083800071820202010080008F8A2
:102F400008080810E000203F202020100F0008F89B
:102F50008888E8081000203F20202320180008F867
:102F60008888E8081000203F200003000000C030DF
:102F700008080838000007182020221E020008F860
:102F800008000008F808203F210101213F20000827
:102F900008F8080800000020203F20200000000062
:102FA0000808F8080800C08080807F00000008F84A
:102FB00088C028180800203F20012638200008F883
:102FC000080000000000203F20202020300008F8EA
:102FD000F800F8F80800203F003F003F200008F804
:102FE00030C00008F808203F200007183F00E0101C
:102FF00008080810E0000F10202020100F0008F82B
:1030000008080808F000203F210101010000E0103D
:1030100008080810E0000F18242438504F0008F862
:10302000888888887000203F2000030C30200070C2
:103030008808080838000038202121221C001808C0
:1030400008F8080818000000203F2000000008F8D9
:1030500008000008F808001F202020201F00087822
:10306000880000C83808000007380E010000F80882
:1030700000F80008F800033C0700073C03000818AC
:1030800068808068180820302C03032C3020083812
:10309000C800C83808000000203F200000001008C9
:1030A0000808C83808002038262120201800000011
:1030B00000FE020202000000007F40404000000CC1
:1030C00030C000000000000000010638C00000020F
:1030D0000202FE000000004040407F0000000000AF
:1030E00004020202040000000000000000000000D2
:1030F00000000000000080808080808080800002CE
:1031000002040000000000000000000000000000B9
:103110008080808000000019242222223F2008F8AD
:10312000008080000000003F112020110E000000F0
:10313000008080800000000E11202020110000007F
:1031400000808088F800000E112020103F20000031
:10315000808080800000001F222222221300008035
:1031600080F0888888180020203F20200000000080
:10317000808080808000006B94949493600008F8B5
:10318000008080800000203F210000203F20008040
:103190009898000000000020203F20200000000040
:1031A00000809898000000C08080807F000008F8B0
:1031B000000080808000203F24022D302000000885
:1031C00008F8000000000020203F20200000808040
:1031D000808080808000203F20003F20003F808052
:1031E000008080800000203F210000203F20000060
:1031F000808080800000001F202020201F00808011
:1032000000808000000080FFA12020110E0000003F
:10321000008080808000000E112020A0FF80808030
:1032200080008080800020203F21200001000000DD
:1032300080808080800000332424242419000080B2
:1032400080E0808000000000001F202000008080BF
:10325000000000808000001F202020103F20808080
:1032600080000080808000010E3008060100808010
:103270000080008080800F300C030C300F00008035
:103280008000808080000020312E0E312000808060
:1032900080000080808080818E7018060100008090
:1032A0008080808080000021302C222130000000AE
:1032B0000000807C020200000000003F404000004F
:1032C0000000FF00000000000000FF0000000002FE
:1032D000027C800000000040403F0000000000062B
:1032E00001010202040400000000000000003F068B
:1032F0005B4F666D7D077F6F18330008000000206C
:10330000100300003C050008703500081003002081
:10331000F00500003C29000832012A1004100F10AB
:10332000D0FF90104242E252CA4642E040130403EA
:1033300012FF400A21104C23184780403F4C80BEAA
:10334000AA0133BF821010048484444424140F144F
:10335000242444C446043B4042012AFE051443622F
:1033600040100880804020100C031008030C10202F
:1033700040C0401008E01008080810E010080F10C6
:10338000202020100F5408F8081B203F101B20306D
:10339000103E8888E80810102C2320182039303976
:1033A000201930151060028C100B84E41C05C6BC7B
:1033B0002424E4041C04047EBB500AFF8241261826
:1033C000294681802B7F4901627F2AFF0C6AFF0713
:1033D000414BFE920142FE180940424458407F4052
:1033E000400415504846404A40C13AC20613404086
:1033F00015201008062B40804D1502040830180BCC
:10340000100C048414640506F4040113140C101049
:10341000048484444724140C070C14244484041E9C
:1034200002FA8282FEF41008504C434C50204010A7
:103430001008184884443F404458414E6058474063
:10344000180F1010F01F10F0403C1010FF1010105B
:10345000802E2215081621752A7F712119E61E0873
:1034600014678444544119663D02FE43438F39B1C9
:103470000111D336362B0282013AFE061A02604948
:103480000129E2290119B024C4B48C2008E4040401
:10349000FE424342180B804428182720404F4848DA
:1034A000031A48802142FF396C190A458040300FC9
:1034B0005A3F103D404042CC554AFF50311B7F20BF
:1034C000C849362118100804F3525652525054532A
:1034D0005256F20202F02D97553D15011CFD1517AD
:1034E000F1171010D0FF90103DFE020202631B0482
:1034F000033A2C83601F631C40407820100E10FF9D
:103500009020984828090E2848A8182D0242817F4B
:10351000751C42427E0412402F40504E4848FFAB7B
:103520005AF87410083E0202FF12221E1D0F40803E
:103530007FA0199F19BE2B92920351100E3F1008C5
:1035400022120A06FF060A122220172424A4FE23B0
:10355000222B3E22011A3EB0180B0601FF01064045
:103560004949497F04224153127A000000000000BB
:0400000508000131BD
:00000001FF
