:020000040800F2
:100000004006002045010008172700084921000884
:100010001527000895090008572D0008000000006A
:10002000000000000000000000000000BD2B0008E0
:100030009709000800000000C32A0008BF2B000831
:100040005F0100085F0100085F0100085F01000810
:100050005F0100085F0100085F0100085F01000800
:100060005F0100085F0100085F0100085F010008F0
:100070005F0100085F0100085F0100085F010008E0
:100080005F0100085F0100085F0100085F010008D0
:100090005F0100085F0100085F0100085F010008C0
:1000A0005F0100085F0100085F0100085F010008B0
:1000B000492C0008512C00085F0100085F0100086E
:1000C0005F0100085F0100085F0100085F01000890
:1000D0005F0100085F0100085F0100085F01000880
:1000E0005F0100085F0100085F0100085F01000870
:1000F0005F0100085F0100085F0100085F01000860
:100100005F0100085F010008592C00085F0100082A
:100110005F0100085F0100085F0100085F0100083F
:100120005F0100085F0100085F0100085F0100082F
:10013000DFF80CD000F0E2FA00480047A52D0008D7
:10014000400600200648804706480047FEE7FEE7D5
:10015000FEE7FEE7FEE7FEE7FEE7FEE7FEE7FEE777
:10016000452C000831010008202A04DB203A21FA3E
:1001700002F00021704721FA02F3D040C2F12002C0
:100180009140084319467047D2B201E000F8012BB4
:10019000491EFBD270470022F6E710B513460A4607
:1001A00004461946FFF7F0FF204610BDF0B480EA80
:1001B0000102D40F4200B2EB410F02D202460846C0
:1001C00011464A0042D0C30DDDB2C1F3C752AD1A89
:1001D000202D35DAC1F3160141F4000204B1524278
:1001E000C5F1200602FA06F12A411044B3EBD05FB4
:1001F00023D0C4B1012DA0EBC35009DCF0BC4FF0FB
:10020000004202EAC352DBB200F5000000F0EAB996
:10021000400000F1807000EBC350A0F1807040EA14
:10022000D170490009E0490841EAC071A0EBC35010
:1002300000F50000400800EBC350F0BC00F0C9B965
:100240006142012202EB4101001BF6E7F0BC70475E
:1002500081F00041AAE780F00040A7E780EA0102B0
:1002600010B502F00043400022D04A001FD0010E1A
:1002700001EB1261C0F35600C2F3560240F40000D5
:1002800042F40002A0FB022000047F39140400D0D5
:10029000401C50EA124001D44000491EC2B20C0674
:1002A00004EBD010401C4008802A02D003E000205C
:1002B00010BD20F00100002900DA0020184310BD15
:1002C0002DE9FE4F804681EA0300C00F0C460090E6
:1002D00021F0004123F00045B8EB0200A94105D20E
:1002E0004046214690461C460B46024623F00040FD
:1002F000104347D0270DC7F30A00C3F30A510290F9
:10030000401A019040286BDAC3F3130040F4801BBD
:100310000098924620B10023D2EB030A63EB0B0B4B
:1003200001985946C0F14002504600F031F90646A6
:100330000D4650465946019A00F039F910EB080075
:100340006141002487EA115284EAE7731A4340D0DE
:10035000009A62B3019A012A4FEA075215DC001B8A
:1003600061EB02014FF0004202EA0752CDE9004280
:10037000001C41F5801132462B4600F070F903B0A5
:10038000BDE8F08F40462146F9E7001B61EB020112
:10039000001C41F5801300185B412018A2F50017DE
:1003A00047EB030140EAD570B6196D4111E06D08C5
:1003B0004FEA360645EAC0754FEA0752001B61EB6B
:1003C0000201001C41F5801149084FEA3000001974
:1003D000514132462B4603B0BDE8F04F00F030B932
:1003E0000098012240000023D0EB020263EBE0738F
:1003F000009821464FEAE074B8EB000061EB04017D
:10040000E9E783F000435BE781F0004158E72DE91D
:10041000FE4F81EA030404F0004421F000410094FF
:100420004FF0000B23F0004350EA01045ED052EA83
:1004300003045BD0C3F30A54C1F30A552C44A4F25D
:10044000F3340194A0FB0254C1F3130141F4801171
:10045000C3F3130343F4801301FB024400FB034E78
:10046000840A970A44EA815447EA8357A4FB076841
:1004700002958D0A05FB07854FEA932C04FB0C546B
:100480002705029D4FEA065847EA1637B5EB0805DF
:100490006EEB070C870E920E47EA811742EA831231
:1004A000A7FB0201B6EB0B0164EB00042B0D43EA42
:1004B0000C335E1844EB1C50DA465146E7FB020150
:1004C000C5F313044FEA0B3343EA14534FEA0432E3
:1004D000019C43EA0603A4F10C040294009CCDE9BC
:1004E00000B400F0BCF803B0BDE8F08F0020014676
:1004F000F9E7002801DBC0F10040002901DBC1F170
:100500000041814201D201207047002070479623AC
:100510000022114600F066B80EB540F23341029158
:100520000021CDE900110A460B4600F098F803B00F
:1005300000BD00F0004230F000400AD0C10D01F5CE
:100540006071C0F3160042EA0151C208400711432E
:10055000704700200146704701F0004330B421F09D
:10056000004150EA010206D00A0DA2F56072C1F303
:100570001301002A02DC30BC00207047440F44EA1B
:10058000C104C100E01830BC00EBC25000F021B83B
:10059000202A04DB203A00FA02F100207047914043
:1005A000C2F1200320FA03F3194390407047202A38
:1005B00006DBCB17203A41FA02F043EAE07306E08B
:1005C00041FA02F3D040C2F120029140084319469B
:1005D00070470029A8BF7047401C490008BF20F0A1
:1005E0000100704710B4B0FA80FC00FA0CF050EA39
:1005F000010404BF10BC704749B1CCF1200421FABA
:1006000004F411FA0CF118BF012121430843A3EBB4
:100610000C01CB1D4FEA00614FEA102042BF0020C1
:1006200010BC704700EBC35010440029A4BF10BC9D
:100630007047401C490008BF20F0010010BC704703
:1006400010B5141E73F1000408DA401C41F10001DA
:1006500092185B411A4301D120F0010010BD2DE931
:10066000F04D92469B4611B1B1FA81F202E0B0FA28
:1006700080F220329046FFF78BFF04460F4640EA97
:100680000A0041EA0B0153465A46084313D011466B
:1006900053EA010019D0C8F140025046FFF764FD4B
:1006A00005460E46504659464246FFF771FF08433D
:1006B00005D0012004E020463946BDE8F08D002039
:1006C000054346EAE0762C4337430A986305E40A7B
:1006D000A0EB08000022FD0A44EA47540A3002D584
:1006E00000200146E9E7010510196941DDE90845E7
:1006F00000196941BDE8F04DA2E700001CB50948AA
:100700000090094801900546009C06E0E06840F032
:10071000010394E8070098471034AC42F6D3FFF782
:100720000BFD0000342F0008542F0008B0B5694CB1
:10073000694D4FF40061012204F58060A84720460E
:100740004FF400610122A84720464FF48061012246
:10075000A84720464FF400710122A84720464FF4D5
:10076000805101222B46BDE8B040184780B559485A
:100770004FF4807100F0F8FBB0FA80F0400980BDC2
:1007800080B500F089F8FFF7F1FF0028FBD0BDE845
:10079000804000F001B800002DE9F04F89B04D4DC8
:1007A000DFF8F0904FF4007105F500642046C8476B
:1007B000089020464FF48071C8470790204680215A
:1007C000C847069020464021C84705F58066059039
:1007D0004FF400413046C847049030464FF4804102
:1007E000C847039030464FF40051C8470290304646
:1007F0004FF48051C847DFF8E0A0019028464FF43D
:1008000000710022D047012000F0C2FA20464FF4C8
:100810000071C847834620464FF48071C847074699
:1008200020468021C847804620464021C8470446CC
:1008300028464FF400710122D04728464FF400614A
:100840000122D04730464FF400610122D04707987B
:100850000899800240EAC120069940EA41200599A2
:1008600040EA0120049940EAC110039940EA81104E
:10087000029940EA4110019940EA011040EACB0098
:1008800040EA870040EA4800204380B209B0BDE852
:10089000F08F00BF690F0008B0B50E4C0E4D4FF43D
:1008A0000061002204F58060A84720464FF40061F3
:1008B0000022A84720464FF480610022A84701206B
:1008C00000F066FA20464FF4806101222B46BDE815
:1008D000B040184700080140830F0008B0B5044637
:1008E00000688168C90701D10020B0BD816821F08E
:1008F0000101816000F04AFB054620688068C0075E
:10090000F2D000F043FB401B0328F6D32068806838
:10091000C007F2D0A06A40F01000A062E06A40F088
:100920000100E0620120B0BDBCB50446002001908A
:1009300021688A68D2072BD1886840F0010088605E
:100940008D488E490068B0FBF1F00190019810B11C
:1009500001980138F9E700F019FB05462068806826
:10096000C0071CBF0020BCBD00F010FB401B0328CB
:10097000F4D320688068C007F0D1A06A40F010006E
:10098000A06202F089F8E06A40F00100E062012014
:10099000BCBD00BFFEE77047EFF3108072B6FEE704
:1009A00081B0009100216A46042904BF01B070475C
:1009B000535C43540131F7E77CB5044600200190B5
:1009C00094F82400012801D1022554E001F09AFF97
:1009D0002046FFF7A9FF0546002849D1A06A41F249
:1009E000021188430230A06263480668022000F0CA
:1009F000B1FCB6FBF0F040000190019810B10198F5
:100A00000138F9E72068816841F00801816000F051
:100A1000BDFA064620688168090709D500F0B6FAD4
:100A2000801B0B28F6D3206880680007F2D513E0FE
:100A3000816841F00401816000F0A8FA0646206850
:100A4000806840070DD500F0A1FA801B0B28F6D373
:100A5000206880684007F2D5012510206FF0120150
:100A600002E001206FF00301A26A11400843A06276
:100A7000002084F8240028467CBD00BF78B5002201
:100A8000009290F82420012A01D1022157E04C68FD
:100A9000012280F82420062C0ED804EB84030A6877
:100AA0001F25053B02FA03F49D4003685E6B26EAAE
:100AB00005052C435C6317E0036804EB84020C2CEF
:100AC00009D8A2F1230401F096FF1E6B26EA040464
:100AD0002C431C6308E0A2F1410401F08CFFDE6AA4
:100AE00026EA04042C43DC6202EB4204092A19D9E9
:100AF00089681E3C0725A14005FA04F4DD6825EA53
:100B000004042143D96022F00101102913D11949AD
:100B1000A1F10804A34214D0816A41F0200181624E
:100B2000012109E007221D698968A24025EA020225
:100B3000A140114319610021002280F824200846B9
:100B400078BD0B681B02F6D40B68102A43F400032F
:100B50000B60F0D10849094A0968B1FBF2F101EBD9
:100B600081014900009100990029E4D000990139E0
:100B7000F8E700BF082401403000002040420F0089
:100B8000806A70470068C06C70470000E8B3F8B531
:100B90000446806A28B901F07FFFE062204600F039
:100BA0007BF82046FFF79AFEA26AA16A78BB12F092
:100BB00010002CD141F2021021EA00000230A062A4
:100BC00094E80700531EB3FA83F35D091346B2F5A8
:100BD000807F18BF2B022C4DE669454086F44027E4
:100BE0003D4308BF4FF400263143257B267D41EA73
:100BF0004501012E14D175B1A56A45F02005A56205
:100C0000E56A45F00105E5620AE00120704741F020
:100C10001000A06235E0A56903EB4533A3F5C0538E
:100C2000456825F469452B43184D436083682B4084
:100C30000B43B2F5807F836001D0012A04D1226981
:100C4000134B03EB025200E00022C36A23F470034B
:100C50001A43C2620F4A80681040884207D10020C0
:100C60000122E062A16A62F30101A162F8BDA06AFB
:100C700040F0100020F00200A062E06A40F00100A5
:100C8000E0620120F8BD00BF003C0140FDF7E1FF3C
:100C90000000F0FFFE0E1FFFFEB501460020CDE96B
:100CA0000400CDE902001148096800F5E0529142C4
:100CB00019D1A5490A6842F400720A600A6802F470
:100CC00000720192019A0A6842F004020A600968FF
:100CD00001F0040101910321039101210291019985
:100CE00002A900F067F806B080BD00BF000801400F
:100CF000B0B501F0B5FD04BF0220B0BD01F08EFD1E
:100D000008B101F0D9BE2068A16A40F201329143D6
:100D100001F58071A1621D4901F57F72904205D0F5
:100D2000A36A23F48013A362436808E00B6813F4FA
:100D3000702FF5D0A36A43F48013A3620B685B05A0
:100D400004D5A36A012565F30D33A362A36A0025C8
:100D5000DB0444BFE56A25F00605E5626FF0020595
:100D60000023056001F024FE09D1904203D0816880
:100D700041F4A00106E0096811F4702FF7D08168F2
:100D800041F4801181600020B0BD00BF0424014007
:100D9000B0B5044600F0FAF805460548611C007835
:100DA00018BF044400F0F2F8401BA042FAD3B0BDD3
:100DB000080000202DE9FC4F81465F4806234FF0D4
:100DC000000C4FF001084FF00F0E4FF0000A814564
:100DD0005A4808BF052348444FEAB022052A38BFC5
:100DE0004FEAB023009300220C6834FA02F508BFE2
:100DF000BDE8FC8F08FA02F714EA070500F09880B6
:100E00004C68032C16D9112C26D0122C32D04F4806
:100E1000844213D04E48844210D04E4884420DD0B4
:100E20004D4884420AD04D48844207D04C48844201
:100E300004D022E0DFE804F0021B14188C6844B1EF
:100E4000012C14BFC9F81470C9F810704FF0080ACB
:100E500013E04FF0040A10E0CC6804F1040A0CE03F
:100E6000CC6804F1080A08E04FF0000A05E0D1F868
:100E70000CA002E0CC6804F10C0A64464846B5F5C3
:100E8000807F28BF203C28BF043006680EFA04F794
:100E90000AFA04F4BE4334430460C879C00647D557
:100EA000DA4B274F22F003061868BB463E4440F059
:100EB0000100186018682B4B00F0010001900CF045
:100EC0000C00019F0EFA00F49E46F758009B03FAAF
:100ED00000F027EA04041B4B204346F80E004FF0B5
:100EE0000F0E4F68F802DBF8080054BF20EA050433
:100EF00040EA0504CBF80840B802186854BF20EA5D
:100F0000050440EA05041C60B803DBF8040054BF84
:100F100020EA050440EA0504CBF80440F803DBF8B6
:100F2000000054BF20EA050440EA0504CBF8004065
:100F30000CF1040C013257E7001C014000F8FEBF21
:100F4000000401400C040140181002400000111080
:100F500000001210000021100000221000003110CB
:100F60000000321008FCFFFF8068084018BF012015
:100F70007047C26802EA0103914341EA03410161FB
:100F80007047002A08BF090401617047A64800683D
:100F9000704700BF10B3F8B5044690F83D0020B983
:100FA00001F086FD204600F0FFF801F053FD0168D6
:100FB00041F400410160016821F40041016000F04A
:100FC00051FB6368384A394993423CBF48F280413B
:100FD000C0F21E01884203D20120F8BD01207047F3
:100FE00033494FF47A77B0FBF1F521684E6826F06B
:100FF0003F062E434E604FF496766E43934228BFD1
:10100000B6FBF7F56A1C0D6A25F03F052A434CF63E
:10101000FF750A62CA69AA43264DAB420AD85B0033
:101020000138B0FBF3F001306FF31F30042898BF94
:10103000042013E0A56801383DB119256B4301F088
:1010400024FD0AD000F5804004E003EB430301F0E7
:101050001CFD02D000F5004000E00120104304F127
:101060000C06C861E0690A6822F0C0021043226AD7
:10107000104348F2FF320860886890436CCE1843F2
:1010800010438860C86820F0FF0028433043C860E0
:1010900001F0C6FC00202021206484F83D1020636C
:1010A00084F83E00F8BD00BFA186010000093D00A4
:1010B00040420F00A08601002DE9FE43994601F051
:1010C0008EFC054601F02DFC0AD13549204601224F
:1010D0001923009501F0CCF810B901F002FC02D1FF
:1010E0000220BDE8FE8301220DF1280801F0BBFCBF
:1010F00003D1136843F001031360136823F4006302
:10110000136021224B4601F060FC26493246608D77
:10111000E162394620852046CDE9008501F02EF8B0
:1011200010B10120BDE8FE83218D080422D02046A5
:1011300041462A4601F0F7F810BB606A2268014672
:1011400011F8013B1361638D013B63856162238D5F
:10115000591E218556697607E7D509044FF000012D
:10116000E3D0417802301161991E6062218501F05F
:101170003EFCDAE7204641462A4601F059F830B1F4
:10118000206C0428CDD1206801F093FBC9E72068CA
:10119000016841F40071016001F0C7FBBDE8FE8306
:1011A000020010000000FFFF10B586B000210068AB
:1011B000CDE90411CDE902111349884222D1424CF4
:1011C000206840F008002060206800F008000190CE
:1011D00003200590122003904FF440700290019874
:1011E00002A90B48FFF7E6FD38480A4A0168114397
:1011F0000160606840F400106060606800F40010F6
:101200000190019806B010BD005400401810024033
:10121000000C0140020000071B48034900780A68DF
:1012200010440860704700BF3802002080B50748AE
:10123000016841F010010160032000F07BF80F20ED
:1012400000F006F800F024F8002080BD00200240E5
:1012500070B50D4E04464FF47A713078B1FBF0F062
:101260000A490968B1FBF0F000F0E2FC01250F2CFF
:1012700008D838B94FF0FF3021460022002500F091
:1012800033F87460284670BD08000020300000204C
:1012900082B00D480222016841F00101016001683D
:1012A00001F0010101910199416841F080514160D3
:1012B000406800F08050009000980448016862F394
:1012C0001A61016002B0704718100240040001402A
:1012D000002805D4734601F0AEFA9E46014A8850B4
:1012E000704700BF00E100E0F0B5184B4FF0FF364B
:1012F0001C68C4F30224E51E84F0070438BF0025EF
:1013000006FA05F7BA43042C28BF042406FA04F4AD
:10131000A14300F00F04A940043C1143044A2344B4
:1013200009010244002848BF03F10C021170F0BD0E
:1013300000E400E005494FF6FF030A681A4060F335
:101340000A22034810430860704700BF0CED00E01C
:101350000000FA050146421E0020072A07D8DFE8F0
:1013600002F0152937043737370400F093B91029F4
:101370002ED126494A680868C00119D5C2F38340B6
:1013800023A3D203185C30D4D64A36E01F49086A3A
:1013900000F44072B2F5407F20D0B2F5007F18D043
:1013A000B2F5807F02BF4FF4004101EA8030704700
:1013B0000020704780B500F05FF9144902224968A7
:1013C000C1F3813102EB4101B0FBF1F0BDE8804097
:1013D0007047486A49F64041800703E008684FF2C9
:1013E0002441800301EAE07070474A680CA3C2F30D
:1013F00040429A5CB54BB3FBF2F249685043490254
:10140000E6D440000321B0FBF1F070470010024029
:1014100002030405060708090A0B0C0D0E0F101035
:10142000010200002DE9FC4104460078A64EC007E9
:1014300043D0B0695FEAC00808D4B06940F080507A
:10144000B061B06900F08050019001982C4F38686D
:10145000C00511D4386840F480703860FFF796FDFD
:1014600005463868C00507D4FFF790FD401B642887
:10147000F7D90320BDE8FC81F06910F440700FD06B
:10148000616801F4407188420AD01E49F069012266
:101490000A6000220A6020F44071C007F16120D187
:1014A0006068F16921F440710843B8F1000FF06100
:1014B00003D4B06920F08050B0612068810705D561
:1014C000A168326822F4404211433160C00605D55C
:1014D0006069316821F48001084330600020BDE874
:1014E000FC81FFF753FD054641F28837F06980071C
:1014F000D6D4FFF74BFD411B0320B942F6D9EEE7E6
:101500000070004040044242002873D02DE9F843A7
:101510000D4651490446086800F00700A84209D268
:10152000086820F0070028430860086800F00700FA
:10153000A8426BD1206889468107634988461AD53D
:10154000410706D5D8F80010424641F4E061C8F8DA
:101550000010010706D5D8F80010424641F460514A
:10156000C8F80010A168D8F80020434622F0F00225
:101570001143C8F80010C0073ED1D9F8000000F0B0
:101580000700A8420CD9D9F8000020F00700284332
:10159000C9F80000D9F8000000F00700A84235D1D2
:1015A0002068410708D5E168D8F80020434622F4B6
:1015B000E0621143C8F80010000709D52069D8F887
:1015C0000010424621F4605141EAC000C8F8000012
:1015D00000F060F8D8F80010204AC1F30311515C04
:1015E000C8402A4908601E480068FFF731FE002005
:1015F000BDE8F88301207047404658F8041C606835
:10160000022806D0012823D1890304D40120BDE893
:10161000F8838901FAD5D8F8001021F003010843B6
:10162000C8F80000FFF7B2FC064641F28837414691
:101630006068D8F8001001F00C01B1EB800F9CD06D
:10164000FFF7A4FC801BB842F1D90320BDE8F88362
:101650008907DBD5DFE700BF00200240FA2E000833
:101660000C000020E3481849094A00680968C1F3E2
:101670000221515CC8407047DE481349044A0068A3
:101680000968C1F3C221515CC84070473000002096
:101690000A2F000810B50C490C480A6802F00C0328
:1016A000082B07D1C2F3834309A4D203E35C02D41D
:1016B0000C48584310BD096809A25843C1F3404182
:1016C000515CB0FBF1F010BD0410024000127A0032
:1016D00002030405060708090A0B0C0D0E0F101073
:1016E0000102000000093D00002843D02DE9FC4123
:1016F00004460078BD4EC0070BD0706800F00C00A7
:10170000042839D13068800303D56068002800F0D0
:10171000B6802078800717D5706810F00C0F05D0C0
:1017200001F0A3F842D17068C0033FD4306880074D
:1017300003D52069012840F0A2806069316821F05A
:10174000F80141EAC0003060207800075ED5A0694A
:1017500000283ED0A6480121C0F88014FFF716FCEF
:101760000546706A800744D4FFF710FC401B02282E
:10177000F7D902E10120704701F077F802D17068D3
:10178000C003BFD462683068002A20F4803100F0C2
:10179000F780B2F5A02F00F0DD80B2F5803F00F0B9
:1017A000DD803160306820F48020D9E021699048E4
:1017B000002900F08F8001210160FFF7E7FB05465B
:1017C00030688007B9D4FFF7E1FB401B0228F7D946
:1017D000D3E087480021C0F88014FFF7D7FB054607
:1017E000706A800712D5FFF7D1FB401B0228F7D99A
:1017F000C3E080484FF4FA510068B0FBF1F001906B
:1018000000BF0198411E00280191F9D120784007BE
:1018100014D4E7697FB101F028F83ED1012F2ED012
:10182000216A706800F480328A4228D1616A00F42B
:101830007010884223D10020BDE8FC81F0695FEA86
:10184000C00808D4F06940F08050F061F06900F001
:10185000805000900098684F3868C00512D43868EE
:1018600040F480703860FFF791FB05463868C0058A
:1018700008D4FFF78BFB401B6428F7D97DE00120DB
:10188000BDE8FC81E168306A002948D0052931D0E3
:10189000012933D000F0C8FF32E0554900208846C6
:1018A0000866FFF773FB0546022F09D130688001F7
:1018B00079D5FFF76BFB411B03200229F6D9BBE763
:1018C00030688001B7D5FFF761FB411B0320022977
:1018D000F6D9B1E700210160FFF758FB05463068F3
:1018E00080077FF531AFFFF751FB411B0320022931
:1018F000F5D9A1E740F004003062306A40F0010001
:101900003062FFF743FB054641F28837306A8007B3
:1019100017D4FFF73BFB401BB842F7D92DE000F08E
:1019200083FF3062FFF732FB054641F28837306AA9
:10193000800706D5FFF72AFB411B0320B942F6D9E1
:101940007AE7B8F1000F3FF564AFF06920F08050FE
:10195000F0615EE740F480203060306840F4803011
:101960003060FFF713FB0546306880033FF5D1AECA
:10197000FFF70CFB401B6428F6D90320BDE8FC816F
:101980003160306820F480203060FFF7FFFA0546B0
:10199000306880037FF5BDAEFFF7F8FA411B0320E6
:1019A0006429F5D948E7206AB0F5803F05D1A168E0
:1019B000726822F4003211437160616A726822F425
:1019C00074121143084370600120C8F86000FFF7EB
:1019D000DDFA0446306880013FF52DAFFFF7D6FAF7
:1019E000011B03200229F5D926E700BF00100240A1
:1019F00000004242300000200070004070B530B15D
:101A00000446406A28B100202061142006E0012528
:101A100046E06068B0F5827F02D01C200021215092
:101A20000025A56294F8510020B9204684F8505052
:101A300000F038F8022084F8510094E80F0001F417
:101A4000827102F404420668114403F400621144F6
:101A500026F040060660226902F002021144626923
:101A600002F001021144A26902F400731944E3690F
:101A700003F038031944236A03F080031943A36A6F
:101A800003F4005319430160042101EA124141604B
:101A9000C16921F40061C1610120656584F85100CC
:101AA000284670BD70B586B0194C00680026CDE997
:101AB0000466CDE9026604F52051884225D1154817
:101AC000016841F480510160016801F48051019185
:101AD0000199016841F004010160006800F0040010
:101AE00001900320059002200390A020029001980D
:101AF00002AD20462946FFF75DF940202946CDE991
:101B0000036602902046FFF755F906B070BD00BF8E
:101B100000080140181002402DE9FC411D46164600
:101B20000F460446FFF732FA804694F85100012828
:101B300004D137B12EB100F006FF05D10220BDE877
:101B4000FC810120BDE8FC810320012184F85100C3
:101B500000206065E68684F85010A6862763A0877B
:101B6000A063C4E91000E087A1682068B1F5004FC8
:101B700007D1016821F040010160016841F4804112
:101B800001600168490601D400F0C2FEE2686168A4
:101B9000B2F5006F1CD109B1012E01D100F0A5FEF4
:101BA0006E1CE08E70B300F0B8FE08D4FFF7EEF9BB
:101BB000002EF6D0A0EB0800A842F2D335E0216B4E
:101BC00031F8022BC2602163E08E0138E086E8E73D
:101BD00009B1012E02D1397800F062FF6E1CE08E4F
:101BE00080B100F09AFE08D4FFF7D0F9002EF6D0AD
:101BF000A0EB0800A842F2D317E0216B097800F0AF
:101C00004FFFECE720462946424600F05BFF08B153
:101C100020206065A06810B9002000F02BFE00F0C5
:101C2000A3FE18BF0120BDE8FC8100F04CBE0000FF
:101C3000411E0020B0EB116F1CBF01207047044A09
:101C4000F023516003490B700721906011607047C9
:101C500010E000E023ED00E07047704790F83C3062
:101C60000222012B29D010B580F83D2002680B68B4
:101C7000546824F070041C439368B2F1804F5460A0
:101C80000ED04D4CA2420BD04C4CA24208D04C4C32
:101C9000A24205D04B4CA24202D04B4CA24204D1EE
:101CA000496823F08003194391600022012180F8E4
:101CB0003C2080F83D10BDE810401046704700BF42
:101CC00058B110B500F07CFE03D100F037FE00F0F3
:101CD00007F800F0D3FE00F0D5BD012070470000EA
:101CE0001FB500683649884221D03349884211D057
:101CF000B0F1804F18BF1FBD18481C24016841F087
:101D0000010101600121006800F0010003900398C7
:101D10001C2019E011481D24016841F002010160F6
:101D2000006800F00200029002981D200BE00B48B2
:101D30003224016841F008010160006800F00800E9
:101D400001900198322000210022FFF7CDFA2046B1
:101D500004B0BDE81040FFF7BBBA00BF1C10024042
:101D600090F83D1001291CBF01207047022180F826
:101D70003D100068C168B0F1804F41F00101C160C1
:101D80000ED00D4988420BD00C49884208D00C492E
:101D9000884205D00B49884202D00B49884204D1C1
:101DA000724600F08BFD964603D0724600F094FD1B
:101DB00096460020704700BF000400400008004025
:101DC000000C004000340140002C014010B500F030
:101DD000E9FD54D084F83D0001204FF6777384F874
:101DE0003C00206882689A4382600A68C2B1102A67
:101DF00016D0202A14D0302A12D0402A33D0502AAC
:101E000028D0602A13D0B2F5005F1CD0B2F5805FF5
:101E100032D0702A1CD100F09AFD41F077012AE0FF
:101E2000816821F07001114341F0070123E04B6804
:101E3000CA68194600F07DFF2068816841F067019B
:101E400021F0100117E000F082FD41F4804112E022
:101E5000012012E000F0F0FD2068816841F0570198
:101E600021F0200107E000F0E7FD2068816841F0E3
:101E7000470121F030018160002000F0D6FD10BD47
:101E8000704770B504460068C5680669B10710D58B
:101E9000A9070ED56FF00201016101212177806948
:101EA000800702D000F0A0FD01E000F066FD0020F8
:101EB0002077700712D5680710D520686FF00401ED
:101EC000016102212177806910F4407F02D000F087
:101ED0008BFD01E000F051FD00202077300711D587
:101EE00028070FD520686FF00801016104212177D0
:101EF000C069800702D000F077FD01E000F03DFDF1
:101F000000202077F00612D5E80610D520686FF083
:101F10001001016108212177C06910F4407F02D0CF
:101F200000F062FD01E000F028FD00202077F007BE
:101F300008D0E80706D020686FF001010161204653
:101F400000F026F8300608D5280606D520686FF080
:101F5000800101612046FFF77FFE700608D5680604
:101F600006D520686FF040010161204600F09EF820
:101F7000B00601D5A80600D470BD20686FF020011E
:101F800001612046BDE87040FFF767BE70477047AB
:101F9000F8B504463B48844206D03B4884420AD008
:101FA0004048844241D0F8BD5D484FF40051BDE83F
:101FB000F840FEF7DEBFFC4E354F42F20F7330683B
:101FC00001303060314801684A1C9942C8BF012283
:101FD00002603868FEF7ADFA2E4A2F4BFEF770F913
:101FE000FEF7BAFA2D490546FEF783FA002818BF16
:101FF0002846386000200021072925D056F82120E6
:102000000A2A06DB06EB810246F8210053680133F9
:102010005360F2690A2A06DB0022082A03D046F838
:1020200022000132F9E70131E6E71F4C2068013058
:10203000206000F099F92068C11700EB517121F080
:102040000701401A2060F8BD15483022C1790131DE
:10205000C17100210729A3D081F00703C55C3A2D87
:1020600004D3C254431A9D7901359D7103783A2BEC
:1020700005D30023082B02D0C2540133FAE7013103
:10208000E8E700BF540100209C0100202C02002042
:10209000300200209A9999999999B93F00007A44A1
:1020A00050000020E40100203402002070470000AE
:1020B00010B51B4C4FF4806100222046FEF761FFF3
:1020C0000120FEF765FE20464FF480610122FEF7F5
:1020D00058FF0120BDE81040FEF75ABE2DE9F84335
:1020E00004460F480F4D00278146A0F50068072FD2
:1020F00088BFBDE8F883E0B24FF40041C209404612
:10210000A84748464FF4006100224E46A84748467B
:102110004FF400610122A84701376400E7E700BFE0
:1021200000100140830F000870B50C4605460026DC
:10213000F0B2A04204D2285CFFF7D0FF0136F7E7E7
:10214000BDE87040FFF7B4BFFEE70268516949057A
:102150004FF000010FD56FF48063536120220163BB
:1021600080F83D2080F83E1080F83C10016C41F072
:102170000401016401210846704700002DE9FE4377
:10218000044600680E460A9D0B9F99469046002221
:1021900001682B4641F48071016020464FF0011127
:1021A00000F069FC48B120680068C00544BF4FF4E6
:1021B000007020640320BDE8FE83206806F0FE0165
:1021C0002A463B4601611949204600F07CF810B1CF
:1021D0000120BDE8FE8300203A4602902068416954
:1021E00002912946806902900298204600F09BF8EF
:1021F00030B1206C0428EBD1206800F05AFBE7E7EF
:102200002068B9F1010F0AD04FEA18213A4601615E
:102210002046294600F087F80028EAD120685FFAB6
:1022200088F101610020BDE8FE8300BF02000100CB
:10223000F8B515460E4604464F1C20684069400715
:1022400044BF0020F8BD2046FFF77FFF70B9002F84
:10225000F3D0FEF79BFE401BB04201D8002EECD11C
:10226000206840694007E8D400F0CCFB0120F8BDAD
:102270002DE9F047DDF8209004469846164601F413
:102280007F0018278DB203F1010AB0F5803F08BF27
:10229000142700F0D6FB13D1BAF1000FF9D0FEF7E6
:1022A00075FEA0EB0900404502D8B8F1000FF0D14F
:1022B00000F0C7FBEDD100F0A5FB0120BDE8F087E1
:1022C0000020BDE8F0872DE9F04198461646044607
:1022D0008FB2551C206841693940B94213D0416919
:1022E000490513D4002DF5D0FEF750FEA0EB0800F1
:1022F000B04201D8002EEDD1206840693840B84284
:10230000E8D0202008E00020BDE8F08100F0D1FAFC
:102310006FF480614161042000F039FB08432064C0
:102320000120BDE8F081F8B515460E4604464F1C65
:1023300020684069000644BF0020F8BD2046FFF732
:1023400004FF70B9002FF3D0FEF720FE401BB0420F
:1023500001D8002EECD1206840690006E8D400F0D6
:1023600051FB0120F8BD00002DE9FC41DFF834806D
:102370000D4F0E4E00250DF10604082D08BFBDE8D7
:10238000FC8185F00700022118F800008DF8060096
:1023900057F82500305C8DF807002046FFF7C4FE93
:1023A0000135EAE7122F0008580000201A2F000814
:1023B00070B5104D104E002000212A68B0470F481C
:1023C0000F4C01682068FEF7EBFA2268012000211B
:1023D000B0476A6802200021B0470A480168606877
:1023E000FEF7DEFA6268032000213346BDE8704044
:1023F000184700BF0000002009240008400000200A
:10240000440000203C00002010B51446064A02EBB0
:10241000C000405C00F040FD207818B100F04CFD99
:102420000134F9E710BD00BF100000200F49002063
:102430003022082802D00A540130FAE7B0B50C4D1A
:102440003220A8470B4C3020A0470220A84702208A
:10245000A8470C20A0470120A8470220A847012038
:10246000A04702202946BDE8B040084750000020A0
:10247000910D0008992E0008BFB50E484FF4602159
:1024800000240125C1610C49047505730561846050
:10249000C0E90014FEF77AFB08B1FEF77DFA0548A3
:1024A0000394CDE9014501A9FEF7E8FA08B1FEF76A
:1024B00073FABFBD78000020002401402DE9F04FE1
:1024C00085B000243748394E002242F61E4BCDE934
:1024D0000344CDE90144016841F010010160016845
:1024E00001F0100100910099016841F020010160A4
:1024F000016801F0200100910099016841F0040198
:102500000160016801F0040100910099016841F047
:102510000801016042F61E41006800F008000090CA
:102520000098214800F5006580462846B04708F528
:10253000806740F6380100223846B04740464FF4E5
:102540001E410022B0474FF002094FF0010A284611
:10255000CDE901BACDE9034901AEDFF854B0314607
:10256000D84740F6380000F074F93846D8474FF4A1
:10257000704000F041F93846D8474FF4707000F0D1
:102580003BF92846D8474FF4807000F035F94046B3
:10259000D8474FF41E4000F05CF94046D84705B0DC
:1025A000BDE8F08F1810024000080140830F0008BA
:1025B000B50D000810B50B480B4B0C4C00214FF427
:1025C0008042C0E90043C0E90211C0E90421C0E92A
:1025D00006110162FEF7DEFC18B1BDE81040FEF7FF
:1025E000DBB910BDA8000020A08601000054004007
:1025F000B0B50E4800210A240D4B4FF482724FF4FF
:102600000075C0E90A141024C0E90811C0E90032BD
:10261000C0E90211C0E90411C0E90654FFF7EEF960
:1026200018B1BDE8B040FEF7B7B9B0BDFC0000205E
:102630000030014010B586B00F4800214FF4E15240
:1026400042F210734FF0804400F0DBF808B1FEF75F
:10265000A3F94FF480500290074802A9FFF7B6FB98
:1026600008B1FEF799F904486946FFF7F7FA08B18F
:10267000FEF792F906B010BD5401002010B586B0E7
:102680000F48104C00214FF4347242F2107300F0E6
:10269000B8F808B1FEF780F94FF48050029008486E
:1026A00002A9FFF793FB08B1FEF776F904486946E3
:1026B000FFF7D4FA08B1FEF76FF906B010BD00BFFE
:1026C0009C0100200004004010B586B00F48104C5B
:1026D00000214FF4347242F2107300F092F808B106
:1026E000FEF75AF94FF480500290084802A9FFF70C
:1026F0006DFB08B1FEF750F904486946FFF7AEFAE2
:1027000008B1FEF749F906B010BD00BFE401002092
:10271000000C0040FEE7FEE7002000F001B80000DA
:10272000F8B52D4E04460025E8B2072888BFF8BD4D
:1027300045F0B000C0B2B04700200027B0471020DD
:10274000B04778B2002804D4204600F017FB0137C8
:10275000F7E70135E8E700BF10B5C820FEF718FB22
:102760001D4CAE20A0472020A0471020A047B0203D
:10277000A047C020A0470020A0471020A04740202D
:10278000A0478120A047FF20A047A020A047A62067
:10279000A047A820A0473F20A047A420A047D320BF
:1027A000A0470020A047D520A047F020A047D9206F
:1027B000A0472220A047DA20A0471220A047DB2014
:1027C000A0472020A0478D20A0471420A047AF207D
:1027D0002146BDE810400847592D000801228DF818
:1027E0000510010100F0F0008DF807108DF80600CB
:1027F00020461021FEF7C5BB3146CDE902440190C9
:1028000070470591CDE90311CDE900118161C0E95F
:102810000043C0E902120161FFF752BA012084F8B7
:1028200024002046FEF780B820F001003062306AB4
:1028300020F0040070471C21012201EAD00100F0C1
:102840001F0002FA00F0704703224FF47A73FFF77B
:1028500063B93146CDF81090CDE902A401907047DC
:10286000044690F8240001287047706800F00C00BE
:102870000828704701902068C16801918068019024
:1028800001987047012084F8460084F83E0084F8DF
:102890003F0084F8400084F8410084F8420084F846
:1028A000430084F8440084F8450084F83D0000208B
:1028B00010BD016841F4007101607047816801F04A
:1028C000070106297047002084F85000012084F891
:1028D00051000320BDE8FC81016841F00101016065
:1028E000704794F83C000128704737F8021BC1601C
:1028F0002763E08E0138E0867047204610210022D1
:10290000FEF73FBB012084F824002046FDF7E6BF18
:10291000016841F0400101607047206881688907C3
:10292000704794F83D0020287047202084F83D002F
:10293000002084F83C0084F83E007047002084F8B2
:102940003C002046704794F8500001287047D1E9B8
:102950000123C9681A4342EA0121826822F47F42B6
:102960001143816081687047012084F85100002084
:1029700084F85000606D002870474DF808ED20463F
:10298000FFF704FB20465DF808EBFFF700BB0021D2
:102990002022216384F83D2084F83E1084F83C1006
:1029A000216C704790F83C2004460220012A7047B1
:1029B00084F82430836803F46023B3F5602F7047F4
:1029C000044690F83D000028704784F83D204022DE
:1029D00084F83E20002222646185606270471646BA
:1029E0000F460446FEF7D2BA2046FFF749BA608D7B
:1029F0000138608570470A681F2602FA04F506FA56
:102A000004F4704700202021206384F83D1084F8EE
:102A10003E0084F83C00206C40F0200020647047A9
:102A2000086840F0010008607047002184F83C10FD
:102A3000012184F83D1070474B68CA68194600F0C0
:102A400067B92068C0592840401BB0FA80F040099F
:102A5000B0427047242084F83D002068016821F0CE
:102A600001010160704784F83C20226898E8030166
:102A70001368DB0770470097FFF7FABB0220211DA0
:102A800084F83D00206800F0EDB8B0FBF3F00130B1
:102A90006FF31F3000287047002084F8240070472F
:102AA0000173206B01302063E08E0138E0867047AF
:102AB000002084F83C007047002084F824000120A6
:102AC000B0BD70477CB50D4616460092022101222A
:102AD00004462B4600F012F840B92046802100221F
:102AE0002B460096002600F009F820B1606D032601
:102AF00040F02000606530467CBD00002DE9F843C1
:102B0000089F1C4615460E468046FEF73FFA381AC7
:102B10000719FEF73BFA8146274801340068C0F3E5
:102B2000CB3078430090D8F8000081683140891B91
:102B3000B1FA81F14909A9420FD0002CF5D0FEF776
:102B400025FAA0EB0900B8420AD200980099013991
:102B50000091002808BF0746E5E70020BDE8F8839C
:102B6000D8E900014268B1F5827F22F0E0024260BC
:102B70000BD1D8F80810B1F5004F02D0B1F5806F35
:102B800003D1016821F040010160D8F82810B1F5A7
:102B9000005F07D1016821F400510160016841F430
:102BA00000510160002088F85000012088F8510091
:102BB0000320BDE8F88300BF300000207047FEF717
:102BC0002BBBB0B596B000241421CDE91144CDE95A
:102BD0000F4401A80430FDF7DEFA4FF4E01002259F
:102BE00001210E9415904FF480301395109114909C
:102BF000CDE90C100CA8FEF777FD18B1EFF31080AB
:102C000072B6FEE74FF480600B940221CDE90940D3
:102C10000F20CDE9070507A8FEF776FC18B1EFF302
:102C2000108072B6FEE74FF400400390022001903E
:102C300001A8FEF7F7FB18B1EFF3108072B6FEE7BC
:102C400016B0B0BD704700008C48FFF71AB900BF3E
:102C50008B48FFF716B900BF0148FFF712B900BF54
:102C6000E401002070B5254A0368904222D0B0F1FB
:102C7000804F0BD0224CA04208D0224CA04205D05D
:102C8000214CA04202D0214CA04203D14C6823F039
:102C900070032343B0F1804F10D0194CA0420DD0E7
:102CA000184CA0420AD0184CA04207D0174CA042A2
:102CB00004D007E04C6823F070032343CC6823F46E
:102CC000407323434E6923F080030C688D683343BF
:102CD00090420360C562846203D002F500629042B4
:102CE00001D109690163012141610169C90703D06B
:102CF000016921F00101016170BD00BF002C01409C
:102D0000000400400008004000340140000C004076
:102D100010B5036A046A24F001040462846924F093
:102D2000F00444EA0212826123F00A0211430162B4
:102D300010BD10B5036A046A24F0100404628469AB
:102D400024F4704444EA0232826123F0A00242EA91
:102D50000111016210BDFEE7F8B58DF80F00642087
:102D600001210DF10F02012302900D48CDE9002150
:102D700078210022FEF7A0F98FBD00BFF8B58DF8CD
:102D80000F00642001210DF10F020123029004487D
:102D9000CDE9002178214022FEF78EF98FBD00BFDA
:102DA000A8000020334801210160FEF73FFAFFF739
:102DB00008FFFFF783FBFFF71BFCFFF73BFCFFF768
:102DC000F9FBFFF781FCFFF759FCFFF755FB2A4C95
:102DD0002046FDF7F1FD2948FEF7C2FF2848FEF71F
:102DE000BFFFFFF7B9FCFFF797FCFFF71FFB394860
:102DF0004FF400510122FEF7C4F82046FDF778FF9A
:102E0000FDF794FC20491F4E214F224D6420884637
:102E10001E498946FDF7BCFF2046FDF7B1FE80053F
:102E200001D4308803E02046FDF7ACFE308080B24C
:102E3000FDF772FB4FF066324346FDF7E8FA0022D9
:102E40004B46FDF7E4FAFDF787FB7060FFF7B0FA39
:102E5000FDF796FC7080FDF75AFB4FF06651FDF7C9
:102E6000FDF93946FDF7FAF92946FDF79FF9B060FB
:102E70003220CFE74C0000207800002054010020D1
:102E80009C0100203800002066660A400000303FA8
:102E9000000020410000A0C01CB5F8210D4CFFF738
:102EA0009DFC0120FDF774FF0B480DF10501FFF7B4
:102EB000CBFCFFF722FD1CBD1CB5FA21054CFFF72A
:102EC0008DFC05480DF10501FFF7BEFCFFF715FD70
:102ED0001CBD00BF00100140FC00002002E008C83B
:102EE000121F08C1002AFAD170477047002001E084
:102EF00001C1121F002AFBD1704700000000000032
:102F00000000010203040607080900000000010296
:102F10000304FEFDFBF7EFDFBF7F3F065B4F666DEF
:102F20007D077F6F4144313637343A004144433A9C
:102F300000000000582F00080000002038000000AA
:102F4000DC2E0008902F0008380000200806000042
:102F5000EC2E000800000000242F00082C2F000891
:102F60000100000010000000808182838485868734
:102F7000909192939495969788898A8B8C8D8E8F59
:102F800098999A9B9C9D9E9F00127A0000000000D9
:0400000508000131BD
:00000001FF
