:020000040800F2
:100000001809002045010008771B00084716000862
:10001000751B00086F0500082F260008000000006F
:10002000000000000000000000000000B1210008F6
:100030007105000800000000B7200008B321000887
:100040005F0100085F0100085F0100085F01000810
:100050005F0100085F0100085F0100085F01000800
:100060005F0100085F0100085F0100085F010008F0
:100070005F0100085F0100085F0100085F010008E0
:100080005F0100085F0100085F0100085F010008D0
:100090005F0100085F0100085F0100085F010008C0
:1000A0005F0100085F0100085F0100085F010008B0
:1000B00019220008252200085F0100085F010008DE
:1000C0005F0100085F0100085F0100085F01000890
:1000D0005F0100085F0100085F0100085F01000880
:1000E0005F0100085F0100085F0100085F01000870
:1000F0005F0100085F0100085F0100085F01000860
:100100005F0100085F010008312200085F0100085C
:100110005F0100085F0100085F0100085F0100083F
:100120005F0100085F0100085F0100085F0100082F
:10013000DFF80CD000F0D8F900480047412700084C
:10014000180900200648804706480047FEE7FEE7FA
:10015000FEE7FEE7FEE7FEE7FEE7FEE7FEE7FEE777
:100160001522000831010008202A04DB203A21FA78
:1001700002F00021704721FA02F3D040C2F12002C0
:1001800091400843194670472DE9FE4F804681EAA9
:100190000300C00F0C46009021F0004123F0004501
:1001A000B8EB0200A94105D24046214690461C46C4
:1001B0000B46024623F00040104347D0270DC7F3FB
:1001C0000A00C3F30A510290401A019040286BDAEA
:1001D000C3F3130040F4801B0098924620B1002323
:1001E000D2EB030A63EB0B0B01985946C0F14002B6
:1001F000504600F0C3F806460D4650465946019A4F
:1002000000F0CBF810EB08006141002487EA11529E
:1002100084EAE7731A4340D0009A62B3019A012A34
:100220004FEA075215DC001B61EB02014FF0004260
:1002300002EA0752CDE90042001C41F58011324626
:100240002B4600F002F903B0BDE8F08F404621468E
:10025000F9E7001B61EB0201001C41F58013001857
:100260005B412018A2F5001747EB030140EAD57067
:10027000B6196D4111E06D084FEA360645EAC075C2
:100280004FEA0752001B61EB0201001C41F580118F
:1002900049084FEA30000019514132462B4603B05D
:1002A000BDE8F04F00F0C2B80098012240000023E2
:1002B000D0EB020263EBE073009821464FEAE07452
:1002C000B8EB000061EB0401E9E783F000435BE772
:1002D00081F0004158E7002801DBC0F1004000290F
:1002E00001DBC1F10041814201D8012070470020AB
:1002F000704700F0004230F000400AD0C10D01F517
:100300006071C0F3160042EA0151C2084007114370
:10031000704700200146704701F0004330B421F0DF
:10032000004150EA010206D00A0DA2F56072C1F345
:100330001301002A02DC30BC00207047440F44EA5D
:10034000C104C100E01830BC00EBC25000F037B867
:1003500030B50B46014600202022012409E021FA95
:1003600002F59D4205D303FA02F5491B04FA02F592
:100370002844151EA2F10102F1DC30BD202A04DB65
:10038000203A00FA02F1002070479140C2F12003A8
:1003900020FA03F3194390407047202A06DBCB175D
:1003A000203A41FA02F043EAE07306E041FA02F330
:1003B000D040C2F1200291400843194670470029FD
:1003C000A8BF7047401C490008BF20F001007047DB
:1003D00010B4B0FA80FC00FA0CF050EA010404BF3B
:1003E00010BC704749B1CCF1200421FA04F411FA91
:1003F0000CF118BF012121430843A3EB0C01CB1DD5
:100400004FEA00614FEA102042BF002010BC704745
:1004100000EBC35010440029A4BF10BC7047401C1F
:10042000490008BF20F0010010BC704710B5141E31
:1004300073F1000408DA401C41F1000192185B419D
:100440001A4301D120F0010010BD2DE9F04D924674
:100450009B4611B1B1FA81F202E0B0FA80F220328B
:100460009046FFF78BFF04460F4640EA0A0041EA38
:100470000B0153465A46084313D0114653EA010074
:1004800019D0C8F140025046FFF76EFE05460E46F1
:10049000504659464246FFF771FF084305D00120F8
:1004A00004E020463946BDE8F08D0020054346EAC9
:1004B000E0762C4337430A986305E40AA0EB080072
:1004C0000022FD0A44EA47540A3002D500200146C2
:1004D000E9E7010510196941DDE90845001969419D
:1004E000BDE8F04DA2E700001CB50948009009489E
:1004F00001900546009C06E0E06840F0010394E8A6
:10050000070098471034AC42F6D3FFF715FE000001
:10051000A8340008C834000870B58C1810F8015BC6
:1005200015F0070301D110F8013B2A1106D110F88C
:10053000012B03E010F8016B01F8016B5B1EF9D190
:100540002B0705D40023521E0DD401F8013BFAE716
:1005500010F8013BCB1A921C03E013F8015B01F881
:10056000015B521EF9D5A142D8D3002070BDFEE731
:100570007047EFF3108072B6FEE70000B0B5044696
:1005800000F0F8F805460548611C007818BF0444DF
:1005900000F0F0F8401BA042FAD3B0BD00000020EC
:1005A0002DE9FC4F81465F4806234FF0000C4FF0C9
:1005B00001084FF00F0E4FF0000A81455A4808BF5E
:1005C000052348444FEAB022052A38BF4FEAB0233A
:1005D000009300220C6834FA02F508BFBDE8FC8FD6
:1005E00008FA02F714EA070500F098804C68032C1B
:1005F00016D9112C26D0122C32D04E48844213D05A
:100600004D48844210D04D4884420DD04C4884421D
:100610000AD04C48844207D04B48844204D022E0A0
:10062000DFE804F0021B14188C6844B1012C14BFDD
:10063000C9F81470C9F810704FF0080A13E04FF0B1
:10064000040A10E0CC6804F1040A0CE0CC6804F160
:10065000080A08E04FF0000A05E0D1F80CA002E01B
:10066000CC6804F10C0A64464846B5F5807F28BF83
:10067000203C28BF043006680EFA04F70AFA04F496
:10068000BE4334430460C879C00647D5D74B274FD3
:1006900022F003061868BB463E4440F00100186093
:1006A00018682A4B00F0010001900CF00C00019F2B
:1006B0000EFA00F49E46F758009B03FA00F027EA72
:1006C00004041B4B204346F80E004FF00F0E4F68FA
:1006D000F802DBF8080054BF20EA050440EA0504EC
:1006E000CBF80840B802186854BF20EA050440EA75
:1006F00005041C60B803DBF8040054BF20EA0504BD
:1007000040EA0504CBF80440F803DBF8000054BFCE
:1007100020EA050440EA0504CBF800400CF1040C83
:10072000013257E7001C014000F8FEBF0004014001
:100730000C040140000011100000121000002110F4
:1007400000002210000031100000321008FCFFFFF2
:100750008068084018BF01207047C26802EA0103A0
:10076000914341EA034101617047002A08BF09042F
:1007700001617047A2480068704700BF10B3F8B528
:10078000044690F83D0020B901F091FC204600F0AD
:10079000FFF801F062FC016841F40041016001686A
:1007A00021F40041016000F06BFA6368384A39496E
:1007B00093423CBF48F28041C0F21E01884203D2FE
:1007C0000120F8BD0120704733494FF47A77B0FB20
:1007D000F1F521684E6826F03F062E434E604FF437
:1007E00096766E43934228BFB6FBF7F56A1C0D6AF6
:1007F00025F03F052A434CF6FF750A62CA69AA43F1
:10080000264DAB420AD85B000138B0FBF3F0013053
:100810006FF31F30042898BF042013E0A568013847
:100820003DB119256B4301F033FC0AD000F580403F
:1008300004E003EB430301F02BFC02D000F5004081
:1008400000E00120104304F10C06C861E0690A6869
:1008500022F0C0021043226A104348F2FF320860BF
:10086000886890436CCE184310438860C86820F0B5
:10087000FF0028433043C86001F0D5FB0020202151
:10088000206484F83D10206384F83E00F8BD00BF6A
:10089000A186010000093D0040420F00A086010032
:1008A0002DE9FE43994601F0A4FB054601F04BFB00
:1008B0000AD13549204601221923009500F056FF40
:1008C00010B901F01DFB02D10220BDE8FE83012218
:1008D0000DF1280801F0CAFB03D1136843F00103AE
:1008E0001360136823F40063136021224B4601F068
:1008F00076FB26493246608DE162394620852046E6
:10090000CDE9008500F0B8FE10B10120BDE8FE83FE
:10091000218D080422D0204641462A4600F081FF5E
:1009200010BB606A2268014611F8013B1361638DB8
:10093000013B63856162238D591E218556697607C7
:10094000E7D509044FF00001E3D04178023011618E
:10095000991E6062218501F054FBDAE7204641468A
:100960002A4600F0E3FE30B1206C0428CDD1206887
:1009700001F0AEFAC9E72068016841F40071016036
:1009800001F0E5FABDE8FE83020010000000FFFF61
:1009900010B586B00021CDE90411CDE9021101683E
:1009A000114881421DD13C4C00F53840216841F08E
:1009B00008012160216801F00801019103210591DE
:1009C00012210391C0210291019902A9FFF7E8FDCC
:1009D000606840F400106060606800F400100190EE
:1009E000019806B010BD00BF00540040181002402E
:1009F0001A48034900780A6810440860704700BF2D
:100A00001405002080B59B48016841F01001016089
:100A1000032000F077F80F2000F004F800F020F831
:100A2000002080BD70B50D4E04464FF47A713078C9
:100A3000B1FBF0F097490968B1FBF0F000F0FCFB66
:100A400001250F2C08D838B94FF0FF30214600227D
:100A5000002500F031F87460284670BD00000020C9
:100A600082B00D480222016841F001010160016875
:100A700001F0010101910199416841F0805141600B
:100A8000406800F08050009000980448016862F3CC
:100A90001A61016002B07047181002400400014062
:100AA000002805D4734601F0D7F99E46014A8850C4
:100AB000704700BF00E100E0F0B5184B4FF0FF3683
:100AC0001C68C4F30224E51E84F0070438BF002527
:100AD00006FA05F7BA43042C28BF042406FA04F4E6
:100AE000A14300F00F04A940043C1143044A2344ED
:100AF00009010244002848BF03F10C021170F0BD47
:100B000000E400E005494FF6FF030A681A4060F36D
:100B10000A22034810430860704700BF0CED00E054
:100B20000000FA05002873D02DE9F8430D4651491D
:100B30000446086800F00700A84209D2086820F0BF
:100B4000070028430860086800F00700A8426BD13E
:100B50002068894681075E4988461AD5410706D52F
:100B6000D8F80010424641F4E061C8F800100107CF
:100B700006D5D8F80010424641F46051C8F800107C
:100B8000A168D8F80020434622F0F0021143C8F8CB
:100B90000010C0073ED1D9F8000000F00700A842BD
:100BA0000CD9D9F8000020F007002843C9F800004C
:100BB000D9F8000000F00700A84235D120684107AD
:100BC00008D5E168D8F80020434622F4E0621143DA
:100BD000C8F80010000709D52069D8F8001042466F
:100BE00021F4605141EAC000C8F8000000F056F856
:100BF000D8F80010204AC1F30311515CC8402549C0
:100C000008601E480068FFF70DFF0020BDE8F8836C
:100C100001207047404658F8041C6068022806D03E
:100C2000012823D1890304D40120BDE8F883890178
:100C3000FAD5D8F8001021F003010843C8F80000E5
:100C4000FFF798FD064641F2883741466068D8F8BC
:100C5000001001F00C01B1EB800F9CD0FFF78AFD72
:100C6000801BB842F1D90320BDE8F8838907DBD5A2
:100C7000DFE700BF002002405E2C000804000020D7
:100C8000DE481349044A00680968C1F30221515C37
:100C9000C8407047280300206E2C000810B50C498E
:100CA0000C480A6802F00C03082B07D1C2F38343F7
:100CB00009A4D203E35C02D40C48584310BD096870
:100CC00009A25843C1F34041515CB0FBF1F010BDA3
:100CD0000410024000127A00020304050607080906
:100CE0000A0B0C0D0E0F10100102000000093D0050
:100CF000002843D02DE9FC4104460078BD4EC007D2
:100D00000BD0706800F00C00042839D130688003E3
:100D100003D56068002800F0B6802078800717D5DA
:100D2000706810F00C0F05D001F0AEF842D1706879
:100D3000C0033FD43068800703D52069012840F004
:100D4000A2806069316821F0F80141EAC00030609A
:100D5000207800075ED5A06900283ED0A648012172
:100D6000C0F88014FFF706FD0546706A800744D47A
:100D7000FFF700FD401B0228F7D902E10120704770
:100D800001F082F802D17068C003BFD46268306895
:100D9000002A20F4803100F0F780B2F5A02F00F097
:100DA000DD80B2F5803F00F0DD803160306820F4F6
:100DB0008020D9E021699048002900F08F8001212E
:100DC0000160FFF7D7FC054630688007B9D4FFF70C
:100DD000D1FC401B0228F7D9D3E087480021C0F896
:100DE0008014FFF7C7FC0546706A800712D5FFF72D
:100DF000C1FC401B0228F7D9C3E080484FF4FA51E8
:100E00000068B0FBF1F0019000BF0198411E00287E
:100E10000191F9D12078400714D4E7697FB101F03E
:100E200033F83ED1012F2ED0216A706800F4803251
:100E30008A4228D1616A00F47010884223D10020D0
:100E4000BDE8FC81F0695FEAC00808D4F06940F0B1
:100E50008050F061F06900F0805000900098684F79
:100E60003868C00512D4386840F480703860FFF7E5
:100E700081FC05463868C00508D4FFF77BFC401BA1
:100E80006428F7D97DE00120BDE8FC81E168306A83
:100E9000002948D0052931D0012933D000F0D5FFF1
:100EA00032E05549002088460866FFF763FC054696
:100EB000022F09D13068800179D5FFF75BFC411B17
:100EC00003200229F6D9BBE730688001B7D5FFF7C8
:100ED00051FC411B03200229F6D9B1E70021016032
:100EE000FFF748FC0546306880077FF531AFFFF714
:100EF00041FC411B03200229F5D9A1E740F0040081
:100F00003062306A40F001003062FFF733FC054682
:100F100041F28837306A800717D4FFF72BFC401B5B
:100F2000B842F7D92DE000F090FF3062FFF722FCC5
:100F3000054641F28837306A800706D5FFF71AFC6C
:100F4000411B0320B942F6D97AE7B8F1000F3FF50B
:100F500064AFF06920F08050F0615EE740F48020DB
:100F60003060306840F480303060FFF703FC0546A5
:100F7000306880033FF5D1AEFFF7FCFB401B6428CF
:100F8000F6D90320BDE8FC813160306820F4802070
:100F90003060FFF7EFFB0546306880037FF5BDAE9C
:100FA000FFF7E8FB411B03206429F5D948E7206AD5
:100FB000B0F5803F05D1A168726822F40032114378
:100FC0007160616A726822F47412114308437060A0
:100FD0000120C8F86000FFF7CDFB044630688001AF
:100FE0003FF52DAFFFF7C6FB011B03200229F5D902
:100FF00026E700BF00100240000042422803002004
:101000000070004070B530B10446406A28B100203D
:101010002061142006E0012546E06068B0F5827F7B
:1010200002D01C20002121500025A56294F8510017
:1010300020B9204684F8505000F038F8022084F897
:10104000510094E80F0001F4827102F40442066832
:10105000114403F40062114426F040060660226940
:1010600002F002021144626902F001021144A26915
:1010700002F400731944E36903F038031944236A46
:1010800003F080031943A36A03F40053194301607A
:10109000042101EA12414160C16921F40061C1618A
:1010A0000120656584F85100284670BD70B586B092
:1010B000194C00680026CDE90466CDE9026604F506
:1010C0002051884225D11548016841F480510160C2
:1010D000016801F4805101910199016841F0040116
:1010E0000160006800F004000190032005900220D8
:1010F0000390A0200290019802AD20462946FFF7F8
:101100004FFA40202946CDE9036602902046FFF7BA
:1011100047FA06B070BD00BF000801401810024039
:101120002DE9FC411D4616460F460446FFF722FBFB
:10113000804694F85100012804D137B12EB100F057
:1011400014FF05D10220BDE8FC810120BDE8FC812F
:101150000320012184F8510000206065E68684F8B0
:101160005010A6862763A087A063C4E91000E0871B
:10117000A1682068B1F5004F07D1016821F0400156
:101180000160016841F4804101600168490601D4B1
:1011900000F0D0FEE2686168B2F5006F1CD109B1C1
:1011A000012E01D100F0B0FE6E1CE08E70B300F095
:1011B000C6FE08D4FFF7DEFA002EF6D0A0EB08003A
:1011C000A842F2D335E0216B31F8022BC2602163D3
:1011D000E08E0138E086E8E709B1012E02D13978C6
:1011E00000F05DFF6E1CE08E80B100F0A8FE08D418
:1011F000FFF7C0FA002EF6D0A0EB0800A842F2D309
:1012000017E0216B097800F04AFFECE720462946F9
:10121000424600F051FF08B120206065A06810B977
:10122000002000F036FE00F0B1FE18BF0120BDE83E
:10123000FC8100F057BE0000411E0020B0EB116F92
:101240001CBF01207047044AF023516003490B7012
:10125000072190601160704710E000E023ED00E08E
:101260007047704790F83C300222012B29D010B50E
:1012700080F83D2002680B68546824F070041C4319
:101280009368B2F1804F54600ED04D4CA2420BD007
:101290004C4CA24208D04C4CA24205D04B4CA2422E
:1012A00002D04B4CA24204D1496823F08003194379
:1012B00091600022012180F83C2080F83D10BDE8BB
:1012C00010401046704700BF58B110B500F082FEC4
:1012D00003D100F045FE00F007F800F0D2FE00F068
:1012E000E0BD0120704700001FB500683649884204
:1012F00021D03349884211D0B0F1804F18BF1FBDB3
:1013000018481C24016841F00101016001210068B6
:1013100000F00100039003981C2019E011481D24DF
:10132000016841F002010160006800F002000290D3
:1013300002981D200BE00B483224016841F008019F
:101340000160006800F0080001900198322000213F
:101350000022FFF7B1FB204604B0BDE81040FFF7C4
:101360009FBB00BF1C10024090F83D1001291CBF1C
:1013700001207047022180F83D100068C168B0F17B
:10138000804F41F00101C1600ED00D4988420BD061
:101390000C49884208D00C49884205D00B49884244
:1013A00002D00B49884204D1724600F096FD964661
:1013B00003D0724600F09FFD96460020704700BFA4
:1013C0000004004000080040000C004000340140D0
:1013D000002C014010B500F0F7FD54D084F83D001A
:1013E00001204FF6777384F83C00206882689A43A6
:1013F00082600A68C2B1102A16D0202A14D0302A7E
:1014000012D0402A33D0502A28D0602A13D0B2F507
:10141000005F1CD0B2F5805F32D0702A1CD100F082
:10142000A8FD41F077012AE0816821F070011143A5
:1014300041F0070123E04B68CA68194600F065FFD8
:101440002068816841F0670121F0100117E000F089
:1014500090FD41F4804112E0012012E000F0EFFD28
:101460002068816841F0570121F0200107E000F079
:10147000E6FD2068816841F0470121F0300181607C
:10148000002000F0D5FD10BD704770B5044600681F
:10149000C5680669B10710D5A9070ED56FF002011E
:1014A0000161012121778069800702D000F0A6FD4B
:1014B00001E000F074FD00202077700712D5680766
:1014C00010D520686FF00401016102212177806945
:1014D00010F4407F02D000F091FD01E000F05FFDCC
:1014E00000202077300711D528070FD520686FF02E
:1014F0000801016104212177C069800702D000F052
:101500007DFD01E000F04BFD00202077F00612D5B4
:10151000E80610D520686FF01001016108212177DD
:10152000C06910F4407F02D000F068FD01E000F0D7
:1015300036FD00202077F00708D0E80706D02068A5
:101540006FF001010161204600F026F8300608D551
:10155000280606D520686FF0800101612046FFF75C
:101560007FFE700608D5680606D520686FF040013A
:101570000161204600F066F8B00601D5A80600D447
:1015800070BD20686FF0200101612046BDE8704009
:10159000FFF767BE70477047204A1F49904207D146
:1015A0000A68012A04D121484FF40051FFF7D5B849
:1015B000B0B51B4A904203D01A49884220D0B0BD32
:1015C0004868012804D119484FF40051FFF7C5F8C5
:1015D000174D18492C682046FEF77DFE08B90024F7
:1015E0002C60154800680128E9D02046FEF781FEEE
:1015F000124A134BFEF7C8FDFEF78EFE2860B0BD01
:10160000094801680131CA1701EB527222F0070242
:10161000891A0160B0BD00BF4403002020040020EF
:1016200068040020B00400201005002000100140D4
:1016300064030020286B6E4E600300209A999999EC
:101640009999B93F7047FEE70268516949054FF023
:1016500000010FD56FF4806353612022016380F88D
:101660003D2080F83E1080F83C10016C41F00401F0
:1016700001640121084670472DE9FE4304460068D5
:101680000E460A9D0B9F99469046002201682B4604
:1016900041F48071016020464FF0011100F0EEFC32
:1016A00048B120680068C00544BF4FF40070206452
:1016B0000320BDE8FE83206806F0FE012A463B4673
:1016C00001611949204600F07CF810B10120BDE805
:1016D000FE8300203A460290206841690291294623
:1016E000806902900298204600F09BF830B1206C8F
:1016F0000428EBD1206800F0EBFBE7E72068B9F1A4
:10170000010F0AD04FEA18213A46016120462946C6
:1017100000F087F80028EAD120685FFA88F10161BB
:101720000020BDE8FE8300BF02000100F8B51546A9
:101730000E4604464F1C20684069400744BF002005
:10174000F8BD2046FFF780FF70B9002FF3D0FFF7F8
:1017500011F8401BB04201D8002EECD1206840693E
:101760004007E8D400F051FC0120F8BD2DE9F04716
:10177000DDF8209004469846164601F47F001827AD
:101780008DB203F1010AB0F5803F08BF142700F0C5
:101790005BFC13D1BAF1000FF9D0FEF7EBFFA0EB21
:1017A0000900404502D8B8F1000FF0D100F04CFC20
:1017B000EDD100F02AFC0120BDE8F0870020BDE853
:1017C000F0872DE9F0419846164604468FB2551C25
:1017D000206841693940B94213D04169490513D4A1
:1017E000002DF5D0FEF7C6FFA0EB0800B04201D8EF
:1017F000002EEDD1206840693840B842E8D0202062
:1018000008E00020BDE8F08100F062FB6FF4806129
:101810004161042000F0CDFB084320640120BDE8B5
:10182000F081F8B515460E4604464F1C2068406905
:10183000000644BF0020F8BD2046FFF705FF70B941
:10184000002FF3D0FEF796FF401BB04201D8002EC8
:10185000ECD1206840690006E8D400F0D6FB0120F6
:10186000F8BD0000B0B50F4D0AA200200021A84726
:101870000D4C0120002114F8012BA8470BA20220D7
:101880000021A8470320002122462B46BDE8B04096
:10189000184700BF63757272656E74206B65793A84
:1018A00000000000BD180008300300206869737450
:1018B0006F7279206B65793A0000000010B514460C
:1018C000064A02EBC000405C01F0C6F8207818B16F
:1018D00001F0D4F80134F9E710BD00BF080300207F
:1018E0000F4900203022082802D00A540130FAE7BC
:1018F000B0B50C4D3220A8470B4C3020A047022039
:10190000A8470220A8470C20A0470120A847022092
:10191000A8470120A04702202946BDE8B04008475B
:101920006C0300207D050008592A00082DE9F04FBE
:1019300085B000243448002242F21008CDE9034467
:10194000CDE90144016841F010010160016801F036
:10195000100100910099016841F0200101600168C7
:1019600001F0200100910099016841F0040101603B
:10197000016801F0040100910099016841F008013B
:10198000016042F21001006800F008000090009829
:101990001E4800F5006605463046FEF7E6FE05F5F2
:1019A000806540F23F41002240F23F492846FEF761
:1019B000DCFE4FF0020A4FF0010B3046CDE9018BFF
:1019C000CDE9034A01AFDFF848803946C0472846D1
:1019D0003946CDE9034ACDE9019BC0474FF4FC509D
:1019E00000F015FA3046C0474FF4004000F00FFAFF
:1019F0000648C0474FF4007000F009FA2846C04777
:101A000005B0BDE8F08F00BF18100240000801408B
:101A1000A105000810B50B480B4B0C4C00214FF4EE
:101A20008042C0E90043C0E90211C0E90421C0E9D5
:101A300006110162FEF7A2FE18B1BDE81040FEF7E4
:101A400098BD10BD74030020A08601000054004022
:101A5000B0B50E4800210A240D4B4FF482724FF4AA
:101A60000075C0E90A141024C0E90811C0E9003269
:101A7000C0E90211C0E90411C0E90654FFF7C2FA37
:101A800018B1BDE8B040FEF774BDB0BDC80300207A
:101A90000030014010B586B00F4800214FF4E152EC
:101AA00042F210734FF0804400F0B6F908B1FEF72F
:101AB00060FD4FF480500290074802A9FFF78AFCAE
:101AC00008B1FEF756FD04486946FFF7CBFB08B1A5
:101AD000FEF74FFD06B010BD2004002010B586B003
:101AE0000F48104C00214FF4347242F2107300F092
:101AF00093F908B1FEF73DFD4FF48050029008487D
:101B000002A9FFF767FC08B1FEF733FD04486946F8
:101B1000FFF7A8FB08B1FEF72CFD06B010BD00BF13
:101B2000680400200004004010B586B00F48104C37
:101B300000214FF4347242F2107300F06DF908B1D5
:101B4000FEF717FD4FF480500290084802A9FFF7F6
:101B500041FC08B1FEF70DFD04486946FFF782FB22
:101B600008B1FEF706FD06B010BD00BFB0040020AE
:101B7000000C0040FEE7FEE7002000F001B8000086
:101B8000F8B5484E04460025E8B2072888BFF8BDDE
:101B900045F0B000C0B2B04700200027B047102089
:101BA000B04778B2002804D4204600F053FD013736
:101BB000F7E70135E8E700BF10B5C820FEF7DEFC07
:101BC000384CAE20A0472020A0471020A047B020CE
:101BD000A047C020A0470020A0471020A0474020D9
:101BE000A0478120A047FF20A047A020A047A62013
:101BF000A047A820A0473F20A047A420A047D3206B
:101C0000A0470020A047D520A047F020A047D9201A
:101C1000A0472220A047DA20A0471220A047DB20BF
:101C2000A0472020A0478D20A0471420A047AF2028
:101C30002146BDE81040084710B50D480DA205210A
:101C4000036800F02DFF0C4C002000210022A0476B
:101C5000102000210122A047202000210222A047BD
:101C6000064A002002210223BDE8104000F040B8DF
:101C7000FC04002025640000A91C00089E34000814
:101C8000B0B50446A1F15000064DC0B2A8472009E6
:101C90001030A84704F00E0029460130BDE8B040DE
:101CA000084700BF312600082DE9F04116460D46D1
:101CB0008046FFF7E5FF0D4F760100240F2C05D875
:101CC000B85D00F0C7FC01340136F7E7681CC1B20B
:101CD0004046FFF7D5FF00240F2C88BFBDE8F081F8
:101CE000B85D00F0B7FC01370134F5E708000020CB
:101CF0002DE9FE4F934688460646012B45D0022B20
:101D00006BD1374D0021CDF804B0C8B21BF80040AC
:101D1000002C62D0F0B20291782888BF08F1010847
:101D200088BF0026F7B25FFA88F13846FFF7A8FFB0
:101D3000A4F12000AA464FF00009C0B205EB001440
:101D40004FEA001BB9F1080F06D014F8090000F0A3
:101D500081FC09F10109F5E708F10100C1B238463B
:101D6000FFF78EFF0AEB0B00DDF804B055460027A5
:101D700000F10804082F04D0E05D00F06BFC01378F
:101D8000F8E7029908360131BFE7DFF858904FF0C5
:101D9000000A5FFA8AF01BF80040F4B1F0B27E2826
:101DA00088BF08F1010888BF00265FFA88F1F0B209
:101DB000FFF766FFA4F120000024C0B200EB400052
:101DC00009EB4007062C04D0385D00F043FC0134D9
:101DD000F8E70AF1010A0636DBE7BDE8FE8F00BF2F
:101DE0009E2E0008762C000801228DF805100101B6
:101DF00000F0F0008DF807108DF806002046102145
:101E0000FEF7B3BC002000210223FFF771BF394663
:101E1000CDE90244019070470591CDE90311CDE968
:101E200000118161C0E90043C0E902120161FFF7BE
:101E30004BBA1420FEF7A2BB204620210122FEF758
:101E400094BC3946CDF804B0404720F00100306220
:101E5000306A20F0040070471C21012201EAD00101
:101E600000F01F0002FA00F0704703224FF47A736B
:101E7000FFF756B920462021012228473946CDE9EF
:101E80000295019030464047706800F00C00082829
:101E9000704701902068C1680191806801900198A5
:101EA0007047012084F8460084F83E0084F83F0023
:101EB00084F8400084F8410084F8420084F843002C
:101EC00084F8440084F8450084F83D00002010BDEB
:101ED000016841F4007101607047816801F00701F9
:101EE00006297047002084F85000012084F8510032
:101EF0000320BDE8FC81016841F0010101607047E9
:101F000094F83C000128704737F8021BC160276332
:101F1000E08E0138E0867047204610210022FEF74F
:101F200024BC204620210022FEF71FBC3946019028
:101F300020464047016841F0400101607047206839
:101F400081688907704794F83D0020287047202059
:101F500084F83D00002084F83C0084F83E0070477F
:101F6000002084F83C002046704794F85000012877
:101F70007047D1E90123C9681A4342EA0121826806
:101F800022F47F421143816081687047012084F808
:101F90005100002084F85000606D002870474DF813
:101FA00008ED2046FFF7F6FA20465DF808EBFFF74C
:101FB000F2BA00212022216384F83D2084F83E10EB
:101FC00084F83C10216C704790F83C2004460220B5
:101FD000012A7047044690F83D000028704784F8B5
:101FE0003D20402284F83E20002222646185606208
:101FF000704716460F460446FEF7BCBB2046FFF767
:1020000043BA608D0138608570470020202120632D
:1020100084F83D1084F83E0084F83C00206C40F0C9
:10202000200020647047086840F001000860704795
:10203000002184F83C10012184F83D1070474B6862
:10204000CA68194600F050B92068C0592840401BA2
:10205000B0FA80F04009B0427047242084F83D0077
:102060002068016821F001010160704784F83C207C
:10207000226898E803011368DB0770470097FFF7B1
:1020800075BB0220211D84F83D00206800F0D6B801
:10209000B0FBF3F001306FF31F300028704701737D
:1020A000206B01302063E08E0138E086704700200D
:1020B00084F83C00704770477CB50D461646009288
:1020C0000221012204462B4600F012F840B92046B6
:1020D000802100222B460096002600F009F820B14E
:1020E000606D032640F02000606530467CBD000036
:1020F0002DE9F843089F1C4615460E468046FEF71C
:1021000039FB381A0719FEF735FB81462748013499
:102110000068C0F3CB3078430090D8F800008168A5
:102120003140891BB1FA81F14909A9420FD0002C35
:10213000F5D0FEF71FFBA0EB0900B8420AD20098C9
:10214000009901390091002808BF0746E5E7002003
:10215000BDE8F883D8E900014268B1F5827F22F03A
:10216000E00242600BD1D8F80810B1F5004F02D060
:10217000B1F5806F03D1016821F040010160D8F80A
:102180002810B1F5005F07D1016821F4005101600A
:10219000016841F400510160002088F850000120DE
:1021A00088F851000320BDE8F88300BF2803002011
:1021B0007047FEF71DBCB0B590B04FF4E01000249E
:1021C00002250F904FF48030CDE90B44CDE909444E
:1021D0000D950E90CDE90704012006900A9006A8FF
:1021E000FEF786FD18B1EFF3108072B6FEE74FF4EC
:1021F000806005940221CDE903400F20CDE901055F
:1022000001A8FEF78FFC18B1EFF3108072B6FEE75D
:1022100010B0B0BD704700000148FFF736B900BFED
:10222000200400200148FFF730B900BF68040020F7
:102230000148FFF72AB900BFB004002070B5254A55
:102240000368904222D0B0F1804F0BD0224CA042C4
:1022500008D0224CA04205D0214CA04202D0214CF3
:10226000A04203D14C6823F070032343B0F1804FA8
:1022700010D0194CA0420DD0184CA0420AD0184CD6
:10228000A04207D0174CA04204D007E04C6823F0CE
:1022900070032343CC6823F4407323434E6923F037
:1022A00080030C688D68334390420360C56284628A
:1022B00003D002F50062904201D109690163012156
:1022C00041610169C90703D0016921F00101016180
:1022D00070BD00BF002C0140000400400008004019
:1022E00000340140000C004010B5036A046A24F079
:1022F00001040462846924F0F00444EA0212826159
:1023000023F00A021143016210BD10B5036A046A8A
:1023100024F010040462846924F4704444EA023214
:10232000826123F0A00242EA0111016210BD81B076
:102330000020009000983228A4BF01B07047009898
:102340000130F6E70F2988BF002104280DD860B1BD
:10235000064B002A595C18BF41F08001662202EB4F
:102360004000C9B2C0B200F053B970478E340008C3
:10237000D0B110B50D4A014637300D4C0A2938BF8F
:1023800041F030001368E0540A480170581CC3172C
:1023900000EB137323F00F03C01A10600320002218
:1023A000BDE81040FFF7CEBF704700BFF804002023
:1023B0003103002030030020BFB50220924C6D464F
:1023C00003900020294602900120019020200090D7
:1023D0002046FEF7E5F80820294600902046FEF743
:1023E000DFF800F09DF8734DFFF744FD2046102103
:1023F0000122A847204608210122A847084C48206E
:102400004721A04768200021A0476A200021A0475B
:102410006C200021A0476E200021A047BFBD00BF57
:10242000112600082DE9F04100F090F8492000F055
:10243000C3F800F067F8744C00250026072E12D868
:10244000FFF76FFDFFF773FFFFF7F6FCFFF76FFF76
:1024500020461021FEF77CF9002818BF012040EA31
:1024600045050136EAE7DFF8E08520462021002215
:102470000026C04700F054F8204610210022C04733
:10248000624FB847204620210122C047B847204666
:1024900020210022C047B84700F072F8EAB272B3B8
:1024A000D00708D1900708D4500708D4100708D4E3
:1024B000FC20002107E0002004E0042002E00820C6
:1024C00000E00C200121D3060AD493060BD4520657
:1024D0000BD46AB2B2F1FF3F09DD0026002208E00A
:1024E0000126012205E0022202E0032200E004228C
:1024F0000126002E18BF1618002908BF0E46F0B29C
:10250000BDE8F081F8B50120102102900020009173
:102510006946019003903C48FEF742F88FBD00BF2A
:10252000F8B5022069460390002002900120019036
:10253000102000903448FEF733F88FBD072828BFDD
:1025400007200001C11D482000F062B870B5FFF7F8
:10255000E7FF2D4C174D102101222046A847FFF719
:1025600089FC2A4EB047204610210022A847B047D8
:10257000204620210022A8473046BDE87040004791
:1025800070B5FFF7CDFF204C0A4D202100222046D8
:10259000A847204610210022A8471C4EB047FFF74D
:1025A00069FCB047204610210122A8473046BDE80B
:1025B000704000476B070008F8B50546FFF7B0FF0D
:1025C000114C124F0026FFF7ACFC082E0DD2B84775
:1025D000E8B21021C2092046FEF7C7F8B847FFF756
:1025E0002BFCB84701366D00EDE7FFF78BFFFFF7D7
:1025F0009EFEFFF721FCFFF79AFE204620210022D5
:10260000BDE8F840FEF7B1B8000C01402F230008E8
:10261000B0B50C460546FFF799FF2846FFF7CCFFFB
:102620002046FFF7C9FFBDE8B040FFF7A9BFFEE7AE
:10263000F8B58DF80F00642001210DF10F02012380
:1026400002900D48CDE9002178210022FEF728F9FB
:102650008FBD00BFF8B58DF80F00642001210DF18A
:102660000F02012302900448CDE900217821402285
:10267000FEF716F98FBD00BF740300202DE9F04767
:10268000FD4D2D4E4FF480712846B0470746284631
:102690008021B047044628464FF40071B047A5F5A5
:1026A000806A81464FF400715046B04780466FB152
:1026B000FFF7BFFB28464FF48071FEF749F88742C9
:1026C00004D11E4807600120BDE8F08764B1FFF720
:1026D000B0FB28468021FEF73BF8844204D117481E
:1026E00044600220BDE8F087B9F1000F0ED0FFF77B
:1026F000A0FB28464FF40071FEF72AF8814505D16A
:102700000E48C0F808900320BDE8F087B8F1000F2C
:102710000ED0FFF78EFB50464FF40071FEF718F80D
:10272000804505D10548C0F80C800420BDE8F0873D
:102730000020BDE8F08700BF510700080005002019
:10274000384801260660FEF75DF9FFF734FDFFF714
:10275000EDF8FFF77DF9FFF79DF9FFF7E5F9FFF7D2
:10276000BDF9FFF757F93048FEF7FEFD2F48FEF799
:10277000FBFDFFF721FAFFF7FFF9FFF7B1F82C484F
:102780004FF400510122FDF7F0FFFFF755FAFFF774
:1027900013FE0520FFF7D2FE264F00240FF2A408F7
:1027A00025A5FFF76BFFF968B86018B1884218BF1C
:1027B000F86000E00846042825D8DFE800F0032090
:1027C00010150800FFF7D8F9FFF736FA1BE0FFF7FE
:1027D000D3F9002000212A46C7E900460BE0FFF7A5
:1027E000CBF900F051F80EE0FFF7C6F9C7E9006435
:1027F0000020002142460223FFF77AFA03E0FFF7A8
:10280000BBF900F025F800F053F8FFF72BF8FFF7BD
:1028100009FE0028C5D0FFF7ABFD3220FDF7AEFE64
:10282000BFE700BF680300202004002068040020E8
:10283000001001404403002053352070726573730B
:102840006564000053342070726573736564000022
:1028500010B509A2FFF7D6FA0A4C00200321002286
:10286000A047102003210122A0472020032102229B
:102870002346BDE8104018475332207072657373C9
:1028800065640000A91C000880B505A2FFF7BAFA2C
:10289000064A002003210223BDE88040FFF728BA42
:1028A0005333207072657373656400009E340008B2
:1028B0002DE9F04F85B04FF0020B4FF000090125D4
:1028C0004FF400405E4EDFF87C810190CDF810B0EF
:1028D000CDF80C90029501AF30463946C0474FF411
:1028E000E05006F50064FFF721FBDFF85CA13046FD
:1028F0004FF400410022D04720464FF4806100226F
:10290000D04720464FF400610022D04720464FF4C4
:1029100080510022D04740F2074006F58066FFF75D
:10292000ADFA0A20FDF72AFE30460121FDF710FF1F
:1029300090B130460221FDF70BFF78B130460421FB
:10294000FDF706FF60B130464FF48061FDF700FFF0
:10295000002872D10C2004E0002002E0042000E0F6
:102960000820CDE90005CDE9025901AF30463946CE
:10297000C0473046FFF765FA0420394601903046DB
:10298000C0474FF4806B3046FFF75BFA30460121B9
:102990000022D047304602210022D0473046042191
:1029A0000022D04730464FF480610022D047244EA9
:1029B0004FF40040FFF762FA2046FFF742FA4FF467
:1029C0000060FFF7B3FA4FF48050FFF7AFFA0A2028
:1029D000FDF7D4FD30464FF40041FDF7B9FEB0B12C
:1029E00020464FF48061FDF7B3FE68B120464FF4F6
:1029F0000061FDF7ADFE48B120464FF48051FDF770
:102A0000A7FED0B9042502E0022500E003250098C6
:102A10000F4B284400F137010A2838BF40F030013D
:102A20000A48026899540B4B1970511CCA1701EBE4
:102A3000127222F00F02891A016005B0BDE8F08F12
:102A400000080140A10500086B070008F8040020F9
:102A500031030020300300201CB5F8210E4CFFF795
:102A6000C3F90120FDF78AFD0C480DF10501FFF7C0
:102A7000FCF9FFF751FA1CBD001001401CB5FA210A
:102A8000054CFFF7B1F905480DF10501FFF7EDF928
:102A9000FFF742FA1CBD00BF00100140C803002030
:102AA0000FB47CB50C0009AD01D0611E00E000211F
:102AB000CDE90001064B6A462946089800F01AF84D
:102AC000002C02D0009A002111707CBC5DF814FB30
:102AD000492C000802E008C8121F08C1002AFAD1D8
:102AE00070477047002001E001C1121F002AFBD18E
:102AF000704700002DE9FF4F89B09B460446002532
:102B000006E025280BD05A460B999047641C6D1C93
:102B100020780028F5D10DB02846BDE8F08F0027B9
:102B2000B8460122474900E0074314F8013F203B23
:102B300002FA03F00842F7D120782E2819D114F8B0
:102B4000010F47F004072A280ED06FF02F022078DB
:102B5000A0F1300109290CD808EB880102EB4101F2
:102B600000EB0108641CF2E70A98641C50F8048B1F
:102B70000A9020780028CED0642808D0692806D092
:102B800075281ED05A460B9990476D1C58E00A993B
:102B90004FF00A0901C90A91002802DA40422D21AA
:102BA00002E0390504D52B218DF82010012103E026
:102BB000F90704D02021F7E78A4608AE0DE000218E
:102BC000FAE70A994FF00A0901C90A91F7E749465D
:102BD000FDF7BEFB303106F8011D0028F7D1ADEB43
:102BE000060000F12009780701D44FF00108C8451C
:102BF00002DDA8EB090000E000208046002706E087
:102C000008A85A46C05D0B9990476D1C7F1C57451C
:102C1000F6DB04E030205A460B9990476D1CB8F162
:102C20000001A8F10108F5DC05E016F8010B5A4691
:102C30000B9990476D1CB9F10001A9F10109F4DC71
:102C4000641C65E7092801004A68002A06D00A6862
:102C5000531C0B6010704868401E486070470000AD
:102C6000000000000000010203040607080900003C
:102C70000000010203040000000000000000002F1B
:102C8000000000000700070000147F147F140024D8
:102C90002A7F2A1200626408132300364955225005
:102CA00000000503000000001C224100000041223A
:102CB0001C000014083E08140008083E0808000024
:102CC00000A060000008080808080000606000001C
:102CD000002010080402003E5149453E0000427F9A
:102CE0004000004261514946002141454B310018E6
:102CF00014127F10002745454539003C4A494930A8
:102D00000001710905030036494949360006494961
:102D1000291E00003636000000005636000000086C
:102D20001422410000141414141400004122140849
:102D300000020151090600324959513E007C12112E
:102D4000127C007F49494936003E41414122007FC3
:102D50004141221C007F49494941007F090909017D
:102D6000003E4149497A007F0808087F0000417F02
:102D70004100002040413F01007F08142241007FB4
:102D800040404040007F020C027F007F0408107F1B
:102D9000003E4141413E007F09090906003E415184
:102DA000215E007F09192946004649494931000141
:102DB000017F0101003F4040403F001F2040201F95
:102DC000003F4038403F0063140814630007087058
:102DD000080700615149454300007F41410000550B
:102DE0002A552A55000041417F00000402010204D7
:102DF00000404040404000000102040000205454C4
:102E00005478007F48444438003844444420003813
:102E10004444487F00385454541800087E09010285
:102E20000018A4A4A47C007F080404780000447D5A
:102E30004000004080847D00007F10284400000096
:102E4000417F4000007C04180478007C080404786A
:102E500000384444443800FC242424180018242456
:102E600018FC007C08040408004854545420000452
:102E70003F444020003C4040207C001C2040201C5F
:102E8000003C4030403C004428102844001CA0A0D6
:102E9000A07C004464544C44141414141414000012
:102EA0000000000000000000000000000000000022
:102EB00000F80000000000000033300000000010A7
:102EC0000C06100C0600000000000000000040C0CE
:102ED0007840C0784000043F04043F0404000070C0
:102EE00088FC08300000001820FF211E0000F008B8
:102EF000F000E018000000211C031E211E0000F05D
:102F00000888700000001E212324192721101016A4
:102F10000E000000000000000000000000000000A3
:102F200000E0180402000000000718204000000222
:102F30000418E00000000040201807000000404096
:102F400080F0804040000202010F010202000000F8
:102F500000F0000000000101011F0101010000005C
:102F600000000000000080B07000000000000000C1
:102F7000000000000000000101010101010100004A
:102F800000000000000000303000000000000000E1
:102F9000000080601804006018060100000000E0D6
:102FA00010080810E000000F102020100F00001083
:102FB00010F8000000000020203F202000000070DA
:102FC00008080888700000302824222130000030D2
:102FD0000888884830000018202020110E000000CA
:102FE000C02010F8000000070424243F240000F84B
:102FF0000888880808000019212020110E0000E030
:10300000108888180000000F112020110E000038D1
:103010000808C83808000000003F000000000070E9
:10302000880808887000001C222121221C0000E072
:1030300010080810E0000000312222110F000000EB
:1030400000C0C000000000000030300000000000A0
:103050000080000000000000806000000000000010
:1030600080402010080000010204081020004040A9
:1030700040404040400004040404040404000008EC
:1030800010204080000000201008040201000070A1
:1030900048080808F0000000003036010000C03089
:1030A000C828E810E0000718272423140B000000AC
:1030B000C038E0000000203C23020227382008F836
:1030C000888888700000203F202020110E00C0302A
:1030D000080808083800071820202010080008F801
:1030E00008080810E000203F202020100F0008F8FA
:1030F0008888E8081000203F20202320180008F8C6
:103100008888E8081000203F200003000000C0303D
:1031100008080838000007182020221E020008F8BE
:1031200008000008F808203F210101213F20000885
:1031300008F8080800000020203F202000000000C0
:103140000808F8080800C08080807F00000008F8A8
:1031500088C028180800203F20012638200008F8E1
:10316000080000000000203F20202020300008F848
:10317000F800F8F80800203F003F003F200008F862
:1031800030C00008F808203F200007183F00E0107A
:1031900008080810E0000F10202020100F0008F889
:1031A00008080808F000203F210101010000E0109C
:1031B00008080810E0000F18242438504F0008F8C1
:1031C000888888887000203F2000030C3020007021
:1031D0008808080838000038202121221C0018081F
:1031E00008F8080818000000203F2000000008F838
:1031F00008000008F808001F202020201F00087881
:10320000880000C83808000007380E010000F808E0
:1032100000F80008F800033C0700073C030008180A
:1032200068808068180820302C03032C3020083870
:10323000C800C83808000000203F20000000100827
:103240000808C8380800203826212020180000006F
:1032500000FE020202000000007F40404000000C1F
:1032600030C000000000000000010638C00000026D
:103270000202FE000000004040407F00000000000D
:103280000402020204000000000000000000000030
:10329000000000000000808080808080808000022C
:1032A0000204000000000000000000000000000018
:1032B0008080808000000019242222223F2008F80C
:1032C000008080000000003F112020110E0000004F
:1032D000008080800000000E1120202011000000DE
:1032E00000808088F800000E112020103F20000090
:1032F000808080800000001F222222221300008094
:1033000080F0888888180020203F202000000000DE
:10331000808080808000006B94949493600008F813
:10332000008080800000203F210000203F2000809E
:103330009898000000000020203F2020000000009E
:1033400000809898000000C08080807F000008F80E
:10335000000080808000203F24022D3020000008E3
:1033600008F8000000000020203F2020000080809E
:10337000808080808000203F20003F20003F8080B0
:10338000008080800000203F210000203F200000BE
:10339000808080800000001F202020201F0080806F
:1033A00000808000000080FFA12020110E0000009E
:1033B000008080808000000E112020A0FF8080808F
:1033C00080008080800020203F212000010000003C
:1033D0008080808080000033242424241900008011
:1033E00080E0808000000000001F2020000080801E
:1033F000000000808000001F202020103F208080DF
:1034000080000080808000010E300806010080806E
:103410000080008080800F300C030C300F00008093
:103420008000808080000020312E0E3120008080BE
:1034300080000080808080818E70180601000080EE
:103440008080808080000021302C2221300000000C
:103450000000807C020200000000003F40400000AD
:103460000000FF00000000000000FF00000000025C
:10347000027C800000000040403F00000000000689
:1034800001010202040400000000000000003F06E9
:103490005B4F666D7D077F6F777C395E7971323067
:1034A0003232313638390000C834000800000020BC
:1034B00030030000180500084037000830030020E2
:1034C000E8050000E42A000832012A1004100F1059
:1034D000D0FF90104242E252CA4642E04013040339
:1034E00012FF400A21104C23184780403F4C80BEF9
:1034F000AA0133BF821010048484444424140F149E
:10350000242444C446043B4042012AFE051443627D
:1035100040100880804020100C031008030C10207D
:1035200040C0401008E01008080810E010080F1014
:10353000202020100F5408F8081B203F101B2030BB
:10354000103E8888E80810102C23201820393039C4
:10355000201930151060028C100B84E41C05C6BCC9
:103560002424E4041C04047EBB500AFF8241261874
:10357000294681802B7F4901627F2AFF0C6AFF0761
:10358000414BFE920142FE180940424458407F40A0
:10359000400415504846404A40C13AC206134040D4
:1035A00015201008062B40804D1502040830180B1A
:1035B000100C048414640506F4040113140C101098
:1035C000048484444724140C070C14244484041EEB
:1035D00002FA8282FEF41008504C434C50204010F6
:1035E0001008184884443F404458414E60584740B2
:1035F000180F1010F01F10F0403C1010FF101010AA
:10360000802E2215081621752A7F712119E61E08C1
:1036100014678444544119663D02FE43438F39B117
:103620000111D336362B0282013AFE061A02604996
:103630000129E2290119B024C4B48C2008E404044F
:10364000FE424342180B804428182720404F484828
:10365000031A48802142FF396C190A458040300F17
:103660005A3F103D404042CC554AFF50311B7F200D
:10367000C849362118100804F35256525250545378
:103680005256F20202F02D97553D15011CFD1517FB
:10369000F1171010D0FF90103DFE020202631B04D0
:1036A000033A2C83601F631C40407820100E10FFEB
:1036B0009020984828090E2848A8182D0242817F9A
:1036C000751C42427E0412402F40504E4848FFABCA
:1036D0005AF87410083E0202FF12221E1D0F40808D
:1036E0007FA0199F19BE2B92920351100E3F100814
:1036F00022120A06FF060A122220172424A4FE23FF
:10370000222B3E22011A3EB0180B0601FF01064093
:103710004949497F04124110218081828384858632
:1037200087909192939495969788898A8B8C8D8EA9
:103730008F98999A9B9C9D9E9F53127A000000003F
:0400000508000131BD
:00000001FF
