:020000040800F2
:100000000806002045010008471E0008E717000801
:10001000451E00082D050008772600080000000096
:1000200000000000000000000000000001220008A5
:100030002F05000800000000052100080322000829
:100040005F0100085F0100085F0100085F01000810
:100050005F0100085F0100085F0100085F01000800
:100060005F0100085F0100085F0100085F010008F0
:100070005F0100085F0100085F0100085F010008E0
:100080005F0100085F0100085F0100085F010008D0
:100090005F0100085F0100085F0100085F010008C0
:1000A0005F0100085F0100085F0100085F010008B0
:1000B000712200087D2200085F0100085F0100082E
:1000C0005F0100085F0100085F0100085F01000890
:1000D0005F0100085F0100085F0100085F01000880
:1000E0005F0100085F0100085F0100085F01000870
:1000F0005F0100085F0100085F0100085F01000860
:100100005F0100085F010008892200085F01000804
:100110005F0100085F0100085F0100085F0100083F
:100120005F0100085F0100085F0100085F0100082F
:10013000DFF80CD000F0D8F900480047E9260008A5
:10014000080600200648804706480047FEE7FEE70D
:10015000FEE7FEE7FEE7FEE7FEE7FEE7FEE7FEE777
:100160006D22000831010008D2B201E000F8012B35
:10017000491EFBD270470022F6E710B513460A4627
:1001800004461946FFF7F0FF204610BD2DE9FE4F4B
:10019000804681EA0300C00F0C46009021F0004128
:1001A00023F00045B8EB0200A94105D240462146A4
:1001B00090461C460B46024623F00040104347D0B1
:1001C000270DC7F30A00C3F30A510290401A0190A9
:1001D00040286BDAC3F3130040F4801B009892466A
:1001E00020B10023D2EB030A63EB0B0B01985946B5
:1001F000C0F14002504600F0C1F806460D46504698
:100200005946019A00F0C9F810EB0800614100243A
:1002100087EA115284EAE7731A4340D0009A62B326
:10022000019A012A4FEA075215DC001B61EB02011B
:100230004FF0004202EA0752CDE90042001C41F5AE
:10024000801132462B4600F000F903B0BDE8F08F74
:1002500040462146F9E7001B61EB0201001C41F515
:10026000801300185B412018A2F5001747EB03012B
:1002700040EAD570B6196D4111E06D084FEA3606B7
:1002800045EAC0754FEA0752001B61EB0201001CF2
:1002900041F5801149084FEA3000001951413246BA
:1002A0002B4603B0BDE8F04F00F0C0B80098012223
:1002B00040000023D0EB020263EBE073009821467C
:1002C0004FEAE074B8EB000061EB0401E9E783F06A
:1002D00000435BE781F0004158E7002801DBC0F1F3
:1002E0000040002901DBC1F10041814201D8012019
:1002F00070470020704720F00040C10DC0F3160089
:1003000040F400007F2901DA00207047962903DCC1
:10031000C1F19601C840704796398840704700F097
:10032000004230F000400AD0C10D01F56071C0F309
:10033000160042EA0151C2084007114370470020ED
:100340000146704701F0004330B421F0004150EA0B
:10035000010206D00A0DA2F56072C1F31301002A52
:1003600002DC30BC00207047440F44EAC104C100E5
:10037000E01830BC00EBC25000F021B8202A04DBAA
:10038000203A00FA02F1002070479140C2F12003A8
:1003900020FA03F3194390407047202A06DBCB175D
:1003A000203A41FA02F043EAE07306E041FA02F330
:1003B000D040C2F1200291400843194670470029FD
:1003C000A8BF7047401C490008BF20F001007047DB
:1003D00010B4B0FA80FC00FA0CF050EA010404BF3B
:1003E00010BC704749B1CCF1200421FA04F411FA91
:1003F0000CF118BF012121430843A3EB0C01CB1DD5
:100400004FEA00614FEA102042BF002010BC704745
:1004100000EBC35010440029A4BF10BC7047401C1F
:10042000490008BF20F0010010BC704710B5141E31
:1004300073F1000408DA401C41F1000192185B419D
:100440001A4301D120F0010010BD2DE9F04D924674
:100450009B4611B1B1FA81F202E0B0FA80F220328B
:100460009046FFF78BFF04460F4640EA0A0041EA38
:100470000B0153465A46084313D0114653EA010074
:1004800019D0C8F14002504600F040F805460E462B
:10049000504659464246FFF771FF084305D00120F8
:1004A00004E020463946BDE8F08D0020054346EAC9
:1004B000E0762C4337430A986305E40AA0EB080072
:1004C0000022FD0A44EA47540A3002D500200146C2
:1004D000E9E7010510196941DDE90845001969419D
:1004E000BDE8F04DA2E70000064C074D06E0E068CD
:1004F00040F0010394E8070098471034AC42F6D36B
:10050000FFF71AFE88330008A8330008202A04DB0E
:10051000203A21FA02F00021704721FA02F3D0407C
:10052000C2F120029140084319467047FEE7704728
:10053000EFF3108072B6FEE7B0B5044600F0F8F8AD
:1005400005467D48611C007818BF044400F0F0F8AF
:10055000401BA042FAD3B0BD2DE9FC4F81465F4855
:1005600006234FF0000C4FF001084FF00F0E4FF034
:10057000000A81455A4808BF052348444FEAB02283
:10058000052A4FF0000238BF4FEAB02300930C68F1
:1005900034FA02F508BFBDE8FC8F08FA02F73C42C6
:1005A00000F098804D68032D16D9112D26D0122DFC
:1005B00028D04F48854213D04E48854210D04E482F
:1005C00085420DD04D4885420AD04D48854207D01E
:1005D0004C48854204D022E0DFE805F002181B1FDA
:1005E0008C6844B1012C4FF0080A14BFC9F814708C
:1005F000C9F8107013E04FF0040A10E0CC6804F161
:10060000040A0CE0CC6804F10C0A08E0D1F80CA054
:1006100005E0CC6804F1080A01E04FF0000A082A5E
:100620006446484628BF203C28BF043006680EFABE
:1006300004F50AFA04F426EA05052C430460C87997
:10064000C00647D52948274E22F003050346006817
:10065000B346354440F00100186018682A4B00F09A
:10066000010001900CF00C00019E0EFA00F49E4671
:10067000EE58009B03FA00F026EA04041A4B2043CC
:1006800045F80E004FF00F0E4D68DBF8080015F42A
:10069000801F0CBF20EA070440EA0704A802CBF839
:1006A0000840186854BF20EA070440EA0704A8037A
:1006B0001C60DBF8040054BF20EA070440EA07048A
:1006C000E803CBF80440DBF8000054BFB8433843DC
:1006D000CBF800000CF1040C013258E7001C01407B
:1006E00000F8FEBF000401400C0401401810024055
:1006F0000000111000001210000021100000221054
:10070000000031100000321008FCFFFF8068084034
:1007100018BF01207047C26802EA0103914341EA11
:10072000034101617047002A08BF09040161704755
:10073000DF488068704700BF00000020B0B5044665
:1007400058B394F83D0028B9002084F83C002046B6
:1007500000F04CF9242084F83D002068016821F065
:1007600001010160016841F400410160016821F468
:100770000041016000F098FA4C494D4B00224D4D6C
:1007800088424FF0000138BF0121984238BF012252
:100790006368AB4238BF0A460AB10120B0BD464982
:1007A000B0FBF1F221684D6825F03F0515434D601F
:1007B0000D6A25F03F0C414DAB4213D80132013890
:1007C00042EA0C020A625A004CF6FF73B0FBF2F0E8
:1007D00001306FF31F30042898BF0420CA6922EA51
:1007E000030C3AE04FF49675A0F1010E6A434FF402
:1007F0007A75B2FBF5F24CF6FF75013242EA0C0253
:100800000A62CA6922EA050CA26842B119200425CD
:100810005843BEFBF0F0013065F31F3006E003EBF8
:100820004300BEFBF0F001306FF31F30000509D02C
:1008300052B1192004225843BEFBF0F0013062F39C
:100840001F3008E0012008E003EB4300BEFBF0F09E
:1008500001306FF31F3040F4004040EA0C00C861E3
:100860000868D4E9072320F0C000104348F2FF32A3
:100870001843086088689043D4E903231843104361
:100880008860C868D4E9052320F0FF0010431843AE
:10089000C860086840F00100086000202021206442
:1008A00084F83D10206384F83E00B0BD80841E00B3
:1008B00000093D00A186010040420F00A086010012
:1008C0002DE9FE43994616460F460446FFF730FFD2
:1008D000054694F83D0020280BD1424920460122CC
:1008E0001923009501F023F818B994F83C00012869
:1008F00004D10220C0B203B0BDE8F0830DF1280896
:10090000012298E8030184F83C202268136813F060
:10091000010F02BF136843F001031360136823F44F
:100920000063136021224B4684F83D20402284F866
:100930003E2000222264618560622B493246608D30
:10094000E162394620852046CDE9008500F064FF4C
:1009500008B10120CEE7208D4FF6FF7622E0204639
:1009600041462A4601F086F820BB616A22680846A3
:1009700010F8013B13616062238D581E20853042C0
:10098000678DA7F101076785576918BF17F004073E
:1009900008D0487802311061981E20856162618D0F
:1009A000013961850004DAD1204641462A4600F02B
:1009B00091FF40B1206C0428CBD12068016841F43C
:1009C00000710160C5E72068016841F400710160B1
:1009D000202084F83D00002084F83C0084F83E008C
:1009E00088E700BF020010000000FFFF10B586B0CE
:1009F0000021CDE90411CDE90211016811488142BD
:100A00001DD13A4C00F53840216841F008012160C1
:100A1000216801F008010191019912210391C0217F
:100A200002910321059102A9FFF796FD606840F449
:100A300000106060606800F400100190019806B03A
:100A400010BD00BF0054004019480178826811446D
:100A50008160704780B50748016841F0100101606E
:100A6000032000F077F80F2000F006F800F022F8DD
:100A7000002080BD0020024070B50D4E04464FF4AA
:100A80007A713078B1FBF0F08C490968B1FBF0F075
:100A900000F050FC01250F2C08D838B94FF0FF307A
:100AA00021460022002500F033F87460284670BD0E
:100AB0000000002082B00D480222016841F00101CF
:100AC0000160016801F0010101910199416841F063
:100AD00080514160406800F08050009000980448C8
:100AE000016862F31A61016002B070471810024099
:100AF00004000140002808DB00F01F01012240092A
:100B000002FA01F1014A42F82010704700E100E0CA
:100B100010B5164B1B68C3F3022E0EF1040CAEF198
:100B200003048EF00703BCF1070F4FF0010C38BF30
:100B30000024042B28BF04230CFA03F3013B1940C3
:100B40000CFA04F3013BA1401A401143BDE81040E8
:100B500001F0B8BD05494FF6FF030A681A4060F37B
:100B60000A22034810430860704700BF0CED00E004
:100B70000000FA052DE9F04188460446002800F0FF
:100B80008880464F4FF48050395801F007014145A5
:100B90000AD2395821F0070141EA08013950385882
:100BA00000F00700404574D1206810F0020F11D00A
:100BB000410742BF796841F4E0617960010742BFB3
:100BC000796841F4605179607968A26821F0F00198
:100BD00011437960C00727D06068012804D13968C3
:100BE00011F4003F08D154E03968022802D189018C
:100BF00002D44EE089074CD5796821F003010843FF
:100C00007860FFF795FD064641F28835786861689F
:100C100000F00C00B0EB810F06D0FFF789FD801BC0
:100C2000A842F3D9032035E04FF48050395801F041
:100C3000070141450AD9395821F0070141EA080165
:100C40003950385800F00700404522D1206810F094
:100C5000040F05D07968E26821F4E06111437960FE
:100C6000000706D57868216920F4605040EAC10089
:100C7000786000F027F87968094AC1F30311515CE4
:100C8000C8400E49086007480068FFF7F5FE0020DD
:100C900000E00120C0B2BDE8F08100BF00100240BA
:100CA0003E2B000804000020F748F549044A00687C
:100CB0000968C1F30221515CC84070472C00002034
:100CC0004E2B000810B50D4C0D48226802F00C03A5
:100CD000082B18BF10BDC2F383430AA112F4803F52
:100CE000CB5C02D10C48584310BD216809A258437F
:100CF000C1F34041515CB0FBF1F010BD0410024063
:100D000000127A0002030405060708090A0B0C0DFD
:100D10000E0F10100102000000093D002DE9FE43F6
:100D20000446002800F05C812078D44ED44FC007E0
:100D3000B14650D0386800F00C00042818D038684C
:100D400000F00C00082803D1386810F4803F0FD160
:100D50006068A0B1B0F5803F06D03168B0F5A02F33
:100D600025D141F480203060306840F4803024E0A8
:100D7000306810F4003F2ED0606860BB30E130680E
:100D800020F480303060306820F480203060FFF73D
:100D9000CFFC0546D9F800004E4610F4003F1AD0AB
:100DA000FFF7C6FC411B03206429F3D919E121F4A4
:100DB00080303060306820F480203060FFF7B8FC6D
:100DC0000546306810F4003F05D1FFF7B1FC401B29
:100DD0006428F6D9E6E0207880072FD5386810F02F
:100DE0000C0F08D0386800F00C0008280BD13868C8
:100DF00010F4803F07D1306810F0020F17D020693F
:100E0000012814D0ECE021699E48002900F08A8076
:100E100001210160FFF78CFC0546306810F0020FDD
:100E200005D1FFF785FC401B0228F6D9BAE03068EF
:100E3000616920F0F80040EAC100306020780007C6
:100E400030D5A06980B18F480121C0F88014FFF728
:100E50006FFC0546386A10F0020F16D1FFF768FCE8
:100E6000401B0228F6D99DE086480021C0F8801476
:100E7000FFF75EFC0546386A10F0020F12D0FFF74C
:100E800057FC401B0228F6D98CE07F484FF4FA51FA
:100E90000068B0FBF1F0029000BF0298411E0028EC
:100EA0000291F9D12078400740F18580B86910F0AF
:100EB000805F0BD1B8694FF0010840F08050B861F5
:100EC000B86900F080500190019801E04FF00008EF
:100ED0006E4E484659F8060010F4807F14D159F838
:100EE000060040F4807049F80600FFF721FC054633
:100EF000484659F8060010F4807F05D1FFF718FC2A
:100F0000401B6428F4D94DE0E068F0B1012805D019
:100F1000F969052831D141F00400F861F86940F021
:100F2000010030E000210160FFF702FC0546484661
:100F3000D9F8000010F0020F3FF480AFFFF7F8FB84
:100F4000411B03200229F2D94BE0F86920F001008F
:100F5000F861F86920F00400F861FFF7E9FB054645
:100F600041F28836F86910F0020F1DD0FFF7E0FB60
:100F7000411B0320B142F5D933E021F00100F861B3
:100F8000F86920F00400F861FFF7D2FB054641F252
:100F90008836F86910F0020F06D1FFF7C9FB401B35
:100FA000B042F6D903201CE0B8F1000F1EBFB869AB
:100FB00020F08050B861E669002E5DD0386800F0FE
:100FC0000C00082811D1012E0AD03868216A00F4DB
:100FD00080328A4204D1616A00F4701088424BD09A
:100FE0000120C0B203B0BDE8F08326490020884646
:100FF0000866FFF79DFB0546022E0DD14646484682
:10100000D9F8000010F0007F13D0FFF791FB411BCF
:1010100003200229F3D9E4E74846D9F8000010F08C
:10102000007F29D0FFF784FB411B03200229F3D95D
:10103000D7E7206AB0F5803F05D13968A26821F46E
:101040000031114339603968626A104321F4741128
:101050000843386001203066FFF76AFB04464846C3
:10106000D9F8000010F0007F06D1FFF761FB011BEB
:1010700003200229F3D9B4E70020B2E700100240B0
:1010800004100240000042422C0000200060FEFFDD
:1010900070B5044630B1606A30B10020206104F1BF
:1010A000140007E001264CE06068B0F5827F03D0B1
:1010B00004F11C000021016000264FF0000CA66224
:1010C00094F8510038B9204684F8506000F03CF89C
:1010D000A06A00F4005C022184F8511021680A68BB
:1010E00022F040020A60D4E90123D4E9030502F4A6
:1010F000827203F4044300F400601A43104305F0C5
:1011000002021043626902F001021043A26902F474
:1011100000731843E36903F038031843236A03F0AC
:101120008003184340EA0C000860042000EA1240E3
:101130004860C86920F40060C8610120666584F8D1
:101140005100304670BD000070B586B00026194CC5
:10115000CDE90466CDE90266006804F520518842B5
:1011600025D1154802AD016841F480510160016844
:1011700001F4805101910199016841F0040101607D
:101180002946006800F004000190019802200390B5
:10119000A0200290032005902046FFF7DDF94020B3
:1011A00003962946029020460496FFF7D5F906B02B
:1011B00070BD00BF00080140181002402DE9FC413D
:1011C0001D4616460F460446FFF7B2FA804694F8CD
:1011D0005100012806D101202FB126B194F850000A
:1011E000012804D10220C0B202B0BDE8F081032082
:1011F000012184F8510000206065E68684F85010D3
:101200002763A686A063A087C4E91000E087A168D1
:101210002068B1F5004F07D1016821F0400101605D
:10122000016841F4804101600168731EB3FA83F3E1
:1012300011F0400F4FEA531302BF016841F0400123
:1012400001606168E268B1FA81F1B2F5006F4FEABE
:10125000511141EA030122D131B137F8021BC160BB
:101260002763E08E0138E0866E1C14E020688168F8
:1012700011F0020F07D1FFF75BFA66B1A0EB08008F
:10128000A84208D34EE0216B31F8022BC2602163E3
:10129000E08E0138E086E08E0028E7D123E039B106
:1012A00039780173206B01302063E08E0138E086CD
:1012B0006E1C15E02068816811F0020F07D1FFF75E
:1012C00037FA6EB1A0EB0800A84209D32AE0216BDF
:1012D00009780173206B01302063E08E0138E086CD
:1012E000E08E0028E6D120462946424600F00BFF5A
:1012F00008B120206065A06838B9002001902068FE
:10130000C1680191806801900198012084F8510022
:10131000002084F85000606D002818BF012002B042
:10132000BDE8F081002084F85000012084F85100CD
:10133000032058E7411E0020B0EB116F1CBF0120B5
:101340007047044AF023516003490B7007219060F5
:101350001160704710E000E023ED00E07047704737
:1013600090F83C300222012B2ED080B580F83D2031
:10137000012280F83C2002685368D2F808C0B2F11C
:10138000804F23F0700E0B6843EA0E035360BDE8F4
:1013900080400ED05C4B9A420BD05C4B9A4208D0F6
:1013A0005B4B9A4205D05B4B9A4202D05A4B9A4211
:1013B00004D149682CF08003194391600022012177
:1013C00080F83C2080F83D10D0B2704710B504463C
:1013D00030B394F83D0028B9002084F83C00204642
:1013E00000F020F80220211D84F83D00206800F064
:1013F00051FF012084F8460084F83E0084F83F0045
:1014000084F8400084F8410084F8420084F84300E6
:1014100084F8440084F8450084F83D00002010BDA5
:10142000012010BDF8B500683949884217D0364907
:10143000884225D0B0F1804F18BF8FBD1B480022D5
:10144000016841F0010101600121006800F0010024
:10145000039003981C20FFF75BFB1C2020E013483F
:101460000022016841F0080101600021006800F0DD
:101470000800019001983220FFF74AFB32200FE06C
:101480000A480022016841F0020101600021006861
:1014900000F00200029002981D20FFF739FB1D208A
:1014A00004B0BDE88040FFF725BB00BF1C10024020
:1014B00090F83D1001291CBF01207047022180F8DF
:1014C0003D100068C168B0F1804F41F00101C1607A
:1014D0000ED00D4988420BD00C49884208D00C49E7
:1014E000884205D00B49884202D00B49884204D17A
:1014F000816801F00701062903D0016841F001016C
:1015000001600020704700BF000400400008004058
:10151000000C004000340140002C014010B590F850
:101520003C2004460220012A70D084F83D000120AE
:101530004FF6777384F83C00206882689A43826093
:101540000A6812B3102A20D0202A1ED0302A1CD0BC
:10155000402A21D0502A2BD0602A35D0B2F5005F26
:101560003ED0B2F5805F4AD0702A51D1D1E9012333
:10157000C9681A4342EA0121826822F47F4211437A
:101580008160816841F0770138E0816821F077015E
:10159000114341F0070131E04B68CA68194600F079
:1015A000BBFE2068816821F0770141F0470125E00A
:1015B0004B68CA68194600F0AFFE2068816821F0C8
:1015C000770141F0570119E04B68CA68194600F0ED
:1015D000B4FE2068816821F0770141F067010DE0D9
:1015E000D1E90123C9681A4342EA0121826822F441
:1015F0007F4211438160816841F480418160002015
:10160000002184F83C10012184F83D10C0B210BDC7
:101610000120F5E77047B0B504460068C16802696B
:1016200002EA010515F0020F14D06FF0020101610A
:1016300001212177806910F0030F03D02046FFF7C6
:10164000E9FF05E0204600F074F8204600F072F84B
:1016500000202077680715D520686FF0040101612C
:1016600002212177806910F4407F03D02046FFF7E4
:10167000D1FF05E0204600F05CF8204600F05AF863
:1016800000202077280715D520686FF00801016138
:1016900004212177C06910F0030F03D02046FFF723
:1016A000B9FF05E0204600F044F8204600F042F87B
:1016B00000202077E80615D520686FF01001016141
:1016C00008212177C06910F4407F03D02046FFF73E
:1016D000A1FF05E0204600F02CF8204600F02AF893
:1016E00000202077E80706D020686FF00101016133
:1016F000204600F021F8280606D520686FF080010A
:1017000001612046FFF72AFE680606D520686FF0C3
:1017100040010161204600F065F8A80658BFB0BD41
:1017200020686FF0200101612046BDE8B040FFF75E
:1017300016BE704770470000204A1F49904207D1EB
:101740000A68012A04D121484FF40051FEF7E3BF93
:10175000B0B51B4A90420ED01A49884218BFB0BD9E
:10176000194801680131CA1701EB527222F00702D1
:10177000891A0160B0BD4868012804D113484FF4AC
:101780000051FEF7C8FF124D12492C682046FEF7A3
:10179000A4FD08B900242C600F480068012800D17E
:1017A000B0BD2046FEF7BBFD0C4A0D4BFEF7EEFC2C
:1017B000FEF7C8FD2860B0BD3000002020010020E9
:1017C00068010020B001002000020020001001404C
:1017D00050000020286B6E4E4C0000209A99999979
:1017E0009999B93F7047FEE702680021536913F4E5
:1017F000806F0ED09E4B53612022016380F83D2004
:1018000080F83E1080F83C10016C41F00401016446
:1018100001210846704700BF2DE9FE4304460068D9
:101820000F460A9D0B9E99469046002201682B4662
:1018300041F48071016020464FF00111009600F0E4
:1018400076F848B12068006810F4807F1CBF4FF420
:101850000070206403200BE0206807F0FE012A4698
:10186000334601611A49204600F0AAF820B1012050
:10187000C0B203B0BDE8F083002032460290206879
:10188000416902912946806902900298204600F041
:10189000F1F840B1206C0428E9D12068016841F4D6
:1018A00000710160E3E7B9F1010F0AD020684FEA47
:1018B0001821324601612046294600F0DBF8002855
:1018C000E8D120685FFA88F101610020D0E700BF0D
:1018D00002000100F8B515460E4604464F1C20686C
:1018E000406910F0040F1FD12046FFF77DFFC8B9F3
:1018F000002FF4D0FEF71CFF16B1401BB042EED90A
:101900002068406910F0040FE9D1002020212063F5
:1019100084F83D1084F83E0084F83C00206C40F0D0
:1019200020002064012000E0002001B0F0BD2DE97E
:10193000F047DDF820909846164604468FB201F431
:101940007F0503F1010AB5F5803F4FF0180008BF8D
:101950001420216808583840C01BB0FA80F04009B4
:10196000B0421CBF0020BDE8F087BAF1000FEAD0FA
:10197000FEF7DEFEB8F1000F03D0A0EB09004045F2
:10198000E1D9B5F5803F4FF0180008BF1420216859
:1019900008583840C01BB0FA80F04009B042D2D19C
:1019A00000202021206384F83D1084F83E0084F854
:1019B0003C00206C40F0200020640120BDE8F0874E
:1019C0002DE9F8439846914604468FB201F47F050D
:1019D000561C2068B5F5803F06D1014651F8142FFA
:1019E0003A40BA4206D12AE081693940B94226D04C
:1019F00000F11401096811F4806F22D1002EE8D0A3
:101A0000FEF796FEB9F1000F03D0A0EB08004845A1
:101A1000DFD92068B5F5803F0CBF40698069384048
:101A2000B842D6D000202021206384F83D1084F8ED
:101A30003E0084F83C00206C40F0200013E00020C1
:101A400013E0016841F4007101600949416100201F
:101A50002021206384F83D1084F83E0084F83C0087
:101A6000206C40F004002064012001B0BDE8F08348
:101A7000FFFBFFFFF8B515460E4604464F1C2068D5
:101A8000406910F0800F1FD12046FFF7ADFEC8B9A6
:101A9000002FF4D0FEF74CFE16B1401BB042EED939
:101AA0002068406910F0800FE9D1002020212063D8
:101AB00084F83D1084F83E0084F83C00206C40F02F
:101AC00020002064012000E0002001B0F0BD0000F3
:101AD000B0B50E4D09A2002000210024A8470CA299
:101AE00001200021A8470BA202200021A8470D4A8F
:101AF00003200021A8470C480460B0BD63757272D2
:101B0000656E74206B65793A000000002D1B00089B
:101B100039000000686973746F7279206B65793AD7
:101B200000000000B8000020FC01002010B51446A1
:101B3000064A02EBC000405C00F068FF02E000F0E3
:101B400087FF013420780028F9D110BD0C00002057
:101B50000F490020302201E00A5401300828FBD14F
:101B6000B0B50C4D3220A8470B4C3020A0470220C6
:101B7000A8470220A8470C20A0470120A847022020
:101B8000A8470120A04702202946BDE8B0400847E9
:101B900058000020390500080D2A00082DE9F04FF3
:101BA00085B03648002242F210080024016841F056
:101BB00010010160016801F01001019101990168B3
:101BC00041F020010160016801F0200101910199BB
:101BD000016841F004010160016801F00401019114
:101BE0000199016841F00801016042F210010068AA
:101BF00000F0080001900198214800F500660546B4
:101C00003046FEF790FD05F5806540F23F41002229
:101C100040F23F492846FEF786FD4FF0010A01AF2A
:101C20004FF0020B3046CDE9018ADFF8C88D394606
:101C30000394CDF810B0C04728463946CDE9019A43
:101C4000CDE9034BC0474FF4FC5002943946019054
:101C500030460394C0474FF4004002943946019047
:101C600007480394C0474FF400700294394601902E
:101C700028460394C04705B0BDE8F08F1810024015
:101C80000008014080B50C480C490D4A00234FF470
:101C9000804C0362C0E90021C0E90233C0E904C3FB
:101CA000C0E90633FEF74AFD002814BFBDE88040B6
:101CB00080BDFEF73DBC00BF64000020A08601008F
:101CC0000054004010B51048104A4FF482710023B0
:101CD0004FF0010C4FF4007E3824C0E9002100F1E0
:101CE0001001C0E9023381E808500A21C461C0E94B
:101CF0000833C0E90A31FFF7CBF9002814BFBDE86B
:101D0000104010BDFEF714BCC80000200030014098
:101D1000FEB5174800214FF0804242F210734FF495
:101D2000E15CCDE90411CDE90211C0E90023C0E96D
:101D3000021C01618161CDE90011FFF747FB08B189
:101D4000FEF7F6FB4FF4805002A902900848FFF717
:101D5000E5FB08B1FEF7ECFB00206946CDE9000089
:101D60000348FFF7FDFA08B1FEF7E2FB06B080BDBD
:101D700020010020FEB51748174A002142F21073D7
:101D80004FF4347CCDE90411CDE90211C0E9002300
:101D9000C0E9021C01618161CDE90011FFF716FB6A
:101DA00008B1FEF7C5FB4FF4805002A90290094824
:101DB000FFF7B4FB08B1FEF7BBFB00206946CDE995
:101DC00000000448FFF7CCFA08B1FEF7B1FB06B0FB
:101DD00080BD00BF6801002000040040FEB5174828
:101DE000174A002142F210734FF4347CCDE90411FC
:101DF000CDE90211C0E90023C0E9021C0161816143
:101E0000CDE90011FFF7E2FA08B1FEF791FB4FF4BC
:101E1000805002A902900948FFF780FB08B1FEF745
:101E200087FB00206946CDE900000448FFF798FAD7
:101E300008B1FEF77DFB06B080BD00BFB0010020F9
:101E4000000C0040FEE7FEE7002000F001B80000B3
:101E5000F8B53B4E04460025E8B2072888BFF8BD18
:101E6000A5F15000C0B2B04700200027B0471020B5
:101E7000B04703E0204600F011FC013778B200289B
:101E8000F8DA0135E8E700BF10B5C820FEF754FBCB
:101E90002B4CAE20A0472020A0471020A047B02008
:101EA000A047C020A0470020A0471020A047402006
:101EB000A0478120A047FF20A047A020A047A62040
:101EC000A047A820A0473F20A047A420A047D32098
:101ED000A0470020A047D520A047F020A047D92048
:101EE000A0472220A047DA20A0471220A047DB20ED
:101EF000A0472020A0478D20A0471420A047AF2056
:101F00002146BDE810400847024A00200321022371
:101F100000F07AB87E330008B0B50446A1F1500055
:101F2000074DC0B2A847102040EA1410A84704F09B
:101F30000E00294640F00100BDE8B040084700BF50
:101F400079260008BCB54FF00A0E0023B2FBFEF55F
:101F50008DF8073005EB8503A2EB430343F0300314
:101F60008DF806304FF47A73B2FBF3F3B3FBFEF453
:101F700004EB8404A3EB440C4CF030038DF80330E5
:101F800042F21073B2FBF3F3B3FBFEF404EB8404F0
:101F9000A3EB440343F03004002B8DF802404FF0D4
:101FA0006404B2FBF4F2B2FBFEF404EB8404A2EB93
:101FB000440242F030048DF80440B5FBFEF404EB1B
:101FC0008404A5EB440E4EF030048DF8054015D185
:101FD00043F02003BCF1000F8DF802300ED14CF01D
:101FE0002003002A8DF8033008D142F02002BEF110
:101FF000000F8DF8042008BF8DF805200DF10202B6
:10200000022300F001F8BCBD2DE9FE4F934688463F
:102010000646012B47D0022B43D1384D0021CDF885
:1020200004B039E0F0B20291782888BF08F10108C5
:1020300088BF0026F7B25FFA88F13846FFF76CFFD9
:10204000A4F12000AA464FF00009C0B205EB00142D
:102050004FEA001B05E014F8090000F01FFB09F12E
:102060000109B9F1080FF6D108F10100C1B23846F3
:10207000FFF752FF4BF00800DDF804B0554600278B
:102080000AEB000403E0E05D00F008FB0137082FD5
:10209000F9D1029908360131C8B21BF80040002C72
:1020A000C0D1BDE8FE8FDFF858904FF0000A5FFA0C
:1020B0008AF01BF80040002C08BFBDE8FE8FF0B28C
:1020C0007E2888BF08F1010888BF00265FFA88F1E2
:1020D000F0B2FFF721FFA4F120000024C0B200EB12
:1020E000400009EB400703E0385D00F0D7FA013407
:1020F000062CF9D10AF1010A0636D8E77E2D000830
:10210000562B000870477CB50D46164600920221FA
:10211000012204462B4600F013F840B920468021E6
:1021200000222B460096002600F00AF820B1606DD0
:10213000032640F020006065F0B202B070BD0000E0
:102140002DE9F843DDF820801F4615460E4604466B
:10215000FEF7EEFAA8EB000000EB0709FEF7E8FA3D
:102160008046264801370068C0F3CB3000FB09F0F9
:1021700000900DE067B1FEF7DBFAA0EB08004845E0
:1021800014D20098009901390028009108BF8146B7
:10219000206880683040801BB0FA80F04009A84277
:1021A000E8D10020C0B201B0BDE8F08320684168EA
:1021B00021F0E00141606168B1F5827F0AD1A16838
:1021C000B1F5004F02D0B1F5806F03D1016821F065
:1021D00040010160A16AB1F5005F07D1016821F4F7
:1021E00000510160016841F400510160002084F851
:1021F0005000012084F851000320D3E72C00002078
:102200007047FEF721BCB0B590B0002401A814219E
:10221000CDE90B44CDE90944FDF7ADFF4FF4803023
:10222000012102250790069108940A91CDE90D50ED
:102230004FF4E0100F9006A8FEF770FD18B1EFF311
:10224000108072B6FEE70F20022101904FF48060EB
:102250000394CDE9040401A80295FEF78BFC18B1A4
:10226000EFF3108072B6FEE710B0B0BD704700000B
:102270000148FFF7D0B900BF200100200148FFF757
:10228000CAB900BF680100200148FFF7C4B900BF08
:10229000B00100200268B0F1804F0ED0194B984277
:1022A0000BD0194B984208D0184B984205D0184BC8
:1022B000984202D0174B984208D14B6822F45C7CBC
:1022C000CA6823F4407343EA0C031A434B6922F0B3
:1022D00080021A4302608A68C2620A6882620C4AFB
:1022E000904202D00B4A904201D109690163012159
:1022F0004161016911F0010F1EBF016921F0010167
:10230000016170470004004000080040000C0040DC
:1023100000340140002C0140D0F820C0036A23F0B3
:1023200001030362836923F0F00343EA021282612E
:102330002CF00A02114301627047D0F820C0036AF2
:1023400023F010030362836923F4704343EA0232EB
:1023500082612CF0A00242EA01110162704781B053
:102360000020009000983228A4BF01B07047009868
:102370000130F6E70138C3B2032B00D97047104B88
:102380000F2998BF0B44002A197818BF61F07F010C
:10239000032888BF7047DFE800F0020E060AC9B2C2
:1023A000682000F059B9C9B26C2000F055B9C9B223
:1023B0006E2000F051B9C9B26A2000F04DB900BFDB
:1023C0006E330008014618B103200022FFF7D2BF88
:1023D00070470000BFB501209E4C6D460190202043
:1023E0002946009000200290022003902046FEF72C
:1023F000B3F80820294600902046FEF7ADF800F01B
:102400009DF8764D204620210122A8472046102124
:102410000122A847204608210122A847084C48204D
:102420004721A04768200021A0476A200021A0473B
:102430006C200021A0476E200021A047BFBD00BF37
:10244000592600082DE9F04100F090F8492000F0ED
:10245000C9F800F065F87F4C0025002618E02046FA
:1024600020210022FEF75FF9FFF779FF20462021A7
:102470000122FEF758F9FFF772FF20461021FEF700
:1024800045F9002806F1010618BF012040EA45057C
:10249000F0B20728E3D9514F2046202100224FF007
:1024A0000008B84700F04AF8204610210022B8473B
:1024B0004B4EB047204620210122B847B047204666
:1024C00020210022B847B04700F06CF8E9B219B3F8
:1024D000C80708D1880708D448075ABF042000EA73
:1024E0005100032002E0012000E00220CA0608D4C7
:1024F0008A0608D44A065ABF042202EA511103216F
:1025000002E0012100E002214FF0000820B119B1E2
:1025100001EB800000F1FC085FFA88F0BDE8F08173
:10252000F8B510206946009000200390019001202A
:1025300002904848FEF710F88FBD00BFF8B50120A3
:102540006946019010200090002002900220039024
:102550004048FEF701F88FBD0721072828BF08462D
:1025600041EA0010C1B2482000F076B870B5FFF71C
:10257000E5FF384C194D102101222046A84720467E
:1025800020210122A847164EB047204610210022E4
:10259000A847B047204620210022A8473046BDE882
:1025A0007040004770B5FFF7C9FF2A4C0B4D202142
:1025B00000222046A847204610210022A847084EA6
:1025C000B047204620210122A847B04720461021CD
:1025D0000122A8473046BDE87040004727070008A1
:1025E0005F23000870B50546FFF7A8FF194C0026C9
:1025F00016E0FFF7B4FE68B21021B0F1FF3F2046AD
:10260000CCBF00220122FEF78EF8FFF7A8FE20467D
:1026100020210122FEF787F86D00FFF7A0FE0136AA
:10262000204620210022FEF77EF8F0B20828E0D3F1
:10263000FFF776FFFFF793FE204620210122FEF7E9
:1026400072F8FFF78CFE204620210022BDE8704082
:10265000FEF769B8000C0140B0B50C460546FFF71F
:1026600085FF2846FFF7BEFF2046FFF7BBFFBDE80A
:10267000B040FFF797BFFEE7F8B58DF80F00642074
:1026800001210DF10F020123CDE9002102900C4838
:1026900078210022FEF714F98FBD00BFF8B58DF840
:1026A0000F00642001210DF10F020123CDE900216B
:1026B0000290034878214022FEF702F98FBD00BF47
:1026C0006400002010B5074C00F00F03044AB0F17D
:1026D000FF3F2344C8BF83180801187010BD00BF16
:1026E00000E400E014ED00E02DE9F84F314801214D
:1026F0000160FEF7AFF9FFF786FDFFF74FFAFFF72E
:10270000E1FAFFF705FBFFF769FBFFF733FBFFF784
:10271000B9FA2948FEF7CCFE2848FEF7C9FEFFF7B4
:10272000B3FBFFF791FBFFF713FA25484FF4005175
:102730000122FDF7F8FFFFF7E7FBFFF74BFE05204F
:10274000FFF70AFF214EAD4F0FF278080FF2800914
:102750000FF28C0A0FF2980B29A4002000214246A8
:102760000123B047002003214A460123B04700203F
:10277000042152460123B047002005215A46012377
:10278000B0470020062122460123B04700F042F85E
:10279000386808B1FFF79CF9FFF754FE054628B1E9
:1027A0002846FFF70FFE3220FDF7C6FE284600F050
:1027B00073F9D2E7540000202001002068010020B6
:1027C0000010014074696D65720000000920000866
:1027D000707265737320312D3E20737461727400C2
:1027E000707265737320322D3E2065786974000025
:1027F000707265737320332D3E20706175736500B0
:10280000707265737320342D3E207A65726F206F6D
:10281000757400002DE9F04F85B04FF000084FF0BF
:1028200001090220724E01AF724DCDF80C80CDF837
:10283000089004904FF40040394601903046A84774
:102840004FF4E05006F50064394601902046A84751
:10285000DFF8A4A130464FF400410022D0472046C3
:102860004FF480610022D04720464FF400610022DF
:10287000D04720464FF480510022D04740F2074015
:1028800006F58066CDE90289394601903046A847B1
:102890000A20FDF751FE30460121FDF737FFA8B1B0
:1028A00030460221FDF732FFA0B130460421FDF78A
:1028B0002DFF98B130464FF48061FDF727FF0028C7
:1028C00040F090804FF0020B04200AE04FF0020B22
:1028D000012006E04FF0020B022002E04FF0020B55
:1028E000032001AFCDE90298CDE900093046394611
:1028F000A84730463946CDF804B0A84704203946E9
:1029000001903046A8474FF48069304639464FF071
:10291000010BCDF80490A847304601210022D04792
:10292000304602210022D047304604210022D04701
:1029300030464FF480610022D0472D4E4FF40040C6
:10294000CDE9028B394601903046A84720463946EA
:10295000CDF80490A8474FF4006039460190204616
:10296000A8474FF48050394601902046A8470A20D6
:10297000FDF7E2FD30464FF40041FDF7C7FEB8B168
:1029800020464FF48061FDF7C1FE78B120464FF438
:102990000061FDF7BBFE009D38B320464FF4805127
:1029A000FDF7B4FEF0B94FF00C0802E04FF0040858
:1029B000009D12480121144B016008EB050000F155
:1029C00036010B2838BF00F12F010D4801700D486A
:1029D00002689954511CCA1701EB127222F00F02BF
:1029E000891A016005B0BDE8F08F4FF00808E0E7F4
:1029F000000801405905000827070008FC010020D5
:102A000060000020F8010020B80000201CB5F8216B
:102A10001F4C01228DF8051000F0F00100018DF827
:102A200006108DF8070020461021FDF77CFE0120DE
:102A3000FDF782FD17480DF1050103224FF47A736B
:102A4000FEF7BCFB204610210022FDF76CFE1CBDEA
:102A50001CB5FA210E4C01228DF8051000F0F00192
:102A600000018DF806108DF8070020461021FDF7B3
:102A70005AFE08480DF1050103224FF47A73FEF760
:102A80009DFB204610210022FDF74DFE1CBD00BF1E
:102A900000100140C8000020411E03290FD81B4828
:102AA000DFE801F00B0205091848043005E017487B
:102AB0000121816007E015480C30012101601348B5
:102AC0008068012803D111480021816001610F480D
:102AD0004168012903D10021C0E9001104E0026826
:102AE000012A08BF002905D009A2002000210223E5
:102AF000FFF78ABA80B50069FDF7FDFB02460020AA
:102B00000021BDE88040FFF71DBA00BF4000002053
:102B1000707265737320746F207374617274000037
:102B200002E008C8121F08C1002AFAD17047704796
:102B3000002001E001C1121F002AFBD170470000F4
:102B4000000000000000010203040607080900005D
:102B50000000010203040000000000000000002F3C
:102B6000000000000700070000147F147F140024F9
:102B70002A7F2A1200626408132300364955225026
:102B800000000503000000001C224100000041225B
:102B90001C000014083E08140008083E0808000045
:102BA00000A060000008080808080000606000003D
:102BB000002010080402003E5149453E0000427FBB
:102BC0004000004261514946002141454B31001807
:102BD00014127F10002745454539003C4A494930C9
:102BE0000001710905030036494949360006494983
:102BF000291E00003636000000005636000000088E
:102C0000142241000014141414140000412214086A
:102C100000020151090600324959513E007C12114F
:102C2000127C007F49494936003E41414122007FE4
:102C30004141221C007F49494941007F090909019E
:102C4000003E4149497A007F0808087F0000417F23
:102C50004100002040413F01007F08142241007FD5
:102C600040404040007F020C027F007F0408107F3C
:102C7000003E4141413E007F09090906003E4151A5
:102C8000215E007F09192946004649494931000162
:102C9000017F0101003F4040403F001F2040201FB6
:102CA000003F4038403F0063140814630007087079
:102CB000080700615149454300007F41410000552C
:102CC0002A552A55000041417F00000402010204F8
:102CD00000404040404000000102040000205454E5
:102CE0005478007F48444438003844444420003835
:102CF0004444487F00385454541800087E090102A7
:102D00000018A4A4A47C007F080404780000447D7B
:102D10004000004080847D00007F102844000000B7
:102D2000417F4000007C04180478007C080404788B
:102D300000384444443800FC242424180018242477
:102D400018FC007C08040408004854545420000473
:102D50003F444020003C4040207C001C2040201C80
:102D6000003C4030403C004428102844001CA0A0F7
:102D7000A07C004464544C44141414141414000033
:102D80000000000000000000000000000000000043
:102D900000F80000000000000033300000000010C8
:102DA0000C06100C0600000000000000000040C0EF
:102DB0007840C0784000043F04043F0404000070E1
:102DC00088FC08300000001820FF211E0000F008D9
:102DD000F000E018000000211C031E211E0000F07E
:102DE0000888700000001E212324192721101016C6
:102DF0000E000000000000000000000000000000C5
:102E000000E0180402000000000718204000000243
:102E10000418E000000000402018070000004040B7
:102E200080F0804040000202010F01020200000019
:102E300000F0000000000101011F0101010000007D
:102E400000000000000080B07000000000000000E2
:102E5000000000000000000101010101010100006B
:102E60000000000000000030300000000000000002
:102E7000000080601804006018060100000000E0F7
:102E800010080810E000000F102020100F000010A4
:102E900010F8000000000020203F202000000070FB
:102EA00008080888700000302824222130000030F3
:102EB0000888884830000018202020110E000000EB
:102EC000C02010F8000000070424243F240000F86C
:102ED0000888880808000019212020110E0000E051
:102EE000108888180000000F112020110E000038F3
:102EF0000808C83808000000003F0000000000700B
:102F0000880808887000001C222121221C0000E093
:102F100010080810E0000000312222110F0000000C
:102F200000C0C000000000000030300000000000C1
:102F30000080000000000000806000000000000031
:102F400080402010080000010204081020004040CA
:102F5000404040404000040404040404040000080D
:102F600010204080000000201008040201000070C2
:102F700048080808F0000000003036010000C030AA
:102F8000C828E810E0000718272423140B000000CD
:102F9000C038E0000000203C23020227382008F857
:102FA000888888700000203F202020110E00C0304B
:102FB000080808083800071820202010080008F822
:102FC00008080810E000203F202020100F0008F81B
:102FD0008888E8081000203F20202320180008F8E7
:102FE0008888E8081000203F200003000000C0305F
:102FF00008080838000007182020221E020008F8E0
:1030000008000008F808203F210101213F200008A6
:1030100008F8080800000020203F202000000000E1
:103020000808F8080800C08080807F00000008F8C9
:1030300088C028180800203F20012638200008F802
:10304000080000000000203F20202020300008F869
:10305000F800F8F80800203F003F003F200008F883
:1030600030C00008F808203F200007183F00E0109B
:1030700008080810E0000F10202020100F0008F8AA
:1030800008080808F000203F210101010000E010BD
:1030900008080810E0000F18242438504F0008F8E2
:1030A000888888887000203F2000030C3020007042
:1030B0008808080838000038202121221C00180840
:1030C00008F8080818000000203F2000000008F859
:1030D00008000008F808001F202020201F000878A2
:1030E000880000C83808000007380E010000F80802
:1030F00000F80008F800033C0700073C030008182C
:1031000068808068180820302C03032C3020083891
:10311000C800C83808000000203F20000000100848
:103120000808C83808002038262120201800000090
:1031300000FE020202000000007F40404000000C40
:1031400030C000000000000000010638C00000028E
:103150000202FE000000004040407F00000000002E
:103160000402020204000000000000000000000051
:10317000000000000000808080808080808000024D
:103180000204000000000000000000000000000039
:103190008080808000000019242222223F2008F82D
:1031A000008080000000003F112020110E00000070
:1031B000008080800000000E1120202011000000FF
:1031C00000808088F800000E112020103F200000B1
:1031D000808080800000001F2222222213000080B5
:1031E00080F0888888180020203F20200000000000
:1031F000808080808000006B94949493600008F835
:10320000008080800000203F210000203F200080BF
:103210009898000000000020203F202000000000BF
:1032200000809898000000C08080807F000008F82F
:10323000000080808000203F24022D302000000804
:1032400008F8000000000020203F202000008080BF
:10325000808080808000203F20003F20003F8080D1
:10326000008080800000203F210000203F200000DF
:10327000808080800000001F202020201F00808090
:1032800000808000000080FFA12020110E000000BF
:10329000008080808000000E112020A0FF808080B0
:1032A00080008080800020203F212000010000005D
:1032B0008080808080000033242424241900008032
:1032C00080E0808000000000001F2020000080803F
:1032D000000000808000001F202020103F20808000
:1032E00080000080808000010E3008060100808090
:1032F0000080008080800F300C030C300F000080B5
:103300008000808080000020312E0E3120008080DF
:1033100080000080808080818E701806010000800F
:103320008080808080000021302C2221300000002D
:103330000000807C020200000000003F40400000CE
:103340000000FF00000000000000FF00000000027D
:10335000027C800000000040403F000000000006AA
:1033600001010202040400000000000000003F060A
:103370005B4F666D7D077F6F777C395E7971323088
:103380003232313638390000B033000800000020F6
:1033900030000000202B0008E0330008300000203F
:1033A000D8050000302B00080000000000000000DD
:1033B00001000000100000000000000080818283F6
:1033C00084858687909192939495969788898A8B25
:1033D0008C8D8E8F98999A9B9C9D9E9F00127A004F
:0400000508000131BD
:00000001FF
