:020000040800F2
:100000004807002045010008E32C0008ED280008FF
:10001000E12C00089D080008B13100080000000034
:10002000000000000000000000000000E12D0008BA
:100030009F08000800000000E52C0008E32D0008E0
:100040005F0100085F0100085F0100085F01000810
:100050005F0100085F0100085F0100085F01000800
:100060005F0100085F0100085F0100085F010008F0
:100070005F0100085F0100085F0100085F010008E0
:100080005F0100085F0100085F0100085F010008D0
:100090005F0100085F0100085F0100085F010008C0
:1000A0005F0100085F0100085F0100085F010008B0
:1000B000712E00087D2E00085F0100085F01000816
:1000C0005F0100085F0100085F0100085F01000890
:1000D0005F0100085F010008A93100085F01000806
:1000E0005F0100085F0100085F0100085F01000870
:1000F0005F0100085F0100085F0100085F01000860
:100100005F0100085F010008892E00085F010008F8
:100110005F0100085F0100085F0100085F0100083F
:100120005F0100085F0100085F0100085F0100082F
:10013000DFF80CD000F00AFB00480047D931000876
:10014000480700200648804706480047FEE7FEE7CC
:10015000FEE7FEE7FEE7FEE7FEE7FEE7FEE7FEE777
:100160006F2E000831010008D2B201E000F8012B27
:10017000491EFBD270470022F6E710B513460A4627
:1001800004461946FFF7F0FF204610BD30B505467E
:100190002A460B4612F8010B13F8014B08B1A04296
:1001A000F8D01CB1002802D06D1CF1E7284630BD04
:1001B000421C10F8011B0029FBD1801A70472DE961
:1001C000FE4F81EA030404F0004421F00041009452
:1001D0004FF0000B23F0004350EA01045ED052EAD6
:1001E00003045BD0C3F30A54C1F30A552C44A4F2B0
:1001F000F3340194A0FB0254C1F3130141F48011C4
:10020000C3F3130343F4801301FB024400FB034ECA
:10021000840A970A44EA815447EA8357A4FB076893
:1002200002958D0A05FB07854FEA932C04FB0C54BD
:100230002705029D4FEA065847EA1637B5EB080531
:100240006EEB070C870E920E47EA811742EA831283
:10025000A7FB0201B6EB0B0164EB00042B0D43EA94
:100260000C335E1844EB1C50DA465146E7FB0201A2
:10027000C5F313044FEA0B3343EA14534FEA043235
:10028000019C43EA0603A4F10C040294009CCDE90E
:1002900000B400F0C7F803B0BDE8F08F00200146BD
:1002A000F9E796230022114600F07FB800F00042E3
:1002B00030F000400AD0C10D01F56071C0F31600A6
:1002C00042EA0151C208400711437047002001462D
:1002D000704701F0004330B421F0004150EA0102C0
:1002E00006D00A0DA2F56072C1F31301002A02DCE8
:1002F00030BC00207047440F44EAC104C100E0183C
:1003000030BC00EBC25000F047B830B50B46014698
:1003100000202022012409E021FA02F59D4205D3A4
:1003200003FA02F5491B04FA02F52844151EA2F14E
:100330000102F1DC30BD2DE9F05F05460020924658
:100340009B4688460646814640241BE02846414697
:100350004746224600F01BFA53465A46C01A9141BE
:1003600010D311461846224600F002FA2D1A67EB08
:1003700001084F4622460120002100F0F9F917EB51
:1003800000094E41201EA4F10104DFDC484631463D
:100390002A464346BDE8F09F0029A8BF7047401C8D
:1003A000490008BF20F00100704710B4B0FA80FC8B
:1003B00000FA0CF050EA010404BF10BC704749B1C8
:1003C000CCF1200421FA04F411FA0CF118BF012138
:1003D00021430843A3EB0C01CB1D4FEA00614FEA18
:1003E000102042BF002010BC704700EBC3501044E7
:1003F0000029A4BF10BC7047401C490008BF20F072
:10040000010010BC704710B5141E73F1000408DA27
:10041000401C41F1000192185B411A4301D120F0C8
:10042000010010BD2DE9F04D92469B4611B1B1FA85
:1004300081F202E0B0FA80F22032904600F098F9A2
:1004400004460F4640EA0A0041EA0B0153465A4669
:10045000084313D0114653EA010019D0C8F14002F5
:10046000504600F094F905460E465046594642461D
:1004700000F07EF9084305D0012004E0204639460B
:10048000BDE8F08D0020054346EAE0762C43374373
:100490000A986305E40AA0EB08000022FD0A44EA7A
:1004A00047540A3002D500200146E9E7010510193A
:1004B0006941DDE9084500196941BDE8F04DA2E751
:1004C0002DE9FE4F804681EA0300C00F0C460090E4
:1004D00021F0004123F00045B8EB0200A94105D20C
:1004E0004046214690461C460B46024623F00040FB
:1004F000104347D0270DC7F30A00C3F30A510290F7
:10050000401A019040286BDAC3F3130040F4801BBB
:100510000098924620B10023D2EB030A63EB0B0B49
:1005200001985946C0F14002504600F021F90646B4
:100530000D4650465946019A00F039F910EB080073
:100540006141002487EA115284EAE7731A4340D0DC
:10055000009A62B3019A012A4FEA075215DC001B88
:1005600061EB02014FF0004202EA0752CDE900427E
:10057000001C41F5801132462B46FFF753FF03B0B4
:10058000BDE8F08F40462146F9E7001B61EB020110
:10059000001C41F5801300185B412018A2F50017DC
:1005A00047EB030140EAD570B6196D4111E06D08C3
:1005B0004FEA360645EAC0754FEA0752001B61EB69
:1005C0000201001C41F5801149084FEA3000001972
:1005D000514132462B4603B0BDE8F04FFFF713BF41
:1005E0000098012240000023D0EB020263EBE0738D
:1005F000009821464FEAE074B8EB000061EB04017B
:10060000E9E783F000435BE781F0004158E72DE91B
:10061000F04D81EA030404F0004B21F0004514463C
:100620004FF0000A23F0004150EA050220D054EABE
:1006300001021DD0C5F30A570246C5F31303C1F3E7
:100640001300C1F30A5640F4801543F48013A7EB5E
:100650000608101BD64608F2FD3873EB050002D3DE
:1006600008F1010801E092185B41B8F1000F03DACC
:1006700000200146BDE8F08D00204FF480110646B1
:1006800084460EE0171B73EB050705D3121B63EBC3
:10069000050306434CEA010C49084FEA3000921862
:1006A0005B4150EA0107EDD152EA030012D082EA21
:1006B000040083EA0501084305D0101BAB4106D2B4
:1006C0000122002306E000224FF0004302E06FF019
:1006D000010253101AEB06004CEB085110EB0A0014
:1006E00041EB0B01BDE8F04DFFF78DBEC1F30A529F
:1006F000C1F3130140F2FF3341F480119A4202DA50
:1007000000200146704740F233439A42A2F233423E
:1007100002DC524200F03BB800F02AB830B5041EAB
:1007200071F1000404DB4FF00044404264EB01012E
:10073000141E73F1000405DB1C464FF000435242C7
:1007400063EB0403994208BF904230BD064C074D4D
:1007500006E0E06840F0010394E807009847103491
:10076000AC42F6D3FFF7E8FC3C3F00085C3F0008D2
:10077000202A04DB203A00FA02F100207047914061
:10078000C2F1200320FA03F3194390407047202A56
:1007900004DB203A21FA02F00021704721FA02F32B
:1007A000D040C2F120029140084319467047202AE8
:1007B00006DBCB17203A41FA02F043EAE07306E089
:1007C00041FA02F3D040C2F1200291400843194699
:1007D0007047B0B504460068816811F0010F1FD062
:1007E000816821F00101816000F0C2FC05462068AB
:1007F000806810F0010F13D000F0BAFC401B0328F2
:10080000F5D32068806810F0010FF0D0A06A40F0A6
:100810001000A062E06A40F00100E0620120B0BD7B
:100820000020B0BDBCB504460020019021688A6854
:1008300012F0010F2FD1886840F0010088609248C3
:1008400092490068B0FBF1F001E001980138019095
:1008500001980028F9D100F08BFC054620688068DB
:1008600010F0010F16D100F083FC401B0328F5D3D4
:100870002068806810F0010FF0D1A06A40F01000ED
:10088000A062002084F82400E06A40F00100E062E9
:10089000012000E0002002B0B0BD00BFFEE77047BD
:1008A000EFF3108072B6FEE77CB50446002001909D
:1008B00094F82400012801D102255EE0012084F88B
:1008C00024002046FFF785FF2046FFF7ABFF0546D3
:1008D00000284FD1A06A41F20211884340F0020083
:1008E000A06269480668022000F0CEFDB6FBF0F079
:1008F000400001E001980138019001980028F9D1E9
:100900002068816841F00801816000F031FC0646F2
:100910002068816811F0080F0AD000F029FC801BC4
:100920000B28F5D32068806810F0080FF0D015E090
:10093000816841F00401816000F01AFC06462068DD
:10094000806810F0040F0ED000F012FC801B0B2802
:10095000F5D32068806810F0040FF0D00125102036
:100960006FF0120102E001206FF00301A26A114052
:100970000843A062002084F82400284602B070BD1D
:1009800078B50022009290F82420012A01D102219A
:100990005BE0012280F824204B68062B08D8D0F8B1
:1009A00000C003EB83035D1F624652F8344F11E031
:1009B000D0F800C00C2B624606D852F8304F03EB3B
:1009C0008303A3F1230505E003EB830352F82C4FC7
:1009D000A3F141050B681F2603FA05FE06FA05F58B
:1009E000092B24EA05044EEA040616601CD903EB21
:1009F0004306DCF80C20896807251E3EB14005FA45
:100A000006F6B2431143CCF80C1023F00101102973
:100A100017D11C49A1F10802944519D0816A41F00F
:100A20002001816201210DE003EB43020723DCF882
:100A300010608968934026EA030391401943CCF87B
:100A400010100021002280F82420C8B201B070BD2F
:100A50000A6812F4000FF4D10A68102B42F4000265
:100A60000A60EED1C049094A0968B1FBF2F101EB15
:100A70008101490001E000990139009100990029A4
:100A8000F9D1DEE7082401409800002040420F0021
:100A9000806A70470068C06C704700002DE9F04123
:100AA0000446002841D0A04658F8280F30B900204D
:100AB00084F82400E062204600F088F82046FFF722
:100AC00088FEA26AA16A98BB12F0100030D141F2F0
:100AD000021021EA000040F00200A06294E8070042
:100AE000531EB2F5807FB3FA83F34FEA53151346D2
:100AF00018BF2B02304DE669454086F440272F434E
:100B000008BF4FF4002646EA0107217B47EA410C63
:100B1000277D012F17D179B1A16A41F02001A1628F
:100B2000E16A41F00101E1620DE00120BDE8F081E0
:100B300041F0100101203BE0A169204D05EB41315E
:100B4000194341F400634168B2F5807F21F46941A3
:100B500041EA03011A4B4160816801EA030141EA5D
:100B60000C01816001D0012A04D12169154A02EBF0
:100B7000015200E00022C16A21F470011143C162F8
:100B8000114980680840604506D100200122E062DA
:100B9000A16A62F301010BE0A06A20F0120040F0AC
:100BA0001000A06254F82C0F40F001010120A04673
:100BB000C8F80010BDE8F081003C014000E0FFFFF4
:100BC000FDF7E1FF0000F0FFFE0E1FFFFEB501463E
:100BD0000020CDE90400CDE902001148096800F5C4
:100BE000E052914219D10F490A6842F400720A603A
:100BF0000A6802F400720192019A0A6842F0040243
:100C00000A60096801F0040101910199032103912F
:100C10000121029102A900F0C1F906B080BD00BF18
:100C200000080140181002402DE9FC4100260D4645
:100C30000446019600F09CFA80462068816811F411
:100C4000807F29D1416811F4807F03D1C16A11F4FA
:100C5000700F29D044480668022000F015FC216876
:100C6000424BB6FBF0F00A691A4203D1CA68404B06
:100C70001A422DD00A693F4B1A4203D1CA683E4B33
:100C80001A4230D00F693D4BFC221F422CD1C9685B
:100C9000194208BF542227E084F82460A06A40F07B
:100CA0002000A06201205AE06F1C016811F0020FC1
:100CB00030D1002FF9D035B100F05AFAA0EB08017D
:100CC0002068A942F1D9016811F0020FEDD13EE090
:100CD0000B69284E2922334206D1C968264B194296
:100CE00008BF142200E0542202FB00F76E1C0DE046
:100CF0004EB12DB100F03CFAA0EB0800A84202D999
:100D00000198B84223D30198013001900198B8426C
:100D1000EED320686FF012010160A16A41F4007106
:100D2000A162806800F46020B0F5602F0DD1207BB7
:100D300058B9A06A20F48070A062A06A10F4805FA5
:100D400002BFA06A40F00100A062002007E000207E
:100D500084F82400A06A40F00400A0620320C0B21E
:100D600002B0BDE8F08100BF980000202449922421
:100D70002449920092244912922449004992240065
:100D8000B0B5044690F82400012804BF0220B0BD8D
:100D9000012084F824002046FFF744FD18B100210B
:100DA00084F82410B0BD2068A16A244D40F20132BD
:100DB000914305F57F7241F480719042A16205D0A4
:100DC000A16A21F48011A162416808E0296811F448
:100DD000702FF5D0A16A41F48011A162296811F445
:100DE000806F04D0A16A012363F30D31A162A16A6F
:100DF000002311F4805F4FF000011CBFE16A21F075
:100E0000060184F82430E1626FF00201016081681C
:100E100001F46021B1F5602F05D1904207D1296816
:100E200011F4702F03D0816841F4801102E08168D1
:100E300041F4A00181600020B0BD00BF0424014046
:100E400090F82110022912D1016801230A6822F0CA
:100E50000E020A600A6822F001020A60D0E90F124D
:100E600003FA02F24A60002180F8213002E00421F6
:100E700081630121002280F820200846704700008D
:100E800090F82110022919D10268116821F00E0191
:100E90001160116821F0010111602D4901F17C03FD
:100EA0009A420FD9324B9A4224D0324B9A4223D0E5
:100EB000314B9A4222D14FF4807327E004218163A1
:100EC000012143E0234B9A4226D0234B9A4225D05E
:100ED000224B9A4224D0224B9A4224D0214B9A4250
:100EE00017D0214B9A4221D0204B9A4211D14FF07A
:100EF00080721DE0012309E0102307E001F5886CF2
:100F00004FF48033624508BF4FF48053C1F800347A
:100F10000FE04FF480320BE0012209E0102207E0DD
:100F20004FF4807204E04FF4805201E04FF48012DD
:100F30000A600021012280F8201080F82120426BF5
:100F400022B180B590470021BDE880400846704737
:100F500004000240080002401C0002403000024031
:100F600044000240580002406C00024080000240F1
:100F7000080402401C04024030040240B0B504469C
:100F800000F0F6F80546F648611C007818BF0444E6
:100F900000F0EEF8401BA042FAD3B0BD2DE9FC4FA3
:100FA00081465F4806234FF0000C4FF001084FF0D8
:100FB0000F0E4FF0000A81455A4808BF05234844E8
:100FC0004FEAB022052A4FF0000238BF4FEAB023A3
:100FD00000930C6834FA02F508BFBDE8FC8F08FAEC
:100FE00002F73C4200F098804D68032D16D9112D70
:100FF00026D0122D28D04E48854213D04D48854228
:1010000010D04D4885420DD04C4885420AD04C48FE
:10101000854207D04B48854204D022E0DFE805F046
:1010200002181B1F8C6844B1012C4FF0080A14BF32
:10103000C9F81470C9F8107013E04FF0040A10E0FA
:10104000CC6804F1040A0CE0CC6804F10C0A08E056
:10105000D1F80CA005E0CC6804F1080A01E04FF0DB
:10106000000A082A6446484628BF203C28BF0430AE
:1010700006680EFA04F50AFA04F426EA05052C437C
:101080000460C879C00647D5DD48274E22F0030525
:1010900003460068B346354440F001001860186804
:1010A000294B00F0010001900CF00C00019E0EFA9B
:1010B00000F49E46EE58009B03FA00F026EA040472
:1010C0001A4B204345F80E004FF00F0E4D68DBF829
:1010D000080015F4801F0CBF20EA070440EA07044B
:1010E000A802CBF80840186854BF20EA070440EA79
:1010F0000704A8031C60DBF8040054BF20EA0704BF
:1011000040EA0704E803CBF80440DBF8000054BFD2
:10111000B8433843CBF800000CF1040C013258E717
:10112000001C014000F8FEBF000401400C04014017
:101130000000111000001210000021100000221009
:10114000000031100000321008FCFFFF80680840EA
:1011500018BF01207047C26802EA0103914341EAC7
:10116000034101617047002A08BF0904016170470B
:1011700093488068704700BFB0B5044658B394F8F0
:101180003D0028B9002084F83C00204600F0B4F867
:10119000242084F83D002068016821F001010160ED
:1011A000016841F400410160016821F400410160DF
:1011B00000F0F4FA4C49EC4B00224C4D88424FF0C1
:1011C000000138BF0121984238BF01226368AB4259
:1011D00038BF0A460AB10120B0BD4549B0FBF1F263
:1011E00021684D6825F03F0515434D600D6A25F0D7
:1011F0003F0C404DAB4213D80132013842EA0C0299
:101200000A625A004CF6FF73B0FBF2F001306FF344
:101210001F30042898BF0420CA6922EA030C3AE070
:101220004FF49675A0F1010E6A434FF47A75B2FB44
:10123000F5F24CF6FF75013242EA0C020A62CA6905
:1012400022EA050CA26842B1192004255843BEFBCE
:10125000F0F0013065F31F3006E003EB4300BEFB06
:10126000F0F001306FF31F30000509D052B11920A2
:1012700004225843BEFBF0F0013062F31F3008E057
:10128000012008E003EB4300BEFBF0F001306FF3F8
:101290001F3040F4004040EA0C00C8610868D4E9FF
:1012A000072320F0C000104348F2FF3218430860C3
:1012B00088689043D4E90323184310438860C868C2
:1012C000D4E9052320F0FF0010431843C8600868E4
:1012D00040F00100086000202021206484F83D10C7
:1012E000206384F83E00B0BD80841E00A18601000A
:1012F00040420F00A086010010B586B00021CDE964
:101300000411CDE902110168114881421DD13C4C04
:1013100000F53840216841F008012160216801F0A2
:1013200008010191019912210391C0210291032129
:10133000059102A9FFF732FE606840F4001060607A
:10134000606800F400100190019806B010BD00BF65
:10135000005400401A480178826811448160704747
:101360006C00002080B50748016841F01001016061
:10137000032000F079F80F2000F006F800F024F8C0
:10138000002080BD0020024070B50D4E04464FF491
:101390007A713078B1FBF0F00A490968B1FBF0F0DE
:1013A00000F04CFD01250F2C08D838B94FF0FF3064
:1013B00021460022002500F035F87460284670BDF3
:1013C0006C0000209800002082B00D4802220168C5
:1013D00041F001010160016801F0010101910199F1
:1013E000416841F080514160406800F080500090B9
:1013F00000980448016862F31A61016002B0704706
:101400001810024004000140002808DB00F01F0112
:101410000122400902FA01F1014A42F82010704706
:1014200000E100E010B5164B1B68C3F3022E0EF16D
:10143000040CAEF103048EF00703BCF1070F4FF06C
:10144000010C38BF0024042B28BF04230CFA03F33B
:10145000013B19400CFA04F3013BA1401A4011432F
:10146000BDE8104001F0A6BE05494FF6FF030A682B
:101470001A4060F30A22034810430860704700BF17
:101480000CED00E00000FA05421E01460020072A8C
:1014900007D8DFE802F0182B39043939390400F095
:1014A00095B9102930D12A494A68086810F0807F20
:1014B00039D0C2F3834027A312F4803F185C34D1A3
:1014C000D74A50433AE02249086A00F44072B2F524
:1014D000407F1AD0B2F5007F1ED0B2F5807F22D1B6
:1014E000800744BF4FF4004070471CE080B500F017
:1014F0005FF9174902224968C1F3813102EB4101CA
:10150000B0FBF1F0BDE88040704708684FF224411D
:10151000800301EAE0707047486A10F0020F1CBFB8
:1015200049F640407047002070474A680DA3C2F357
:1015300040429A5CB44BB3FBF2F25043496811F459
:10154000800F18BF704740000321B0FBF1F07047D7
:101550000010024002030405060708090A0B0C0DDF
:101560000E0F10100102000000093D002DE9FC41A2
:1015700004460078A34EC0075BD0B06910F0805FCE
:101580000BD1B0694FF0010840F08050B061B069F4
:1015900000F080500190019801E04FF00008304FBA
:1015A000386810F4807F11D1386840F4807038605A
:1015B000FFF7DEFD0546386810F4807F06D1FFF79F
:1015C000D7FD401B6428F6D9032045E0F06910F4EC
:1015D000407020D0616801F4407188421BD02149DD
:1015E000F06901220A60002210F0010F0A6020F465
:1015F0004071F1610FD0FFF7BBFD054641F288371E
:10160000F06910F0020F06D1FFF7B2FD411B032075
:10161000B942F5D920E0F0696168B8F1000F20F413
:10162000407040EA0100F0611EBFB06920F08050B8
:10163000B061206810F0020F05D03168A26821F473
:10164000404111433160C00605D53068616920F41E
:101650008000084330600020C0B202B0BDE8F081D5
:1016600000700040400442422DE9F04188460446A3
:10167000002800F08880464F4FF48050395801F020
:10168000070141450AD2395821F0070141EA080112
:101690003950385800F00700404574D1206810F0E8
:1016A000020F11D0410742BF796841F4E0617960CF
:1016B000010742BF796841F4605179607968A26896
:1016C00021F0F00111437960C00727D0606801283C
:1016D00004D1396811F4003F08D154E03968022878
:1016E00002D1890102D44EE089074CD5796821F0F6
:1016F000030108437860FFF73BFD064641F2883559
:101700007868616800F00C00B0EB810F06D0FFF73D
:101710002FFD801BA842F3D9032035E04FF4805001
:10172000395801F0070141450AD9395821F007011C
:1017300041EA08013950385800F00700404522D1ED
:10174000206810F0040F05D07968E26821F4E061A8
:1017500011437960000706D57868216920F460504C
:1017600040EAC100786000F031F87968094AC1F3B5
:101770000311515CC8401349086007480068FFF72F
:1017800003FE002000E00120C0B2BDE8F08100BFF0
:1017900000100240C23E0008700000200948FA49CB
:1017A000094A00680968C1F30221515CC8407047CA
:1017B000F748F549044A00680968C1F3C221515C41
:1017C000C840704798000020D23E000810B50D4C6C
:1017D0000D48226802F00C03082B18BF10BDC2F39D
:1017E00083430AA112F4803FCB5C02D10C485843DA
:1017F00010BD216809A25843C1F34041515CB0FBC0
:10180000F1F010BD0410024000127A00020304053A
:10181000060708090A0B0C0D0E0F1010010200003C
:1018200000093D002DE9FE430446002800F05C81DC
:101830002078D44ED44FC007B14650D0386800F05D
:101840000C00042818D0386800F00C00082803D1D8
:10185000386810F4803F0FD16068A0B1B0F5803FC8
:1018600006D03168B0F5A02F25D141F4802030603A
:10187000306840F4803024E0306810F4003F2ED00F
:10188000606860BB30E1306820F4803030603068E0
:1018900020F480203060FFF76BFC0546D9F800008B
:1018A0004E4610F4003F1AD0FFF762FC411B0320A4
:1018B0006429F3D919E121F480303060306820F4D4
:1018C00080203060FFF754FC0546306810F4003F7C
:1018D00005D1FFF74DFC401B6428F6D9E6E02078DF
:1018E00080072FD5386810F00C0F08D0386800F04A
:1018F0000C0008280BD1386810F4803F07D13068FD
:1019000010F0020F17D02069012814D0ECE02169F3
:101910009E48002900F08A8001210160FFF728FC21
:101920000546306810F0020F05D1FFF721FC401B7F
:101930000228F6D9BAE03068616920F0F80040EA80
:10194000C10030602078000730D5A06980B18F4891
:101950000121C0F88014FFF70BFC0546386A10F02F
:10196000020F16D1FFF704FC401B0228F6D99DE0B8
:1019700086480021C0F88014FFF7FAFB0546386A54
:1019800010F0020F12D0FFF7F3FB401B0228F6D92C
:101990008CE07F484FF4FA510068B0FBF1F0029000
:1019A00000BF0298411E00280291F9D1207840071B
:1019B00040F18580B86910F0805F0BD1B8694FF0B5
:1019C000010840F08050B861B86900F08050019083
:1019D000019801E04FF000086E4E484659F80600A5
:1019E00010F4807F14D159F8060040F4807049F853
:1019F0000600FFF7BDFB0546484659F8060010F4FF
:101A0000807F05D1FFF7B4FB401B6428F4D94DE07B
:101A1000E068F0B1012805D0F969052831D141F01D
:101A20000400F861F86940F0010030E00021016035
:101A3000FFF79EFB05464846D9F8000010F0020F5C
:101A40003FF480AFFFF794FB411B03200229F2D93A
:101A50004BE0F86920F00100F861F86920F004001B
:101A6000F861FFF785FB054641F28836F86910F00A
:101A7000020F1DD0FFF77CFB411B0320B142F5D9BB
:101A800033E021F00100F861F86920F00400F8610A
:101A9000FFF76EFB054641F28836F86910F0020F39
:101AA00006D1FFF765FB401BB042F6D903201CE0CE
:101AB000B8F1000F1EBFB86920F08050B861E66928
:101AC000002E5DD0386800F00C00082811D1012EDE
:101AD0000AD03868216A00F480328A4204D1616AEF
:101AE00000F4701088424BD00120C0B203B0BDE8B2
:101AF000F0832649002088460866FFF739FB054633
:101B0000022E0DD146464846D9F8000010F0007F5D
:101B100013D0FFF72DFB411B03200229F3D9E4E783
:101B20004846D9F8000010F0007F29D0FFF720FBCD
:101B3000411B03200229F3D9D7E7206AB0F5803F83
:101B400005D13968A26821F4003111433960396840
:101B5000626A104321F47411084338600120306632
:101B6000FFF706FB04464846D9F8000010F0007F56
:101B700006D1FFF7FDFA011B03200229F3D9B4E7D0
:101B80000020B2E700100240041002400000424270
:101B9000980000200060FEFF70B5044630B1606A16
:101BA00030B10020206104F1140007E001264CE070
:101BB0006068B0F5827F03D004F11C000021016051
:101BC00000264FF0000CA66294F8510038B9204668
:101BD00084F8506000F03CF8A06A00F4005C022138
:101BE00084F8511021680A6822F040020A60D4E9A2
:101BF0000123D4E9030502F4827203F4044300F4E0
:101C000000601A43104305F002021043626902F0BB
:101C100001021043A26902F400731843E36903F060
:101C200038031843236A03F08003184340EA0C008A
:101C30000860042000EA12404860C86920F400608F
:101C4000C8610120666584F85100304670BD00000F
:101C500070B586B00026194CCDE90466CDE9026660
:101C6000006804F52051884225D1154802AD01686D
:101C700041F480510160016801F4805101910199A2
:101C8000016841F0040101602946006800F0040089
:101C90000190019802200390A0200290032005905B
:101CA0002046FFF77BF94020039629460290204604
:101CB0000496FFF773F906B070BD00BF000801403D
:101CC000181002402DE9FC411D4616460F460446F9
:101CD000FFF74EFA804694F85100012806D1012002
:101CE0002FB126B194F85000012804D10220C0B2CF
:101CF00002B0BDE8F0810320012184F851000020EA
:101D00006065E68684F850102763A686A063A087E6
:101D1000C4E91000E087A1682068B1F5004F07D141
:101D2000016821F040010160016841F480410160D7
:101D30000168731EB3FA83F311F0400F4FEA531397
:101D400002BF016841F0400101606168E268B1FAD8
:101D500081F1B2F5006F4FEA511141EA030122D13E
:101D600031B137F8021BC1602763E08E0138E0868D
:101D70006E1C14E02068816811F0020F07D1FFF794
:101D8000F7F966B1A0EB0800A84208D34EE0216B3A
:101D900031F8022BC2602163E08E0138E086E08ECC
:101DA0000028E7D123E039B139780173206B013085
:101DB0002063E08E0138E0866E1C15E020688168A3
:101DC00011F0020F07D1FFF7D3F96EB1A0EB0800B5
:101DD000A84209D32AE0216B09780173206B0130F6
:101DE0002063E08E0138E086E08E0028E6D12046B0
:101DF0002946424600F077FF08B120206065A068C0
:101E000038B9002001902068C16801918068019074
:101E10000198012084F85100002084F85000606D82
:101E2000002818BF012002B0BDE8F081002084F82E
:101E30005000012084F85100032058E7411E002083
:101E4000B0EB116F1CBF01207047044AF0235160B2
:101E500003490B70072190601160704710E000E0AB
:101E600023ED00E07047704790F83C300222012BD0
:101E70002ED080B580F83D20012280F83C200268F9
:101E80005368D2F808C0B2F1804F23F0700E0B688F
:101E900043EA0E035360BDE880400ED05C4B9A428B
:101EA0000BD05C4B9A4208D05B4B9A4205D05B4BFF
:101EB0009A4202D05A4B9A4204D149682CF08003CE
:101EC000194391600022012180F83C2080F83D10E8
:101ED000D0B2704710B5044630B394F83D0028B92D
:101EE000002084F83C00204600F020F80220211D4C
:101EF00084F83D00206800F0CDFF012084F8460002
:101F000084F83E0084F83F0084F8400084F84100E3
:101F100084F8420084F8430084F8440084F84500C3
:101F200084F83D00002010BD012010BDF8B5006808
:101F30003949884217D03649884225D0B0F1804FC0
:101F400018BF8FBD1B480022016841F001010160EC
:101F50000121006800F00100039003981C20FFF7A6
:101F600061FA1C2020E013480022016841F00801BA
:101F700001600021006800F0080001900198322003
:101F8000FFF750FA32200FE00A480022016841F0C2
:101F9000020101600021006800F002000290029836
:101FA0001D20FFF73FFA1D2004B0BDE88040FFF779
:101FB0002BBA00BF1C10024090F83D1001291CBF35
:101FC00001207047022180F83D100068C168B0F11F
:101FD000804F41F00101C1600ED00D4988420BD005
:101FE0000C49884208D00C49884205D00B498842E8
:101FF00002D00B49884204D1816801F0070106290B
:1020000003D0016841F0010101600020704700BF6A
:102010000004004000080040000C00400034014073
:10202000002C014010B590F83C2004460220012A03
:1020300070D084F83D0001204FF6777384F83C009F
:10204000206882689A4382600A6812B3102A20D0FE
:10205000202A1ED0302A1CD0402A21D0502A2BD032
:10206000602A35D0B2F5005F3ED0B2F5805F4AD02D
:10207000702A51D1D1E90123C9681A4342EA0121EA
:10208000826822F47F4211438160816841F07701C8
:1020900038E0816821F07701114341F0070131E018
:1020A0004B68CA68194600F037FF2068816821F044
:1020B000770141F0470125E04B68CA68194600F0F6
:1020C0002BFF2068816821F0770141F0570119E06A
:1020D0004B68CA68194600F030FF2068816821F01B
:1020E000770141F067010DE0D1E90123C9681A4386
:1020F00042EA0121826822F47F42114381608168B3
:1021000041F4804181600020002184F83C100121CD
:1021100084F83D10C0B210BD0120F5E77047B0B59E
:1021200004460068C168026902EA010515F0020F61
:1021300014D06FF00201016101212177806910F054
:10214000030F03D02046FFF7E9FF05E0204600F02B
:1021500074F8204600F072F800202077680715D543
:1021600020686FF00401016102212177806910F479
:10217000407F03D02046FFF7D1FF05E0204600F066
:102180005CF8204600F05AF800202077280715D583
:1021900020686FF00801016104212177C06910F007
:1021A000030F03D02046FFF7B9FF05E0204600F0FB
:1021B00044F8204600F042F800202077E80615D5C4
:1021C00020686FF01001016108212177C06910F4C7
:1021D000407F03D02046FFF7A1FF05E0204600F036
:1021E0002CF8204600F02AF800202077E80706D0D7
:1021F00020686FF001010161204600F021F82806F7
:1022000006D520686FF0800101612046FFF72AFEA5
:10221000680606D520686FF040010161204600F095
:1022200065F8A80658BFB0BD20686FF020010161B5
:102230002046BDE8B040FFF716BE7047704700006B
:102240001A4988421CD01A49884218D1194908787D
:102250000130087018490A78022A10D149780A22F8
:10226000C0B2B2FBF1F1B0FBF1F202FB11000028A9
:1022700018BF704711484FF40051FEF76CBF70470C
:102280001FB50D4C6068FEF711F862881C348DE8AC
:1022900007000BA22046402101F06EF912482146AA
:1022A00040224FF47A7300F0C5FA1FBD9C01002054
:1022B000E4010020A00000201000002000100140D8
:1022C0004144432076616C75653A20252E3266566E
:1022D0000A4144432076616C756528313262697425
:1022E000293A2025640A00007402002070477047D4
:1022F00070470000BCB50446006802680146D0F88B
:102300000CE051F8143F12F00F0F65D00EF49075E9
:1023100003F0010C5CEA050368D0D0071FBF1EF470
:102320008070606C40F001006064500706D5BCF11D
:10233000000F1EBF606C40F002006064900706D57D
:10234000BCF1000F1EBF606C40F004006064100719
:1023500008D50EF0200050EA0C001EBF606C40F063
:1023600008006064606C002800F009810EEA020039
:10237000800605D5204600F01FFE206800F11401FC
:102380000868616C00F0400001F00801084300F0AB
:10239000E280204600F0E9FD2068416911F0400F1D
:1023A00001D1D3E0206850E8050F216820F04000FB
:1023B00041E80502002AF5D1E06B002800F0C68054
:1023C00074494163FEF75CFD002800F0D880E06BA3
:1023D000416BBDE8BC4008470EEA020111F0200F36
:1023E00006D02046BDE8BC4000F0E6BD0EEA020182
:1023F000226BCB063DD5012A3BD10021019101681A
:102400000191416801910199416911F0400F41D159
:10241000E18DA28DE38D002B00F0B180511A0A04EA
:1024200001D1ACE0206850E8030F226820F49070DE
:1024300042E80303002BF5D1206850E8050F22681D
:1024400020F0010042E80503002BF5D1202084F89C
:10245000420000202063206850E8030F226820F02B
:10246000100042E80303002BF5D1022089B260631B
:1024700057E00A065AD4490640F18180C16821F02C
:102480004001C160202084F841002046BDE8BC40E6
:1024900000F02BBAE26B11684B6899B200296ED03C
:1024A000B4F82CC061456AD2E3859169202901D135
:1024B00031E0206850E8030F216820F4807041E883
:1024C0000302002AF5D1206850E8050F216820F0AA
:1024D000010041E80502002AF5D1206850E8050F07
:1024E000216820F0400041E80502002AF5D12020B3
:1024F00084F8420000202063206850E8030F216820
:1025000020F0100041E80302002AF5D1E06BFEF74D
:1025100097FCB4F82CC002206063E08DACEB0000A7
:1025200081B22046BDE8BC40FFF7E1BE94F84110FF
:10253000212924D1A168B1F5805F01D1216981B140
:10254000216A4A1C22620978416011E02046BDE8F8
:10255000BC40FFF7CDBE2046FFF7CAFE00206064F6
:10256000BCBD216A31F8022B6FF35F224260216209
:10257000E18C4FF6FF7201391142E18400D0BCBDFD
:10258000C16821F08001C160C16841F04001C160B3
:10259000BCBD00BF5F2F000810B5044648B394F8D7
:1025A000410028B9002084F84000204600F024F8BB
:1025B000242084F841002068C16821F40051C160E2
:1025C000204600F05DFD2068016921F49041016121
:1025D000416921F02A014161C16841F40051C160A3
:1025E00000202021606484F8411084F84210606368
:1025F00010BD012010BD000070B586B000261D4C36
:10260000CDE90466CDE902660068A4F5444188423C
:102610002DD1194802AD416841F400314160416853
:1026200001F4003101910199016841F00401016058
:102630002946006800F004000190019802200390F0
:1026400004200290032005902046FEF7A7FC0820F6
:1026500003962946029020460496FEF79FFC26200A
:1026600002210022FEF7DEFE2620FEF7CDFE06B098
:1026700070BD00BF000801401810024010B590F86E
:102680004230202B07D1012431B12AB10024046348
:1026900000F038FD00E00224E0B210BD70B53B4D03
:1026A0000068A5F54C41884207D0394839A11E225F
:1026B0004FF47A7300F0BEF870BD3E4C3EA104F1B9
:1026C00010063046FDF762FD58B128464FF4005120
:1026D0000022FEF748FD01203F4D3A4E207039A000
:1026E0000FE03EA13046FDF751FD30B328464FF4D0
:1026F00000510122FEF737FD0020374D3A4E207081
:1027000039A0031D0ECB008AC5E90061C5E902238B
:1027100028822846FDF74CFD82B21D4829466423D5
:1027200000F088F800200C2244F8100FC4E90100E2
:1027300017482146FFF7A2FF70BD30A13046FDF7D4
:1027400025FD68B1407AA0F13101C9B208290ED83F
:102750000221214D3038217031496070C2B202E04F
:102760001D4D30A13246284600F01EFFD1E726A1BC
:10277000194DDFF894C00E1D08694CCEC5E900C2A2
:10278000C5E902362861087D2875C2E700100140BE
:10279000740200204572726F723A20556E6B6E6F34
:1027A000776E205541525420696E7374616E636573
:1027B0000A000000100000206F70656E30324C453A
:1027C000440000004C4544204431E5B7B2E689930B
:1027D000E5BC800D0A000000C4020020636C6F732A
:1027E0006530324C454400004C4544204431E5B747
:1027F000B2E585B3E997AD0D0A000000666C696328
:102800006B65723032000000E697A0E69588E99784
:10281000AAE78381E9A291E78E870D0A00000000F4
:10282000EC3E0008E694B6E588B03A2025730D0A20
:10283000000000002DE9F843044690F841001D46D1
:102840001746884620281CD1B8F1000F4FF0010030
:1028500018BF002F16D04FF000092120C4F8449073
:1028600084F84100FEF784FCA784E7840646A0684C
:10287000B0F5805F0AD12769002F0CBFC1464746DB
:102880001CE00220C0B201B0BDE8F083474615E06D
:102890002046802132462B4600F04DFC00BB1FB184
:1028A00017F8011B206805E039F8021B2068002793
:1028B0006FF35F214160E08C0138E084E08C0028F8
:1028C000E6D12046402132462B4600F034FC202140
:1028D000002884F8411018BF032001B0BDE8F08340
:1028E000202084F841000320CCE77047FEE7000079
:1028F0007CB5114C114E022000216268B04710488F
:102900000068FDF7D3FC04F10805CDE900010DA234
:102910000821284600F030FE032000212A46B04757
:102920000A4A00200021B0470120002122463346F8
:1029300002B0BDE87040184700000020512900088F
:1029400014000020252E326600000000DF3E000843
:1029500010B51446064A02EBC000405C00F0C6FD0C
:1029600002E000F0E5FD013420780028F9D110BD27
:10297000780000200F490020302201E00A54013085
:102980000828FBD1B0B50C4D3220A8470B4C3020A5
:10299000A0470220A8470220A8470C20A0470120FA
:1029A000A8470220A8470120A04702202946BDE8E9
:1029B000B0400847A80000207D0F0008ED34000853
:1029C000BFB510481049012500244FF4602205735B
:1029D0000475C261C0E90014846005610394CDE907
:1029E0000144FEF75BF808B1FDF75AFF054801A95D
:1029F000CDE901450394FDF7C3FF08B1FDF750FF92
:102A0000BFBD00BFB0000020002401402DE9F04F01
:102A100085B03648002242F210080024016841F0D7
:102A200010010160016801F0100101910199016834
:102A300041F020010160016801F02001019101993C
:102A4000016841F004010160016801F00401019195
:102A50000199016841F00801016042F2100100682B
:102A600000F0080001900198214800F50066054635
:102A70003046FEF778FB05F5806540F23F410022C5
:102A800040F23F492846FEF76EFB4FF0010A01AFC6
:102A90004FF0020B3046CDE9018ADFF8388A39461B
:102AA0000394CDF810B0C04728463946CDE9019AC5
:102AB000CDE9034BC0474FF4FC50029439460190D6
:102AC00030460394C0474FF40040029439460190C9
:102AD00007480394C0474FF40070029439460190B0
:102AE00028460394C04705B0BDE8F08F1810024097
:102AF0000008014080B50C480C490D4A00234FF4F2
:102B0000804C0362C0E90021C0E90233C0E904C37C
:102B1000C0E90633FEF730FB002814BFBDE8804053
:102B200080BDFDF7BDBE00BFE0000020A086010013
:102B300000540040B0B51148114A4FF4827100238F
:102B40004FF0020C4FF0010E4FF400743825C0E92D
:102B500000210A21C0E90233C0E904CEC0E90645DC
:102B6000C0E90833C0E90A31FFF716F8002814BF9E
:102B7000BDE8B040B0BDFDF793BE00BF44010020EA
:102B800000300140FEB5BC4800214FF0804242F2C7
:102B900010734FF4E15CCDE90411CDE90211C0E9F5
:102BA0000023C0E9021C01618161CDE90011FFF73A
:102BB00091F908B1FDF774FE4FF4805002A902901C
:102BC000AD48FFF72FFA08B1FDF76AFE002069460D
:102BD000CDE90000A848FFF747F908B1FDF760FE0E
:102BE00006B080BDFEB5A748C64A002142F2107368
:102BF0004FF4347CCDE90411CDE90211C0E9002382
:102C0000C0E9021C01618161CDE90011FFF762F9A1
:102C100008B1FDF745FE4FF4805002A90290994893
:102C2000FFF700FA08B1FDF73BFE00206946CDE949
:102C300000009448FFF718F908B1FDF731FE06B01F
:102C400080BD00BFFEB59248B04A002142F2107329
:102C50004FF4347CCDE90411CDE90211C0E9002321
:102C6000C0E9021C01618161CDE90011FFF732F971
:102C700008B1FDF715FE4FF4805002A90290844878
:102C8000FFF7D0F908B1FDF70BFE00206946CDE94A
:102C900000007F48FFF7E8F808B1FDF701FE06B035
:102CA00080BD00BF80B50C480C4A4FF4E1310023D1
:102CB0004FF00C0CC0E90021C0E90233C0E9043C2C
:102CC000C0E90633FFF768FC002814BFBDE8804068
:102CD00080BDFDF7E5BD00BF740200200044004048
:102CE000FEE7FEE770477CB50D46164600920221CE
:102CF000012204462B4600F013F840B920468021FB
:102D000000222B460096002600F00AF820B1606DE4
:102D1000032640F020006065F0B202B070BD0000F4
:102D20002DE9F843DDF820801F4615460E4604467F
:102D3000FEF71EFAA8EB000000EB0709FEF718FAF1
:102D40008046264801370068C0F3CB3000FB09F00D
:102D500000900DE067B1FEF70BFAA0EB08004845C4
:102D600014D20098009901390028009108BF8146CB
:102D7000206880683040801BB0FA80F04009A8428B
:102D8000E8D10020C0B201B0BDE8F08320684168FE
:102D900021F0E00141606168B1F5827F0AD1A1684C
:102DA000B1F5004F02D0B1F5806F03D1016821F079
:102DB00040010160A16AB1F5005F07D1016821F40B
:102DC00000510160016841F400510160002084F865
:102DD0005000012084F851000320D3E79800002020
:102DE0007047FEF7B7BAB0B596B0002407A8142113
:102DF000CDE91144CDE90F44FDF7BDF901A8182133
:102E0000FDF7B9F94FF48030012102250D900C91A6
:102E10000E941091CDE913504FF4E01015900CA8CA
:102E2000FEF700FD18B1EFF3108072B6FEE70F2039
:102E3000022107904FF480600994CDE90A0407A8A5
:102E40000895FEF711FC18B1EFF3108072B6FEE79B
:102E50004FF4004003900220019001A8FEF786FB8A
:102E600018B1EFF3108072B6FEE716B0B0BD704730
:102E70000148FFF754B900BF9C0100200148FFF74B
:102E80004EB900BFE40100200148FFF748B900BF78
:102E90002C0200200268B0F1804F0ED0194B9842EE
:102EA0000BD0194B984208D0184B984205D0184BBC
:102EB000984202D0174B984208D14B6822F45C7CB0
:102EC000CA6823F4407343EA0C031A434B6922F0A7
:102ED00080021A4302608A68C2620A6882620C4AEF
:102EE000904202D00B4A904201D10969016301214D
:102EF0004161016911F0010F1EBF016921F001015B
:102F0000016170470004004000080040000C0040D0
:102F100000340140002C0140D0F820C0036A23F0A7
:102F200001030362836923F0F00343EA0212826122
:102F30002CF00A02114301627047D0F820C0036AE6
:102F400023F010030362836923F4704343EA0232DF
:102F500082612CF0A00242EA011101627047406ACE
:102F60000021C185C184FFF7C3B9016851E8031F7F
:102F7000026821F4907142E80313002BF5D1016837
:102F800051E8051F026821F0010142E80513002BFA
:102F9000F5D1016B012909D1016851E8031F0268CD
:102FA00021F0100142E80313002BF5D1202180F815
:102FB000421000210163704790F84210222918BF87
:102FC00070478368B3F5805F05D10169B1B100F145
:102FD00028010A680BE00146002B51F8282F01D187
:102FE000036923B103685B6803F07F0301E00368B2
:102FF0005B6813700A6801320A6007E00168826A40
:1030000049686FF35F2122F8021B8262C18D4FF67F
:10301000FF7201391142C18500D070470168CA684A
:1030200022F02002CA60CA6822F48072CA604A692B
:1030300022F001024A61202280F8422000224263ED
:10304000036B012B18BFFFF729BB026351E8031F75
:10305000026821F0100142E803130168002BF5D14A
:103060000A6812F0100F08D081B0002200920A689E
:10307000009249680091009901B0818DFFF737B93E
:1030800010B5044600680169E26821F4405111431B
:1030900041F20C620161D4F808C0D4E904E3C168CC
:1030A00091434EEA0C021A431143C1604169A2697F
:1030B00021F44071114341611149884202D0FEF769
:1030C0006DFB01E0FEF774FB19214843D4E90012BF
:1030D0006FF063049200B0FBF2F06422B0FBF2F3F5
:1030E00003FB0400322404EB0010B0FBF2F000F00C
:1030F000F00200F00F0002EB03121043886010BDD5
:10310000003801400023C285436482858162222108
:1031100080F842100168006918B1C86840F48070F6
:10312000C860486940F001004861C86840F020006C
:10313000C860002070472DE9FC41044600681D4628
:1031400090460F465E1C01683940B94226D0002ED9
:10315000F9D0FEF70DF803210DB3A0EB0800A8424B
:103160001DD82068C16811F0040FECD0402F18BFA3
:10317000802FE8D0016811F0080FE4D000250195F8
:10318000016801914068019001982046FFF7EDFE2B
:103190000121082084F84050606400E00021C8B29A
:1031A00002B0BDE8F08100004E48FFF7A3B800BFB1
:1031B000FEE7000010B5074C00F00F03044AB0F121
:1031C000FF3F2344C8BF83180801187010BD00BF1B
:1031D00000E400E014ED00E02DE9F8433C48012153
:1031E0000160FEF7BFF8FFF7FEFDFFF70FFCFFF7EA
:1031F000A1FCFFF7C7FCFFF725FDFFF7F3FCFFF786
:1032000079FCFFF7DDFBFFF74DFD324C2046FDF763
:103210004BFB3148FEF7D0FE3048FEF7CDFE304D77
:10322000DFF8C0800C2205F110014046FFF726FAB6
:10323000FFF7A0FBCE484FF400510122FDF793FFAA
:103240002046FDF79DFD284E284FDFF8949220463A
:10325000FDF796FD20460A21FDF7E6FC2046FDF726
:1032600017FC10F4007F01D1688803E02046FDF7C9
:1032700011FC688080B2FDF714F8FDF717F84FF0E5
:1032800066323346FCF79BFF00223B46FCF797FF74
:10329000FDF71FF8686000F02BF8A8B199F800005E
:1032A000332808D1A968404678224FF47A73FFF793
:1032B000C1FA99F80000362806D1E968404678221C
:1032C0004FF47A73FFF7B6FAFFF712FBBFE700BFC0
:1032D000A4000020B00000209C010020E401002098
:1032E000100000207402002066660A400000303F93
:1032F0002DE9F04F85B04FF000084FF00109022092
:10330000734E01AF734DCDF80C80CDF8089004904A
:103310004FF40040394601903046A8474FF4E05042
:1033200006F50064394601902046A847DFF8A8A1B9
:1033300030464FF400410022D04720464FF48061D0
:103340000022D04720464FF400610022D04720469B
:103350004FF480510022D04740F2074006F58066C6
:10336000CDE90289394601903046A8470A20FDF789
:1033700005FE30460121FDF7E9FEA0B130460221ED
:10338000FDF7E4FE98B130460421FDF7DFFE90B171
:1033900030464FF48061FDF7D9FE002870D14FF020
:1033A000020B04200AE04FF0020B012006E04FF070
:1033B000020B022002E04FF0020B032001AFCDE927
:1033C0000298CDE9000930463946A84730463946CB
:1033D000CDF804B0A8470420394601903046A847EC
:1033E0004FF48069304639464FF0010BCDF8049018
:1033F000A847304601210022D04730460221002252
:10340000D047304604210022D04730464FF4806137
:103410000022D0472E4E4FF40040CDE9028B3946B2
:1034200001903046A84720463946CDF80490A84779
:103430004FF40060394601902046A8474FF4805071
:10344000394601902046A8470A20FDF797FD3046EF
:103450004FF40041FDF77AFEB0B120464FF4806191
:10346000FDF774FE70B120464FF40061FDF76EFE6B
:10347000009D30B320464FF48051FDF767FE18B32E
:1034800000201BE04FF00408009D14490120164F56
:10349000086008EB050101F136020B2938BF01F184
:1034A0002F020F490A700F490B68FA545A1CD317A0
:1034B00002EB137323F00F03D21A0A6005B0BDE8C4
:1034C000F08F4FF00808E0E74FF00C08DDE700BF91
:1034D000000801409D0F000867110008C00200208D
:1034E00000000020BC020020340100201CB5F8219F
:1034F0001F4C01228DF8051000F0F00100018DF83D
:1035000006108DF8070020461021FDF72CFE012043
:10351000FDF734FD17480DF1050103224FF47A73CE
:10352000FEF7D0FB204610210022FDF71CFE1CBD3B
:103530001CB5FA210E4C01228DF8051000F0F001A7
:1035400000018DF806108DF8070020461021FDF7C8
:103550000AFE08480DF1050103224FF47A73FEF7C5
:10356000B1FB204610210022FDF7FDFD1CBD00BF70
:1035700000100140440100200FB41CB50246002099
:1035800007AC00290BD0491ECDE90021054B6A4646
:103590002146069800F0EEF8009A002111701CBC3C
:1035A0005DF814FBA33E00080FB4084B10B504A946
:1035B00002AA039800F0DEF8044602A9002000F0F9
:1035C0007BFC204610BC5DF814FB0000B93E0008EF
:1035D00002E008C8121F08C1002AFAD170477047DC
:1035E000002001E001C1121F002AFBD1704700003A
:1035F0002DE9FF5F82B00021DDE90430020DDDF826
:1036000040B0034318D044F61050A2F2FF324243B8
:103610001514119801281FD0A5EB0B00401C5FEA80
:10362000000A4FF000064E4FDFF83891B046504682
:1036300015D5CAF1000413E0119801244AA301280A
:1036400001D16FEA0B010298119AC0E90031C0E97B
:10365000024206B0BDE8F09FCBF10000DFE7044670
:103660000021404A491842EB0450CDE9001012E015
:10367000E00707D032463B4640464946FCF79FFDEF
:103680008046894632463B4610461946FCF797FD70
:1036900006460F466410002CEAD1DDE90401DDE99D
:1036A0000023BAF1000F06DAFCF789FD42464B46CB
:1036B000FCF785FD05E0FCF7AAFF42464B46FCF708
:1036C000A6FF04460E460022284BFDF727F803D834
:1036D0004FF0FF30014607E00022254B20463146DF
:1036E000FCF7EEFEFDF702F8102409E0002C0ADBDF
:1036F0000A220023FCF71FFE039B30321A55641E7A
:1037000050EA0102F2D1641C039AC4F1110314447B
:10371000119A012A03D0012208430DD10AE008437F
:1037200004D000204FF0110B119072E7A3EB0B05B2
:103730006D1E0DE05B4504DD4FF0000205F1010553
:1037400004E003DA4FF00002A5F10105002AECD0F5
:1037500002981199C0E90231C0E9004579E70000FB
:10376000000014400000F03F300000000000F04373
:103770000000E03F2DE9FF4F95B09B468946064685
:1037800000250FE2252877D100242746F84A012199
:10379000059400E0044316F8013F203B01FA03F0D2
:1037A0001042F7D130782A2811D06FF02F033078EB
:1037B000A0F13002092A16D8059A44F0020402EB5F
:1037C000820203EB42021044761C0590EFE759F8A1
:1037D000042B0592002A03DA504244F40054059069
:1037E00044F00204761C30782E2816D116F8010F0A
:1037F00044F004042A280DD06FF02F023078A0F195
:103800003003092B09D807EB870302EB4303C718E2
:10381000761CF3E759F8047B761C30786C280FD0BF
:1038200006DC4C2817D068280DD06A2814D104E093
:10383000742810D07A280FD10DE044F400140AE067
:1038400044F4801401E044F440147278824202D1BE
:1038500004F58014761C761C307866280BD013DCB7
:10386000582877D009DC002875D04528F6D046289E
:10387000F4D047281AD19DE118E0632835D0642898
:1038800079D0652812D195E1702873D008DC6728BB
:10389000F1D069286FD06E280DD06F2806D1B5E021
:1038A00073282CD0752875D0782874D05A4617996B
:1038B00090476D1C75E1C4F30250022809D003281B
:1038C0000DD0D9F8001004280DD00D6009F10409BD
:1038D00067E1D9F80010EA17C1E90052F6E7D9F814
:1038E00000100D80F2E70D70F0E719F8041B8DF859
:1038F000001000208DF80100EA46012003E059F88D
:1039000004AB4FF0FF3061074FF0000102D40DE02F
:1039100008F101018846B9420FDA8045F8DB1AF850
:1039200008100029F4D108E008F10101884681421D
:10393000FADB1AF808100029F6D105985B46A0EBCF
:10394000080721463846179A00F094FA284400EBFD
:10395000080507E04DE029E10DE01AF8010B5A4691
:1039600017999047B8F10108F7D25B4621463846CF
:10397000179A13E142E00A220092C4F302524FF078
:10398000000A022A08D059F804CB032A4FEAEC7146
:103990000AD00DE029E02AE009F1070121F0070231
:1039A000F2E802C1914609E00FFA8CFC4FEAEC7193
:1039B000042A03D14FFA8CFC4FEAEC71002907DA94
:1039C0000A460021DCF1000C61EB02012D2202E02D
:1039D000220504D52B228DF80420012203E0E20702
:1039E00001D02022F7E7904659E00A2102E0102298
:1039F0000DE010214FF0000A00910BE010224FF073
:103A0000000A44F004040827009203E008224FF063
:103A1000000A0092C4F30252022A05D059F804CBDE
:103A20000021032A08D009E009F1070121F007026B
:103A3000F2E802C1914605E01FFA8CFC042A01D18C
:103A40000CF0FF0C4FF00008220728D5702806D094
:103A5000009B83F0100353EA0A0305D00EE04022D6
:103A60008DF80420012208E05CEA010206D0302231
:103A70008DF804208DF8050002229046009B83F00B
:103A8000080353EA0A030AD15CEA010201D1620782
:103A900005D530228DF804204FF001087F1E5828EC
:103AA00004D034A003900EA802900DE036A0F9E7F0
:103AB00053466046009AFCF73EFC84460398825CBD
:103AC0000298401E029002705CEA0100F0D1029858
:103AD00006A9081A00F1200A600702D524F48034F0
:103AE00000E00127574502DDA7EB0A0000E00020B7
:103AF00000EB0A01009005984144401A0590E0034C
:103B000006D45B462146179A059800F0B3F90544A0
:103B1000002706E001A85A46C05D179990476D1C22
:103B20007F1C4745F6DBE0030CD55B462146179A20
:103B3000059800F09FF9054404E030205A46179993
:103B400090476D1C0099481E00900029F5DC08E0A4
:103B5000029802995A460078491C02911799904799
:103B60006D1CBAF10001AAF1010AF1DC65E1000067
:103B70000928010030313233343536373839616243
:103B80006364656600000000303132333435363707
:103B900038394142434445460000000000F058F9DE
:103BA0000544761C307800287FF4ECAD19B0284627
:103BB000BDE8F08F620700D4062709F1070222F062
:103BC000070CFCE80223E14603F000485FEA080C1A
:103BD00002D00FF2702C0DE05FEA045C02D50FF208
:103BE000682C07E05FEAC47C02D00FF2602C01E091
:103BF000AFF2700C4FF0FF3823F00043CDF850C007
:103C000065280CD006DC452809D046281DD0472859
:103C10003DD13DE0662818D067287ED138E00021EC
:103C2000112F01DB112000E0781CCDE9000106A96D
:103C30000EA8FFF7DDFCDDE90F010E9A03910021CC
:103C4000009207F1010A04914DE04FF00040009707
:103C5000CDE9011006A90EA8FFF7CAFCDDE90F02A5
:103C600003920E9B11990022DDF80CA000930492A0
:103C700011B9791C00EB010AB7EB0A0004D4C0F1BA
:103C8000FF3007F1010A0490AAEB0700019044E01D
:103C9000012F00DA01270021112F01DD112000E0A2
:103CA0003846CDE9000106A90EA8FFF7A1FCDDE921
:103CB0000F010E9A0391002104910092BA46210748
:103CC0000CD40399514500DA8A46BAF1010F05DD9B
:103CD000009AAAF10101515C302908D0B84202DAF9
:103CE00010F1040F06DA0121CDE9011015E0AAF167
:103CF0000101E9E7002805DC049901440491AAEBDD
:103D0000000102E0411C514500DD8A460499401A39
:103D1000401C01904FF000400290200704D401980D
:103D2000504501DBCDF8048000208DF84F0002984B
:103D30000DF14F07B0F1004F25D02B200E900298C7
:103D40004FF0020800280CDA404202902D200E901D
:103D500007E00A210298FCF7D8FA3031029007F800
:103D6000011DB8F10001A8F10108F2DC0298002859
:103D7000EFD1791E0E980870307800F0200040F0E6
:103D8000450007F8020D12A8C01B00F1070814989F
:103D9000007800B1012000EB0A01019801EBE0710D
:103DA00005984144401A401E0590E00306D45B4646
:103DB0002146179A059800F05DF80544149800789C
:103DC00018B15A46179990476D1CE00324D55B46FD
:103DD0002146179A059800F04DF805441CE0049818
:103DE000002807DBDDE90301884203DD0098405C21
:103DF000179901E0179930205A469047049805F129
:103E00000105401C04900198401E019004D12E2011
:103E10005A46179990476D1CBAF10001AAF1010AA0
:103E2000DDDC05E017F8010B5A46179990476D1C29
:103E3000B8F10001A8F10108F4DC5B462146179AAD
:103E40000598ABE62D0000002B00000020000000CC
:103E50002DE9F041044600251E461746880404D487
:103E600005E039462020B0476D1C641EF9D5284670
:103E7000BDE8F0812DE9F041044600251E4690463C
:103E8000C80301D5302700E02027880404D505E0C9
:103E900041463846B0476D1C641EF9D52846BDE83A
:103EA000F0814A68002A06D00A68531C0B60107023
:103EB0004868401E486070470A68531C0B601070C9
:103EC0007047000000000000000001020304060724
:103ED000080900000000010203044144433A006362
:103EE000757272656E74206B65793A004C4544209A
:103EF0004431E6ADA3E4BBA52564487AE9A291E785
:103F00008E87E997AAE783810D0A0059616E674899
:103F1000616F5469616E204B6579332070726573EF
:103F20007365640A003230323231363839204B65DD
:103F3000793620707265737365640A00603F00080B
:103F400000000020A0000000D0350008004000085C
:103F5000A0000020A8060000E035000800000000D6
:103F600000000000DA3E0008000000000000000031
:103F700000010000000000000B3F0008253F000882
:103F80000000000000000000000000000000000031
:103F90000000000000000000000000000000000021
:103FA0000000000000000000000000000000000011
:103FB0000000000000000000000000000000000001
:103FC00000000000000000000000000001000000F0
:103FD00010000000000000008081828384858687B5
:103FE000909192939495969788898A8B8C8D8E8FD9
:103FF00098999A9B9C9D9E9F00127A000000000059
:0400000508000131BD
:00000001FF
