:020000040800F2
:10000000B8070020450100087F2B0008CB25000819
:100010007D2B0008A9080008F13500080000000049
:100020000000000000000000000000002532000871
:10003000AB080008000000002B3100082732000840
:100040005F0100085F0100085F0100085F01000810
:100050005F0100085F0100085F0100085F01000800
:100060005F0100085F0100085F0100085F010008F0
:100070005F0100085F0100085F0100085F010008E0
:100080005F0100085F0100085F0100085F010008D0
:100090005F0100085F0100085F0100085F010008C0
:1000A0005F0100085F0100085F0100085F010008B0
:1000B000B1320008BD3200085F0100085F0100088E
:1000C0005F0100085F0100085F0100085F01000890
:1000D0005F0100085F010008E93500085F010008C2
:1000E0005F0100085F0100085F0100085F01000870
:1000F0005F0100085F0100085F0100085F01000860
:100100005F0100085F010008C93200085F010008B4
:100110005F0100085F0100085F0100085F0100083F
:100120005F0100085F0100085F0100085F0100082F
:10013000DFF80CD000F022FB0048004741360008F1
:10014000B80700200648804706480047FEE7FEE75C
:10015000FEE7FEE7FEE7FEE7FEE7FEE7FEE7FEE777
:10016000AD32000831010008202A04DB203A21FAD0
:1001700002F00021704721FA02F3D040C2F12002C0
:100180009140084319467047D2B201E000F8012BB4
:10019000491EFBD270470022F6E710B513460A4607
:1001A00004461946FFF7F0FF204610BD30B505465E
:1001B0002A460B4612F8010B13F8014B08B1A04276
:1001C000F8D01CB1002802D06D1CF1E7284630BDE4
:1001D000421C10F8011B0029FBD1801A70472DE941
:1001E000FE4F81EA030404F0004421F00041009432
:1001F0004FF0000B23F0004350EA01045ED052EAB6
:1002000003045BD0C3F30A54C1F30A552C44A4F28F
:10021000F3340194A0FB0254C1F3130141F48011A3
:10022000C3F3130343F4801301FB024400FB034EAA
:10023000840A970A44EA815447EA8357A4FB076873
:1002400002958D0A05FB07854FEA932C04FB0C549D
:100250002705029D4FEA065847EA1637B5EB080511
:100260006EEB070C870E920E47EA811742EA831263
:10027000A7FB0201B6EB0B0164EB00042B0D43EA74
:100280000C335E1844EB1C50DA465146E7FB020182
:10029000C5F313044FEA0B3343EA14534FEA043215
:1002A000019C43EA0603A4F10C040294009CCDE9EE
:1002B00000B400F0CFF803B0BDE8F08F0020014695
:1002C000F9E70EB540F2334102910021CDE900116A
:1002D0000A460B4600F0BEF803B000BD00F0004235
:1002E00030F000400AD0C10D01F56071C0F3160076
:1002F00042EA0151C20840071143704700200146FD
:10030000704701F0004330B421F0004150EA01028F
:1003100006D00A0DA2F56072C1F31301002A02DCB7
:1003200030BC00207047440F44EAC104C100E0180B
:1003300030BC00EBC25000F047B830B50B46014668
:1003400000202022012409E021FA02F59D4205D374
:1003500003FA02F5491B04FA02F52844151EA2F11E
:100360000102F1DC30BD2DE9F05F05460020924628
:100370009B4688460646814640241BE02846414667
:1003800047462246FFF7F0FE53465A46C01A9141AF
:1003900010D311461846224600F008FA2D1A67EBD2
:1003A00001084F4622460120002100F0FFF917EB1B
:1003B00000094E41201EA4F10104DFDC484631460D
:1003C0002A464346BDE8F09F0029A8BF7047401C5D
:1003D000490008BF20F00100704710B4B0FA80FC5B
:1003E00000FA0CF050EA010404BF10BC704749B198
:1003F000CCF1200421FA04F411FA0CF118BF012108
:1004000021430843A3EB0C01CB1D4FEA00614FEAE7
:10041000102042BF002010BC704700EBC3501044B6
:100420000029A4BF10BC7047401C490008BF20F041
:10043000010010BC704710B5141E73F1000408DAF7
:10044000401C41F1000192185B411A4301D120F098
:10045000010010BD2DE9F04D92469B4611B1B1FA55
:1004600081F202E0B0FA80F22032904600F09EF96C
:1004700004460F4640EA0A0041EA0B0153465A4639
:10048000084313D0114653EA010019D0C8F14002C5
:100490005046FFF769FE05460E465046594642460D
:1004A00000F084F9084305D0012004E020463946D5
:1004B000BDE8F08D0020054346EAE0762C43374343
:1004C0000A986305E40AA0EB08000022FD0A44EA4A
:1004D00047540A3002D500200146E9E7010510190A
:1004E0006941DDE9084500196941BDE8F04DA2E721
:1004F0002DE9FE4F804681EA0300C00F0C460090B4
:1005000021F0004123F00045B8EB0200A94105D2DB
:100510004046214690461C460B46024623F00040CA
:10052000104347D0270DC7F30A00C3F30A510290C6
:10053000401A019040286BDAC3F3130040F4801B8B
:100540000098924620B10023D2EB030A63EB0B0B19
:1005500001985946C0F14002504600F027F906467E
:100560000D4650465946019A00F02FF910EB08004D
:100570006141002487EA115284EAE7731A4340D0AC
:10058000009A62B3019A012A4FEA075215DC001B58
:1005900061EB02014FF0004202EA0752CDE900424E
:1005A000001C41F5801132462B46FFF753FF03B084
:1005B000BDE8F08F40462146F9E7001B61EB0201E0
:1005C000001C41F5801300185B412018A2F50017AC
:1005D00047EB030140EAD570B6196D4111E06D0893
:1005E0004FEA360645EAC0754FEA0752001B61EB39
:1005F0000201001C41F5801149084FEA3000001942
:10060000514132462B4603B0BDE8F04FFFF713BF10
:100610000098012240000023D0EB020263EBE0735C
:10062000009821464FEAE074B8EB000061EB04014A
:10063000E9E783F000435BE781F0004158E72DE9EB
:10064000F04D81EA030404F0004B21F0004514460C
:100650004FF0000A23F0004150EA050220D054EA8E
:1006600001021DD0C5F30A570246C5F31303C1F3B7
:100670001300C1F30A5640F4801543F48013A7EB2E
:100680000608101BD64608F2FD3873EB050002D3AE
:1006900008F1010801E092185B41B8F1000F03DA9C
:1006A00000200146BDE8F08D00204FF48011064681
:1006B00084460EE0171B73EB050705D3121B63EB93
:1006C000050306434CEA010C49084FEA3000921832
:1006D0005B4150EA0107EDD152EA030012D082EAF1
:1006E000040083EA0501084305D0101BAB4106D284
:1006F0000122002306E000224FF0004302E06FF0E9
:10070000010253101AEB06004CEB085110EB0A00E3
:1007100041EB0B01BDE8F04DFFF78DBEC1F30A526E
:10072000C1F3130140F2FF3341F480119A4202DA1F
:1007300000200146704740F233439A42A2F233420E
:1007400002DC5242FFF710BD00F030B830B5041E95
:1007500071F1000404DB4FF00044404264EB0101FE
:10076000141E73F1000405DB1C464FF00043524297
:1007700063EB0403994208BF904230BD1CB50948A1
:100780000090094801900546009C06E0E06840F0B2
:10079000010394E8070098471034AC42F6D3FFF702
:1007A000CBFC0000604B0008804B0008202A04DBD3
:1007B000203A00FA02F1002070479140C2F1200374
:1007C00020FA03F3194390407047202A06DBCB1729
:1007D000203A41FA02F043EAE07306E041FA02F3FC
:1007E000D040C2F120029140084319467047B0B58D
:1007F000044600688168C90701D10020B0BD816846
:1008000021F00101816000F0DFFB0546206880686F
:10081000C007F2D000F0D8FB401B0328F6D32068B5
:100820008068C007F2D0A06A40F01000A062E06AC1
:1008300040F00100E0620120B0BD0000BCB50446FC
:100840000020019021688A68D2072BD1886840F087
:1008500001008860874888490068B0FBF1F001908A
:10086000019810B101980138F9E700F0ADFB054699
:1008700020688068C0071CBF0020BCBD00F0A4FB3E
:10088000401B0328F4D320688068C007F0D1A06A19
:1008900040F01000A06202F033FCE06A40F001007A
:1008A000E0620120BCBD00BFFEE77047EFF310809F
:1008B00072B6FEE77CB504460020019094F824004F
:1008C000012801D1022554E002F016FB2046FFF773
:1008D000B5FF0546002849D1A06A41F202118843BC
:1008E0000230A06263480668022000F049FDB6FBB2
:1008F000F0F040000190019810B101980138F9E73B
:100900002068816841F00801816000F05DFB0646C7
:1009100020688168090709D500F056FB801B0B2869
:10092000F6D3206880680007F2D513E0816841F0B3
:100930000401816000F048FB06462068806840079B
:100940000DD500F041FB801B0B28F6D32068806892
:100950004007F2D5012510206FF0120102E00120BE
:100960006FF00301A26A11400843A062002084F8DE
:10097000240028467CBD00BF78B50022009290F884
:100980002420012A01D1022157E04C68012280F87D
:100990002420062C0ED804EB84030A681F25053B8F
:1009A00002FA03F49D4003685E6B26EA05052C43BA
:1009B0005C6317E0036804EB84020C2C09D8A2F1F5
:1009C000230402F034FB1E6B26EA04042C431C6350
:1009D00008E0A2F1410402F02AFBDE6A26EA0404E0
:1009E0002C43DC6202EB4204092A19D989681E3CB7
:1009F0000725A14005FA04F4DD6825EA0404214333
:100A0000D96022F00101102913D11949A1F108047C
:100A1000A34214D0816A41F020018162012109E0E2
:100A200007221D698968A24025EA0202A1401143FC
:100A300019610021002280F82420084678BD0B6847
:100A40001B02F6D40B68102A43F400030B60F0D1AC
:100A50000849094A0968B1FBF2F101EB810149003B
:100A6000009100990029E4D000990139F8E700BF0E
:100A7000082401403400002040420F00806A704783
:100A80000068C06C70470000E8B3F8B50446806A9F
:100A900028B902F035FBE062204600F07BF82046E2
:100AA000FFF7A5FEA26AA16A78BB12F010002CD154
:100AB00041F2021021EA00000230A06294E807002F
:100AC000531EB3FA83F35D091346B2F5807F18BF56
:100AD0002B022C4DE669454086F440273D4308BF74
:100AE0004FF400263143257B267D41EA4501012E46
:100AF00014D175B1A56A45F02005A562E56A45F0F7
:100B00000105E5620AE00120704741F01000A06293
:100B100035E0A56903EB4533A3F5C053456825F4DB
:100B200069452B43184D436083682B400B43B2F556
:100B3000807F836001D0012A04D12269134B03EB2B
:100B4000025200E00022C36A23F470031A43C26217
:100B50000F4A80681040884207D100200122E062DD
:100B6000A16A62F30101A162F8BDA06A40F0100021
:100B700020F00200A062E06A40F00100E062012083
:100B8000F8BD00BF003C0140FDF7E1FF0000F0FFB1
:100B9000FE0E1FFFFEB501460020CDE90400CDE9A1
:100BA00002001148096800F5E052914219D1F54957
:100BB0000A6842F400720A600A6802F40072019244
:100BC000019A0A6842F004020A60096801F004010F
:100BD00001910321039101210291019902A900F0E1
:100BE00007F906B080BD00BF00080140B0B502F0B3
:100BF00013F904BF0220B0BD02F0E4F808B102F01E
:100C00008FBA2068A16A40F20132914301F58071E8
:100C1000A1621D4901F57F72904205D0A36A23F4B9
:100C20008013A362436808E00B6813F4702FF5D0BB
:100C3000A36A43F48013A3620B685B0504D5A36A1F
:100C4000012565F30D33A362A36A0025DB0444BFCD
:100C5000E56A25F00605E5626FF0020500230560F0
:100C600002F0B7F909D1904203D0816841F4A001A4
:100C700006E0096811F4702FF7D0816841F4801103
:100C800081600020B0BD00BF0424014090F8211015
:100C9000022915D110B50168D0E90F230C6824F0A2
:100CA0000E040C600C6824F001040C60012101FAB0
:100CB00003F3536080F821100021BDE8104002E0EA
:100CC000042181630121002280F82020084670471A
:100CD00090F8211002291AD110B50268116821F08C
:100CE0000E011160116821F0010111602C4901F120
:100CF0007C039A420FD9324B9A4226D0314B9A420A
:100D000021D0314B9A4225D14FF480732AE004213F
:100D10008163012142E0234B9A422CD0224B9A421C
:100D20002ED0224B9A4228D0214B9A421DD0214BE3
:100D30009A420CD0204B9A421AD0204B9A4206D1AC
:100D40004FF080721DE010230CE001230AE04FF405
:100D5000803216E001F588644FF48033A24208BF68
:100D60004FF48053C1F800340CE04FF4805208E097
:100D70004FF4801205E0012203E04FF4807200E09E
:100D800010220A600021012280F8201080F8212022
:100D9000426B0AB190470021BDE8104008467047F9
:100DA00004000240080002401C00024030000240E3
:100DB00044000240580002406C00024080000240A3
:100DC000080402401C04024030040240B0B504464E
:100DD00000F0FAF805460548611C007818BF044485
:100DE00000F0F2F8401BA042FAD3B0BD080000208A
:100DF0002DE9FC4F81465F4806234FF0000C4FF071
:100E000001084FF00F0E4FF0000A81455A4808BF05
:100E1000052348444FEAB022052A38BF4FEAB023E1
:100E2000009300220C6834FA02F508BFBDE8FC8F7D
:100E300008FA02F714EA070500F098804C68032CC2
:100E400016D9112C26D0122C32D04F48844213D000
:100E50004E48844210D04E4884420DD04D488442C2
:100E60000AD04D48844207D04C48844204D022E046
:100E7000DFE804F0021B14188C6844B1012C14BF85
:100E8000C9F81470C9F810704FF0080A13E04FF059
:100E9000040A10E0CC6804F1040A0CE0CC6804F108
:100EA000080A08E04FF0000A05E0D1F80CA002E0C3
:100EB000CC6804F10C0A64464846B5F5807F28BF2B
:100EC000203C28BF043006680EFA04F70AFA04F43E
:100ED000BE4334430460C879C00647D5D84B274F7A
:100EE00022F003061868BB463E4440F0010018603B
:100EF00018682B4B00F0010001900CF00C00019FD2
:100F00000EFA00F49E46F758009B03FA00F027EA19
:100F100004041B4B204346F80E004FF00F0E4F68A1
:100F2000F802DBF8080054BF20EA050440EA050493
:100F3000CBF80840B802186854BF20EA050440EA1C
:100F400005041C60B803DBF8040054BF20EA050464
:100F500040EA0504CBF80440F803DBF8000054BF76
:100F600020EA050440EA0504CBF800400CF1040C2B
:100F7000013257E7001C014000F8FEBF00040140A9
:100F80000C04014018100240000011100000121063
:100F9000000021100000221000003110000032106B
:100FA00008FCFFFF8068084018BF01207047C26836
:100FB00002EA0103914341EA034101617047002ABB
:100FC00008BF090401617047A2480068704700BF6C
:100FD00010B3F8B5044690F83D0020B902F09CF833
:100FE000204600F0FFF802F063F8016841F4004188
:100FF0000160016821F40041016000F049FB636871
:10100000384A394993423CBF48F28041C0F21E0140
:10101000884203D20120F8BD0120704733494FF4C4
:101020007A77B0FBF1F521684E6826F03F062E4333
:101030004E604FF496766E43934228BFB6FBF7F5A9
:101040006A1C0D6A25F03F052A434CF6FF750A62BB
:10105000CA69AA43264DAB420AD85B000138B0FBEF
:10106000F3F001306FF31F30042898BF042013E021
:10107000A56801383DB119256B4302F03AF80AD052
:1010800000F5804004E003EB430302F032F802D0A5
:1010900000F5004000E00120104304F10C06C86197
:1010A000E0690A6822F0C0021043226A104348F245
:1010B000FF320860886890436CCE18431043886004
:1010C000C86820F0FF0028433043C86001F0C8FF23
:1010D00000202021206484F83D10206384F83E0025
:1010E000F8BD00BFA186010000093D0040420F008D
:1010F000A08601002DE9FE43994601F08CFF0546CC
:1011000001F016FF0AD13549204601221923009526
:1011100001F0EEFA10B901F0DAFE02D10220BDE8CA
:10112000FE8301220DF1280801F0CBFF03D11368E3
:1011300043F001031360136823F40063136021225A
:101140004B4601F05EFF26493246608DE16239462A
:1011500020852046CDE9008501F050FA10B101202C
:10116000BDE8FE83218D080422D0204641462A4650
:1011700001F019FB10BB606A2268014611F8013BBF
:101180001361638D013B63856162238D591E218547
:1011900056697607E7D509044FF00001E3D041789E
:1011A00002301161991E6062218501F03CFFDAE78F
:1011B000204641462A4601F07BFA30B1206C0428D3
:1011C000CDD1206801F051FEC9E72068016841F4E3
:1011D0000071016001F0B0FEBDE8FE830200100066
:1011E0000000FFFF10B586B00021CDE90411CDE964
:1011F00002110168114881421DD13E4C00F5384072
:10120000216841F008012160216801F00801019185
:101210000321059112210391C0210291019902A994
:10122000FFF7E6FD606840F400106060606800F45D
:1012300000100190019806B010BD00BF005400409E
:10124000181002401B48034900780A6810440860DF
:10125000704700BFB403002080B50748016841F023
:1012600010010160032000F07BF80F2000F006F869
:1012700000F024F8002080BD0020024070B50D4E23
:1012800004464FF47A713078B1FBF0F00A490968EE
:10129000B1FBF0F000F0E2FC01250F2C08D838B9C2
:1012A0004FF0FF3021460022002500F033F8746033
:1012B000284670BD080000203400002082B00D4890
:1012C0000222016841F001010160016801F00101A1
:1012D00001910199416841F080514160406800F0FE
:1012E0008050009000980448016862F31A61016020
:1012F00002B070471810024004000140002805D4D5
:10130000734601F06CFD9E46014A8850704700BF4D
:1013100000E100E0F0B5184B4FF0FF361C68C4F355
:101320000224E51E84F0070438BF002506FA05F7FD
:10133000BA43042C28BF042406FA04F4A14300F0A5
:101340000F04A940043C1143044A23440901024408
:10135000002848BF03F10C021170F0BD00E400E06A
:1013600005494FF6FF030A681A4060F30A22034852
:1013700010430860704700BF0CED00E00000FA0564
:101380000146421E0020072A07D8DFE802F015298F
:1013900037043737370400F093B910292ED1264986
:1013A0004A680868C00119D5C2F3834023A3D20359
:1013B000185C30D4D64A36E01F49086A00F44072FF
:1013C000B2F5407F20D0B2F5007F18D0B2F5807F13
:1013D00002BF4FF4004101EA80307047002070479F
:1013E00080B500F05FF9144902224968C1F38131E8
:1013F00002EB4101B0FBF1F0BDE880407047486A64
:1014000049F64041800703E008684FF22441800319
:1014100001EAE07070474A680CA3C2F340429A5C4C
:10142000B54BB3FBF2F2496850434902E6D44000A1
:101430000321B0FBF1F070470010024002030405E5
:10144000060708090A0B0C0D0E0F10100102000010
:101450002DE9FC4104460078A64EC00743D0B06990
:101460005FEAC00808D4B06940F08050B061B0694C
:1014700000F08050019001982C4F3868C00511D4BD
:10148000386840F480703860FFF79EFD0546386884
:10149000C00507D4FFF798FD401B6428F7D9032047
:1014A000BDE8FC81F06910F440700FD0616801F470
:1014B000407188420AD01E49F06901220A60002268
:1014C0000A6020F44071C007F16120D16068F169C1
:1014D00021F440710843B8F1000FF06103D4B06902
:1014E00020F08050B0612068810705D5A16832687E
:1014F00022F4404211433160C00605D5606931686D
:1015000021F48001084330600020BDE8FC81FFF732
:101510005BFD054641F28837F0698007D6D4FFF7B6
:1015200053FD411B0320B942F6D9EEE7007000409D
:1015300040044242002873D02DE9F8430D4651493A
:101540000446086800F00700A84209D2086820F0A5
:10155000070028430860086800F00700A8426BD124
:10156000206889468107634988461AD5410706D510
:10157000D8F80010424641F4E061C8F800100107B5
:1015800006D5D8F80010424641F46051C8F8001062
:10159000A168D8F80020434622F0F0021143C8F8B1
:1015A0000010C0073ED1D9F8000000F00700A842A3
:1015B0000CD9D9F8000020F007002843C9F8000032
:1015C000D9F8000000F00700A84235D12068410793
:1015D00008D5E168D8F80020434622F4E0621143C0
:1015E000C8F80010000709D52069D8F80010424655
:1015F00021F4605141EAC000C8F8000000F060F832
:10160000D8F80010204AC1F30311515CC8402A49A0
:1016100008601E480068FFF731FE0020BDE8F8832F
:1016200001207047404658F8041C6068022806D024
:10163000012823D1890304D40120BDE8F88389015E
:10164000FAD5D8F8001021F003010843C8F80000CB
:10165000FFF7BAFC064641F2883741466068D8F881
:10166000001001F00C01B1EB800F9CD0FFF7ACFC37
:10167000801BB842F1D90320BDE8F8838907DBD588
:10168000DFE700BF00200240C64200080C00002037
:10169000E3481849094A00680968C1F30221515C0E
:1016A000C8407047DE481349044A00680968C1F31E
:1016B000C221515CC840704734000020D642000867
:1016C00010B50C490C480A6802F00C03082B07D12E
:1016D000C2F3834309A4D203E35C02D40C48584309
:1016E00010BD096809A25843C1F34041515CB0FBE9
:1016F000F1F010BD0410024000127A00020304054C
:10170000060708090A0B0C0D0E0F1010010200004D
:1017100000093D00002843D02DE9FC410446007833
:10172000BD4EC0070BD0706800F00C00042839D102
:101730003068800303D56068002800F0B680207808
:10174000800717D5706810F00C0F05D001F069FB09
:1017500042D17068C0033FD43068800703D5206948
:10176000012840F0A2806069316821F0F80141EA67
:10177000C0003060207800075ED5A06900283ED008
:10178000A6480121C0F88014FFF71EFC0546706AC8
:10179000800744D4FFF718FC401B0228F7D902E168
:1017A0000120704701F03DFB02D17068C003BFD437
:1017B00062683068002A20F4803100F0F780B2F5CA
:1017C000A02F00F0DD80B2F5803F00F0DD803160B9
:1017D000306820F48020D9E021699048002900F089
:1017E0008F8001210160FFF7EFFB0546306880071D
:1017F000B9D4FFF7E9FB401B0228F7D9D3E08748AB
:101800000021C0F88014FFF7DFFB0546706A8007EF
:1018100012D5FFF7D9FB401B0228F7D9C3E0804857
:101820004FF4FA510068B0FBF1F0019000BF01984D
:10183000411E00280191F9D12078400714D4E769AE
:101840007FB101F0EEFA3ED1012F2ED0216A7068EF
:1018500000F480328A4228D1616A00F47010884214
:1018600023D10020BDE8FC81F0695FEAC00808D4FC
:10187000F06940F08050F061F06900F08050009015
:101880000098684F3868C00512D4386840F48070FA
:101890003860FFF799FB05463868C00508D4FFF7A4
:1018A00093FB401B6428F7D97DE00120BDE8FC8153
:1018B000E168306A002948D0052931D0012933D0A8
:1018C00001F086FA32E05549002088460866FFF7A5
:1018D0007BFB0546022F09D13068800179D5FFF7DF
:1018E00073FB411B03200229F6D9BBE73068800156
:1018F000B7D5FFF769FB411B03200229F6D9B1E7F1
:1019000000210160FFF760FB0546306880077FF526
:1019100031AFFFF759FB411B03200229F5D9A1E79D
:1019200040F004003062306A40F001003062FFF79E
:101930004BFB054641F28837306A800717D4FFF722
:1019400043FB401BB842F7D92DE001F041FA306269
:10195000FFF73AFB054641F28837306A800706D523
:10196000FFF732FB411B0320B942F6D97AE7B8F101
:10197000000F3FF564AFF06920F08050F0615EE742
:1019800040F480203060306840F480303060FFF7F1
:101990001BFB0546306880033FF5D1AEFFF714FB13
:1019A000401B6428F6D90320BDE8FC813160306813
:1019B00020F480203060FFF707FB05463068800385
:1019C0007FF5BDAEFFF700FB411B03206429F5D96D
:1019D00048E7206AB0F5803F05D1A168726822F41B
:1019E000003211437160616A726822F4741211430B
:1019F000084370600120C8F86000FFF7E5FA04466C
:101A0000306880013FF52DAFFFF7DEFA011B0320A0
:101A10000229F5D926E700BF00100240000042422B
:101A2000340000200070004070B530B10446406AB8
:101A300028B100202061142006E0012546E06068FE
:101A4000B0F5827F02D01C20002121500025A56224
:101A500094F8510020B9204684F8505000F038F82E
:101A6000022084F8510094E80F0001F4827102F41E
:101A700004420668114403F40062114426F0400653
:101A80000660226902F002021144626902F001025A
:101A90001144A26902F400731944E36903F03803A6
:101AA0001944236A03F080031943A36A03F4005323
:101AB00019430160042101EA12414160C16921F426
:101AC0000061C1610120656584F85100284670BD40
:101AD00070B586B0194C00680026CDE90466CDE9E2
:101AE000026604F52051884225D11548016841F469
:101AF00080510160016801F48051019101990168F0
:101B000041F004010160006800F00400019003202E
:101B1000059002200390A0200290019802AD20467B
:101B20002946FFF765F940202946CDE90366029072
:101B30002046FFF75DF906B070BD00BF0008014008
:101B4000181002402DE9FC411D4616460F4604467A
:101B5000FFF73AFA804694F85100012804D137B1D2
:101B60002EB101F0F7F905D10220BDE8FC8101207A
:101B7000BDE8FC810320012184F85100002060654C
:101B8000E68684F85010A6862763A087A063C4E980
:101B90001000E087A1682068B1F5004F07D1016807
:101BA00021F040010160016841F480410160016859
:101BB000490601D401F0B0F9E2686168B2F5006F3E
:101BC0001CD109B1012E01D101F085F96E1CE08E06
:101BD00070B301F0A9F908D4FFF7F6F9002EF6D09A
:101BE000A0EB0800A842F2D335E0216B31F8022BBC
:101BF000C2602163E08E0138E086E8E709B1012E7A
:101C000002D1397801F080FA6E1CE08E80B101F0CB
:101C10008BF908D4FFF7D8F9002EF6D0A0EB080016
:101C2000A842F2D317E0216B097801F06DFAECE7D6
:101C300020462946424601F079FA08B12020606525
:101C4000A06810B9002001F0F1F801F094F918BF74
:101C50000120BDE8FC8101F026B90000411E0020F2
:101C6000B0EB116F1CBF01207047044AF023516094
:101C700003490B70072190601160704710E000E08D
:101C800023ED00E07047704790F83C300222012BB2
:101C900029D010B580F83D2002680B68546824F004
:101CA00070041C439368B2F1804F54600ED04D4CC9
:101CB000A2420BD04C4CA24208D04C4CA24205D0C0
:101CC0004B4CA24202D04B4CA24204D1496823F0B3
:101CD0008003194391600022012180F83C2080F8A4
:101CE0003D10BDE810401046704700BF58B110B518
:101CF00001F082F903D101F028F900F007F801F0B2
:101D0000EBF901F09BB80120704700001FB5006897
:101D10003649884221D03349884211D0B0F1804FF2
:101D200018BF1FBD18481C24016841F00101016063
:101D30000121006800F00100039003981C2019E0C5
:101D400011481D24016841F002010160006800F0A3
:101D50000200029002981D200BE00B48322401681B
:101D600041F008010160006800F00800019001984E
:101D7000322000210022FFF7CDFA204604B0BDE852
:101D80001040FFF7BBBA00BF1C10024090F83D1096
:101D900001291CBF01207047022180F83D10006816
:101DA000C168B0F1804F41F00101C1600ED00D4912
:101DB00088420BD00C49884208D00C49884205D093
:101DC0000B49884202D00B49884204D1724601F087
:101DD00051F8964603D0724601F06EF89646002000
:101DE000704700BF0004004000080040000C0040A5
:101DF00000340140002C014010B501F0E4F854D04B
:101E000084F83D0001204FF6777384F83C00206889
:101E100082689A4382600A68C2B1102A16D0202ACA
:101E200014D0302A12D0402A33D0502A28D0602A29
:101E300013D0B2F5005F1CD0B2F5805F32D0702AAB
:101E40001CD101F08BF841F077012AE0816821F084
:101E50007001114341F0070123E04B68CA6819463D
:101E600001F09FFA2068816841F0670121F01001BC
:101E700017E001F073F841F4804112E0012012E014
:101E800001F0FAF82068816841F0570121F0200143
:101E900007E001F0F1F82068816841F0470121F086
:101EA00030018160002001F0E0F810BD704770B58E
:101EB00004460068C5680669B10710D5A9070ED5A4
:101EC0006FF002010161012121778069800702D052
:101ED00001F0A6F801E001F061F80020207770071A
:101EE00012D5680710D520686FF004010161022146
:101EF0002177806910F4407F02D001F091F801E071
:101F000001F04CF800202077300711D528070FD5B5
:101F100020686FF00801016104212177C069800702
:101F200002D001F07DF801E001F038F800202077C0
:101F3000F00612D5E80610D520686FF01001016197
:101F400008212177C06910F4407F02D001F068F8C1
:101F500001E001F023F800202077F00708D0E8071F
:101F600006D020686FF001010161204600F026F8DC
:101F7000300608D5280606D520686FF0800101617B
:101F80002046FFF77FFE700608D5680606D5206854
:101F90006FF040010161204600F066F8B00601D5FF
:101FA000A80600D470BD20686FF0200101612046B2
:101FB000BDE87040FFF767BE704770471A49884216
:101FC00015D01A49884211D1194948780A78013048
:101FD000022A48700AD117490A22C0B20978B2FB16
:101FE000F1F1B0FBF1F202FB1100C0B170471FB577
:101FF0000F4C6068FEF772F9628808348DE80700BC
:1020000040210EA2204601F0B7FC1648214640228E
:102010004FF47A7304B0BDE8104000F07FBA064870
:102020004FF40051FEF7C3BF8C010020D401002003
:102030004C000020380000200010014041444320A3
:1020400076616C75653A20252E3266560A41444306
:102050002076616C7565283132626974293A2025D1
:102060006400000064020020704770477047000061
:10207000F8B5044600680268C168466915074FEA6A
:1020800082633FD001F4907706F00106BF193DD07E
:10209000D70705D0CF0503D5676C47F00107676404
:1020A000570704D51EB1676C47F0020767649207B3
:1020B00004D51EB1626C42F004026264002D07D5A3
:1020C00001F02002921903D0626C42F008026264AF
:1020D000626C002A00F0E180002B05D5890603D54B
:1020E000204601F097F920684069616C00F04000DB
:1020F00001F00801401847D12046FFF7B7FF002044
:102100006064CAE0002B01D58B0653D4236B012BEE
:1021100003D1D30601D5CB0651D4130601D50B0646
:1021200011D4520640F1B980490640F1B680C16829
:1021300021F04001C160202084F841002046BDE824
:10214000F84000F041BA94F84110212940F0A580F0
:10215000A168B1F5805F03D12169002900F09E805C
:10216000216A4A1C226209784160E18C0139E184CC
:10217000090440F09280C16821F08001C160C1680B
:1021800041F04001C160F8BD00F0CBFE00F0ABFEB5
:102190004DD500F02DFEFCD1E06B002847D043491F
:1021A0004163FEF795FD002877D0E06B416BBDE8F9
:1021B000F84008472046BDE8F84001F02BB900215F
:1021C00000910168009141680091009940694006C2
:1021D00032D4E08DA18DE28D002A5ED081425CD0A8
:1021E000081A216851E8031F226821F4907142E81F
:1021F0000313002BF5D1216851E8051F226821F057
:10220000010142E80513002BF5D1202184F842108A
:1022100000212163216851E8031F226821F0100189
:1022200042E80313002BF5D1022161632FE0204621
:10223000BDE8F840FFF71ABFE06B016849688AB251
:102240005AB3A38D9A4228D2E1858069202819D0FB
:10225000206850E8030F216820F4807000F0FCFE35
:10226000F6D100F04FFEFCD100F0C2FDFCD12020E1
:1022700084F842000020206300F086FEFCD1E06B71
:10228000FEF704FD02206063A08DE18D401A81B24B
:102290002046BDE8F840FFF7E8BEF8BD216A31F8F6
:1022A000022B6FF35F22216242605EE7C7330008B2
:1022B00090B110B5044690F8410008B900F013FF42
:1022C00000F08FFE2068016921F4904101614169AD
:1022D00021F02A0100F0D5BE0120704770B586B00C
:1022E0001D4C00680026CDE90466CDE90266A4F520
:1022F000444188422DD11948416841F40031416080
:10230000416801F4003101910199016841F0040133
:102310000160006800F00400019003200590022095
:10232000039004200290019802AD20462946FEF752
:102330005FFD08202946CDE9036602902046FEF79E
:1023400057FD262002210022FEF7E4FF2620FEF79B
:10235000D5FF06B070BD00BF000801401810024054
:1023600010B590F84230202B06D139B132B100249B
:10237000046301F0EFF802E0022400E001242046AB
:1023800010BD000070B5394C0068A4F54C4188427E
:1023900008D0374837A11E224FF47A73BDE8704049
:1023A00000F0BCB83B483CA1FDF700FF60B12046FF
:1023B0004FF400510022FEF702FE3A4801213BA2F1
:1023C0000170394839490DE032483DA1FDF7EEFE74
:1023D00030B3204600F01BFD324800213BA20170C3
:1023E00031483A4953689468D56880E83A00118AC0
:1023F00001822D4C2046FDF7EBFE1D4D82B2214699
:102400006423284600F08AF8224C80212046FDF7FC
:10241000C2FE284621468022BDE87040FFF7A0BFDB
:102420001C482FA1FDF7C2FE78B1407AA0F131011E
:10243000C9B208290FD81B49022230380A70314925
:10244000C2B208701848304902E01748114A2FA15B
:1024500001F0ACFACDE725A213482449161D78CE29
:1024600080E87A00117D0175C3E700BF00100140CC
:10247000640200204572726F723A20556E6B6E6F67
:10248000776E205541525420696E7374616E636596
:102490000A000000B40200206F70656E30324C45B7
:1024A000440000004C000020340300204C45442030
:1024B0004431E5B7B2E68993E5BC800D0A0000001F
:1024C000636C6F736530324C454400004C454420CA
:1024D0004431E5B7B2E585B3E997AD0D0A000000D8
:1024E000666C69636B65723032000000E697A0E6A7
:1024F0009588E997AAE78381E9A291E78E870D0A7B
:102500000000000038000020114B0008E694B6E5FA
:1025100088B03A2025730D0A000000002DE9F84329
:10252000044690F8410020281CBF0220BDE8F88333
:10253000884679B317466AB300201D46606421209F
:1025400084F84100FEF740FDE7840646A784A068B2
:10255000B0F5805F01D1206998B34FF0000947467C
:10256000E08CD0B12046802132462B4601F00BF89A
:1025700008BB27B117F8010B2168486006E039F85D
:10258000021B206800276FF35F214160E08C013857
:10259000E084E5E70120BDE8F8832046402132468B
:1025A0002B4600F0F0FF202184F84110002818BFCE
:1025B0000320BDE8F883202084F841000320BDE813
:1025C000F8830027C146CBE77047FEE702685169F0
:1025D00049054FF000010FD56FF48063536120224D
:1025E000016380F83D2080F83E1080F83C10016CBB
:1025F00041F0040101640121084670472DE9FE43C2
:10260000044600680E460A9D0B9F9946904600229C
:1026100001682B4641F48071016020464FF00111A2
:1026200000F057FD48B120680068C00544BF4FF472
:10263000007020640320BDE8FE83206806F0FE01E0
:102640002A463B4601611949204600F07CF810B14A
:102650000120BDE8FE8300203A46029020684169CF
:1026600002912946806902900298204600F09BF86A
:1026700030B1206C0428EBD1206800F0F6FBE7E7CE
:102680002068B9F1010F0AD04FEA18213A460161DA
:102690002046294600F087F80028EAD120685FFA32
:1026A00088F101610020BDE8FE8300BF0200010047
:1026B000F8B515460E4604464F1C20684069400791
:1026C00044BF0020F8BD2046FFF780FF70B9002FFF
:1026D000F3D0FEF779FC401BB04201D8002EECD1BC
:1026E000206840694007E8D400F0A8FC0120F8BD4C
:1026F0002DE9F047DDF8209004469846164601F48F
:102700007F0018278DB203F1010AB0F5803F08BFA2
:10271000142700F0C4FC13D1BAF1000FF9D0FEF772
:1027200053FCA0EB0900404502D8B8F1000FF0D1EE
:1027300000F0B5FCEDD100F081FC0120BDE8F08790
:102740000020BDE8F0872DE9F04198461646044682
:102750008FB2551C206841693940B94213D0416994
:10276000490513D4002DF5D0FEF72EFCA0EB080090
:10277000B04201D8002EEDD1206840693840B842FF
:10278000E8D0202008E00020BDE8F08100F06DFBDB
:102790006FF480614161042000F00AFC084320646A
:1027A0000120BDE8F081F8B515460E4604464F1CE1
:1027B00020684069000644BF0020F8BD2046FFF7AE
:1027C00005FF70B9002FF3D0FEF7FEFB401BB042AF
:1027D00001D8002EECD1206840690006E8D400F052
:1027E0002DFC0120F8BD00007CB51148114E0021E0
:1027F00002680220B04710480068FDF76FFD0F4CDB
:10280000CDE900010EA20821651C284601F0B4F8AC
:10281000032000212A46B0470B4A00200021B04780
:10282000012000212246334602B0BDE8704018471F
:10283000100000204D28000850000020400000201B
:10284000252E326600000000FB4A000810B5144631
:10285000064A02EBC000405C01F06CF8207818B129
:1028600001F078F80134F9E710BD00BF1400002032
:102870000F4900203022082802D00A540130FAE71C
:10288000B0B50C4D3220A8470B4C3020A047022099
:10289000A8470220A8470C20A0470120A8470220F3
:1028A000A8470120A04702202946BDE8B0400847BC
:1028B00098000020CD0D000835390008BFB50E483E
:1028C0004FF4602100240125C1610C490475057392
:1028D00005618460C0E90014FEF7D6F808B1FDF781
:1028E000E5FF05480394CDE9014501A9FEF744F849
:1028F00008B1FDF7DBFFBFBDA000002000240140B0
:102900002DE9F04F85B000243448002242F210082F
:10291000CDE90344CDE90144016841F010010160B3
:10292000016801F0100100910099016841F0200157
:102930000160016801F0200100910099016841F0F7
:1029400004010160016801F004010091009901682F
:1029500041F00801016042F21001006800F0080037
:10296000009000981E4800F5006605463046FEF7C8
:1029700026FB05F5806540F23F41002240F23F49C9
:102980002846FEF71CFB4FF0020A4FF0010B3046C1
:10299000CDE9018BCDE9034A01AFDFF8808F3946DD
:1029A000C04728463946CDE9034ACDE9019BC047D7
:1029B0004FF4FC5000F0F4F93046C0474FF40040AB
:1029C00000F0EEF90648C0474FF4007000F0E8F957
:1029D0002846C04705B0BDE8F08F00BF1810024080
:1029E0000008014010B50B480B4B0C4C00214FF474
:1029F0008042C0E90043C0E90211C0E90421C0E9F6
:102A000006110162FEF7E4FA18B1BDE81040FDF7C7
:102A10004DBF10BDD0000020A08601000054004032
:102A2000B0B50E4800210A240D4B4FF482724FF4CA
:102A30000075C0E90A141024C0E90811C0E9003289
:102A4000C0E90211C0E90411C0E90654FEF7ECFF29
:102A500018B1BDE8B040FDF729BFB0BD340100207A
:102A60000030014010B586B00F4800214FF4E1520C
:102A700042F210734FF0804400F097F908B1FDF76F
:102A800015FF4FF480500290074802A9FFF7B4F9F0
:102A900008B1FDF70BFF04486946FFF7F5F808B1E8
:102AA000FDF704FF06B010BD8C01002010B586B004
:102AB0000F48104C00214FF4347242F2107300F0B2
:102AC00074F908B1FDF7F2FE4FF480500290084807
:102AD00002A9FFF791F908B1FDF7E8FE044869463D
:102AE000FFF7D2F808B1FDF7E1FE06B010BD00BF58
:102AF000D40100200004004010B586B00F48104CEF
:102B000000214FF4347242F2107300F04EF908B114
:102B1000FDF7CCFE4FF480500290084802A9FFF761
:102B20006BF908B1FDF7C2FE04486946FFF7ACF83F
:102B300008B1FDF7BBFE06B010BD00BF1C020020AF
:102B4000000C004010B50B480B4C00210C224FF438
:102B5000E133C0E90043C0E90211C0E90412C0E951
:102B60000611FFF7A5FB18B1BDE81040FDF79EBEAA
:102B700010BD00BF6402002000440040FEE7FEE7F5
:102B8000002000F001B80000F8B53A4E04460025D8
:102B9000E8B2072888BFF8BD45F0B000C0B2B04722
:102BA00000200027B0471020B04778B2002804D496
:102BB000204600F031FD0137F7E70135E8E700BFB7
:102BC00010B5C820FEF702F92A4CAE20A0472020FD
:102BD000A0471020A047B020A047C020A047002059
:102BE000A0471020A0474020A0478120A047FF20F9
:102BF000A047A020A047A620A047A820A0473F208C
:102C0000A047A420A047D320A0470020A047D5205C
:102C1000A047F020A047D920A0472220A047DA20D3
:102C2000A0471220A047DB20A0472020A0478D20EE
:102C3000A0471420A047AF202146BDE81040084718
:102C4000024A00200321022300F016B8084B0008B6
:102C5000B0B50446A1F15000064DC0B2A847200906
:102C60001030A84704F00E0029460130BDE8B040FE
:102C7000084700BFF53500082DE9FE4F934688460A
:102C80000646012B45D0022B6BD1374D0021CDF8E4
:102C900004B0C8B21BF80040002C62D0F0B2029120
:102CA000782888BF08F1010888BF0026F7B25FFACC
:102CB00088F13846FFF7CCFFA4F12000AA464FF078
:102CC0000009C0B205EB00144FEA001BB9F1080F70
:102CD00006D014F8090000F09FFC09F10109F5E79E
:102CE00008F10100C1B23846FFF7B2FF0AEB0B0052
:102CF000DDF804B05546002700F10804082F04D081
:102D0000E05D00F089FC0137F8E7029908360131EF
:102D1000BFE7DFF858904FF0000A5FFA8AF01BF81F
:102D20000040F4B1F0B27E2888BF08F1010888BFE6
:102D300000265FFA88F1F0B2FFF78AFFA4F12000C5
:102D40000024C0B200EB400009EB4007062C04D081
:102D5000385D00F061FC0134F8E70AF1010A06363B
:102D6000DBE7BDE8FE8F00BF06450008DE42000835
:102D700001228DF80510010100F0F0008DF8071018
:102D80008DF8060020461021FEF719B9394601904A
:102D900020462847404604224FF47A73FFF7BEBB13
:102DA0003946CDE90244019070470591CDE9031100
:102DB000CDE900118161C0E90043C0E9021201615F
:102DC000FEF794BF012084F824002046FDF736BDAD
:102DD00020F001003062306A20F0040070471C21AE
:102DE000012201EAD00100F01F0002FA00F0704752
:102DF000206850E8050F216820F0400041E80502F6
:102E0000002A704703224FF47A73FEF79BBE4FF4FB
:102E100000510122FEF7D3B8044690F8240001289F
:102E20007047706800F00C00082870470190206817
:102E3000C16801918068019001987047012084F871
:102E4000460084F83E0084F83F0084F8400084F88F
:102E5000410084F8420084F8430084F8440084F878
:102E6000450084F83D00002010BD016841F4007168
:102E700001607047816801F0070106297047016809
:102E800051E8051F026821F0010142E80513002BFB
:102E90007047016851E8031F026821F0100142E801
:102EA0000313002B7047002084F85000012084F8A1
:102EB00051000320BDE8FC81016841F0010101607F
:102EC000704701680191406801900198704794F83B
:102ED0003C000128704737F8021BC1602763E08E71
:102EE0000138E086704720684069400670472046F8
:102EF00010210022FEF763B8012084F82400204648
:102F0000FDF775BC206850E8050F216820F001002E
:102F100041E80502002A7047016841F04001016064
:102F20007047204600F055BA2068816889077047CD
:102F300094F83D0020287047202084F83D000020B0
:102F400084F83C0084F83E007047002084F83C0080
:102F50002046704794F8500001287047D1E90123BA
:102F6000C9681A4342EA0121826822F47F42114370
:102F7000816081687047012084F85100002084F846
:102F80005000606D00287047206850E8030F2168EA
:102F900020F0100041E80302002A70474DF808EDC8
:102FA0002046FFF709F820465DF808EBFFF705B863
:102FB00000212022216384F83D2084F83E1084F80B
:102FC0003C10216C704790F83C2004460220012AF6
:102FD000704784F82430836803F46023B3F5602FCE
:102FE0007047242084F841002068C16821F4005112
:102FF000C160204600F06CBA044690F83D000028FD
:10300000704784F83D20402284F83E20002222644C
:1030100061856062704716460F460446FDF7D4BFCF
:103020002046FEF743BF608D0138608570470A680F
:103030001F2602FA04F506FA04F470470020202146
:10304000206384F83D1084F83E0084F83C00206C36
:1030500040F020002064704741E80302002A7047D6
:10306000086840F0010008607047002184F83C10B7
:10307000012184F83D1070474B68CA68194600F07A
:103080007FB94161C16841F40051C1600020202135
:10309000606484F8411084F84210606310BD2068B9
:1030A000C0592840401BB0FA80F04009B042704738
:1030B000242084F83D002068016821F001010160AE
:1030C000704784F83C20226898E803011368DB0706
:1030D00070470097FFF70CBB0220211D84F83D00CC
:1030E000206800F0F7B8002084F840002046FFF781
:1030F000F5B8B0FBF3F001306FF31F3000287047D4
:10310000002084F8240070470173206B0130206395
:10311000E08E0138E0867047002084F83C0070475C
:10312000002084F824000120B0BD70477CB50D4616
:10313000164600920221012204462B4600F012F8A6
:1031400040B92046802100222B460096002600F040
:1031500009F820B1606D032640F02000606530461C
:103160007CBD00002DE9F843089F1C4615460E461D
:103170008046FDF729FF381A0719FDF725FF81461C
:10318000274801340068C0F3CB3078430090D8F86A
:10319000000081683140891BB1FA81F14909A942D7
:1031A0000FD0002CF5D0FDF70FFFA0EB0900B842BF
:1031B0000AD20098009901390091002808BF0746FB
:1031C000E5E70020BDE8F883D8E900014268B1F5E1
:1031D000827F22F0E00242600BD1D8F80810B1F5EE
:1031E000004F02D0B1F5806F03D1016821F040019A
:1031F0000160D8F82810B1F5005F07D1016821F40B
:1032000000510160016841F400510160002088F81C
:103210005000012088F851000320BDE8F88300BF6A
:10322000340000207047FEF70DB8B0B596B000240A
:103230001421CDE91144CDE90F4401A80430FCF775
:10324000AAFF4FF4E010022501210E9415904FF4CF
:103250008030139510911490CDE90C100CA8FEF756
:1032600059FA18B1EFF3108072B6FEE74FF48060A0
:103270000B940221CDE909400F20CDE9070507A8ED
:10328000FEF758F918B1EFF3108072B6FEE74FF46D
:10329000004003900220019001A8FEF7D9F818B170
:1032A000EFF3108072B6FEE716B0B0BD70470000B5
:1032B0000148FEF7FCBD00BF8C0100200148FEF76D
:1032C000F6BD00BFD40100200148FEF7F0BD00BFED
:1032D0001C02002070B5254A0368904222D0B0F14C
:1032E000804F0BD0224CA04208D0224CA04205D0E7
:1032F000214CA04202D0214CA04203D14C6823F0C3
:1033000070032343B0F1804F10D0194CA0420DD070
:10331000184CA0420AD0184CA04207D0174CA0422B
:1033200004D007E04C6823F070032343CC6823F4F7
:10333000407323434E6923F080030C688D68334348
:1033400090420360C562846203D002F5006290423D
:1033500001D109690163012141610169C90703D0F4
:10336000016921F00101016170BD00BF002C014025
:10337000000400400008004000340140000C004000
:1033800010B5036A046A24F001040462846924F01D
:10339000F00444EA0212826123F00A02114301623E
:1033A00010BD10B5036A046A24F010040462846935
:1033B00024F4704444EA0232826123F0A00242EA1B
:1033C0000111016210BD406A0021C185C184FEF770
:1033D0004DBE016851E8031F026821F4907142E874
:1033E0000313002BF5D14DF808EDFFF748FD5DF80C
:1033F00008EBF8D1016B012906D14DF808EDFFF774
:1034000048FD5DF808EBF8D1202180F8421000213A
:103410000163704790F84210222920D18368024648
:10342000B3F5805F08D152F8281F52F8183C002BE2
:1034300045D003685B6809E052F8281F13B9036997
:10344000002BF6D003685B6803F07F030B701168F4
:1034500001311160C18D0139C185090400D0704767
:103460000168CA6822F02002CA60CA6822F4807229
:10347000CA604A6922F001024A61202180F84210A4
:1034800000214163026B012A18BFFEF77BBF81B0A8
:1034900001634DF808EDFFF7FCFC5DF808EBF8D18F
:1034A00001680A68D20606D5002200920A680092D6
:1034B000496800910099818D01B0FEF7D6BD026880
:1034C00052686FF35F2221F8022B8162C2E700008D
:1034D000B0B50446006804F108030ECB056925F475
:1034E000405519432A4341F20C650261C268636981
:1034F000AA4319431143C1604169A26921F4407193
:10350000114341611149884202D0FEF7C1F801E040
:10351000FEF7C8F819214843D4E900120C4C920078
:10352000B0FBF2F06422B0FBF2F303FB04003224A0
:1035300004EB0010B0FBF2F000F0F00200F00F001E
:1035400002EB031210448860B0BD00BF0038014098
:103550009CFFFF0F0023C285436481622221828584
:1035600080F842100168006918B1C86840F48070A2
:10357000C860486940F001004861C86840F0200018
:10358000C860002070472DE9FC41044600681D46D4
:1035900090460F465E1C01683940B94221D0002E8A
:1035A000F9D0FDF711FDA0EB08010320A94216D8C0
:1035B000ADB12068C1684907EDD5402FEBD0802F11
:1035C000E9D001680907E6D500250195FFF779FCE8
:1035D000FFF7A7FC082084F8405060640120BDE894
:1035E000FC810020BDE8FC815048FEF741BD00BFD2
:1035F000FEE70000F8B58DF80F00642001210DF101
:103600000F02012302900D48CDE90021782100220C
:10361000FDF770FD8FBD00BFF8B58DF80F00642079
:1036200001210DF10F02012302900448CDE9002190
:1036300078214022FDF75EFD8FBD00BFD000002045
:10364000364801210160FDF707FEFFF7EEFDFFF7A9
:1036500057F9FFF7E5F9FFF705FAFFF74DFAFFF71E
:1036600025FAFFF7BFF9FFF729F9FFF76BFA2C4CA2
:103670002046FDF71FF92B48FEF788FB2A48FEF786
:1036800085FBDFF8A8802A4980224046FEF768FEC5
:10369000FFF796FAFFF774FAFFF7EAF8B448FFF776
:1036A000B6FBFFF7CDFA2046FDF7A0FA214D224EDA
:1036B000224FDFF87C92DFF888A02046FDF7DEF984
:1036C000800501D4688803E02046FDF7D9F96880B9
:1036D00080B2FCF7F6FD4FF066323346FCF77FFD13
:1036E00000223B46FCF77BFDFCF70BFE686000F018
:1036F00029F878B199F80000332805D1DAF80010DC
:10370000FFF748FB99F80000362803D1DAF80410D7
:10371000FFF740FBFFF768F8CFE700BF94000020F9
:10372000A00000208C010020D401002064020020B1
:10373000B40200204C00002066660A400000303FC2
:10374000000000202DE9F04F85B002204FF0000866
:103750004FF0010B704E714D04904FF40040CDF8C6
:103760000C80CDF808B0019001AF30463946A8472B
:103770004FF4E05006F50064FFF708FBDFF8A0A166
:1037800030464FF400410022D04720464FF480617C
:103790000022D04720464FF400610022D047204647
:1037A0004FF480510022D04740F2074006F5806672
:1037B0003946CDE9028B01903046A8470A20FDF733
:1037C00005FB30460121FDF7EDFBA0B1304602219B
:1037D000FDF7E8FB98B130460421FDF7E3FB90B11B
:1037E00030464FF48061FDF7DDFB00286CD14FF0CF
:1037F000020904200AE04FF00209012006E04FF020
:103800000209022002E04FF002090320CDE9000B7B
:10381000CDE902B801AF30463946A84730463946AF
:10382000CDF80490A8470420394601903046A847B7
:103830004FF4806B304639464FF00109CDF804B0A3
:10384000A847304601210022D047304602210022FD
:10385000D047304604210022D04730464FF48061E3
:103860000022D0472C4E4FF400403946CDE9028962
:1038700001903046A84720463946CDF804B0A84705
:103880004FF40060FFF782FA4FF48050FFF77EFAA2
:103890000A20FDF79BFA30464FF40041FDF782FB0A
:1038A000A0B120464FF48061FDF77CFB009D78B10C
:1038B00020464FF40061FDF775FB60B120464FF4E0
:1038C0008051FDF76FFB48B1002021E0009D07E02B
:1038D0004FF0040804E04FF0080801E04FF00C0836
:1038E00008EB050036210F4A104C0B2838BF2F215A
:1038F000014413680C48C154012020600C4C217015
:10390000591CCB1701EB137323F00F03C91A116075
:1039100005B0BDE8F08F00BF00080140F10D0008C0
:10392000BF0F0008AC02002024010020B0020020DC
:10393000400000201CB5F8210D4CFFF719FA0120BA
:10394000FDF744FA0B480DF10501FFF75BFAFFF7AD
:10395000CEFA1CBD1CB5FA21054CFFF709FA054843
:103960000DF10501FFF74EFAFFF7C1FA1CBD00BFCC
:1039700000100140340100200FB47CB50C0009ADEB
:1039800001D0611E00E00021CDE90001064B6A462E
:103990002946089800F0F0F8002C02D0009A002187
:1039A00011707CBC5DF814FBA74200080FB4084BF3
:1039B00010B504A902AA039800F0DEF8044602A993
:1039C000002000F07BFC204610BC5DF814FB0000DA
:1039D000BD42000802E008C8121F08C1002AFAD13F
:1039E00070477047002001E001C1121F002AFBD17F
:1039F000704700002DE9FF5F82B00021DDE904304F
:103A0000020DDDF840B0034318D044F61050A2F286
:103A1000FF3242431514119801281FD0A5EB0B006B
:103A2000401C5FEA000A4FF000064E4FDFF8389165
:103A3000B046504615D5CAF1000413E01198012490
:103A40004AA3012801D16FEA0B010298119AC0E93B
:103A50000031C0E9024206B0BDE8F09FCBF10000A2
:103A6000DFE704460021404A491842EB0450CDE903
:103A7000001012E0E00707D032463B464046494678
:103A8000FCF7ADFB8046894632463B461046194658
:103A9000FCF7A5FB06460F466410002CEAD1DDE9D1
:103AA0000401DDE90023BAF1000F06DAFCF797FB09
:103AB00042464B46FCF793FB05E0FCF7C0FD42464F
:103AC0004B46FCF7BCFD04460E460022284BFCF793
:103AD0003DFE03D84FF0FF30014607E00022254BA2
:103AE00020463146FCF704FDFCF718FE102409E0DF
:103AF000002C0ADB0A220023FCF735FC039B303242
:103B00001A55641E50EA0102F2D1641C039AC4F1F2
:103B100011031444119A012A03D0012208430DD144
:103B20000AE0084304D000204FF0110B119072E717
:103B3000A3EB0B056D1E0DE05B4504DD4FF00002AD
:103B400005F1010504E003DA4FF00002A5F10105DB
:103B5000002AECD002981199C0E90231C0E9004571
:103B600079E70000000014400000F03F3000000042
:103B70000000F0430000E03F2DE9FF4F95B09B4669
:103B80008946064600250FE2252877D100242746DE
:103B9000F84A0121059400E0044316F8013F203B58
:103BA00001FA03F01042F7D130782A2811D06FF0D3
:103BB0002F033078A0F13002092A16D8059A44F074
:103BC000020402EB820203EB42021044761C0590D1
:103BD000EFE759F8042B0592002A03DA504244F427
:103BE0000054059044F00204761C30782E2816D13B
:103BF00016F8010F44F004042A280DD06FF02F02AC
:103C00003078A0F13003092B09D807EB870302EBCA
:103C10004303C718761CF3E759F8047B761C307809
:103C20006C280FD006DC4C2817D068280DD06A28E5
:103C300014D104E0742810D07A280FD10DE044F498
:103C400000140AE044F4801401E044F44014727853
:103C5000824202D104F58014761C761C30786628E6
:103C60000BD013DC582877D009DC002875D0452804
:103C7000F6D04628F4D047281AD19DE118E06328F1
:103C800035D0642879D0652812D195E1702873D099
:103C900008DC6728F1D069286FD06E280DD06F2816
:103CA00006D1B5E073282CD0752875D0782874D04B
:103CB0005A46179990476D1C75E1C4F302500228CB
:103CC00009D003280DD0D9F8001004280DD00D60BC
:103CD00009F1040967E1D9F80010EA17C1E90052B7
:103CE000F6E7D9F800100D80F2E70D70F0E719F84B
:103CF000041B8DF8001000208DF80100EA46012019
:103D000003E059F804AB4FF0FF3061074FF00001BA
:103D100002D40DE008F101018846B9420FDA80456E
:103D2000F8DB1AF808100029F4D108E008F10101C5
:103D300088468142FADB1AF808100029F6D1059866
:103D40005B46A0EB080721463846179A00F094FA24
:103D5000284400EB080507E04DE029E10DE01AF8E2
:103D6000010B5A4617999047B8F10108F7D25B4604
:103D700021463846179A13E142E00A220092C4F322
:103D800002524FF0000A022A08D059F804CB032A45
:103D90004FEAEC710AD00DE029E02AE009F10701B1
:103DA00021F00702F2E802C1914609E00FFA8CFC0B
:103DB0004FEAEC71042A03D14FFA8CFC4FEAEC7104
:103DC000002907DA0A460021DCF1000C61EB020150
:103DD0002D2202E0220504D52B228DF80420012299
:103DE00003E0E20701D02022F7E7904659E00A21DC
:103DF00002E010220DE010214FF0000A00910BE0CC
:103E000010224FF0000A44F004040827009203E057
:103E100008224FF0000A0092C4F30252022A05D091
:103E200059F804CB0021032A08D009E009F1070161
:103E300021F00702F2E802C1914605E01FFA8CFC6E
:103E4000042A01D10CF0FF0C4FF00008220728D5FE
:103E5000702806D0009B83F0100353EA0A0305D0B4
:103E60000EE040228DF80420012208E05CEA010205
:103E700006D030228DF804208DF8050002229046ED
:103E8000009B83F0080353EA0A030AD15CEA0102AB
:103E900001D1620705D530228DF804204FF00108CA
:103EA0007F1E582804D034A003900EA802900DE085
:103EB00036A0F9E753466046009AFCF754FA844668
:103EC0000398825C0298401E029002705CEA010036
:103ED000F0D1029806A9081A00F1200A600702D55D
:103EE00024F4803400E00127574502DDA7EB0A00E7
:103EF00000E0002000EB0A01009005984144401AC0
:103F00000590E00306D45B462146179A059800F019
:103F1000B3F90544002706E001A85A46C05D179989
:103F200090476D1C7F1C4745F6DBE0030CD55B46D4
:103F30002146179A059800F09FF9054404E03020C7
:103F40005A46179990476D1C0099481E0090002909
:103F5000F5DC08E0029802995A460078491C029163
:103F6000179990476D1CBAF10001AAF1010AF1DC22
:103F700065E100000928010030313233343536372D
:103F800038396162636465660000000030313233A5
:103F90003435363738394142434445460000000045
:103FA00000F058F90544761C307800287FF4ECAD19
:103FB00019B02846BDE8F08F620700D4062709F142
:103FC000070222F0070CFCE80223E14603F0004858
:103FD0005FEA080C02D00FF2702C0DE05FEA045C7F
:103FE00002D50FF2682C07E05FEAC47C02D00FF222
:103FF000602C01E0AFF2700C4FF0FF3823F000436B
:10400000CDF850C065280CD006DC452809D04628DC
:104010001DD047283DD13DE0662818D067287ED1C5
:1040200038E00021112F01DB112000E0781CCDE9E0
:10403000000106A90EA8FFF7DDFCDDE90F010E9ACD
:1040400003910021009207F1010A04914DE04FF025
:1040500000400097CDE9011006A90EA8FFF7CAFCA1
:10406000DDE90F0203920E9B11990022DDF80CA0EE
:104070000093049211B9791C00EB010AB7EB0A0016
:1040800004D4C0F1FF3007F1010A0490AAEB070045
:10409000019044E0012F00DA01270021112F01DDFA
:1040A000112000E03846CDE9000106A90EA8FFF76F
:1040B000A1FCDDE90F010E9A039100210491009209
:1040C000BA4621070CD40399514500DA8A46BAF161
:1040D000010F05DD009AAAF10101515C302908D0D9
:1040E000B84202DA10F1040F06DA0121CDE901101D
:1040F00015E0AAF10101E9E7002805DC0499014473
:104100000491AAEB000102E0411C514500DD8A4602
:104110000499401A401C01904FF000400290200783
:1041200004D40198504501DBCDF8048000208DF8BF
:104130004F0002980DF14F07B0F1004F25D02B2012
:104140000E9002984FF0020800280CDA40420290CC
:104150002D200E9007E00A210298FCF7EEF830318E
:10416000029007F8011DB8F10001A8F10108F2DC86
:1041700002980028EFD1791E0E980870307800F070
:10418000200040F0450007F8020D12A8C01B00F106
:1041900007081498007800B1012000EB0A0101988B
:1041A00001EBE07105984144401A401E0590E00380
:1041B00006D45B462146179A059800F05DF8054441
:1041C0001498007818B15A46179990476D1CE0036F
:1041D00024D55B462146179A059800F04DF8054412
:1041E0001CE00498002807DBDDE90301884203DDB9
:1041F0000098405C179901E0179930205A46904783
:10420000049805F10105401C04900198401E01909E
:1042100004D12E205A46179990476D1CBAF100011F
:10422000AAF1010ADDDC05E017F8010B5A461799DF
:1042300090476D1CB8F10001A8F10108F4DC5B4661
:104240002146179A0598ABE62D0000002B000000D0
:10425000200000002DE9F041044600251E461746C7
:10426000880404D405E039462020B0476D1C641E44
:10427000F9D52846BDE8F0812DE9F0410446002536
:104280001E469046C80301D5302700E02027880449
:1042900004D505E041463846B0476D1C641EF9D58B
:1042A0002846BDE8F0814A68002A06D00A68531CF7
:1042B0000B6010704868401E486070470A68531CC5
:1042C0000B60107070470000000000000000010249
:1042D00003040607080900000000010203040000AF
:1042E000000000000000002F000000000700070091
:1042F00000147F147F1400242A7F2A1200626408AD
:104300001323003649552250000005030000000029
:104310001C224100000041221C000014083E081429
:104320000008083E0808000000A060000008080817
:104330000808000060600000002010080402003E31
:104340005149453E0000427F4000004261514946CC
:10435000002141454B31001814127F1000274545BC
:104360004539003C4A4949300001710905030036CE
:104370004949493600064949291E000036360000E1
:1043800000005636000000081422410000141414E6
:1043900014140000412214080002015109060032E1
:1043A0004959513E007C1211127C007F494949361F
:1043B000003E41414122007F4141221C007F49498A
:1043C0004941007F09090901003E4149497A007FBE
:1043D0000808087F0000417F4100002040413F0164
:1043E000007F08142241007F40404040007F020CC3
:1043F000027F007F0408107F003E4141413E007F64
:1044000009090906003E4151215E007F091929462C
:104410000046494949310001017F0101003F404008
:10442000403F001F2040201F003F4038403F0063B6
:1044300014081463000708700807006151494543D8
:1044400000007F41410000552A552A550000414196
:104450007F00000402010204004040404040000090
:1044600001020400002054545478007F484444382A
:1044700000384444442000384444487F00385454B1
:10448000541800087E0901020018A4A4A47C007F2F
:10449000080404780000447D4000004080847D00D2
:1044A000007F102844000000417F4000007C041879
:1044B0000478007C0804047800384444443800FC44
:1044C000242424180018242418FC007C0804040860
:1044D00000485454542000043F444020003C4040D5
:1044E000207C001C2040201C003C4030403C00440C
:1044F00028102844001CA0A0A07C004464544C4414
:104500001414141414140000000000000000000033
:10451000000000000000000000F8000000000000A3
:1045200000333000000000100C06100C06000000E4
:1045300000000000000040C07840C0784000043F08
:1045400004043F040400007088FC083000000018D8
:1045500020FF211E0000F008F000E01800000021FC
:104560001C031E211E0000F00888700000001E21A0
:1045700023241927211010160E000000000000004F
:10458000000000000000000000E01804020000002D
:1045900000071820400000020418E000000000405E
:1045A000201807000000404080F0804040000202D8
:1045B000010F01020200000000F0000000000101F4
:1045C000011F01010100000000000000000080B098
:1045D000700000000000000000000000000000016A
:1045E0000101010101010000000000000000003095
:1045F000300000000000000000008060180400602F
:1046000018060100000000E010080810E000000F8C
:10461000102020100F00001010F8000000000020F3
:10462000203F20200000007008080888700000303B
:1046300028242221300000300888884830000018E3
:10464000202020110E000000C02010F800000007FC
:104650000424243F240000F8088888080800001972
:10466000212020110E0000E0108888180000000FA3
:10467000112020110E0000380808C838080000007A
:10468000003F000000000070880808887000001CCF
:10469000222121221C0000E010080810E000000088
:1046A000312222110F00000000C0C00000000000F5
:1046B000003030000000000000800000000000001A
:1046C0008060000000000000804020100800000111
:1046D00002040810200040404040404040000404D4
:1046E000040404040400000810204080000000209E
:1046F000100804020100007048080808F0000000DB
:10470000003036010000C030C828E810E00007186B
:10471000272423140B000000C038E0000000203CD8
:1047200023020227382008F8888888700000203F7C
:10473000202020110E00C030080808083800071893
:1047400020202010080008F808080810E000203F8A
:10475000202020100F0008F88888E8081000203F6B
:1047600020202320180008F88888E8081000203F3F
:10477000200003000000C0300808083800000718B7
:104780002020221E020008F808000008F808203F38
:10479000210101213F20000808F80808000000203E
:1047A000203F2020000000000808F8080800C08012
:1047B00080807F00000008F888C028180800203F8B
:1047C00020012638200008F8080000000000203FE3
:1047D00020202020300008F8F800F8F80800203FDA
:1047E000003F003F200008F830C00008F808203FD4
:1047F000200007183F00E01008080810E0000F1024
:10480000202020100F0008F808080808F000203FBA
:10481000210101010000E01008080810E0000F1855
:10482000242438504F0008F8888888887000203F7A
:104830002000030C30200070880808083800003879
:10484000202121221C00180808F808081800000080
:10485000203F2000000008F808000008F808001FAA
:10486000202020201F000878880000C83808000099
:1048700007380E010000F80800F80008F800033CB3
:104880000700073C0300081868808068180820307B
:104890002C03032C30200838C800C838080000005A
:1048A000203F2000000010080808C8380800203801
:1048B000262120201800000000FE02020200000055
:1048C000007F40404000000C30C0000000000000AD
:1048D00000010638C00000020202FE000000004095
:1048E00040407F00000000000402020204000000BB
:1048F00000000000000000000000000000008080B8
:10490000808080808080000202040000000000009F
:10491000000000000000000080808080000000197E
:10492000242222223F2008F8008080000000003F5F
:10493000112020110E000000008080800000000E79
:10494000112020201100000000808088F800000E57
:10495000112020103F200000808080800000001F78
:10496000222222221300008080F0888888180020EC
:10497000203F202000000000808080808000006BAD
:1049800094949493600008F8008080800000203F99
:10499000210000203F2000809898000000000020A7
:1049A000203F20200000000000809898000000C0F8
:1049B0008080807F000008F8000080808000203F19
:1049C00024022D302000000808F80000000000201C
:1049D000203F202000008080808080808000203F59
:1049E00020003F20003F8080008080800000203F2A
:1049F000210000203F200000808080800000001FF8
:104A0000202020201F00808000808000000080FF88
:104A1000A12020110E000000008080808000000E88
:104A2000112020A0FF8080808000808080002020D6
:104A30003F21200001000000808080808000003342
:104A4000242424241900008080E0808000000000DD
:104A5000001F202000008080000000808000001FD8
:104A6000202020103F208080800000808080000176
:104A70000E300806010080800080008080800F30AA
:104A80000C030C300F00008080008080800000202C
:104A9000312E0E3120008080800000808080808157
:104AA0008E701806010000808080808080000021C8
:104AB000302C2221300000000000807C0202000027
:104AC0000000003F404000000000FF000000000028
:104AD0000000FF0000000002027C80000000004097
:104AE000403F000000000006010102020404000033
:104AF0000000000000004144433A00637572726593
:104B00006E74206B65793A00323032323136383982
:104B1000004C4544204431E6ADA3E4BBA5256448E0
:104B20007AE9A291E78E87E997AAE783810D0A00C7
:104B300059616E6748616F5469616E204B657933C6
:104B400020707265737365640032303232313638EA
:104B500039204B6579362070726573736564000087
:104B6000804B00080000002040000000D4390008FD
:104B7000C04B00084000002078070000E43900081E
:104B8000304B0008494B00080100000010000000F5
:104B9000F64A00088081828384858687909192936B
:104BA0009495969788898A8B8C8D8E8F98999A9BED
:104BB0009C9D9E9F00127A000100000000000000F2
:0400000508000131BD
:00000001FF
