:020000040800F2
:100000005007002045010008C9320008CF2C000825
:100010008932000857100008FD4000080000000069
:10002000000000000000000000000000653A000829
:1000300095100008000000006D390008673A0008BC
:100040005F0100085F0100085F0100085F01000810
:100050005F0100085F0100085F0100085F01000800
:100060005F0100085F0100085F0100085F010008F0
:100070005F0100085F0100085F0100085F010008E0
:100080005F0100085F0100085F0100085F010008D0
:100090005F0100085F0100085F0100085F010008C0
:1000A0005F0100085F0100085F0100085F010008B0
:1000B000CD3A0008D93A0008E53A00085F01000887
:1000C0005F0100085F0100085F0100085F01000890
:1000D0005F0100085F010008214000085F0100087F
:1000E0005F0100085F0100085F0100085F01000870
:1000F0005F0100085F0100085F0100085F01000860
:100100005F0100085F010008F13A00085F01000884
:100110005F0100085F0100085F0100085F0100083F
:100120005F0100085F0100085F0100085F0100082F
:10013000DFF80CD000F062FD004800474D41000898
:10014000500700200648804706480047FEE7FEE7C4
:10015000FEE7FEE7FEE7FEE7FEE7FEE7FEE7FEE777
:10016000C93A000831010008202A04DB203A21FAAC
:1001700002F00021704721FA02F3D040C2F12002C0
:10018000914008431946704740EA01039B0703D09A
:1001900009E008C9121F08C0042AFAD203E011F8C6
:1001A000013B00F8013B521EF9D27047D2B201E088
:1001B00000F8012B491EFBD270470022F6E710B56C
:1001C00013460A4604461946FFF7F0FF204610BDC5
:1001D00030B505462A460B4612F8010B13F8014BC1
:1001E00008B1A042F8D01CB1002802D06D1CF1E784
:1001F000284630BD421C10F8011B0029FBD1801A93
:10020000704700000FB400B58DB010A909900B9095
:1002100000914FF0FF300A9000200C9005480690A6
:10022000054807906A4609A80F9900F0A3FA0DB097
:100230005DF814FB91070008AF0700082DE9FF5F88
:100240001D464FF0FF3BD5E9014691465F464FF012
:100250000008A9697F1C01988847296A8246884757
:100260000028F6D1BAF1FF3F0CD024F4C064002E70
:1002700019DD600614D5BAF12B0F09D0BAF12D0F94
:100280000ED103E0584604B0BDE8F09F44F480640A
:10029000A9697F1C01988847761E8246002E02DDE0
:1002A000BAF1300F03D0B9F1000F26D032E0A969BE
:1002B000761E44F400747F1C019888478246002E05
:1002C00005DDBAF1780F06D0BAF1580F03D0B9F1B5
:1002D000000F10D01EE0B9F1000F02D0B9F1100FDD
:1002E00018D1A969761E24F400747F1C01988847F0
:1002F0008246102002E0082000E00A20814609E042
:1003000008FB0908A969761E44F400747F1C019853
:1003100088478246002E05DD4946504600F015FA12
:100320000028EDDAE96901988847A00502D46FF04A
:100330000100A8E7E00725D1600613D5600502D5C6
:10034000C8F1000000E0404629680A1D2A600968DB
:10035000220501D5087015E0220701D5088011E0BB
:1003600008600FE02868011D29600068210502D59A
:1003700080F8008006E0210702D5A0F8008001E0A7
:10038000C0F8008038467EE770B5064604F0EEF807
:10039000046805460A220021304600F019FA2C6054
:1003A00070BDF0B480EA0102D40F4200B2EB410FFD
:1003B00002D20246084611464A0042D0C30DDDB2C1
:1003C000C1F3C752AD1A202D35DAC1F3160141F43D
:1003D000000204B15242C5F1200602FA06F12A4198
:1003E0001044B3EBD05F23D0C4B1012DA0EBC350B8
:1003F00009DCF0BC4FF0004202EAC352DBB200F568
:10040000000000F026BA400000F1807000EBC350FD
:10041000A0F1807040EAD170490009E0490841EA42
:10042000C071A0EBC35000F50000400800EBC350C2
:10043000F0BC00F005BA6142012202EB4101001B51
:10044000F6E7F0BC704781F00041AAE780F0004079
:10045000A7E780EA010210B502F00043400022D075
:100460004A001FD0010E01EB1261C0F35600C2F327
:10047000560240F4000042F40002A0FB02200004F7
:100480007F39140400D0401C50EA124001D44000CF
:10049000491EC2B20C0604EBD010401C4008802A52
:1004A00002D003E0002010BD20F00100002900DA96
:1004B0000020184310BD30B480EA010202F000456C
:1004C00030F0004221F0004013D090B1C30DD40DA4
:1004D000C2F31601C0F31600E41A41F4000140F41F
:1004E00000027D34914201D3641C00E04900002CDD
:1004F00002DA30BC002070474FF400000023914224
:1005000001D3891A034340084FEA4101F7D151B1A1
:10051000914202D14FF0004105E002D24FF00101BB
:1005200001E06FF0010103EBC450284430BC00F03F
:1005300087B92DE9F04D81EA030404F0004B21F066
:10054000004514464FF0000A23F0004150EA05022E
:1005500020D054EA01021DD0C5F30A570246C5F364
:100560001303C1F31300C1F30A5640F4801543F49A
:100570008013A7EB0608101BD64608F2FD3873EB74
:10058000050002D308F1010801E092185B41B8F1BF
:10059000000F03DA00200146BDE8F08D00204FF483
:1005A0008011064684460EE0171B73EB050705D342
:1005B000121B63EB050306434CEA010C49084FEAA2
:1005C000300092185B4150EA0107EDD152EA030076
:1005D00012D082EA040083EA0501084305D0101B0B
:1005E000AB4106D20122002306E000224FF0004377
:1005F00002E06FF0010253101AEB06004CEB0851B9
:1006000010EB0A0041EB0B01BDE8F04D00F04FB9D3
:10061000002801DBC0F10040002901DBC1F10041ED
:10062000814201D30120704700207047002801DB80
:10063000C0F10040002901DBC1F10041814201D934
:100640000120704700207047C10F80EAE070084425
:10065000CA079623002100F0FCB896230022114619
:1006600000F0F7B800F0004220F00040C10DC0F3E8
:10067000160040F400007F2901DA00207047962917
:1006800003DCC1F19601C84001E096398840002A98
:10069000F4D04042704700F0004230F000400AD0F1
:1006A000C10D01F56071C0F3160042EA0151C208A4
:1006B00040071143704700200146704730B50B4694
:1006C000014600202022012409E021FA02F59D4282
:1006D00005D303FA02F5491B04FA02F52844151E56
:1006E000A2F10102F1DC30BD2DE9F05F05460020EA
:1006F00092469B4688460646814640241BE0284693
:10070000414647462246FFF72FFD53465A46C01A38
:10071000914110D311461846224600F087FA2D1A4F
:1007200067EB01084F4622460120002100F07EFAC7
:1007300017EB00094E41201EA4F10104DFDC4846FE
:1007400031462A464346BDE8F09F3A2800D2303869
:1007500020F02002412A01D3A2F13700884201D3C0
:100760004FF0FF30704700000268114413780160B9
:1007700018467047D1600449516104491162002153
:100780001161114600F082BA69070008790C00086F
:10079000426842B1016811F8013B23B1521EC0E921
:1007A0000012184670470121C160881E70474268D8
:1007B0005AB1C368016843B983688B4205D0491EAA
:1007C000521CC0E90012002070474FF0FF30704704
:1007D0002DE9F04791460F4680460446002614F85E
:1007E000015B2DB100F044FA0068405DC007F6D10E
:1007F0002B2D02D02D2D18D0641E4A463946204696
:1008000000F0DAFB27B13968A14201D1C7F80080B6
:1008100071054FF002040BD54042002803DD03F0C0
:10082000A5FE0460A007BDE8F08746F48066E4E713
:100830000028F8DA03F09AFE04606FF00040F2E757
:100840000029A8BF7047401C490008BF20F00100E4
:10085000704710B4B0FA80FC00FA0CF050EA0104C2
:1008600004BF10BC704749B1CCF1200421FA04F454
:1008700011FA0CF118BF012121430843A3EB0C012D
:10088000CB1D4FEA00614FEA102042BF002010BC90
:10089000704700EBC35010440029A4BF10BC704740
:1008A000401C490008BF20F0010010BC704710B583
:1008B000141E73F1000408DA401C41F10001921883
:1008C0005B411A4301D120F0010010BD2DE9F04D2C
:1008D00092469B4611B1B1FA81F202E0B0FA80F281
:1008E0002032904600F0A2F904460F4640EA0A0082
:1008F00041EA0B0153465A46084313D0114653EAC6
:10090000010019D0C8F140025046FFF72DFC054602
:100910000E4650465946424600F088F9084305D035
:10092000012004E020463946BDE8F08D0020054353
:1009300046EAE0762C4337430A986305E40AA0EBC5
:1009400008000022FD0A44EA47540A3002D500207C
:100950000146E9E7010510196941DDE9084500197B
:100960006941BDE8F04DA2E72DE9FE4F804681EADE
:100970000300C00F0C46009021F0004123F0004519
:10098000B8EB0200A94105D24046214690461C46DC
:100990000B46024623F00040104347D0270DC7F313
:1009A0000A00C3F30A510290401A019040286BDA02
:1009B000C3F3130040F4801B0098924620B100233B
:1009C000D2EB030A63EB0B0B01985946C0F14002CE
:1009D000504600F02BF906460D4650465946019AFE
:1009E00000F033F910EB08006141002487EA11524E
:1009F00084EAE7731A4340D0009A62B3019A012A4D
:100A00004FEA075215DC001B61EB02014FF0004278
:100A100002EA0752CDE90042001C41F5801132463E
:100A20002B46FFF753FF03B0BDE8F08F4046214649
:100A3000F9E7001B61EB0201001C41F5801300186F
:100A40005B412018A2F5001747EB030140EAD5707F
:100A5000B6196D4111E06D084FEA360645EAC075DA
:100A60004FEA0752001B61EB0201001C41F58011A7
:100A700049084FEA30000019514132462B4603B075
:100A8000BDE8F04FFFF713BF00980122400000239C
:100A9000D0EB020263EBE073009821464FEAE0746A
:100AA000B8EB000061EB0401E9E783F000435BE78A
:100AB00081F0004158E72DE9FE4F81EA030404F07C
:100AC000004421F0004100944FF0000B23F000435C
:100AD00050EA01045ED052EA03045BD0C3F30A5427
:100AE000C1F30A552C44A4F2F3340194A0FB025440
:100AF000C1F3130141F48011C3F3130343F48013D2
:100B000001FB024400FB034E840A970A44EA815425
:100B100047EA8357A4FB076802958D0A05FB078502
:100B20004FEA932C04FB0C542705029D4FEA06580C
:100B300047EA1637B5EB08056EEB070C870E920EE9
:100B400047EA811742EA8312A7FB0201B6EB0B01C9
:100B500064EB00042B0D43EA0C335E1844EB1C508D
:100B6000DA465146E7FB0201C5F313044FEA0B33A3
:100B700043EA14534FEA0432019C43EA0603A4F10A
:100B80000C040294009CCDE900B4FFF79FFE03B073
:100B9000BDE8F08F00200146F9E7C1F30A52C1F326
:100BA000130140F2FF3341F480119A4202DA00202F
:100BB0000146704740F233439A42A2F2334202DCCC
:100BC0005242FFF7D1BA00F031B8000030B5041E30
:100BD00071F1000404DB4FF00044404264EB01017A
:100BE000141E73F1000405DB1C464FF00043524213
:100BF00063EB0403994208BF904230BD1CB509481D
:100C00000090094801900546009C06E0E06840F02D
:100C1000010394E8070098471034AC42F6D3FFF77D
:100C20008BFA0000AC580008CC580008202A04DBDE
:100C3000203A00FA02F1002070479140C2F12003EF
:100C400020FA03F3194390407047202A06DBCB17A4
:100C5000203A41FA02F043EAE07306E041FA02F377
:100C6000D040C2F12002914008431946704700006D
:100C700000487047E84E000810B50446FFF7F8FF3B
:100C80000068005D00F0010010BD00002DE9F34F89
:100C90008BB04FF0000801F10C000C464FF0010B37
:100CA00046460DF1080A01906269012101989047BA
:100CB000051E2DD0252D2CD0216A8847C0B1626930
:100CC000012101989047216A88470028F7D1411EE9
:100CD00062690198904700E0761CA1690B988847EB
:100CE000216A88470028F7D1E1690B988847DBE73C
:100CF000A1690B9888470746A84201D1761CD3E723
:100D0000E1690B9888477F1C02D1B8F1000F6FD0C2
:100D100046E1002762693D463946019890472A28F6
:100D200004D162690121019890470125DFF884927E
:100D30006269012101989047A0F130010A290AD285
:100D40004F45E5DC07EB870100EB4107303FDFD47F
:100D500045F01005ECE7E90601D46FF000476C2878
:100D60000AD04C2814D0682815D06A280DD07428D1
:100D70001CD07A281AD01DE06269012101989047A1
:100D80006C2802D045F0040514E045F002050DE0A2
:100D900045F020050AE06269012101989047682822
:100DA00002D045F0080505E045F4006562690121BF
:100DB00001989047C4E9015765283DD019DC5828AF
:100DC0007AD00CDC452837D004DC252826D04128F1
:100DD00031D131E046282FD047282CD12CE05B2898
:100DE00077D0612828D063287CD0642823D15AE0AA
:100DF000D0E06F2848D008DC66281DD067281BD0BB
:100E0000692821D06E2816D127E0702845D0732894
:100E100068D0752847D078280DD14DE0A1690B988E
:100E20008847054625283FF469AFE1690B98884754
:100E30006D1C3FF46AAFB3E023466A466FF00100D1
:100E40000B99AFF300809EE045F040006060A8077A
:100E500023464FF0000236D43EE0E8077FF447AF68
:100E60002068011D21600068290501D506701BE777
:100E7000290701D5068017E7A90703D5F117C0E9AF
:100E8000006111E706600FE745F040006060A807C9
:100E900023464FF0080216D41EE040F60E0125EA64
:100EA0000100606016E045F040006060A80723463E
:100EB0004FF00A0207D40FE045F040006060A80739
:100EC00008D5234610226FF001000B99AFF3008084
:100ED00059E007E0234610226FF001000B99FFF75D
:100EE000ADF950E04FF000094F464B46632802D061
:100EF0005B2806D040E0E80601D40120A06001276D
:100F00003AE062690121019890475E2805D14FF0CF
:100F100001096269494601989047216939B9002160
:100F20000A46534643F82120491C0829FADBB0B38E
:100F3000216969B9C11700EBD16253110AEB830132
:100F400022F01F02821A01200B68904003430B60BD
:100F500062690121019890475D28E8D1B9F1000F3D
:100F600009D00020514651F82020D24341F82020DA
:100F7000401C0828F7DB02AB224600976FF0010007
:100F80000B99AFF3008000280CDA401C08D1BBF1AC
:100F9000000F05D04FF0FF300DB0BDE8F08FFFE738
:100FA0004046F9E7E90701D108F1010806444FF08E
:100FB000000B79E6CCCCCC0C2DE9F05F82460078B2
:100FC000002715468B460AF10104B946302801D0A6
:100FD0009DB113E014F8010B0127782803D058289D
:100FE00001D045B10AE00DB1102D07D10027102521
:100FF00014F8010B02E0082500E00A250026B0469F
:101000000EE005FB080005FB06F1012701EB104689
:101010001FFA80F8B6F5803F00D3B94614F8010BEB
:101020002946FFF792FB0028EBDABBF1000F05D051
:101030000FB1641E00E05446CBF80040B9F1000F38
:1010400006D003F093FA02210160C81EBDE8F09FAC
:1010500048EA0640FAE7FEE7022888BF7047B0B5C5
:101060000A490B4C01EAC0050120012120FA05F2D2
:10107000204600F0ACF94FF480700221E840C2B283
:101080002046BDE8B04000F0A2B900BFF8FFFF0065
:10109000001001407047EFF3108072B6FEE790F841
:1010A0002110022915D110B50168D0E90F230C6871
:1010B00024F00E040C600C6824F001040C60012183
:1010C00001FA03F3536080F821100021BDE81040BD
:1010D00002E0042181630121002280F820200846DB
:1010E0007047000090F8211002291AD110B502684B
:1010F000116821F00E011160116821F001011160E9
:101100002C4901F17C039A420FD9324B9A4226D0E6
:10111000314B9A4221D0314B9A4225D14FF4807302
:101120002AE004218163012142E0234B9A422CD022
:10113000224B9A422ED0224B9A4228D0214B9A42DF
:101140001DD0214B9A420CD0204B9A421AD0204BF2
:101150009A4206D14FF080721DE010230CE001236B
:101160000AE04FF4803216E001F588644FF48033D2
:10117000A24208BF4FF48053C1F800340CE04FF492
:10118000805208E04FF4801205E0012203E04FF4A2
:10119000807200E010220A600021012280F82010F5
:1011A00080F82120426B0AB190470021BDE8104031
:1011B0000846704704000240080002401C0002403C
:1011C0003000024044000240580002406C000240DF
:1011D00080000240080402401C0402403004024027
:1011E000B0B5044600F0F8F805460548611C0078E3
:1011F00018BF044400F0F0F8401BA042FAD3B0BD81
:10120000100000202DE9FC4F81465F4806234FF077
:10121000000C4FF001084FF00F0E4FF0000A81450F
:101220005A4808BF052348444FEAB022052A38BF70
:101230004FEAB023009300220C6834FA02F508BF8D
:10124000BDE8FC8F08FA02F714EA070500F0988061
:101250004C68032C16D9112C26D0122C32D04E48B3
:10126000844213D04D48844210D04D4884420DD062
:101270004C4884420AD04C48844207D04B488442B0
:1012800004D022E0DFE804F0021B14188C6844B19B
:10129000012C14BFC9F81470C9F810704FF0080A77
:1012A00013E04FF0040A10E0CC6804F1040A0CE0EB
:1012B000CC6804F1080A08E04FF0000A05E0D1F814
:1012C0000CA002E0CC6804F10C0A64464846B5F56F
:1012D000807F28BF203C28BF043006680EFA04F740
:1012E0000AFA04F4BE4334430460C879C00647D503
:1012F000D74B274F22F003061868BB463E4440F008
:101300000100186018682A4B00F0010001900CF0F1
:101310000C00019F0EFA00F49E46F758009B03FA5A
:1013200000F027EA04041B4B204346F80E004FF060
:101330000F0E4F68F802DBF8080054BF20EA0504DE
:1013400040EA0504CBF80840B802186854BF20EA08
:10135000050440EA05041C60B803DBF8040054BF30
:1013600020EA050440EA0504CBF80440F803DBF862
:10137000000054BF20EA050440EA0504CBF8004011
:101380000CF1040C013257E7001C014000F8FEBFCD
:10139000000401400C040140000011100000121074
:1013A0000000211000002210000031100000321057
:1013B00008FCFFFF8068084018BF01207047C26822
:1013C00002EA0103914341EA034101617047002AA7
:1013D00008BF090401617047A2480068704700BF58
:1013E00010B3F8B5044690F83D0020B902F0BAFAFF
:1013F000204600F0FFF802F085FA016841F4004150
:101400000160016821F40041016000F06BFA63683B
:10141000384A394993423CBF48F28041C0F21E012C
:10142000884203D20120F8BD0120704733494FF4B0
:101430007A77B0FBF1F521684E6826F03F062E431F
:101440004E604FF496766E43934228BFB6FBF7F595
:101450006A1C0D6A25F03F052A434CF6FF750A62A7
:10146000CA69AA43264DAB420AD85B000138B0FBDB
:10147000F3F001306FF31F30042898BF042013E00D
:10148000A56801383DB119256B4302F05CFA0AD01A
:1014900000F5804004E003EB430302F054FA02D06D
:1014A00000F5004000E00120104304F10C06C86183
:1014B000E0690A6822F0C0021043226A104348F231
:1014C000FF320860886890436CCE184310438860F0
:1014D000C86820F0FF0028433043C86002F0E0F9FC
:1014E00000202021206484F83D10206384F83E0011
:1014F000F8BD00BFA186010000093D0040420F0079
:10150000A08601002DE9FE43994602F0A4F90546A4
:1015100002F02AF90AD13549204601221923009503
:1015200001F068FC10B902F0E6F802D10220BDE833
:10153000FE8301220DF1280802F0EDF903D11368B2
:1015400043F001031360136823F400631360212246
:101550004B4602F076F926493246608DE162394603
:1015600020852046CDE9008501F0CAFB10B101209D
:10157000BDE8FE83218D080422D0204641462A463C
:1015800001F093FC10BB606A2268014611F8013B30
:101590001361638D013B63856162238D591E218533
:1015A00056697607E7D509044FF00001E3D041788A
:1015B00002301161991E6062218502F054F9DAE768
:1015C000204641462A4601F0F5FB30B1206C042844
:1015D000CDD1206802F054F8C9E72068016841F4D1
:1015E0000071016002F0C4F8BDE8FE830200100043
:1015F0000000FFFF10B586B00021CDE90411CDE950
:1016000002110168114881421DD13C4C00F538405F
:10161000216841F008012160216801F00801019171
:101620000321059112210391C0210291019902A980
:10163000FFF7E8FD606840F400106060606800F447
:1016400000100190019806B010BD00BF005400408A
:10165000181002401A48034900780A6810440860CC
:10166000704700BF4C03002080B59B48016841F0E3
:1016700010010160032000F077F80F2000F004F85B
:1016800000F020F8002080BD70B50D4E04464FF4E8
:101690007A713078B1FBF0F09C490968B1FBF0F049
:1016A00000F004FC01250F2C08D838B94FF0FF30AA
:1016B00021460022002500F031F87460284670BDF4
:1016C0001000002082B00D480222016841F00101A3
:1016D0000160016801F0010101910199416841F047
:1016E00080514160406800F08050009000980448AC
:1016F000016862F31A61016002B07047181002407D
:1017000004000140002805D4734601F078FF9E468E
:10171000014A8850704700BF00E100E0F0B5184B67
:101720004FF0FF361C68C4F30224E51E84F0070462
:1017300038BF002506FA05F7BA43042C28BF042455
:1017400006FA04F4A14300F00F04A940043C11433D
:10175000044A234409010244002848BF03F10C0253
:101760001170F0BD00E400E005494FF6FF030A6880
:101770001A4060F30A22034810430860704700BF14
:101780000CED00E00000FA05002873D02DE9F843C5
:101790000D4651490446086800F00700A84209D2E6
:1017A000086820F0070028430860086800F0070078
:1017B000A8426BD1206889468107634988461AD5BB
:1017C000410706D5D8F80010424641F4E061C8F858
:1017D0000010010706D5D8F80010424641F46051C8
:1017E000C8F80010A168D8F80020434622F0F002A3
:1017F0001143C8F80010C0073ED1D9F8000000F02E
:101800000700A8420CD9D9F8000020F007002843AF
:10181000C9F80000D9F8000000F00700A84235D14F
:101820002068410708D5E168D8F80020434622F433
:10183000E0621143C8F80010000709D52069D8F804
:101840000010424621F4605141EAC000C8F800008F
:1018500000F060F8D8F80010204AC1F30311515C81
:10186000C8402A4908601E480068FFF70DFF0020A5
:10187000BDE8F88301207047404658F8041C6068B2
:10188000022806D0012823D1890304D40120BDE811
:10189000F8838901FAD5D8F8001021F00301084334
:1018A000C8F80000FFF798FD064641F28837414628
:1018B0006068D8F8001001F00C01B1EB800F9CD0EB
:1018C000FFF78AFD801BB842F1D90320BDE8F883F9
:1018D0008907DBD5DFE700BF00200240EC4E00089F
:1018E00014000020E3481849094A00680968C1F358
:1018F0000221515CC8407047DE481349044A006821
:101900000968C1F3C221515CC84070471C00002027
:10191000FC4E000810B50C490C480A6802F00C0394
:10192000082B07D1C2F3834309A4D203E35C02D49A
:101930000C48584310BD096809A25843C1F34041FF
:10194000515CB0FBF1F010BD0410024000127A00AF
:1019500002030405060708090A0B0C0D0E0F1010F0
:101960000102000000093D00002843D02DE9FC41A0
:1019700004460078BD4EC0070BD0706800F00C0024
:10198000042839D13068800303D56068002800F04E
:10199000B6802078800717D5706810F00C0F05D03E
:1019A00001F04AFE42D17068C0033FD4306880071E
:1019B00003D52069012840F0A2806069316821F0D8
:1019C000F80141EAC0003060207800075ED5A069C8
:1019D00000283ED0A6480121C0F88014FFF7FCFC87
:1019E0000546706A800744D4FFF7F6FC401B0228C6
:1019F000F7D902E10120704701F01EFE02D17068A4
:101A0000C003BFD462683068002A20F4803100F03F
:101A1000F780B2F5A02F00F0DD80B2F5803F00F036
:101A2000DD803160306820F48020D9E02169904861
:101A3000002900F08F8001210160FFF7CDFC0546F1
:101A400030688007B9D4FFF7C7FC401B0228F7D9DC
:101A5000D3E087480021C0F88014FFF7BDFC05469D
:101A6000706A800712D5FFF7B7FC401B0228F7D930
:101A7000C3E080484FF4FA510068B0FBF1F00190E8
:101A800000BF0198411E00280191F9D1207840073C
:101A900014D4E7697FB101F0CFFD3ED1012F2ED0E4
:101AA000216A706800F480328A4228D1616A00F4A9
:101AB0007010884223D10020BDE8FC81F0695FEA04
:101AC000C00808D4F06940F08050F061F06900F07F
:101AD000805000900098684F3868C00512D438686C
:101AE00040F480703860FFF777FC05463868C00521
:101AF00008D4FFF771FC401B6428F7D97DE0012072
:101B0000BDE8FC81E168306A002948D0052931D060
:101B1000012933D001F06CFD32E0554900208846A0
:101B20000866FFF759FC0546022F09D1306880018D
:101B300079D5FFF751FC411B03200229F6D9BBE7F9
:101B400030688001B7D5FFF747FC411B032002290D
:101B5000F6D9B1E700210160FFF73EFC0546306889
:101B600080077FF531AFFFF737FC411B03200229C7
:101B7000F5D9A1E740F004003062306A40F001007E
:101B80003062FFF729FC054641F28837306A80074A
:101B900017D4FFF721FC401BB842F7D92DE001F024
:101BA00027FD3062FFF718FC054641F28837306A9E
:101BB000800706D5FFF710FC411B0320B942F6D978
:101BC0007AE7B8F1000F3FF564AFF06920F080507C
:101BD000F0615EE740F480203060306840F480308F
:101BE0003060FFF7F9FB0546306880033FF5D1AE62
:101BF000FFF7F2FB401B6428F6D90320BDE8FC8107
:101C00003160306820F480203060FFF7E5FB054646
:101C1000306880037FF5BDAEFFF7DEFB411B03207C
:101C20006429F5D948E7206AB0F5803F05D1A1685D
:101C3000726822F4003211437160616A726822F4A2
:101C400074121143084370600120C8F86000FFF768
:101C5000C3FB0446306880013FF52DAFFFF7BCFBA6
:101C6000011B03200229F5D926E700BF001002401E
:101C7000000042421C0000200070004070B530B1EE
:101C80000446406A28B100202061142006E00125A6
:101C900046E06068B0F5827F02D01C200021215010
:101CA0000025A56294F8510020B9204684F85050D0
:101CB00000F038F8022084F8510094E80F0001F495
:101CC000827102F404420668114403F40062114474
:101CD00026F040060660226902F0020211446269A1
:101CE00002F001021144A26902F400731944E3698D
:101CF00003F038031944236A03F080031943A36AED
:101D000003F4005319430160042101EA12414160C8
:101D1000C16921F40061C1610120656584F8510049
:101D2000284670BD70B586B0C54C00680026CDE968
:101D30000466CDE9026604F52051884225D1144895
:101D4000016841F480510160016801F48051019102
:101D50000199016841F004010160006800F004008D
:101D600001900320059002200390A020029001988A
:101D700002AD20462946FFF745FA40202946CDE925
:101D8000036602902046FFF73DFA06B070BD00BF23
:101D9000181002402DE9FC411D4616460F46044628
:101DA000FFF71AFB804694F85100012804D137B19F
:101DB0002EB101F0EBFC05D10220BDE8FC81012031
:101DC000BDE8FC810320012184F8510000206065FA
:101DD000E68684F85010A6862763A087A063C4E92E
:101DE0001000E087A1682068B1F5004F07D10168B5
:101DF00021F040010160016841F480410160016807
:101E0000490601D401F09FFCE2686168B2F5006FF9
:101E10001CD109B1012E01D101F077FC6E1CE08EBE
:101E200070B301F098FC08D4FFF7D6FA002EF6D074
:101E3000A0EB0800A842F2D335E0216B31F8022B69
:101E4000C2602163E08E0138E086E8E709B1012E27
:101E500002D1397801F07EFD6E1CE08E80B101F078
:101E60007AFC08D4FFF7B8FA002EF6D0A0EB0800F1
:101E7000A842F2D317E0216B097801F06BFDECE783
:101E800020462946424601F072FD08B120206065D7
:101E9000A06810B9002001F0D4FB01F088FC18BF45
:101EA0000120BDE8FC8101F009BC0000411E0020BA
:101EB000B0EB116F1CBF01207047044AF023516042
:101EC00003490B70072190601160704710E000E03B
:101ED00023ED00E07047704790F83C300222012B60
:101EE00029D010B580F83D2002680B68546824F0B2
:101EF00070041C439368B2F1804F54600ED0674C5D
:101F0000A2420BD0664CA24208D0664CA24205D039
:101F1000654CA24202D0654CA24204D1496823F02C
:101F20008003194391600022012180F83C2080F851
:101F30003D10BDE810401046704700BF58B110B5C5
:101F400001F072FC03D101F01CFC00F007F801F075
:101F5000EDFC01F07EBB012070470000FEB500687B
:101F6000002101F064FB00F140404FEAB02003285B
:101F70002AD8DFE800F0024D2B3C3048016841F0E0
:101F800001010160016801F001010191019950F81E
:101F9000041C41F0040140F8041C50F8040C00F04B
:101FA000040001900020CDE9030001200290019877
:101FB00002A92348FFF726F91C2001210022FFF780
:101FC000ADFB1C20FFF79EFB06B080BD1B48002226
:101FD000016841F0040101600021006800F0040084
:101FE000019001981E20FFF799FB1E2020E0134866
:101FF0000022016841F0080101600021006800F042
:102000000800019001983220FFF788FB32200FE092
:102010000A480022016841F00201016000210068C5
:1020200000F00200019001981D20FFF777FB1D20B2
:1020300006B0BDE88040FFF765BB00BF1C10024042
:102040000008014090F83D1001291CBF0120704795
:10205000022180F83D100068C168B0F1804F41F066
:102060000101C1600ED0CA4988420BD0C9498842DB
:1020700008D0C949884205D0C849884202D0C84919
:10208000884204D1724601F000FB964603D07246A6
:1020900001F01DFB96460020704700BF0004004081
:1020A00000080040000C004000340140002C0140BA
:1020B00010B501F0A8FB54D084F83D0001204FF684
:1020C000777384F83C00206882689A4382600A68CB
:1020D000C2B1102A16D0202A14D0302A12D0402A99
:1020E00033D0502A28D0602A13D0B2F5005F1CD01C
:1020F000B2F5805F32D0702A1CD101F04BFB41F069
:1021000077012AE0816821F07001114341F0070155
:1021100023E04B68CA68194601F046FE20688168D2
:1021200041F0670121F0100117E001F033FB41F4A9
:10213000804112E0012012E001F0BEFB20688168BE
:1021400041F0570121F0200107E001F0B5FB2068C4
:10215000816841F0470121F030018160002001F0E9
:10216000A4FB10BD0168B1F1804F00D07047017F22
:102170000129FBD1B0B5194C0021257800F07CFA7B
:1021800055B1E060E068A168884209D2A068E168C2
:10219000081A00F5803006E0A060012020701AE0E7
:1021A000E068A168401A2061206978B12069FEF7D3
:1021B00054FA01460A48FEF77EF9606109496069F0
:1021C000FEF779F90849FEF744F901E00020606163
:1021D000A061E068A060BDE8B040704754000020F6
:1021E000002474490000204100007042F8B501F05D
:1021F00068FB04BF0220F8BD01F01BFB61D8DFE8DB
:1022000001F0024E102CD5E90012EB68206801F0B5
:1022100097FD206850F8181F21F00C010160A96893
:102220004BE02268136A106A20F480701062D5E9CE
:102230000067D5E9021060F30717104650F81C5FDD
:1022400025F0F3053D430560750865F349231362E6
:10225000026822F00C0202602FE021684FF2FF07B3
:102260000A6A086A20F480500862D5E90030D5E98E
:10227000026500025B0820EA0707084663F34D3257
:1022800065F30F3750F81C5F25F473453D43056037
:102290000A62016821F44061016031020DE0D5E974
:1022A0000012EB68206801F091FD206850F8181FBB
:1022B00021F440610160A9680902026811430160CC
:1022C0000020002184F83C10F8BD58B110B501F091
:1022D000ABFA03D101F055FA00F006F801F026FB45
:1022E00001F0B7B9012070477047000010B50446EF
:1022F00041B1042909D0082919BF452041224420B1
:10230000402204E042203E2201E043203F22A35C21
:10231000225C0120012B08BF012A00D010BD022041
:1023200061B108290DD0042919BF84F8410084F84F
:10233000450084F83F0084F8430004E001F0C6FA49
:1023400001E001F00CFA4FEAB100032884BF01203C
:1023500010BD0E4A01F0C6F901F051FA0ED0B7498E
:1023600088420BD0B649884208D0B649884205D089
:10237000B549884202D0B549884202D101F085F9B9
:1023800001D001F0A4F9002010BD00BF1C570008C7
:102390000004004000080040000C004000340140F0
:1023A000002C014070B504460068C5680669B10795
:1023B00010D5A9070ED56FF0020101610121217727
:1023C0008069800702D001F04BFA01E001F002FAC7
:1023D00000202077700712D5680710D520686FF0AD
:1023E0000401016102212177806910F4407F02D04D
:1023F00001F036FA01E001F0EDF900202077300716
:1024000011D528070FD520686FF00801016104215C
:102410002177C069800702D001F022FA01E001F0C3
:10242000D9F900202077F00612D5E80610D52068EB
:102430006FF01001016108212177C06910F4407F1D
:1024400002D001F00DFA01E001F0C4F9002020777C
:10245000F00708D0E80706D020686FF0010101619D
:10246000204600F0F5F8300608D5280606D5206885
:102470006FF0800101612046FFF72CFD700608D542
:10248000680606D520686FF040010161204600F023
:10249000FDF8B00601D5A80600D470BD20686FF025
:1024A000200101612046BDE87040FFF714BD000027
:1024B000FEB50021006801F0BAF86049884217D1E2
:1024C0000C48016841F010010160006800F0100044
:1024D000019002200590039040200290019802A9EB
:1024E0006448FEF78FFE0448044A01681143016006
:1024F00006B080BD1810024004000140000C000727
:1025000070470000B0B501F0DCF904BF0220B0BD97
:1025100001F08FF937D8DFE801F002220A1A2068AB
:10252000294601F047FB206850F8181F06E0206894
:10253000294601F09FFB206850F81C1F41F008015C
:102540000160016821F004010160296917E0206839
:10255000294601F0BFFB206850F81C1F06E02068E8
:10256000294601F057FB206850F8181F41F400611C
:102570000160016821F48061016029690902026833
:10258000114301600020002184F83C10B0BD58B117
:1025900010B501F049F903D101F0F3F800F006F8A5
:1025A00001F0C4F901F055B8012070477047704739
:1025B00010B50446A1B1042904D0082914BF412054
:1025C000402000E03F20205C012811D10220082992
:1025D00010D0042914BF84F8410084F83F000BE0B8
:1025E00094F83E00012803D1022084F83E0003E065
:1025F000012010BD84F84000206801F08EF801F041
:10260000FEF814D00D49884211D00D4988420ED0F1
:102610000C4988420BD00C49884202D00B4A9042A8
:1026200008D101F06CF802D00849884202D101F0CB
:102630002CF801D001F04BF8002010BD0004004040
:1026400000080040000C004000340140002C014014
:102650000649884205D00649884208BF01F0E4BC1B
:10266000704704484FF40051FEF7A9BE5C010020FA
:10267000EC010020001001404FEAB10103298FBF97
:102680000020006800EB8100406B70477047704786
:1026900070470000F8B5044600680268C1684669E2
:1026A00015074FEA82633FD001F4907706F00106E8
:1026B000BF193DD0D70705D0CF0503D5676C47F0CC
:1026C00001076764570704D51EB1676C47F002071E
:1026D0006764920704D51EB1626C42F00402626422
:1026E000002D07D501F02002921903D0626C42F050
:1026F00008026264626C002A00F0E180002B05D5BC
:10270000890603D5204601F0A1FB20684069616C71
:1027100000F0400001F00801401847D12046FFF7C3
:10272000B7FF00206064CAE0002B01D58B0653D4AC
:10273000236B012B03D1D30601D5CB0651D413064D
:1027400001D50B0611D4520640F1B980490640F17B
:10275000B680C16821F04001C160202084F84100AA
:102760002046BDE8F84000F0B1BA94F841102129A4
:1027700040F0A580A168B1F5805F03D121690029EF
:1027800000F09E80216A4A1C226209784160E18C37
:102790000139E184090440F09280C16821F0800190
:1027A000C160C16841F04001C160F8BD00F0D0FFD8
:1027B00000F0B6FF4DD500F02BFFFCD1E06B0028F8
:1027C00047D043494163FEF78DFC002877D0E06B8A
:1027D000416BBDE8F84008472046BDE8F84001F0ED
:1027E00035BB00210091016800914168009100997A
:1027F0004069400632D4E08DA18DE28D002A5ED082
:1028000081425CD0081A216851E8031F226821F434
:10281000907142E80313002BF5D1216851E8051FA0
:10282000226821F0010142E80513002BF5D1202197
:1028300084F8421000212163216851E8031F2268B7
:1028400021F0100142E80313002BF5D1022161634E
:102850002FE02046BDE8F840FFF71ABFE06B0168A3
:1028600049688AB25AB3A38D9A4228D2E185806919
:10287000202819D0206850E8030F216820F48070C8
:1028800001F003F8F6D100F054FFFCD100F0C0FED7
:10289000FCD1202084F842000020206300F090FF4B
:1028A000FCD1E06BFEF7FBFB02206063A08DE18DA5
:1028B000401A81B22046BDE8F840FFF7E8BEF8BDF7
:1028C000216A31F8022B6FF35F22216242605EE7DA
:1028D000FF3D000890B110B5044690F8410008B9DA
:1028E00001F02BF800F095FF2068016921F4904178
:1028F0000161416921F02A0100F0EDBF012070471C
:1029000070B586B01D4C00680026CDE90466CDE99F
:102910000266A4F5444188422DD11948416841F42A
:1029200000314160416801F4003101910199016871
:1029300041F004010160006800F0040001900320F0
:1029400005900220039004200290019802AD2046D9
:102950002946FEF757FC08202946CDE90366029078
:102960002046FEF74FFC262002210022FEF7D6FE6D
:102970002620FEF7C7FE06B070BD00BF000801406C
:102980001810024010B590F84230202B06D139B112
:1029900032B10024046301F0F9FA02E0022400E0FD
:1029A0000124204610BD000000686349884206D01B
:1029B000624863A11E224FF47A7300F031B97CB5EE
:1029C000674C68A104F1350500F000FE30B100202D
:1029D000FEF742FB664D674866A109E069A100F079
:1029E000F5FDF8B10120FEF737FB614D684868A19D
:1029F0004A688B68C96885E80D00E9602846FDF7DC
:102A0000F9FB82B24D482946642300F009F9002001
:102A10000A2244F8350F2081606048482146FFF7BC
:102A2000B1FF7CBD5EA100F0D1FD60B10220FEF7D8
:102A300013FB4F4D5D485DA1D1E9012385E80D00F1
:102A4000087B2873DAE75DA100F0C0FD60B10120CA
:102A500000F01CFC5CA1464D5B480E1D4CCE85E889
:102A60004D00087C2874C9E75CA100F0AFFD68B197
:102A7000022000F00BFC5C483D4D90E84E0085E8DC
:102A80004E00018A807C2982A874B7E757A100F024
:102A90009DFDB8B1002107300191564901AAFDF70B
:102AA000B1FB012828D1019840F2E632411E914243
:102AB00026D85349C2B208705249096848632C4865
:102AC000514916E0514900F081FDE8B1002106307E
:102AD0006A4600914749FDF795FB012821D1009AEC
:102AE00042F22731A2F57A7088421ED820484A491E
:102AF000E26101F027FD1DE01D483F492E2217E04D
:102B00001B483E49322213E0194E44492A463046BA
:102B100001F018FD3046FDF76DFB82B207483146E3
:102B200072E713483A492D2202E011483949302210
:102B3000FDF72AFB0E4D61E7004400407C020020B7
:102B40004572726F723A20556E6B6E6F776E2055BC
:102B500041525420696E7374616E63650A0000000F
:102B600054000020666F72776172644D6F740000CC
:102B7000CC020020466F7277617264204D6F746FD3
:102B8000720D0A006261636B776172646D7400009C
:102B900052657665727365206D6F746F720D0A00F1
:102BA0007373746F706D6F746F72000073746F70F5
:102BB000206D6F746F720D0A000000007370656500
:102BC0006475706D74720000737065656420757053
:102BD000206D6F746F720D0A0000000073706565E0
:102BE00064646F776E6D0000D4570008737065657C
:102BF00064617400D057000818580008485800084D
:102C000020000020A40100207E570008C9570008BA
:102C1000E85700087C580008515700087157000811
:102C20002DE9F843044690F8410020281CBF0220FB
:102C3000BDE8F883884679B317466AB300201D467D
:102C40006064212084F84100FEF7C6FBE784064655
:102C5000A784A068B0F5805F01D1206998B34FF0D8
:102C600000094746E08CD0B12046802132462B46F1
:102C700001F0A5F908BB27B117F8010B21684860DE
:102C800006E039F8021B206800276FF35F214160DE
:102C9000E08C0138E084E5E70120BDE8F8832046B8
:102CA000402132462B4601F08AF9202184F8411058
:102CB000002818BF0320BDE8F883202084F84100D5
:102CC0000320BDE8F8830027C146CBE77047FEE745
:102CD0000268516949054FF000010FD56FF4806318
:102CE00053612022016380F83D2080F83E1080F877
:102CF0003C10016C41F00401016401210846704759
:102D00002DE9FE43044600680E460A9D0B9F994636
:102D10009046002201682B4641F4807101602046F4
:102D20004FF0011100F0FFFD48B120680068C005B8
:102D300044BF4FF4007020640320BDE8FE83206888
:102D400006F0FE012A463B4601611949204600F083
:102D50007CF810B10120BDE8FE8300203A460290C5
:102D600020684169029129468069029002982046B4
:102D700000F09BF830B1206C0428EBD1206800F003
:102D80007FFCE7E72068B9F1010F0AD04FEA18216C
:102D90003A4601612046294600F087F80028EAD12A
:102DA00020685FFA88F101610020BDE8FE8300BF62
:102DB00002000100F8B515460E4604464F1C206877
:102DC0004069400744BF0020F8BD2046FFF780FF60
:102DD00070B9002FF3D0FEF7FFFA401BB04201D8C4
:102DE000002EECD1206840694007E8D400F03FFD98
:102DF0000120F8BD2DE9F047DDF820900446984603
:102E0000164601F47F0018278DB203F1010AB0F5D0
:102E1000803F08BF142700F06CFD13D1BAF1000FFA
:102E2000F9D0FEF7D9FAA0EB0900404502D8B8F175
:102E3000000FF0D100F05DFDEDD100F018FD012094
:102E4000BDE8F0870020BDE8F0872DE9F041984605
:102E5000164604468FB2551C206841693940B94274
:102E600013D04169490513D4002DF5D0FEF7B4FA0B
:102E7000A0EB0800B04201D8002EEDD120684069D7
:102E80003840B842E8D0202008E00020BDE8F081BA
:102E900000F0F6FB6FF480614161042000F0A4FCB7
:102EA000084320640120BDE8F081F8B515460E46C0
:102EB00004464F1C20684069000644BF0020F8BD4E
:102EC0002046FFF705FF70B9002FF3D0FEF784FA14
:102ED000401BB04201D8002EECD1206840690006AA
:102EE000E8D400F0C4FC0120F8BD00000F49002028
:102EF0003022082802D00A540130FAE7B0B50C4D50
:102F00003220A8470B4C3020A0470220A8470220BF
:102F1000A8470C20A0470120A8470220A84701206D
:102F2000A04702202946BDE8B0400847980000208D
:102F3000E1110008E94400082DE9F04F85B00024B4
:102F40003448002242F21308CDE90344CDE901449C
:102F5000016841F010010160016801F01001009169
:102F60000099016841F020010160016801F0200131
:102F700000910099016841F004010160016801F0CD
:102F8000040100910099016841F00801016042F2DA
:102F90001301006800F00800009000981E4800F53A
:102FA000006605463046FEF712FA05F5806540F2E8
:102FB0003F41002240F23F492846FEF708FA4FF011
:102FC000020A4FF0010B3046CDE9018BCDE9034AEF
:102FD00001AFDFF848803946C04728463946CDE979
:102FE000034ACDE9019BC0474FF4FC5000F0F1FAD1
:102FF0003046C0474FF4004000F0EBFA0648C047A7
:103000004FF4007000F0E5FA2846C04705B0BDE86F
:10301000F08F00BF181002400008014005120008A0
:1030200010B50B480B4B0C4C00214FF48042C0E90B
:103030000043C0E90211C0E90421C0E906110162A0
:10304000FEF7CEF918B1BDE81040FEF724B810BD68
:10305000A0000020A086010000540040B0B50E483A
:1030600000210A240D4B4FF482724FF40075C0E921
:103070000A141024C0E90811C0E90032C0E90211A5
:10308000C0E90411C0E90654FEF7F8FD18B1BDE827
:10309000B040FEF700B8B0BD040100200030014090
:1030A00010B58AB01C4800214FF6FF7247234FF03D
:1030B00080440991CDE9071100F0B9FA00F08EFAC9
:1030C00008B1FDF7E8FF4FF480500690124806A9BA
:1030D000FEF7EEFF08B1FDF7DEFF0F48FFF7F5F84A
:1030E00008B1FDF7D8FF00240B48CDE9044404A93A
:1030F000FEF7F2FE08B1FDF7CEFF0120694600227F
:10310000CDE90244CDE900400348FFF76FF808B16C
:10311000FDF7C1FF0AB010BD5C01002010B58EB0F4
:1031200000241C210D94CDE90B44CDE9084401A8ED
:10313000FDF743F863481D4B40F2E73147228461B5
:10314000C0E90032C0E902410461FEF7F7FE08B1B0
:10315000FDF7A1FF4FF480500A905A480AA9FEF7E4
:10316000A7FF08B1FDF797FF5648FFF710FA08B11F
:10317000FDF791FF00245348CDE9084408A9FEF764
:10318000ABFE08B1FDF787FF60200594CDE902444E
:10319000002201904B4801A9FFF7B4F908B1FDF7EF
:1031A0007AFF4848FFF784F90EB010BD00040040D4
:1031B00010B586B01048114C002164224FF4E15341
:1031C0000591CDE9031100F009FA08B1FDF763FF9D
:1031D0004FF480500290084802A9FEF769FF08B139
:1031E000FDF759FF04486946FEF776FE08B1FDF782
:1031F00052FF06B010BD00BFEC01002000080040E7
:1032000010B586B01048114C00214FF4347242F2D0
:1032100010730591CDE9031100F0E0F908B1FDF755
:103220003AFF4FF480500290074802A9FEF740FF92
:1032300008B1FDF730FF04486946FEF74DFE08B1BE
:10324000FDF729FF06B010BD34020020000C00403D
:1032500010B50B480B4C00210C224FF4E133C0E9B0
:103260000043C0E90211C0E90412C0E90611FFF7EA
:1032700031FB18B1BDE81040FDF70DBF10BD00BF18
:103280007C02002000440040FEE700007149022853
:103290000A6809D001280FD1B2F5617FA8BF4FF4A9
:1032A000617202F1640005E0A2F16400B2F5967F5C
:1032B000D8BFC820086000E010460249096848638A
:1032C000704700BFA4010020FEE70020AFF300809C
:1032D000F8B5764E04460025E8B2072888BFF8BD49
:1032E00045F0B000C0B2B04700200027B047102022
:1032F000B04778B2002804D4204600F013FF01370D
:10330000F7E70135E8E700BF10B5C820FDF768FF13
:10331000664CAE20A0472020A0471020A047B02038
:10332000A047C020A0470020A0471020A047402071
:10333000A0478120A047FF20A047A020A047A620AB
:10334000A047A820A0473F20A047A420A047D32003
:10335000A0470020A047D520A047F020A047D920B3
:10336000A0472220A047DA20A0471220A047DB2058
:10337000A0472020A0478D20A0471420A047AF20C1
:103380002146BDE8104008472DE9FE43DFF8A08044
:103390002BA328A12CA2DFF8B890D8F800000128B0
:1033A00008BF0B46002818BF1A4600200021022340
:1033B000C84728480068FDF747F9FDF76CF9264B28
:1033C0000022FDF7B6F8264D244C264FCDE900012A
:1033D000082120462A46B84700200321224602231E
:1033E000C84721480068FDF756F904F10806CDE901
:1033F000000108212A463046B847D8F800001BA231
:10340000022818BF3246022005210223C8471C4863
:1034100010341CA2082103682046B8470020072169
:1034200022460123CC4603B0BDE8F043604700BF0D
:10343000580000206261636B7761726400000000D5
:1034400073746F7000000000666F727761726400C1
:10345000B13400081800002000408F4039000020DF
:103460004C570008114500086C0000204D6F746F28
:1034700072206861732073746F707065640000005F
:103480007000002025640000B0B50446A1F1500092
:10349000064DC0B2A84720091030A84704F00E001E
:1034A00029460130BDE8B040084700BF014100088F
:1034B0002DE9FE4F934688460646012B45D0022B48
:1034C0006BD1374D0021CDF804B0C8B21BF80040D5
:1034D000002C62D0F0B20291782888BF08F1010870
:1034E00088BF0026F7B25FFA88F13846FFF7CCFFB5
:1034F000A4F12000AA464FF00009C0B205EB001469
:103500004FEA001BB9F1080F06D014F8090000F0CB
:1035100009FE09F10109F5E708F10100C1B23846D9
:10352000FFF7B2FF0AEB0B00DDF804B055460027A9
:1035300000F10804082F04D0E05D00F0F3FD01372E
:10354000F8E7029908360131BFE7DFF858904FF0ED
:10355000000A5FFA8AF01BF80040F4B1F0B27E284E
:1035600088BF08F1010888BF00265FFA88F1F0B231
:10357000FFF78AFFA4F120000024C0B200EB400056
:1035800009EB4007062C04D0385D00F0CBFD013478
:10359000F8E70AF1010A0636DBE7BDE8FE8F00BF57
:1035A0002C510008044F000801228DF8051001017C
:1035B00000F0F0008DF807108DF80600204610216D
:1035C000FDF705BF39460190204628472846FCF7FD
:1035D000FFBD3946CDE9024401907047CDE90011A5
:1035E0008161C0E90043C0E902120161FEF7A6BC97
:1035F00020F001003062306A20F0040070471C2186
:10360000012201EAD00100F01F0002FA00F0704729
:10361000206850E8050F216820F0400041E80502CD
:10362000002A704703224FF47A73FEF7B3BBCDE94B
:103630000411CDE902117047706800F00C000828F1
:10364000704701902068C1680191806801900198DD
:103650007047012084F8460084F83E0084F83F005B
:1036600084F8400084F8410084F8420084F8430064
:1036700084F8440084F8450084F83D00002010BD23
:10368000016841F4007101607047816801F0070131
:1036900006297047016851E8051F026821F0010101
:1036A00042E80513002B7047016851E8031F0268C8
:1036B00021F0100142E80313002B7047002084F82A
:1036C0005000012084F851000320BDE8FC8101680E
:1036D00041F001010160704701680191406801906B
:1036E0000198704752F820202068C3681A43C260CE
:1036F000012200F04FBA94F83C0001287047426C58
:10370000884242F400424264704737F8021BC160AD
:103710002763E08E0138E0867047012200F03ABA54
:103720002068406940067047204610210022FDF7BE
:103730004EBE206850E8050F216820F0010041E8E6
:103740000502002A7047016841F04001016070479E
:10375000204600F05ABB206881688907704784F8CA
:10376000400084F84400704794F83D0020287047DA
:10377000202084F83D00002084F83C0084F83E00BE
:103780007047002084F83C002046704794F85000B1
:1037900001287047D1E90123C9681A4342EA01218F
:1037A000826822F47F421143816081687047012062
:1037B00084F85100002084F85000606D00287047A4
:1037C000206850E8030F216820F0100041E8030250
:1037D000002A70474DF808ED2046FEF791FE20467E
:1037E0005DF808EBFEF7E3BE00212022216384F898
:1037F0003D2084F83E1084F83C10216C704720680E
:10380000B0F1804F704790F83C2004460220012A16
:103810007047242084F841002068C16821F40051D9
:10382000C160204600F070BB044690F83D000028BF
:1038300070470D4601204FEAB201032984F83C008D
:10384000704784F83D20402284F83E200022226404
:1038500061856062704716460F460446FDF7BCBDA1
:103860002046FEF77FBC608D0138608570470020E0
:103870002021206384F83D1084F83E0084F83C0049
:10388000206C40F020002064704741E80302002AC9
:1038900070470262B8428C68D1F800C04568704732
:1038A000086840F0010008607047002184F83C106F
:1038B000012184F83D1070474B68CA68194600F032
:1038C0002DBA044690F83C000128704784F83E0069
:1038D00084F8420070474161C16841F40051C16001
:1038E00000202021606484F8411084F84210606355
:1038F00010BD2068C0592840401BB0FA80F0400934
:10390000B0427047242084F83D002068016821F00F
:1039100001010160704784F83C20226898E80301A7
:103920001368DB0770470097FFF764BA0220211D78
:1039300084F83D00206800F0E1B8002084F84000E1
:103940002046FEF7DDBFB0FBF3F001306FF31F3010
:10395000002870470173206B01302063E08E01382E
:10396000E0867047002084F83C00704770477CB5C3
:103970000D46164600920221012204462B4600F015
:1039800011F840B92046802100222B4600960026DF
:1039900000F008F820B1606D032640F0200060655B
:1039A00030467CBD2DE9F843089F1C4615460E465F
:1039B0008046FDF711FD381A0719FDF70DFD814608
:1039C000274801340068C0F3CB3078430090D8F822
:1039D000000081683140891BB1FA81F14909A9428F
:1039E0000FD0002CF5D0FDF7F7FCA0EB0900B84292
:1039F0000AD20098009901390091002808BF0746B3
:103A0000E5E70020BDE8F883D8E900014268B1F598
:103A1000827F22F0E00242600BD1D8F80810B1F5A5
:103A2000004F02D0B1F5806F03D1016821F0400151
:103A30000160D8F82810B1F5005F07D1016821F4C2
:103A400000510160016841F400510160002088F8D4
:103A50005000012088F851000320BDE8F88300BF22
:103A60001C0000207047FDF7F5BDB0B590B04FF4D5
:103A7000E010002402250F904FF48030CDE90B4474
:103A8000CDE909440D950E90CDE90704012006907B
:103A90000A9006A8FDF768FF18B1EFF3108072B620
:103AA000FEE74FF4806005940221CDE903400F202A
:103AB000CDE9010501A8FDF767FE18B1EFF310800D
:103AC00072B6FEE710B0B0BD704700000148FEF7C7
:103AD00069BC00BF5C0100200148FEF763BC00BF69
:103AE000A40100200148FEF75DBC00BFEC010020EE
:103AF0000148FEF757BC00BF3402002070B5A94A48
:103B00000368904222D0B0F1804F0BD0A14CA0426C
:103B100008D0A14CA04205D0A14CA04202D09F4C9D
:103B2000A04203D14C6823F070032343B0F1804FCF
:103B300010D0984CA0420DD0974CA0420AD0984C7F
:103B4000A04207D0954CA04204D007E04C6823F077
:103B500070032343CC6823F4407323434E6923F05E
:103B600080030C688D68334390420360C5628462B1
:103B700003D002F50062904201D10969016301217D
:103B800041610169C90703D0016921F001010161A7
:103B900070BD00BF10B501F01F010123046A8B4006
:103BA00002FA01F124EA03030362026A114301628B
:103BB00010BD0000F0B5036A026A794E22F00102DE
:103BC00023F00203A6F5006702628C68D1F800C0FA
:103BD000456823438469B84218BFB04210D1CA680F
:103BE00023F00C0322F004021343B84218BFB04282
:103BF00006D125F44072D1E905562A4342EA06056A
:103C000024F07302456042EA0C0282614968416314
:103C10000362F0BDF0B5036A026A614E22F0100241
:103C2000A6F5006723F02003FFF733FED0F818E075
:103C300018BFB04243EA041312D1CA686FF04004BF
:103C400023F0C00304EA02121343B84218BFB04283
:103C500006D125F44062D1E905452C4342EA8405AA
:103C60002EF4E642456042EA0C2282614968816393
:103C70000362F0BDF0B5036A026A494E22F4807215
:103C8000A6F5006723F40073FFF703FED0F81CE0ED
:103C900018BFB04243EA042312D1CA6840F2FF447D
:103CA00023F440631202A2431343B84218BFB04248
:103CB00006D125F44052D1E905452C4342EA0415CA
:103CC0002EF07302456042EA0C02C2614968C1638A
:103CD0000362F0BDF0B5026A036A314F23F48053EA
:103CE000B842036245680C688B68C66902D02D4FE4
:103CF000B84204D14F6925F4804545EA87154560EF
:103D000026F4E64545EA0424C4614968016422F4C6
:103D1000005141EA03310162F0BD00BF10B5036AF2
:103D2000046A24F001040462846924F0F00444EA83
:103D30000212826123F00A021143016210BD0000E9
:103D400070B5046A056AB0F1804F25F0010505627F
:103D500085690ED00F4EB0420BD00F4EB04208D046
:103D60000E4EB04205D00E4EB04202D00D4EB042C3
:103D70000CD125F003052A4363F3071201F00A0171
:103D8000826124F00A021144016270BD45F0010213
:103D9000F2E700BF0004004000080040000C0040B3
:103DA00000340140002C014010B5036A046A24F07D
:103DB00010040462846924F4704444EA023282618B
:103DC00023F0A00242EA0111016210BDB0B5046AFD
:103DD000056A120201F00A0125F0100505624FF292
:103DE000FF05AA4363F30F32836923F473431A4335
:103DF000826124F0A00242EA01110162B0BD406A72
:103E00000021C185C184FEF743BC016851E8031F4E
:103E1000026821F4907142E80313002BF5D14DF8AC
:103E200008EDFFF737FC5DF808EBF8D1016B0129CD
:103E300006D14DF808EDFFF737FC5DF808EBF8D137
:103E4000202180F8421000210163704790F8421051
:103E5000222920D183680246B3F5805F08D152F849
:103E6000281F52F8183C002B45D003685B6809E016
:103E700052F8281F13B90369002BF6D003685B685A
:103E800003F07F030B70116801311160C18D01399E
:103E9000C185090400D070470168CA6822F0200279
:103EA000CA60CA6822F48072CA604A6922F00102BC
:103EB0004A61202180F8421000214163026B012AEF
:103EC00018BFFEF771BD81B001634DF808EDFFF733
:103ED000EBFB5DF808EBF8D101680A68D20606D55D
:103EE000002200920A680092496800910099818D31
:103EF00001B0FEF7CCBB026852686FF35F2221F875
:103F0000022B8162C2E70000B0B50446006804F1EC
:103F100008030ECB056925F4405519432A4341F2A5
:103F20000C650261C2686369AA4319431143C16009
:103F30004169A26921F440711143416111498842EC
:103F400002D0FDF7CFFC01E0FDF7D6FC1921484374
:103F5000D4E900120C4C9200B0FBF2F06422B0FBEA
:103F6000F2F303FB0400322404EB0010B0FBF2F088
:103F700000F0F00200F00F0002EB03121044886022
:103F8000B0BD00BF003801409CFFFF0F0023C28579
:103F9000436481622221828580F8421001680069B1
:103FA00018B1C86840F48070C860486940F00100EA
:103FB0004861C86840F02000C860002070472DE9C3
:103FC000FC41044600681D4690460F465E1C016891
:103FD0003940B94221D0002EF9D0FDF7FDF9A0EB10
:103FE00008010320A94216D8ADB12068C16849076D
:103FF000EDD5402FEBD0802FE9D001680907E6D539
:1040000000250195FFF768FBFFF7A2FB082084F865
:10401000405060640120BDE8FC810020BDE8FC81C7
:10402000AB48FEF737BB00BF2DE9F84FDFF89C82A5
:10403000D8F81840D8E909B0D8F81C900090484644
:10404000FCF702FB2146FCF7FEF959460646C8F884
:104050002000FCF7F8F904462648D0E90071D0F8B2
:1040600008A03046FCF7F5F9054638462146FCF72E
:10407000F0F92946FCF795F9044658465946FCF7ED
:1040800090F901463046FCF7DEF9D8F82C10FCF721
:1040900088F901465046FCF7DCF92146FCF781F926
:1040A00001460098FCF77DF9134F0446C8F8280034
:1040B0003946FCF7BBFA28B9204600210027FCF757
:1040C000A7FA10B93C46C8F82870B9F1010FC8F832
:1040D0002460C8F82CB003DB2046FCF7C3FA04E0E8
:1040E0000020C8E90900C8F82C007649096848632F
:1040F000BDE8F88F0400002000C07944FEE700000E
:10410000F8B58DF80F00642001210DF10F02012395
:1041100002900D48CDE9002178210022FDF7F2F947
:104120008FBD00BFF8B58DF80F00642001210DF19F
:104130000F02012302900448CDE90021782140229A
:10414000FDF7E0F98FBD00BFA00000205A484FF0F6
:10415000010BC0F800B0FDF787FAFFF786FCFEF709
:10416000EBFEFEF77BFFFEF79BFFFFF749F8FEF73C
:10417000D5FFFEF755FFFFF76BF8FFF719F84F482B
:104180004F4CA0474F4F3846A0474F4D2846A047B9
:10419000284600210026FEF7A9F838460021FEF740
:1041A00007FA4A4D4A480A2205F13501FEF7EAFBB3
:1041B000FEF79CFE47484FF400510022FDF707F937
:1041C000FFF7A2F8FFF781F8434CDFF810A14FF09A
:1041D00002080FF20C1985F8306000F08DF8002805
:1041E00066D0A978207839B3A0F130026978092A1D
:1041F00098BF032955D9462805F1300719D045281D
:1042000056D1B1B13846FCF7BFF80246B0F57A7F17
:1042100050464946B8BF4FF4FA62EA6100F092F99D
:104220005046FBF7E7FF82B2294851466423FEF768
:10423000F7FCA5F801603AE0302804D10020FCF733
:104240000BFF20786E60342805D10120FCF704FFB5
:104250002078C5F804B0382805D10220FCF7FCFE10
:104260002078C5F80480352803D10120FFF70EF827
:104270002078392803D10120FFF708F82078362864
:1042800003D10220FFF702F82078412803D1022051
:10429000FEF7FCFF207846280AD16F1C85F802B093
:1042A00005E005F130025054481C687017183E7044
:1042B000FFF76AF891E700BF94000020EC010020AE
:1042C00045200008A40100205C01002054000020CB
:1042D0007C0200200010014028000020CC020020B9
:1042E0004B6579626F617264205365745F52504D03
:1042F0003A2025640D0A00002DE9F04F85B0022018
:104300004FF000084FF0010B704E714D04904FF4C8
:104310000040CDF80C80CDF808B0019001AF3046D8
:104320003946A8474FF4E05006F50064FFF74AF914
:10433000DFF8A0A130464FF400410022D0472046CC
:104340004FF480610022D04720464FF400610022E4
:10435000D04720464FF480510022D04740F207401A
:1043600006F580663946CDE9028B01903046A847B4
:104370000A20FCF735FF30460121FDF71BF8A0B1FC
:1043800030460221FDF716F898B130460421FDF7BA
:1043900011F890B130464FF48061FDF70BF800281A
:1043A0006CD14FF0020904200AE04FF0020901200D
:1043B00006E04FF00209022002E04FF0020903205C
:1043C000CDE9000BCDE902B801AF30463946A84728
:1043D00030463946CDF80490A8470420394601906C
:1043E0003046A8474FF4806B304639464FF00109FC
:1043F000CDF804B0A847304601210022D04730460E
:1044000002210022D047304604210022D047304606
:104410004FF480610022D0472C4E4FF400403946C3
:10442000CDE9028901903046A84720463946CDF8AB
:1044300004B0A8474FF40060FFF7C4F84FF4805071
:10444000FFF7C0F80A20FCF7CBFE30464FF40041DE
:10445000FCF7B0FFA0B120464FF48061FCF7AAFF43
:10446000009D78B120464FF40061FCF7A3FF60B1D6
:1044700020464FF48051FCF79DFF48B1002021E019
:10448000009D07E04FF0040804E04FF0080801E049
:104490004FF00C0808EB050036210F4A104C0B2892
:1044A00038BF2F21014413680C48C15401202060FB
:1044B0000C4C2170591CCB1701EB137323F00F0325
:1044C000C91A116005B0BDE8F08F00BF00080140B7
:1044D00005120008CF130008C4020020F4000020D9
:1044E000C8020020280000201CB5F821064CFFF768
:1044F0005BF80120FCF774FE04480DF10501FFF79D
:1045000091F8FFF711F91CBD0010014004010020D3
:104510000FB47CB50C0009AD01D0611E00E0002194
:10452000CDE90001064B6A462946089800F0F4F8E8
:10453000002C02D0009A002111707CBC5DF814FBA5
:10454000474E00080FB4084B10B504A902AA0398FF
:1045500000F0E2F8044602A9002000F07FFC2046AB
:1045600010BC5DF814FB00005D4E00080048704769
:104570000000002002E008C8121F08C1002AFAD17A
:1045800070477047002001E001C1121F002AFBD1D3
:10459000704700002DE9FF5F82B00021DDE90430A3
:1045A000020DDDF840B0034318D044F61050A2F2DB
:1045B000FF3242431514119801281FD0A5EB0B00C0
:1045C000401C5FEA000A4FF000064E4FDFF83891BA
:1045D000B046504615D5CAF1000413E011980124E5
:1045E0004AA3012801D16FEA0B010298119AC0E990
:1045F0000031C0E9024206B0BDE8F09FCBF10000F7
:10460000DFE704460021404A491842EB0450CDE957
:10461000001012E0E00707D032463B4640464946CC
:10462000FCF749FA8046894632463B461046194611
:10463000FCF741FA06460F466410002CEAD1DDE98A
:104640000401DDE90023BAF1000F06DAFCF733FAC2
:1046500042464B46FCF72FFA05E0FBF76AFF42465D
:104660004B46FBF766FF04460E460022284BFCF73C
:10467000ADFA03D84FF0FF30014607E00022254B8A
:1046800020463146FCF770F9FCF787FA102409E060
:10469000002C0ADB0A220023FCF726F8039B3032A9
:1046A0001A55641E50EA0102F2D1641C039AC4F147
:1046B00011031444119A012A03D0012208430DD199
:1046C0000AE0084304D000204FF0110B119072E76C
:1046D000A3EB0B056D1E0DE05B4504DD4FF0000202
:1046E00005F1010504E003DA4FF00002A5F1010530
:1046F000002AECD002981199C0E90231C0E90045C6
:1047000079E70000000014400000F03F3000000096
:104710000000F0430000E03F2DE9FF4F95B09B46BD
:104720008946064600250FE2252877D10024274632
:10473000F84A0121059400E0044316F8013F203BAC
:1047400001FA03F01042F7D130782A2811D06FF027
:104750002F033078A0F13002092A16D8059A44F0C8
:10476000020402EB820203EB42021044761C059025
:10477000EFE759F8042B0592002A03DA504244F47B
:104780000054059044F00204761C30782E2816D18F
:1047900016F8010F44F004042A280DD06FF02F0200
:1047A0003078A0F13003092B09D807EB870302EB1F
:1047B0004303C718761CF3E759F8047B761C30785E
:1047C0006C280FD006DC4C2817D068280DD06A283A
:1047D00014D104E0742810D07A280FD10DE044F4ED
:1047E00000140AE044F4801401E044F440147278A8
:1047F000824202D104F58014761C761C307866283B
:104800000BD013DC582877D009DC002875D0452858
:10481000F6D04628F4D047281AD19DE118E0632845
:1048200035D0642879D0652812D195E1702873D0ED
:1048300008DC6728F1D069286FD06E280DD06F286A
:1048400006D1B5E073282CD0752875D0782874D09F
:104850005A46179990476D1C75E1C4F3025002281F
:1048600009D003280DD0D9F8001004280DD00D6010
:1048700009F1040967E1D9F80010EA17C1E900520B
:10488000F6E7D9F800100D80F2E70D70F0E719F89F
:10489000041B8DF8001000208DF80100EA4601206D
:1048A00003E059F804AB4FF0FF3061074FF000010F
:1048B00002D40DE008F101018846B9420FDA8045C3
:1048C000F8DB1AF808100029F4D108E008F101011A
:1048D00088468142FADB1AF808100029F6D10598BB
:1048E0005B46A0EB080721463846179A00F094FA79
:1048F000284400EB080507E04DE029E10DE01AF837
:10490000010B5A4617999047B8F10108F7D25B4658
:1049100021463846179A13E142E00A220092C4F376
:1049200002524FF0000A022A08D059F804CB032A99
:104930004FEAEC710AD00DE029E02AE009F1070105
:1049400021F00702F2E802C1914609E00FFA8CFC5F
:104950004FEAEC71042A03D14FFA8CFC4FEAEC7158
:10496000002907DA0A460021DCF1000C61EB0201A4
:104970002D2202E0220504D52B228DF804200122ED
:1049800003E0E20701D02022F7E7904659E00A2130
:1049900002E010220DE010214FF0000A00910BE020
:1049A00010224FF0000A44F004040827009203E0AC
:1049B00008224FF0000A0092C4F30252022A05D0E6
:1049C00059F804CB0021032A08D009E009F10701B6
:1049D00021F00702F2E802C1914605E01FFA8CFCC3
:1049E000042A01D10CF0FF0C4FF00008220728D553
:1049F000702806D0009B83F0100353EA0A0305D009
:104A00000EE040228DF80420012208E05CEA010259
:104A100006D030228DF804208DF805000222904641
:104A2000009B83F0080353EA0A030AD15CEA0102FF
:104A300001D1620705D530228DF804204FF001081E
:104A40007F1E582804D034A003900EA802900DE0D9
:104A500036A0F9E753466046009AFBF745FE8446C8
:104A60000398825C0298401E029002705CEA01008A
:104A7000F0D1029806A9081A00F1200A600702D5B1
:104A800024F4803400E00127574502DDA7EB0A003B
:104A900000E0002000EB0A01009005984144401A14
:104AA0000590E00306D45B462146179A059800F06E
:104AB000B3F90544002706E001A85A46C05D1799DE
:104AC00090476D1C7F1C4745F6DBE0030CD55B4629
:104AD0002146179A059800F09FF9054404E030201C
:104AE0005A46179990476D1C0099481E009000295E
:104AF000F5DC08E0029802995A460078491C0291B8
:104B0000179990476D1CBAF10001AAF1010AF1DC76
:104B100065E1000009280100303132333435363781
:104B200038396162636465660000000030313233F9
:104B30003435363738394142434445460000000099
:104B400000F058F90544761C307800287FF4ECAD6D
:104B500019B02846BDE8F08F620700D4062709F196
:104B6000070222F0070CFCE80223E14603F00048AC
:104B70005FEA080C02D00FF2702C0DE05FEA045CD3
:104B800002D50FF2682C07E05FEAC47C02D00FF276
:104B9000602C01E0AFF2700C4FF0FF3823F00043BF
:104BA000CDF850C065280CD006DC452809D0462831
:104BB0001DD047283DD13DE0662818D067287ED11A
:104BC00038E00021112F01DB112000E0781CCDE935
:104BD000000106A90EA8FFF7DDFCDDE90F010E9A22
:104BE00003910021009207F1010A04914DE04FF07A
:104BF00000400097CDE9011006A90EA8FFF7CAFCF6
:104C0000DDE90F0203920E9B11990022DDF80CA042
:104C10000093049211B9791C00EB010AB7EB0A006A
:104C200004D4C0F1FF3007F1010A0490AAEB070099
:104C3000019044E0012F00DA01270021112F01DD4E
:104C4000112000E03846CDE9000106A90EA8FFF7C3
:104C5000A1FCDDE90F010E9A03910021049100925D
:104C6000BA4621070CD40399514500DA8A46BAF1B5
:104C7000010F05DD009AAAF10101515C302908D02D
:104C8000B84202DA10F1040F06DA0121CDE9011071
:104C900015E0AAF10101E9E7002805DC04990144C7
:104CA0000491AAEB000102E0411C514500DD8A4657
:104CB0000499401A401C01904FF0004002902007D8
:104CC00004D40198504501DBCDF8048000208DF814
:104CD0004F0002980DF14F07B0F1004F25D02B2067
:104CE0000E9002984FF0020800280CDA4042029021
:104CF0002D200E9007E00A210298FBF7DFFC3031EF
:104D0000029007F8011DB8F10001A8F10108F2DCDA
:104D100002980028EFD1791E0E980870307800F0C4
:104D2000200040F0450007F8020D12A8C01B00F15A
:104D300007081498007800B1012000EB0A010198DF
:104D400001EBE07105984144401A401E0590E003D4
:104D500006D45B462146179A059800F05DF8054495
:104D60001498007818B15A46179990476D1CE003C3
:104D700024D55B462146179A059800F04DF8054466
:104D80001CE00498002807DBDDE90301884203DD0D
:104D90000098405C179901E0179930205A469047D7
:104DA000049805F10105401C04900198401E0190F3
:104DB00004D12E205A46179990476D1CBAF1000174
:104DC000AAF1010ADDDC05E017F8010B5A46179934
:104DD00090476D1CB8F10001A8F10108F4DC5B46B6
:104DE0002146179A0598ABE62D0000002B00000025
:104DF000200000002DE9F041044600251E4617461C
:104E0000880404D405E039462020B0476D1C641E98
:104E1000F9D52846BDE8F0812DE9F041044600258A
:104E20001E469046C80301D5302700E0202788049D
:104E300004D505E041463846B0476D1C641EF9D5DF
:104E40002846BDE8F0814A68002A06D00A68531C4B
:104E50000B6010704868401E486070470A68531C19
:104E60000B60107070470040404040404040404060
:104E7000414141414140404040404040404040402D
:104E8000404040404040400502020202020202024D
:104E900002020202020202202020202020202020E4
:104EA0002002020202020202909090909090101054
:104EB00010101010101010101010101010101010F2
:104EC0001010020202020202888888888888080876
:104ED0000808080808080808080808080808080852
:104EE0000808020202024000674E000800000000AD
:104EF000000000000102030406070809000000008A
:104F0000010203040000000000000000002F000068
:104F100000000700070000147F147F1400242A7F7C
:104F20002A120062640813230036495522500000FB
:104F30000503000000001C224100000041221C006B
:104F40000014083E08140008083E0808000000A0ED
:104F500060000008080808080000606000000020E9
:104F600010080402003E5149453E0000427F4000C7
:104F7000004261514946002141454B31001814124D
:104F80007F10002745454539003C4A49493000011A
:104F90007109050300364949493600064949291E69
:104FA00000003636000000005636000000081422CB
:104FB00041000014141414140000412214080002CB
:104FC0000151090600324959513E007C1211127CF0
:104FD000007F49494936003E41414122007F41411D
:104FE000221C007F49494941007F09090901003E0F
:104FF0004149497A007F0808087F0000417F41004D
:10500000002040413F01007F08142241007F4040C2
:105010004040007F020C027F007F0408107F003EAA
:105020004141413E007F09090906003E4151215E90
:10503000007F091929460046494949310001017F8D
:105040000101003F4040403F001F2040201F003F23
:105050004038403F006314081463000708700807D5
:1050600000615149454300007F41410000552A55E8
:105070002A55000041417F00000402010204004063
:105080004040404000000102040000205454547885
:10509000007F4844443800384444442000384444A5
:1050A000487F00385454541800087E090102001843
:1050B000A4A4A47C007F080404780000447D400080
:1050C000004080847D00007F102844000000417F64
:1050D0004000007C04180478007C08040478003840
:1050E0004444443800FC242424180018242418FCC8
:1050F000007C0804040800485454542000043F4431
:105100004020003C4040207C001C2040201C003CF3
:105110004030403C004428102844001CA0A0A07C43
:10512000004464544C44141414141414000000007B
:10513000000000000000000000000000000000F877
:1051400000000000000000333000000000100C06DA
:10515000100C0600000000000000000040C0784075
:10516000C0784000043F04043F040400007088FC41
:1051700008300000001820FF211E0000F008F00099
:10518000E018000000211C031E211E0000F008880A
:10519000700000001E2123241927211010160E0074
:1051A000000000000000000000000000000000E01F
:1051B0001804020000000007182040000002041834
:1051C000E00000000040201807000000404080F090
:1051D000804040000202010F01020200000000F0C6
:1051E000000000000101011F01010100000000009A
:1051F0000000000080B0700000000000000000000F
:105200000000000000010101010101010000000097
:10521000000000000030300000000000000000002E
:1052200080601804006018060100000000E010080B
:105230000810E000000F102020100F00001010F8E0
:10524000000000000020203F20200000007008081F
:10525000088870000030282422213000003008889F
:10526000884830000018202020110E000000C020C7
:1052700010F8000000070424243F240000F80888E8
:10528000880808000019212020110E0000E0108875
:1052900088180000000F112020110E0000380808A7
:1052A000C83808000000003F0000000000708808B7
:1052B00008887000001C222121221C0000E0100838
:1052C0000810E0000000312222110F00000000C091
:1052D000C00000000000003030000000000000802E
:1052E000000000000000806000000000000080401E
:1052F0002010080000010204081020004040404037
:105300004040400004040404040404000008102089
:1053100040800000002010080402010000704808CE
:105320000808F0000000003036010000C030C82836
:10533000E810E0000718272423140B000000C038F1
:10534000E0000000203C23020227382008F888886B
:1053500088700000203F202020110E00C030080877
:1053600008083800071820202010080008F808084E
:105370000810E000203F202020100F0008F8888847
:10538000E8081000203F20202320180008F8888813
:10539000E8081000203F200003000000C03008088B
:1053A0000838000007182020221E020008F8080014
:1053B0000008F808203F210101213F20000808F8DB
:1053C000080800000020203F2020000000000808FE
:1053D000F8080800C08080807F00000008F888C0BE
:1053E00028180800203F20012638200008F808006F
:1053F00000000000203F20202020300008F8F800A6
:10540000F8F80800203F003F003F200008F830C0B7
:105410000008F808203F200007183F00E0100808A7
:105420000810E0000F10202020100F0008F80808D6
:105430000808F000203F210101010000E0100808E9
:105440000810E0000F18242438504F0008F888880E
:1054500088887000203F2000030C302000708808EE
:10546000080838000038202121221C00180808F8FC
:10547000080818000000203F2000000008F808007D
:105480000008F808001F202020201F00087888004E
:1054900000C83808000007380E010000F80800F8BE
:1054A0000008F800033C0700073C03000818688068
:1054B0008068180820302C03032C30200838C800DE
:1054C000C83808000000203F20000000100808082D
:1054D000C83808002038262120201800000000FECF
:1054E000020202000000007F40404000000C30C07B
:1054F00000000000000000010638C00000020202A7
:10550000FE000000004040407F0000000000040258
:105510000202040000000000000000000000000083
:105520000000000080808080808080800002020473
:10553000000000000000000000000000000080806B
:10554000808000000019242222223F2008F80080D9
:1055500080000000003F112020110E00000000809C
:1055600080800000000E112020201100000000802B
:105570008088F800000E112020103F20000080805D
:1055800080800000001F222222221300008080F071
:10559000888888180020203F20200000000080809C
:1055A00080808000006B94949493600008F80080E1
:1055B00080800000203F210000203F20008098983C
:1055C000000000000020203F20200000000000809C
:1055D0009898000000C08080807F000008F80000DC
:1055E00080808000203F24022D302000000808F831
:1055F000000000000020203F2020000080808080EC
:1056000080808000203F20003F20003F808000807D
:1056100080800000203F210000203F20000080808B
:1056200080800000001F202020201F00808000803C
:105630008000000080FFA12020110E0000000080EB
:1056400080808000000E112020A0FF8080808000DC
:105650008080800020203F21200001000000808009
:10566000808080000033242424241900008080E0FE
:10567000808000000000001F2020000080800000CB
:1056800000808000001F202020103F2080808000AC
:105690000080808000010E300806010080800080BC
:1056A000008080800F300C030C300F0000808000E1
:1056B000808080000020312E0E312000808080000C
:1056C0000080808080818E701806010000808080BC
:1056D000808080000021302C22213000000000005A
:1056E000807C020200000000003F404000000000FB
:1056F000FF00000000000000FF0000000002027C2C
:10570000800000000040403F000000000006010152
:10571000020204040000000000000000020000007B
:10572000040000000800000010000000FDFFFFFF63
:10573000FBFFFFFFF7FFFFFFEFFFFFFFFFFDFFFF97
:10574000FFFBFFFFFFF7FFFFFFEFFFFF252E316697
:1057500000E8AEBEE7BDAEE79BAEE6A087E8BDAC15
:10576000E9809FE4B8BA3A2025642052504D0D0AD2
:1057700000E694B6E588B03A2025730D0A004E4540
:10578000572050574D2564487AE9A291E78E87E962
:1057900097AAE783810D0A0059616E6748616F54CB
:1057A00069616E204B65793320707265737365642F
:1057B0000A003230323231363839204B65793620A2
:1057C000707265737365640A0073706565643A008E
:1057D00025640000737065656420646F776E206DCA
:1057E0006F746F720D0A0000E6A0BCE5BC8FE994EF
:1057F00099E8AFAFEFBC8CE8AFB7E8BE93E585A5FD
:1058000073706565643AE5908EE8B79FE695B0E5FC
:10581000AD970D0A00000000E6A0BCE5BC8FE9943E
:1058200099E8AFAFEFBC8CE8AFB7E8BE93E585A5CC
:1058300073706565646174E5908EE8B79FE695B016
:10584000E5AD970D0A000000E697A0E69588E99778
:10585000AAE78381E9A291E78E87EFBC8CE8AFB716
:10586000E8BE93E585A5312D393939E4B98BE9973F
:10587000B4E79A84E580BC0D0A000000E697A0E634
:105880009588E8BDACE9809FEFBC8CE8AFB7E8BE77
:1058900093E585A5313030302D39393939E4B98B6C
:1058A000E997B4E79A84E580BC0D0A00D058000857
:1058B000000000202800000074450008F858000887
:1058C0002800002028070000844500080000000090
:1058D0000000000000000040CDCC4C3ECDCCCC3DC3
:1058E00001000000100000006400000000127A00B7
:0858F0000100000000000000AF
:0400000508000131BD
:00000001FF
